{
	"data": {
		"bytecode": {
			"linkReferences": {},
			"object": "608080604052346100325760006005819055600655600480546001600160a01b0319163317905561205890816100388239f35b600080fdfe608080604052600436101561001357600080fd5b60003560e01c90816325ab292e14611bf457508063294a58061461196557806333bcc38814611735578063379cc80d1461144057806345b0f171146114225780635013ad87146113f957806362f595011461111b57806375e5a87114610df05780639cfd369914610db65780639ec802ff14610d8e578063bbd9f9b114610b48578063c08d1fe514610b2b578063c5fe01e414610816578063d1706b6c146104815763f93be9e3146100c457600080fd5b3461047c57602036600319011261047c576100dd611c0f565b6100f260018060a01b03600454163314611def565b60018060a01b038116600052600060205261011260406000205415611e61565b60018060a01b038116600052600160205260406000205490816000526003602052610149600160ff60406000205416151514611ee1565b816000526002602052604060002090604051916101c083019183831067ffffffffffffffff8411176104665761022c9260405260ff600d60018060a01b03845416938487526001810154602088015260028101546040880152600381015460608801526004810154608088015282600582015416151560a0880152600681015460c088015282600782015416151560e088015260088101546101008801526009810154610120880152600a810154610140880152600b810154610160880152600c81015461018088015201541615156101a085015260018060a01b031614611d37565b60408101511561040a57608081015161039f5761025961012c610253604084015142611d96565b11611da3565b6107d0916000808080863382f1156103935761037f926000610120840152610160830152426101408301524261018083015260016101a08301526000526002602052600d6101a060406000209260018060a01b038151166001600160601b0360a01b8554161784556020810151600185015560408101516002850155606081015160038501556080810151600485015561030860a08201511515600586019060ff801983541691151516179055565b60c0810151600685015561033160e08201511515600786019060ff801983541691151516179055565b61010081015160088501556101208101516009850155610140810151600a850155610160810151600b850155610180810151600c8501550151151591019060ff801983541691151516179055565b60036020526040600020805460ff19169055005b6040513d6000823e3d90fd5b60405162461bcd60e51b815260206004820152603f60248201527f54686520637573746f6d65722068617320616c726561647920636f6d6d69746560448201527f6420666f7220746865206163636f756e7420696e666f726d6174696f6e2121006064820152608490fd5b60405162461bcd60e51b815260206004820152602e60248201527f54686520726567756c61746f727920626f6479206e6f7420796574206c6f636b60448201526d656420746865206d6f6e6579212160901b6064820152608490fd5b634e487b7160e01b600052604160045260246000fd5b600080fd5b3461047c5761048f36611c25565b6104a460018060a01b03600454163314611def565b60018060a01b03821660005260006020526104c460406000205415611e61565b60018060a01b03821660005260016020526040600020548060005260036020526104fa600160ff60406000205416151514611ee1565b806000526002602052604060002091604051926101c0840184811067ffffffffffffffff8211176104665760405260018060a01b0381541684526001810154602085015260028101546040850152600381015460608501526004810154608085015260ff600582015416151560a0850152600681015460c085015260ff600782015416151560e085015260ff600d600883015492836101008801526009810154610120880152600a810154610140880152600b810154610160880152600c81015461018088015201541615156101a08501526107b45760c0830151156107375761012c6105eb60c085015142611d96565b116106fd57151560e0830181905242610100840152926103e86000808080846001600160a01b03871682f115610393576000808080843382f1156103935761037f94816001926101208701526101608601524261014086015242610180860152146000146106ef5761065e600654611d12565b908160065560018060a01b031660005260006020526040600020555b6000526002602052600d6101a060406000209260018060a01b038151166001600160601b0360a01b8554161784556020810151600185015560408101516002850155606081015160038501556080810151600485015561030860a08201511515600586019060ff801983541691151516179055565b5060016101a083015261067a565b60405162461bcd60e51b8152602060048201526012602482015271151a5b595b1a5b5a5d08195e18d95959195960721b6044820152606490fd5b60405162461bcd60e51b815260206004820152604960248201527f54686520726567756c61746f727920626f6479206d7573742070726f7669646560448201527f2069747320726573706f6e736531206265666f72652073656e64696e6720726560648201526873706f6e736532212160b81b608482015260a490fd5b60405162461bcd60e51b815260206004820152603460248201527f54686520726567756c61746f727920626f64792068617320616c72656164792060448201527373656e642069747320726573706f6e736532212160601b6064820152608490fd5b3461047c5761082436611c25565b61083960018060a01b03600454163314611def565b60018060a01b038216600052600060205261085960406000205415611e61565b60018060a01b038216600052600160205260406000205491826000526003602052610890600160ff60406000205416151514611ee1565b826000526002602052604060002091604051926101c0840184811067ffffffffffffffff8211176104665760405260018060a01b03815416845260018101546020850152600281015460408501526003810154606085015260ff600d60048301549283608088015282600582015416151560a0880152600681015460c088015282600782015416151560e088015260088101546101008801526009810154610120880152600a810154610140880152600b810154610160880152600c81015461018088015201541615156101a085015215610ae65760c0830151610a885761098961012c610982608086015142611d96565b1115611f61565b15801560a08401524260c0840152610a18575b50610a16916000526002602052600d6101a060406000209260018060a01b038151166001600160601b0360a01b8554161784556020810151600185015560408101516002850155606081015160038501556080810151600485015561030860a08201511515600586019060ff801983541691151516179055565b005b600080806103e8819460018060a01b031682f1156103935760008080806103e83382f11561039357610a16916103e86101208301526103e8610160830152426101408301524261018083015260016101a0830152806000526003602052604060002060ff1981541690559161099c565b60405162461bcd60e51b815260206004820152603060248201527f54686520726567756c61746f727920626f647920616c72656164792073656e6460448201526f2069747320726573706f6e736531212160801b6064820152608490fd5b60405162461bcd60e51b815260206004820152601c60248201527f5468652062616e6b206e6f742079657420636f6d6d69747465642121000000006044820152606490fd5b3461047c57600036600319011261047c57602060405161012c8152f35b600036600319011261047c57336000526000602052610b6c60406000205415611c7b565b336000526001602052604060002054600052600360205260ff60406000205416610d0f57610b9d6103e83414611cc6565b610ba8600554611d12565b8060055533600052600160205280604060002055806000526002602052604060002090604051906101c082019282841067ffffffffffffffff85111761046657600d60ff91610cf89560405260028101546040860152600381015460608601526004810154608086015282600582015416151560a0860152600681015460c086015282600782015416151560e086015260088101546101008601526009810154610120860152600a810154610140860152600b810154610160860152600c81015461018086015201541615156101a08301523382524260208301526000526002602052600d6101a060406000209260018060a01b038151166001600160601b0360a01b8554161784556020810151600185015560408101516002850155606081015160038501556080810151600485015561030860a08201511515600586019060ff801983541691151516179055565b60036020526040600020805460ff19166001179055005b60405162461bcd60e51b815260206004820152604b60248201527f50726576696f757320696e7374616e6365206f66207468652062616e6b20726560448201527f67697374726174696f6e2070726f746f636f6c206973206e6f7420796574207460648201526a65726d696e61746564212160a81b608482015260a490fd5b3461047c57602036600319011261047c576020610dac600435611c54565b6040519015158152f35b3461047c57602036600319011261047c576001600160a01b03610dd7611c0f565b1660005260006020526020604060002054604051908152f35b602036600319011261047c57610e04611c0f565b610e1960018060a01b03600454163314611def565b60018060a01b0381166000526000602052610e3960406000205415611e61565b610e466103e83414611cc6565b60018060a01b038116600052600160205260406000205490816000526003602052610e7d600160ff60406000205416151514611ee1565b8160005260026020526040600020604051916101c0830183811067ffffffffffffffff8211176104665760405260ff600d60018060a01b03845416938486526001810154602087015260028101546040870152600381015460608701526004810154608087015282600582015416151560a0870152600681015460c087015282600782015416151560e087015260088101546101008701526009810154610120870152600a810154610140870152600b810154610160870152600c81015461018087015201541615156101a084015260018060a01b0316036110b05760208101511561105f576040810151610fff57610a1691610f8461012c610982602085015142611d96565b4260408301526000526002602052600d6101a060406000209260018060a01b038151166001600160601b0360a01b8554161784556020810151600185015560408101516002850155606081015160038501556080810151600485015561030860a08201511515600586019060ff801983541691151516179055565b60405162461bcd60e51b815260206004820152603260248201527f54686520726567756c61746f727920626f64792068617320616c7265616479206044820152716c6f636b656420697473206d6f6e6579212160701b6064820152608490fd5b60405162461bcd60e51b815260206004820152602360248201527f5468652062616e6b206e6f7420796574206c6f636b656420697473206d6f6e6560448201526279212160e81b6064820152608490fd5b60405162461bcd60e51b815260206004820152603960248201527f4163636573732064656e6965642061732074686520676976656e2062616e6b2060448201527f61646472657373206973206e6f7420696e74656e6465642121000000000000006064820152608490fd5b3461047c57600036600319011261047c5733600052600060205261114460406000205415611c7b565b336000526001602052604060002054806000526003602052611172600160ff60406000205416151514611ee1565b8060005260026020526040600020604051906101c082019082821067ffffffffffffffff8311176104665761124d9160405260ff600d60018060a01b03835416928386526001810154602087015260028101546040870152600381015460608701526004810154608087015282600582015416151560a0870152600681015460c087015282600782015416151560e087015260088101546101008701526009810154610120870152600a810154610140870152600b810154610160870152600c81015461018087015201541615156101a08401523314611fa4565b60808101511561138e5760c08101516113235761127461012c610253608084015142611d96565b6107d0916000808080863382f1156103935761037f926101208301526000610160830152426101408301524261018083015260016101a08301526000526002602052600d6101a060406000209260018060a01b038151166001600160601b0360a01b8554161784556020810151600185015560408101516002850155606081015160038501556080810151600485015561030860a08201511515600586019060ff801983541691151516179055565b60405162461bcd60e51b815260206004820152603d60248201527f54686520726567756c61746f727920626f647920686173206e6f7420616c726560448201527f6164792073656e642069747320666972737420726573706f6e736521210000006064820152608490fd5b60405162461bcd60e51b815260206004820152603760248201527f5468652062616e6b206e6f742079657420636f6d6d6974656420666f7220746860448201527f65206163636f756e7420696e666f726d6174696f6e21210000000000000000006064820152608490fd5b3461047c57600036600319011261047c576004546040516001600160a01b039091168152602090f35b3461047c57600036600319011261047c576020600554604051908152f35b3461047c57600036600319011261047c5733600052600060205261146960406000205415611c7b565b336000526001602052604060002054806000526003602052600160ff604060002054161515036116e6578060005260026020526040600020604051906101c082019082821067ffffffffffffffff8311176104665761156e9160405260ff600d60018060a01b03835416928386526001810154602087015260028101546040870152600381015460608701526004810154608087015282600582015416151560a0870152600681015460c087015282600782015416151560e087015260088101546101008701526009810154610120870152600a810154610140870152600b810154610160870152600c81015461018087015201541615156101a08401523314611d37565b6020810151156116955760408101516116355761159561012c610253602084015142611d96565b6103e8916000808080863382f1156103935761037f926101208301524261014083015260016101a08301526000526002602052600d6101a060406000209260018060a01b038151166001600160601b0360a01b8554161784556020810151600185015560408101516002850155606081015160038501556080810151600485015561030860a08201511515600586019060ff801983541691151516179055565b60405162461bcd60e51b815260206004820152603260248201527f54686520526567756c61746f727920626f64792068617320616c7265616479206044820152716c6f636b656420697473206d6f6e6579212160701b6064820152608490fd5b60405162461bcd60e51b815260206004820152602360248201527f5468652062616e6b206e6f7420796574206c6f636b656420746865206d6f6e6560448201526279212160e81b6064820152608490fd5b60405162461bcd60e51b815260206004820152602160248201527f5468652070726f746f636f6c206973206e6f74207965742073746172746564216044820152602160f81b6064820152608490fd5b3461047c57600036600319011261047c5733600052600060205261175e60406000205415611c7b565b33600052600160205260406000205480600052600360205261178c600160ff60406000205416151514611ee1565b8060005260026020526040600020604051906101c082019082821067ffffffffffffffff831117610466576118679160405260ff600d60018060a01b03835416928386526001810154602087015260028101546040870152600381015460608701526004810154608087015282600582015416151560a0870152600681015460c087015282600782015416151560e087015260088101546101008701526009810154610120870152600a810154610140870152600b810154610160870152600c81015461018087015201541615156101a08401523314611fa4565b60c0810151156118fa5761010081015161188f5761127461012c61025360c084015142611d96565b60405162461bcd60e51b815260206004820152603e60248201527f54686520726567756c61746f727920626f647920686173206e6f7420616c726560448201527f6164792073656e6420697473207365636f6e6420726573706f6e7365212100006064820152608490fd5b60405162461bcd60e51b815260206004820152603960248201527f54686520726567756c61746f727920626f64792068617320616c72656164792060448201527f73656e642069747320666972737420726573706f6e73652121000000000000006064820152608490fd5b3461047c57602036600319011261047c5733600052600060205261198e60406000205415611c7b565b3360005260016020526040600020548060005260036020526119bc600160ff60406000205416151514611ee1565b8060005260026020526040600020604051906101c082019082821067ffffffffffffffff83111761046657611a979160405260ff600d60018060a01b03835416928386526001810154602087015260028101546040870152600381015460608701526004810154608087015282600582015416151560a0870152600681015460c087015282600782015416151560e087015260088101546101008701526009810154610120870152600a810154610140870152600b810154610160870152600c81015461018087015201541615156101a08401523314611fa4565b604081015115611b98576080810151611b4557610a1691611ac261012c610982604085015142611d96565b60043560608301524260808301526000526002602052600d6101a060406000209260018060a01b038151166001600160601b0360a01b8554161784556020810151600185015560408101516002850155606081015160038501556080810151600485015561030860a08201511515600586019060ff801983541691151516179055565b60405162461bcd60e51b815260206004820152602560248201527f5468652062616e6b2068617320616c726561647920636f6d6d697474656420506044820152646f424c212160d81b6064820152608490fd5b60405162461bcd60e51b815260206004820152602e60248201527f54686520726567756c61746f727920626f6479206e6f7420796574206c6f636b60448201526d656420697473206d6f6e6579212160901b6064820152608490fd5b3461047c57600036600319011261047c57806103e860209252f35b600435906001600160a01b038216820361047c57565b604090600319011261047c576004356001600160a01b038116810361047c5790602435801515810361047c5790565b8015159081611c6e575b5015611c6957600190565b600090565b9050600654101538611c5e565b15611c8257565b606460405162461bcd60e51b815260206004820152602060248201527f5468652062616e6b20697320616c7265616479207265676973746572656421216044820152fd5b15611ccd57565b60405162461bcd60e51b815260206004820152601a60248201527f496e636f7272656374206c6f636b696e6720616d6f756e7421210000000000006044820152606490fd5b6000198114611d215760010190565b634e487b7160e01b600052601160045260246000fd5b15611d3e57565b60405162461bcd60e51b815260206004820152602a60248201527f596f7520617265206e6f7420686f6c64696e672074686520696e74656e6465646044820152692061646472657373212160b01b6064820152608490fd5b91908203918211611d2157565b15611daa57565b60405162461bcd60e51b815260206004820152601c60248201527f54696d656c696d6974206e6f74207965742065786365656465642121000000006044820152606490fd5b15611df657565b60405162461bcd60e51b815260206004820152603760248201527f4f6e6c79207265677561746f727920626f64792068617320616363657373207460448201527f6f20696e766f6b65207468652066756e6374696f6e21210000000000000000006064820152608490fd5b15611e6857565b60405162461bcd60e51b815260206004820152604560248201527f54686520676976656e2062616e6b206164647265737320697320696e636f727260448201527f6563742e205468652062616e6b20697320616c72656164792072656769737465606482015264726564212160d81b608482015260a490fd5b15611ee857565b60405162461bcd60e51b815260206004820152604560248201527f4e6f20696e7374616e6365206f66207468652062616e6b20726567697374726160448201527f74696f6e2070726f746f636f6c2069732072756e6e696e672061742070726573606482015264656e74212160d81b608482015260a490fd5b15611f6857565b60405162461bcd60e51b815260206004820152601460248201527354696d656c696d6974206578636565646564212160601b6044820152606490fd5b15611fab57565b60405162461bcd60e51b815260206004820152604360248201527f4163636573732064656e696564206173207468652062616e6b20646f6573206e60448201527f6f7420686f6c642074686520696e74656e6465642062616e6b2061646472657360648201526273212160e81b608482015260a490fdfea264697066735822122022313535c8bdf0f50267359532506f53198232e049f2a2c3095c6a01cc396fc764736f6c63430008120033",
			"opcodes": "PUSH1 0x80 DUP1 PUSH1 0x40 MSTORE CALLVALUE PUSH2 0x32 JUMPI PUSH1 0x0 PUSH1 0x5 DUP2 SWAP1 SSTORE PUSH1 0x6 SSTORE PUSH1 0x4 DUP1 SLOAD PUSH1 0x1 PUSH1 0x1 PUSH1 0xA0 SHL SUB NOT AND CALLER OR SWAP1 SSTORE PUSH2 0x2058 SWAP1 DUP2 PUSH2 0x38 DUP3 CODECOPY RETURN JUMPDEST PUSH1 0x0 DUP1 REVERT INVALID PUSH1 0x80 DUP1 PUSH1 0x40 MSTORE PUSH1 0x4 CALLDATASIZE LT ISZERO PUSH2 0x13 JUMPI PUSH1 0x0 DUP1 REVERT JUMPDEST PUSH1 0x0 CALLDATALOAD PUSH1 0xE0 SHR SWAP1 DUP2 PUSH4 0x25AB292E EQ PUSH2 0x1BF4 JUMPI POP DUP1 PUSH4 0x294A5806 EQ PUSH2 0x1965 JUMPI DUP1 PUSH4 0x33BCC388 EQ PUSH2 0x1735 JUMPI DUP1 PUSH4 0x379CC80D EQ PUSH2 0x1440 JUMPI DUP1 PUSH4 0x45B0F171 EQ PUSH2 0x1422 JUMPI DUP1 PUSH4 0x5013AD87 EQ PUSH2 0x13F9 JUMPI DUP1 PUSH4 0x62F59501 EQ PUSH2 0x111B JUMPI DUP1 PUSH4 0x75E5A871 EQ PUSH2 0xDF0 JUMPI DUP1 PUSH4 0x9CFD3699 EQ PUSH2 0xDB6 JUMPI DUP1 PUSH4 0x9EC802FF EQ PUSH2 0xD8E JUMPI DUP1 PUSH4 0xBBD9F9B1 EQ PUSH2 0xB48 JUMPI DUP1 PUSH4 0xC08D1FE5 EQ PUSH2 0xB2B JUMPI DUP1 PUSH4 0xC5FE01E4 EQ PUSH2 0x816 JUMPI DUP1 PUSH4 0xD1706B6C EQ PUSH2 0x481 JUMPI PUSH4 0xF93BE9E3 EQ PUSH2 0xC4 JUMPI PUSH1 0x0 DUP1 REVERT JUMPDEST CALLVALUE PUSH2 0x47C JUMPI PUSH1 0x20 CALLDATASIZE PUSH1 0x3 NOT ADD SLT PUSH2 0x47C JUMPI PUSH2 0xDD PUSH2 0x1C0F JUMP JUMPDEST PUSH2 0xF2 PUSH1 0x1 DUP1 PUSH1 0xA0 SHL SUB PUSH1 0x4 SLOAD AND CALLER EQ PUSH2 0x1DEF JUMP JUMPDEST PUSH1 0x1 DUP1 PUSH1 0xA0 SHL SUB DUP2 AND PUSH1 0x0 MSTORE PUSH1 0x0 PUSH1 0x20 MSTORE PUSH2 0x112 PUSH1 0x40 PUSH1 0x0 KECCAK256 SLOAD ISZERO PUSH2 0x1E61 JUMP JUMPDEST PUSH1 0x1 DUP1 PUSH1 0xA0 SHL SUB DUP2 AND PUSH1 0x0 MSTORE PUSH1 0x1 PUSH1 0x20 MSTORE PUSH1 0x40 PUSH1 0x0 KECCAK256 SLOAD SWAP1 DUP2 PUSH1 0x0 MSTORE PUSH1 0x3 PUSH1 0x20 MSTORE PUSH2 0x149 PUSH1 0x1 PUSH1 0xFF PUSH1 0x40 PUSH1 0x0 KECCAK256 SLOAD AND ISZERO ISZERO EQ PUSH2 0x1EE1 JUMP JUMPDEST DUP2 PUSH1 0x0 MSTORE PUSH1 0x2 PUSH1 0x20 MSTORE PUSH1 0x40 PUSH1 0x0 KECCAK256 SWAP1 PUSH1 0x40 MLOAD SWAP2 PUSH2 0x1C0 DUP4 ADD SWAP2 DUP4 DUP4 LT PUSH8 0xFFFFFFFFFFFFFFFF DUP5 GT OR PUSH2 0x466 JUMPI PUSH2 0x22C SWAP3 PUSH1 0x40 MSTORE PUSH1 0xFF PUSH1 0xD PUSH1 0x1 DUP1 PUSH1 0xA0 SHL SUB DUP5 SLOAD AND SWAP4 DUP5 DUP8 MSTORE PUSH1 0x1 DUP2 ADD SLOAD PUSH1 0x20 DUP9 ADD MSTORE PUSH1 0x2 DUP2 ADD SLOAD PUSH1 0x40 DUP9 ADD MSTORE PUSH1 0x3 DUP2 ADD SLOAD PUSH1 0x60 DUP9 ADD MSTORE PUSH1 0x4 DUP2 ADD SLOAD PUSH1 0x80 DUP9 ADD MSTORE DUP3 PUSH1 0x5 DUP3 ADD SLOAD AND ISZERO ISZERO PUSH1 0xA0 DUP9 ADD MSTORE PUSH1 0x6 DUP2 ADD SLOAD PUSH1 0xC0 DUP9 ADD MSTORE DUP3 PUSH1 0x7 DUP3 ADD SLOAD AND ISZERO ISZERO PUSH1 0xE0 DUP9 ADD MSTORE PUSH1 0x8 DUP2 ADD SLOAD PUSH2 0x100 DUP9 ADD MSTORE PUSH1 0x9 DUP2 ADD SLOAD PUSH2 0x120 DUP9 ADD MSTORE PUSH1 0xA DUP2 ADD SLOAD PUSH2 0x140 DUP9 ADD MSTORE PUSH1 0xB DUP2 ADD SLOAD PUSH2 0x160 DUP9 ADD MSTORE PUSH1 0xC DUP2 ADD SLOAD PUSH2 0x180 DUP9 ADD MSTORE ADD SLOAD AND ISZERO ISZERO PUSH2 0x1A0 DUP6 ADD MSTORE PUSH1 0x1 DUP1 PUSH1 0xA0 SHL SUB AND EQ PUSH2 0x1D37 JUMP JUMPDEST PUSH1 0x40 DUP2 ADD MLOAD ISZERO PUSH2 0x40A JUMPI PUSH1 0x80 DUP2 ADD MLOAD PUSH2 0x39F JUMPI PUSH2 0x259 PUSH2 0x12C PUSH2 0x253 PUSH1 0x40 DUP5 ADD MLOAD TIMESTAMP PUSH2 0x1D96 JUMP JUMPDEST GT PUSH2 0x1DA3 JUMP JUMPDEST PUSH2 0x7D0 SWAP2 PUSH1 0x0 DUP1 DUP1 DUP1 DUP7 CALLER DUP3 CALL ISZERO PUSH2 0x393 JUMPI PUSH2 0x37F SWAP3 PUSH1 0x0 PUSH2 0x120 DUP5 ADD MSTORE PUSH2 0x160 DUP4 ADD MSTORE TIMESTAMP PUSH2 0x140 DUP4 ADD MSTORE TIMESTAMP PUSH2 0x180 DUP4 ADD MSTORE PUSH1 0x1 PUSH2 0x1A0 DUP4 ADD MSTORE PUSH1 0x0 MSTORE PUSH1 0x2 PUSH1 0x20 MSTORE PUSH1 0xD PUSH2 0x1A0 PUSH1 0x40 PUSH1 0x0 KECCAK256 SWAP3 PUSH1 0x1 DUP1 PUSH1 0xA0 SHL SUB DUP2 MLOAD AND PUSH1 0x1 PUSH1 0x1 PUSH1 0x60 SHL SUB PUSH1 0xA0 SHL DUP6 SLOAD AND OR DUP5 SSTORE PUSH1 0x20 DUP2 ADD MLOAD PUSH1 0x1 DUP6 ADD SSTORE PUSH1 0x40 DUP2 ADD MLOAD PUSH1 0x2 DUP6 ADD SSTORE PUSH1 0x60 DUP2 ADD MLOAD PUSH1 0x3 DUP6 ADD SSTORE PUSH1 0x80 DUP2 ADD MLOAD PUSH1 0x4 DUP6 ADD SSTORE PUSH2 0x308 PUSH1 0xA0 DUP3 ADD MLOAD ISZERO ISZERO PUSH1 0x5 DUP7 ADD SWAP1 PUSH1 0xFF DUP1 NOT DUP4 SLOAD AND SWAP2 ISZERO ISZERO AND OR SWAP1 SSTORE JUMP JUMPDEST PUSH1 0xC0 DUP2 ADD MLOAD PUSH1 0x6 DUP6 ADD SSTORE PUSH2 0x331 PUSH1 0xE0 DUP3 ADD MLOAD ISZERO ISZERO PUSH1 0x7 DUP7 ADD SWAP1 PUSH1 0xFF DUP1 NOT DUP4 SLOAD AND SWAP2 ISZERO ISZERO AND OR SWAP1 SSTORE JUMP JUMPDEST PUSH2 0x100 DUP2 ADD MLOAD PUSH1 0x8 DUP6 ADD SSTORE PUSH2 0x120 DUP2 ADD MLOAD PUSH1 0x9 DUP6 ADD SSTORE PUSH2 0x140 DUP2 ADD MLOAD PUSH1 0xA DUP6 ADD SSTORE PUSH2 0x160 DUP2 ADD MLOAD PUSH1 0xB DUP6 ADD SSTORE PUSH2 0x180 DUP2 ADD MLOAD PUSH1 0xC DUP6 ADD SSTORE ADD MLOAD ISZERO ISZERO SWAP2 ADD SWAP1 PUSH1 0xFF DUP1 NOT DUP4 SLOAD AND SWAP2 ISZERO ISZERO AND OR SWAP1 SSTORE JUMP JUMPDEST PUSH1 0x3 PUSH1 0x20 MSTORE PUSH1 0x40 PUSH1 0x0 KECCAK256 DUP1 SLOAD PUSH1 0xFF NOT AND SWAP1 SSTORE STOP JUMPDEST PUSH1 0x40 MLOAD RETURNDATASIZE PUSH1 0x0 DUP3 RETURNDATACOPY RETURNDATASIZE SWAP1 REVERT JUMPDEST PUSH1 0x40 MLOAD PUSH3 0x461BCD PUSH1 0xE5 SHL DUP2 MSTORE PUSH1 0x20 PUSH1 0x4 DUP3 ADD MSTORE PUSH1 0x3F PUSH1 0x24 DUP3 ADD MSTORE PUSH32 0x54686520637573746F6D65722068617320616C726561647920636F6D6D697465 PUSH1 0x44 DUP3 ADD MSTORE PUSH32 0x6420666F7220746865206163636F756E7420696E666F726D6174696F6E212100 PUSH1 0x64 DUP3 ADD MSTORE PUSH1 0x84 SWAP1 REVERT JUMPDEST PUSH1 0x40 MLOAD PUSH3 0x461BCD PUSH1 0xE5 SHL DUP2 MSTORE PUSH1 0x20 PUSH1 0x4 DUP3 ADD MSTORE PUSH1 0x2E PUSH1 0x24 DUP3 ADD MSTORE PUSH32 0x54686520726567756C61746F727920626F6479206E6F7420796574206C6F636B PUSH1 0x44 DUP3 ADD MSTORE PUSH14 0x656420746865206D6F6E65792121 PUSH1 0x90 SHL PUSH1 0x64 DUP3 ADD MSTORE PUSH1 0x84 SWAP1 REVERT JUMPDEST PUSH4 0x4E487B71 PUSH1 0xE0 SHL PUSH1 0x0 MSTORE PUSH1 0x41 PUSH1 0x4 MSTORE PUSH1 0x24 PUSH1 0x0 REVERT JUMPDEST PUSH1 0x0 DUP1 REVERT JUMPDEST CALLVALUE PUSH2 0x47C JUMPI PUSH2 0x48F CALLDATASIZE PUSH2 0x1C25 JUMP JUMPDEST PUSH2 0x4A4 PUSH1 0x1 DUP1 PUSH1 0xA0 SHL SUB PUSH1 0x4 SLOAD AND CALLER EQ PUSH2 0x1DEF JUMP JUMPDEST PUSH1 0x1 DUP1 PUSH1 0xA0 SHL SUB DUP3 AND PUSH1 0x0 MSTORE PUSH1 0x0 PUSH1 0x20 MSTORE PUSH2 0x4C4 PUSH1 0x40 PUSH1 0x0 KECCAK256 SLOAD ISZERO PUSH2 0x1E61 JUMP JUMPDEST PUSH1 0x1 DUP1 PUSH1 0xA0 SHL SUB DUP3 AND PUSH1 0x0 MSTORE PUSH1 0x1 PUSH1 0x20 MSTORE PUSH1 0x40 PUSH1 0x0 KECCAK256 SLOAD DUP1 PUSH1 0x0 MSTORE PUSH1 0x3 PUSH1 0x20 MSTORE PUSH2 0x4FA PUSH1 0x1 PUSH1 0xFF PUSH1 0x40 PUSH1 0x0 KECCAK256 SLOAD AND ISZERO ISZERO EQ PUSH2 0x1EE1 JUMP JUMPDEST DUP1 PUSH1 0x0 MSTORE PUSH1 0x2 PUSH1 0x20 MSTORE PUSH1 0x40 PUSH1 0x0 KECCAK256 SWAP2 PUSH1 0x40 MLOAD SWAP3 PUSH2 0x1C0 DUP5 ADD DUP5 DUP2 LT PUSH8 0xFFFFFFFFFFFFFFFF DUP3 GT OR PUSH2 0x466 JUMPI PUSH1 0x40 MSTORE PUSH1 0x1 DUP1 PUSH1 0xA0 SHL SUB DUP2 SLOAD AND DUP5 MSTORE PUSH1 0x1 DUP2 ADD SLOAD PUSH1 0x20 DUP6 ADD MSTORE PUSH1 0x2 DUP2 ADD SLOAD PUSH1 0x40 DUP6 ADD MSTORE PUSH1 0x3 DUP2 ADD SLOAD PUSH1 0x60 DUP6 ADD MSTORE PUSH1 0x4 DUP2 ADD SLOAD PUSH1 0x80 DUP6 ADD MSTORE PUSH1 0xFF PUSH1 0x5 DUP3 ADD SLOAD AND ISZERO ISZERO PUSH1 0xA0 DUP6 ADD MSTORE PUSH1 0x6 DUP2 ADD SLOAD PUSH1 0xC0 DUP6 ADD MSTORE PUSH1 0xFF PUSH1 0x7 DUP3 ADD SLOAD AND ISZERO ISZERO PUSH1 0xE0 DUP6 ADD MSTORE PUSH1 0xFF PUSH1 0xD PUSH1 0x8 DUP4 ADD SLOAD SWAP3 DUP4 PUSH2 0x100 DUP9 ADD MSTORE PUSH1 0x9 DUP2 ADD SLOAD PUSH2 0x120 DUP9 ADD MSTORE PUSH1 0xA DUP2 ADD SLOAD PUSH2 0x140 DUP9 ADD MSTORE PUSH1 0xB DUP2 ADD SLOAD PUSH2 0x160 DUP9 ADD MSTORE PUSH1 0xC DUP2 ADD SLOAD PUSH2 0x180 DUP9 ADD MSTORE ADD SLOAD AND ISZERO ISZERO PUSH2 0x1A0 DUP6 ADD MSTORE PUSH2 0x7B4 JUMPI PUSH1 0xC0 DUP4 ADD MLOAD ISZERO PUSH2 0x737 JUMPI PUSH2 0x12C PUSH2 0x5EB PUSH1 0xC0 DUP6 ADD MLOAD TIMESTAMP PUSH2 0x1D96 JUMP JUMPDEST GT PUSH2 0x6FD JUMPI ISZERO ISZERO PUSH1 0xE0 DUP4 ADD DUP2 SWAP1 MSTORE TIMESTAMP PUSH2 0x100 DUP5 ADD MSTORE SWAP3 PUSH2 0x3E8 PUSH1 0x0 DUP1 DUP1 DUP1 DUP5 PUSH1 0x1 PUSH1 0x1 PUSH1 0xA0 SHL SUB DUP8 AND DUP3 CALL ISZERO PUSH2 0x393 JUMPI PUSH1 0x0 DUP1 DUP1 DUP1 DUP5 CALLER DUP3 CALL ISZERO PUSH2 0x393 JUMPI PUSH2 0x37F SWAP5 DUP2 PUSH1 0x1 SWAP3 PUSH2 0x120 DUP8 ADD MSTORE PUSH2 0x160 DUP7 ADD MSTORE TIMESTAMP PUSH2 0x140 DUP7 ADD MSTORE TIMESTAMP PUSH2 0x180 DUP7 ADD MSTORE EQ PUSH1 0x0 EQ PUSH2 0x6EF JUMPI PUSH2 0x65E PUSH1 0x6 SLOAD PUSH2 0x1D12 JUMP JUMPDEST SWAP1 DUP2 PUSH1 0x6 SSTORE PUSH1 0x1 DUP1 PUSH1 0xA0 SHL SUB AND PUSH1 0x0 MSTORE PUSH1 0x0 PUSH1 0x20 MSTORE PUSH1 0x40 PUSH1 0x0 KECCAK256 SSTORE JUMPDEST PUSH1 0x0 MSTORE PUSH1 0x2 PUSH1 0x20 MSTORE PUSH1 0xD PUSH2 0x1A0 PUSH1 0x40 PUSH1 0x0 KECCAK256 SWAP3 PUSH1 0x1 DUP1 PUSH1 0xA0 SHL SUB DUP2 MLOAD AND PUSH1 0x1 PUSH1 0x1 PUSH1 0x60 SHL SUB PUSH1 0xA0 SHL DUP6 SLOAD AND OR DUP5 SSTORE PUSH1 0x20 DUP2 ADD MLOAD PUSH1 0x1 DUP6 ADD SSTORE PUSH1 0x40 DUP2 ADD MLOAD PUSH1 0x2 DUP6 ADD SSTORE PUSH1 0x60 DUP2 ADD MLOAD PUSH1 0x3 DUP6 ADD SSTORE PUSH1 0x80 DUP2 ADD MLOAD PUSH1 0x4 DUP6 ADD SSTORE PUSH2 0x308 PUSH1 0xA0 DUP3 ADD MLOAD ISZERO ISZERO PUSH1 0x5 DUP7 ADD SWAP1 PUSH1 0xFF DUP1 NOT DUP4 SLOAD AND SWAP2 ISZERO ISZERO AND OR SWAP1 SSTORE JUMP JUMPDEST POP PUSH1 0x1 PUSH2 0x1A0 DUP4 ADD MSTORE PUSH2 0x67A JUMP JUMPDEST PUSH1 0x40 MLOAD PUSH3 0x461BCD PUSH1 0xE5 SHL DUP2 MSTORE PUSH1 0x20 PUSH1 0x4 DUP3 ADD MSTORE PUSH1 0x12 PUSH1 0x24 DUP3 ADD MSTORE PUSH18 0x151A5B595B1A5B5A5D08195E18D959591959 PUSH1 0x72 SHL PUSH1 0x44 DUP3 ADD MSTORE PUSH1 0x64 SWAP1 REVERT JUMPDEST PUSH1 0x40 MLOAD PUSH3 0x461BCD PUSH1 0xE5 SHL DUP2 MSTORE PUSH1 0x20 PUSH1 0x4 DUP3 ADD MSTORE PUSH1 0x49 PUSH1 0x24 DUP3 ADD MSTORE PUSH32 0x54686520726567756C61746F727920626F6479206D7573742070726F76696465 PUSH1 0x44 DUP3 ADD MSTORE PUSH32 0x2069747320726573706F6E736531206265666F72652073656E64696E67207265 PUSH1 0x64 DUP3 ADD MSTORE PUSH9 0x73706F6E7365322121 PUSH1 0xB8 SHL PUSH1 0x84 DUP3 ADD MSTORE PUSH1 0xA4 SWAP1 REVERT JUMPDEST PUSH1 0x40 MLOAD PUSH3 0x461BCD PUSH1 0xE5 SHL DUP2 MSTORE PUSH1 0x20 PUSH1 0x4 DUP3 ADD MSTORE PUSH1 0x34 PUSH1 0x24 DUP3 ADD MSTORE PUSH32 0x54686520726567756C61746F727920626F64792068617320616C726561647920 PUSH1 0x44 DUP3 ADD MSTORE PUSH20 0x73656E642069747320726573706F6E7365322121 PUSH1 0x60 SHL PUSH1 0x64 DUP3 ADD MSTORE PUSH1 0x84 SWAP1 REVERT JUMPDEST CALLVALUE PUSH2 0x47C JUMPI PUSH2 0x824 CALLDATASIZE PUSH2 0x1C25 JUMP JUMPDEST PUSH2 0x839 PUSH1 0x1 DUP1 PUSH1 0xA0 SHL SUB PUSH1 0x4 SLOAD AND CALLER EQ PUSH2 0x1DEF JUMP JUMPDEST PUSH1 0x1 DUP1 PUSH1 0xA0 SHL SUB DUP3 AND PUSH1 0x0 MSTORE PUSH1 0x0 PUSH1 0x20 MSTORE PUSH2 0x859 PUSH1 0x40 PUSH1 0x0 KECCAK256 SLOAD ISZERO PUSH2 0x1E61 JUMP JUMPDEST PUSH1 0x1 DUP1 PUSH1 0xA0 SHL SUB DUP3 AND PUSH1 0x0 MSTORE PUSH1 0x1 PUSH1 0x20 MSTORE PUSH1 0x40 PUSH1 0x0 KECCAK256 SLOAD SWAP2 DUP3 PUSH1 0x0 MSTORE PUSH1 0x3 PUSH1 0x20 MSTORE PUSH2 0x890 PUSH1 0x1 PUSH1 0xFF PUSH1 0x40 PUSH1 0x0 KECCAK256 SLOAD AND ISZERO ISZERO EQ PUSH2 0x1EE1 JUMP JUMPDEST DUP3 PUSH1 0x0 MSTORE PUSH1 0x2 PUSH1 0x20 MSTORE PUSH1 0x40 PUSH1 0x0 KECCAK256 SWAP2 PUSH1 0x40 MLOAD SWAP3 PUSH2 0x1C0 DUP5 ADD DUP5 DUP2 LT PUSH8 0xFFFFFFFFFFFFFFFF DUP3 GT OR PUSH2 0x466 JUMPI PUSH1 0x40 MSTORE PUSH1 0x1 DUP1 PUSH1 0xA0 SHL SUB DUP2 SLOAD AND DUP5 MSTORE PUSH1 0x1 DUP2 ADD SLOAD PUSH1 0x20 DUP6 ADD MSTORE PUSH1 0x2 DUP2 ADD SLOAD PUSH1 0x40 DUP6 ADD MSTORE PUSH1 0x3 DUP2 ADD SLOAD PUSH1 0x60 DUP6 ADD MSTORE PUSH1 0xFF PUSH1 0xD PUSH1 0x4 DUP4 ADD SLOAD SWAP3 DUP4 PUSH1 0x80 DUP9 ADD MSTORE DUP3 PUSH1 0x5 DUP3 ADD SLOAD AND ISZERO ISZERO PUSH1 0xA0 DUP9 ADD MSTORE PUSH1 0x6 DUP2 ADD SLOAD PUSH1 0xC0 DUP9 ADD MSTORE DUP3 PUSH1 0x7 DUP3 ADD SLOAD AND ISZERO ISZERO PUSH1 0xE0 DUP9 ADD MSTORE PUSH1 0x8 DUP2 ADD SLOAD PUSH2 0x100 DUP9 ADD MSTORE PUSH1 0x9 DUP2 ADD SLOAD PUSH2 0x120 DUP9 ADD MSTORE PUSH1 0xA DUP2 ADD SLOAD PUSH2 0x140 DUP9 ADD MSTORE PUSH1 0xB DUP2 ADD SLOAD PUSH2 0x160 DUP9 ADD MSTORE PUSH1 0xC DUP2 ADD SLOAD PUSH2 0x180 DUP9 ADD MSTORE ADD SLOAD AND ISZERO ISZERO PUSH2 0x1A0 DUP6 ADD MSTORE ISZERO PUSH2 0xAE6 JUMPI PUSH1 0xC0 DUP4 ADD MLOAD PUSH2 0xA88 JUMPI PUSH2 0x989 PUSH2 0x12C PUSH2 0x982 PUSH1 0x80 DUP7 ADD MLOAD TIMESTAMP PUSH2 0x1D96 JUMP JUMPDEST GT ISZERO PUSH2 0x1F61 JUMP JUMPDEST ISZERO DUP1 ISZERO PUSH1 0xA0 DUP5 ADD MSTORE TIMESTAMP PUSH1 0xC0 DUP5 ADD MSTORE PUSH2 0xA18 JUMPI JUMPDEST POP PUSH2 0xA16 SWAP2 PUSH1 0x0 MSTORE PUSH1 0x2 PUSH1 0x20 MSTORE PUSH1 0xD PUSH2 0x1A0 PUSH1 0x40 PUSH1 0x0 KECCAK256 SWAP3 PUSH1 0x1 DUP1 PUSH1 0xA0 SHL SUB DUP2 MLOAD AND PUSH1 0x1 PUSH1 0x1 PUSH1 0x60 SHL SUB PUSH1 0xA0 SHL DUP6 SLOAD AND OR DUP5 SSTORE PUSH1 0x20 DUP2 ADD MLOAD PUSH1 0x1 DUP6 ADD SSTORE PUSH1 0x40 DUP2 ADD MLOAD PUSH1 0x2 DUP6 ADD SSTORE PUSH1 0x60 DUP2 ADD MLOAD PUSH1 0x3 DUP6 ADD SSTORE PUSH1 0x80 DUP2 ADD MLOAD PUSH1 0x4 DUP6 ADD SSTORE PUSH2 0x308 PUSH1 0xA0 DUP3 ADD MLOAD ISZERO ISZERO PUSH1 0x5 DUP7 ADD SWAP1 PUSH1 0xFF DUP1 NOT DUP4 SLOAD AND SWAP2 ISZERO ISZERO AND OR SWAP1 SSTORE JUMP JUMPDEST STOP JUMPDEST PUSH1 0x0 DUP1 DUP1 PUSH2 0x3E8 DUP2 SWAP5 PUSH1 0x1 DUP1 PUSH1 0xA0 SHL SUB AND DUP3 CALL ISZERO PUSH2 0x393 JUMPI PUSH1 0x0 DUP1 DUP1 DUP1 PUSH2 0x3E8 CALLER DUP3 CALL ISZERO PUSH2 0x393 JUMPI PUSH2 0xA16 SWAP2 PUSH2 0x3E8 PUSH2 0x120 DUP4 ADD MSTORE PUSH2 0x3E8 PUSH2 0x160 DUP4 ADD MSTORE TIMESTAMP PUSH2 0x140 DUP4 ADD MSTORE TIMESTAMP PUSH2 0x180 DUP4 ADD MSTORE PUSH1 0x1 PUSH2 0x1A0 DUP4 ADD MSTORE DUP1 PUSH1 0x0 MSTORE PUSH1 0x3 PUSH1 0x20 MSTORE PUSH1 0x40 PUSH1 0x0 KECCAK256 PUSH1 0xFF NOT DUP2 SLOAD AND SWAP1 SSTORE SWAP2 PUSH2 0x99C JUMP JUMPDEST PUSH1 0x40 MLOAD PUSH3 0x461BCD PUSH1 0xE5 SHL DUP2 MSTORE PUSH1 0x20 PUSH1 0x4 DUP3 ADD MSTORE PUSH1 0x30 PUSH1 0x24 DUP3 ADD MSTORE PUSH32 0x54686520726567756C61746F727920626F647920616C72656164792073656E64 PUSH1 0x44 DUP3 ADD MSTORE PUSH16 0x2069747320726573706F6E7365312121 PUSH1 0x80 SHL PUSH1 0x64 DUP3 ADD MSTORE PUSH1 0x84 SWAP1 REVERT JUMPDEST PUSH1 0x40 MLOAD PUSH3 0x461BCD PUSH1 0xE5 SHL DUP2 MSTORE PUSH1 0x20 PUSH1 0x4 DUP3 ADD MSTORE PUSH1 0x1C PUSH1 0x24 DUP3 ADD MSTORE PUSH32 0x5468652062616E6B206E6F742079657420636F6D6D6974746564212100000000 PUSH1 0x44 DUP3 ADD MSTORE PUSH1 0x64 SWAP1 REVERT JUMPDEST CALLVALUE PUSH2 0x47C JUMPI PUSH1 0x0 CALLDATASIZE PUSH1 0x3 NOT ADD SLT PUSH2 0x47C JUMPI PUSH1 0x20 PUSH1 0x40 MLOAD PUSH2 0x12C DUP2 MSTORE RETURN JUMPDEST PUSH1 0x0 CALLDATASIZE PUSH1 0x3 NOT ADD SLT PUSH2 0x47C JUMPI CALLER PUSH1 0x0 MSTORE PUSH1 0x0 PUSH1 0x20 MSTORE PUSH2 0xB6C PUSH1 0x40 PUSH1 0x0 KECCAK256 SLOAD ISZERO PUSH2 0x1C7B JUMP JUMPDEST CALLER PUSH1 0x0 MSTORE PUSH1 0x1 PUSH1 0x20 MSTORE PUSH1 0x40 PUSH1 0x0 KECCAK256 SLOAD PUSH1 0x0 MSTORE PUSH1 0x3 PUSH1 0x20 MSTORE PUSH1 0xFF PUSH1 0x40 PUSH1 0x0 KECCAK256 SLOAD AND PUSH2 0xD0F JUMPI PUSH2 0xB9D PUSH2 0x3E8 CALLVALUE EQ PUSH2 0x1CC6 JUMP JUMPDEST PUSH2 0xBA8 PUSH1 0x5 SLOAD PUSH2 0x1D12 JUMP JUMPDEST DUP1 PUSH1 0x5 SSTORE CALLER PUSH1 0x0 MSTORE PUSH1 0x1 PUSH1 0x20 MSTORE DUP1 PUSH1 0x40 PUSH1 0x0 KECCAK256 SSTORE DUP1 PUSH1 0x0 MSTORE PUSH1 0x2 PUSH1 0x20 MSTORE PUSH1 0x40 PUSH1 0x0 KECCAK256 SWAP1 PUSH1 0x40 MLOAD SWAP1 PUSH2 0x1C0 DUP3 ADD SWAP3 DUP3 DUP5 LT PUSH8 0xFFFFFFFFFFFFFFFF DUP6 GT OR PUSH2 0x466 JUMPI PUSH1 0xD PUSH1 0xFF SWAP2 PUSH2 0xCF8 SWAP6 PUSH1 0x40 MSTORE PUSH1 0x2 DUP2 ADD SLOAD PUSH1 0x40 DUP7 ADD MSTORE PUSH1 0x3 DUP2 ADD SLOAD PUSH1 0x60 DUP7 ADD MSTORE PUSH1 0x4 DUP2 ADD SLOAD PUSH1 0x80 DUP7 ADD MSTORE DUP3 PUSH1 0x5 DUP3 ADD SLOAD AND ISZERO ISZERO PUSH1 0xA0 DUP7 ADD MSTORE PUSH1 0x6 DUP2 ADD SLOAD PUSH1 0xC0 DUP7 ADD MSTORE DUP3 PUSH1 0x7 DUP3 ADD SLOAD AND ISZERO ISZERO PUSH1 0xE0 DUP7 ADD MSTORE PUSH1 0x8 DUP2 ADD SLOAD PUSH2 0x100 DUP7 ADD MSTORE PUSH1 0x9 DUP2 ADD SLOAD PUSH2 0x120 DUP7 ADD MSTORE PUSH1 0xA DUP2 ADD SLOAD PUSH2 0x140 DUP7 ADD MSTORE PUSH1 0xB DUP2 ADD SLOAD PUSH2 0x160 DUP7 ADD MSTORE PUSH1 0xC DUP2 ADD SLOAD PUSH2 0x180 DUP7 ADD MSTORE ADD SLOAD AND ISZERO ISZERO PUSH2 0x1A0 DUP4 ADD MSTORE CALLER DUP3 MSTORE TIMESTAMP PUSH1 0x20 DUP4 ADD MSTORE PUSH1 0x0 MSTORE PUSH1 0x2 PUSH1 0x20 MSTORE PUSH1 0xD PUSH2 0x1A0 PUSH1 0x40 PUSH1 0x0 KECCAK256 SWAP3 PUSH1 0x1 DUP1 PUSH1 0xA0 SHL SUB DUP2 MLOAD AND PUSH1 0x1 PUSH1 0x1 PUSH1 0x60 SHL SUB PUSH1 0xA0 SHL DUP6 SLOAD AND OR DUP5 SSTORE PUSH1 0x20 DUP2 ADD MLOAD PUSH1 0x1 DUP6 ADD SSTORE PUSH1 0x40 DUP2 ADD MLOAD PUSH1 0x2 DUP6 ADD SSTORE PUSH1 0x60 DUP2 ADD MLOAD PUSH1 0x3 DUP6 ADD SSTORE PUSH1 0x80 DUP2 ADD MLOAD PUSH1 0x4 DUP6 ADD SSTORE PUSH2 0x308 PUSH1 0xA0 DUP3 ADD MLOAD ISZERO ISZERO PUSH1 0x5 DUP7 ADD SWAP1 PUSH1 0xFF DUP1 NOT DUP4 SLOAD AND SWAP2 ISZERO ISZERO AND OR SWAP1 SSTORE JUMP JUMPDEST PUSH1 0x3 PUSH1 0x20 MSTORE PUSH1 0x40 PUSH1 0x0 KECCAK256 DUP1 SLOAD PUSH1 0xFF NOT AND PUSH1 0x1 OR SWAP1 SSTORE STOP JUMPDEST PUSH1 0x40 MLOAD PUSH3 0x461BCD PUSH1 0xE5 SHL DUP2 MSTORE PUSH1 0x20 PUSH1 0x4 DUP3 ADD MSTORE PUSH1 0x4B PUSH1 0x24 DUP3 ADD MSTORE PUSH32 0x50726576696F757320696E7374616E6365206F66207468652062616E6B207265 PUSH1 0x44 DUP3 ADD MSTORE PUSH32 0x67697374726174696F6E2070726F746F636F6C206973206E6F74207965742074 PUSH1 0x64 DUP3 ADD MSTORE PUSH11 0x65726D696E617465642121 PUSH1 0xA8 SHL PUSH1 0x84 DUP3 ADD MSTORE PUSH1 0xA4 SWAP1 REVERT JUMPDEST CALLVALUE PUSH2 0x47C JUMPI PUSH1 0x20 CALLDATASIZE PUSH1 0x3 NOT ADD SLT PUSH2 0x47C JUMPI PUSH1 0x20 PUSH2 0xDAC PUSH1 0x4 CALLDATALOAD PUSH2 0x1C54 JUMP JUMPDEST PUSH1 0x40 MLOAD SWAP1 ISZERO ISZERO DUP2 MSTORE RETURN JUMPDEST CALLVALUE PUSH2 0x47C JUMPI PUSH1 0x20 CALLDATASIZE PUSH1 0x3 NOT ADD SLT PUSH2 0x47C JUMPI PUSH1 0x1 PUSH1 0x1 PUSH1 0xA0 SHL SUB PUSH2 0xDD7 PUSH2 0x1C0F JUMP JUMPDEST AND PUSH1 0x0 MSTORE PUSH1 0x0 PUSH1 0x20 MSTORE PUSH1 0x20 PUSH1 0x40 PUSH1 0x0 KECCAK256 SLOAD PUSH1 0x40 MLOAD SWAP1 DUP2 MSTORE RETURN JUMPDEST PUSH1 0x20 CALLDATASIZE PUSH1 0x3 NOT ADD SLT PUSH2 0x47C JUMPI PUSH2 0xE04 PUSH2 0x1C0F JUMP JUMPDEST PUSH2 0xE19 PUSH1 0x1 DUP1 PUSH1 0xA0 SHL SUB PUSH1 0x4 SLOAD AND CALLER EQ PUSH2 0x1DEF JUMP JUMPDEST PUSH1 0x1 DUP1 PUSH1 0xA0 SHL SUB DUP2 AND PUSH1 0x0 MSTORE PUSH1 0x0 PUSH1 0x20 MSTORE PUSH2 0xE39 PUSH1 0x40 PUSH1 0x0 KECCAK256 SLOAD ISZERO PUSH2 0x1E61 JUMP JUMPDEST PUSH2 0xE46 PUSH2 0x3E8 CALLVALUE EQ PUSH2 0x1CC6 JUMP JUMPDEST PUSH1 0x1 DUP1 PUSH1 0xA0 SHL SUB DUP2 AND PUSH1 0x0 MSTORE PUSH1 0x1 PUSH1 0x20 MSTORE PUSH1 0x40 PUSH1 0x0 KECCAK256 SLOAD SWAP1 DUP2 PUSH1 0x0 MSTORE PUSH1 0x3 PUSH1 0x20 MSTORE PUSH2 0xE7D PUSH1 0x1 PUSH1 0xFF PUSH1 0x40 PUSH1 0x0 KECCAK256 SLOAD AND ISZERO ISZERO EQ PUSH2 0x1EE1 JUMP JUMPDEST DUP2 PUSH1 0x0 MSTORE PUSH1 0x2 PUSH1 0x20 MSTORE PUSH1 0x40 PUSH1 0x0 KECCAK256 PUSH1 0x40 MLOAD SWAP2 PUSH2 0x1C0 DUP4 ADD DUP4 DUP2 LT PUSH8 0xFFFFFFFFFFFFFFFF DUP3 GT OR PUSH2 0x466 JUMPI PUSH1 0x40 MSTORE PUSH1 0xFF PUSH1 0xD PUSH1 0x1 DUP1 PUSH1 0xA0 SHL SUB DUP5 SLOAD AND SWAP4 DUP5 DUP7 MSTORE PUSH1 0x1 DUP2 ADD SLOAD PUSH1 0x20 DUP8 ADD MSTORE PUSH1 0x2 DUP2 ADD SLOAD PUSH1 0x40 DUP8 ADD MSTORE PUSH1 0x3 DUP2 ADD SLOAD PUSH1 0x60 DUP8 ADD MSTORE PUSH1 0x4 DUP2 ADD SLOAD PUSH1 0x80 DUP8 ADD MSTORE DUP3 PUSH1 0x5 DUP3 ADD SLOAD AND ISZERO ISZERO PUSH1 0xA0 DUP8 ADD MSTORE PUSH1 0x6 DUP2 ADD SLOAD PUSH1 0xC0 DUP8 ADD MSTORE DUP3 PUSH1 0x7 DUP3 ADD SLOAD AND ISZERO ISZERO PUSH1 0xE0 DUP8 ADD MSTORE PUSH1 0x8 DUP2 ADD SLOAD PUSH2 0x100 DUP8 ADD MSTORE PUSH1 0x9 DUP2 ADD SLOAD PUSH2 0x120 DUP8 ADD MSTORE PUSH1 0xA DUP2 ADD SLOAD PUSH2 0x140 DUP8 ADD MSTORE PUSH1 0xB DUP2 ADD SLOAD PUSH2 0x160 DUP8 ADD MSTORE PUSH1 0xC DUP2 ADD SLOAD PUSH2 0x180 DUP8 ADD MSTORE ADD SLOAD AND ISZERO ISZERO PUSH2 0x1A0 DUP5 ADD MSTORE PUSH1 0x1 DUP1 PUSH1 0xA0 SHL SUB AND SUB PUSH2 0x10B0 JUMPI PUSH1 0x20 DUP2 ADD MLOAD ISZERO PUSH2 0x105F JUMPI PUSH1 0x40 DUP2 ADD MLOAD PUSH2 0xFFF JUMPI PUSH2 0xA16 SWAP2 PUSH2 0xF84 PUSH2 0x12C PUSH2 0x982 PUSH1 0x20 DUP6 ADD MLOAD TIMESTAMP PUSH2 0x1D96 JUMP JUMPDEST TIMESTAMP PUSH1 0x40 DUP4 ADD MSTORE PUSH1 0x0 MSTORE PUSH1 0x2 PUSH1 0x20 MSTORE PUSH1 0xD PUSH2 0x1A0 PUSH1 0x40 PUSH1 0x0 KECCAK256 SWAP3 PUSH1 0x1 DUP1 PUSH1 0xA0 SHL SUB DUP2 MLOAD AND PUSH1 0x1 PUSH1 0x1 PUSH1 0x60 SHL SUB PUSH1 0xA0 SHL DUP6 SLOAD AND OR DUP5 SSTORE PUSH1 0x20 DUP2 ADD MLOAD PUSH1 0x1 DUP6 ADD SSTORE PUSH1 0x40 DUP2 ADD MLOAD PUSH1 0x2 DUP6 ADD SSTORE PUSH1 0x60 DUP2 ADD MLOAD PUSH1 0x3 DUP6 ADD SSTORE PUSH1 0x80 DUP2 ADD MLOAD PUSH1 0x4 DUP6 ADD SSTORE PUSH2 0x308 PUSH1 0xA0 DUP3 ADD MLOAD ISZERO ISZERO PUSH1 0x5 DUP7 ADD SWAP1 PUSH1 0xFF DUP1 NOT DUP4 SLOAD AND SWAP2 ISZERO ISZERO AND OR SWAP1 SSTORE JUMP JUMPDEST PUSH1 0x40 MLOAD PUSH3 0x461BCD PUSH1 0xE5 SHL DUP2 MSTORE PUSH1 0x20 PUSH1 0x4 DUP3 ADD MSTORE PUSH1 0x32 PUSH1 0x24 DUP3 ADD MSTORE PUSH32 0x54686520726567756C61746F727920626F64792068617320616C726561647920 PUSH1 0x44 DUP3 ADD MSTORE PUSH18 0x6C6F636B656420697473206D6F6E65792121 PUSH1 0x70 SHL PUSH1 0x64 DUP3 ADD MSTORE PUSH1 0x84 SWAP1 REVERT JUMPDEST PUSH1 0x40 MLOAD PUSH3 0x461BCD PUSH1 0xE5 SHL DUP2 MSTORE PUSH1 0x20 PUSH1 0x4 DUP3 ADD MSTORE PUSH1 0x23 PUSH1 0x24 DUP3 ADD MSTORE PUSH32 0x5468652062616E6B206E6F7420796574206C6F636B656420697473206D6F6E65 PUSH1 0x44 DUP3 ADD MSTORE PUSH3 0x792121 PUSH1 0xE8 SHL PUSH1 0x64 DUP3 ADD MSTORE PUSH1 0x84 SWAP1 REVERT JUMPDEST PUSH1 0x40 MLOAD PUSH3 0x461BCD PUSH1 0xE5 SHL DUP2 MSTORE PUSH1 0x20 PUSH1 0x4 DUP3 ADD MSTORE PUSH1 0x39 PUSH1 0x24 DUP3 ADD MSTORE PUSH32 0x4163636573732064656E6965642061732074686520676976656E2062616E6B20 PUSH1 0x44 DUP3 ADD MSTORE PUSH32 0x61646472657373206973206E6F7420696E74656E646564212100000000000000 PUSH1 0x64 DUP3 ADD MSTORE PUSH1 0x84 SWAP1 REVERT JUMPDEST CALLVALUE PUSH2 0x47C JUMPI PUSH1 0x0 CALLDATASIZE PUSH1 0x3 NOT ADD SLT PUSH2 0x47C JUMPI CALLER PUSH1 0x0 MSTORE PUSH1 0x0 PUSH1 0x20 MSTORE PUSH2 0x1144 PUSH1 0x40 PUSH1 0x0 KECCAK256 SLOAD ISZERO PUSH2 0x1C7B JUMP JUMPDEST CALLER PUSH1 0x0 MSTORE PUSH1 0x1 PUSH1 0x20 MSTORE PUSH1 0x40 PUSH1 0x0 KECCAK256 SLOAD DUP1 PUSH1 0x0 MSTORE PUSH1 0x3 PUSH1 0x20 MSTORE PUSH2 0x1172 PUSH1 0x1 PUSH1 0xFF PUSH1 0x40 PUSH1 0x0 KECCAK256 SLOAD AND ISZERO ISZERO EQ PUSH2 0x1EE1 JUMP JUMPDEST DUP1 PUSH1 0x0 MSTORE PUSH1 0x2 PUSH1 0x20 MSTORE PUSH1 0x40 PUSH1 0x0 KECCAK256 PUSH1 0x40 MLOAD SWAP1 PUSH2 0x1C0 DUP3 ADD SWAP1 DUP3 DUP3 LT PUSH8 0xFFFFFFFFFFFFFFFF DUP4 GT OR PUSH2 0x466 JUMPI PUSH2 0x124D SWAP2 PUSH1 0x40 MSTORE PUSH1 0xFF PUSH1 0xD PUSH1 0x1 DUP1 PUSH1 0xA0 SHL SUB DUP4 SLOAD AND SWAP3 DUP4 DUP7 MSTORE PUSH1 0x1 DUP2 ADD SLOAD PUSH1 0x20 DUP8 ADD MSTORE PUSH1 0x2 DUP2 ADD SLOAD PUSH1 0x40 DUP8 ADD MSTORE PUSH1 0x3 DUP2 ADD SLOAD PUSH1 0x60 DUP8 ADD MSTORE PUSH1 0x4 DUP2 ADD SLOAD PUSH1 0x80 DUP8 ADD MSTORE DUP3 PUSH1 0x5 DUP3 ADD SLOAD AND ISZERO ISZERO PUSH1 0xA0 DUP8 ADD MSTORE PUSH1 0x6 DUP2 ADD SLOAD PUSH1 0xC0 DUP8 ADD MSTORE DUP3 PUSH1 0x7 DUP3 ADD SLOAD AND ISZERO ISZERO PUSH1 0xE0 DUP8 ADD MSTORE PUSH1 0x8 DUP2 ADD SLOAD PUSH2 0x100 DUP8 ADD MSTORE PUSH1 0x9 DUP2 ADD SLOAD PUSH2 0x120 DUP8 ADD MSTORE PUSH1 0xA DUP2 ADD SLOAD PUSH2 0x140 DUP8 ADD MSTORE PUSH1 0xB DUP2 ADD SLOAD PUSH2 0x160 DUP8 ADD MSTORE PUSH1 0xC DUP2 ADD SLOAD PUSH2 0x180 DUP8 ADD MSTORE ADD SLOAD AND ISZERO ISZERO PUSH2 0x1A0 DUP5 ADD MSTORE CALLER EQ PUSH2 0x1FA4 JUMP JUMPDEST PUSH1 0x80 DUP2 ADD MLOAD ISZERO PUSH2 0x138E JUMPI PUSH1 0xC0 DUP2 ADD MLOAD PUSH2 0x1323 JUMPI PUSH2 0x1274 PUSH2 0x12C PUSH2 0x253 PUSH1 0x80 DUP5 ADD MLOAD TIMESTAMP PUSH2 0x1D96 JUMP JUMPDEST PUSH2 0x7D0 SWAP2 PUSH1 0x0 DUP1 DUP1 DUP1 DUP7 CALLER DUP3 CALL ISZERO PUSH2 0x393 JUMPI PUSH2 0x37F SWAP3 PUSH2 0x120 DUP4 ADD MSTORE PUSH1 0x0 PUSH2 0x160 DUP4 ADD MSTORE TIMESTAMP PUSH2 0x140 DUP4 ADD MSTORE TIMESTAMP PUSH2 0x180 DUP4 ADD MSTORE PUSH1 0x1 PUSH2 0x1A0 DUP4 ADD MSTORE PUSH1 0x0 MSTORE PUSH1 0x2 PUSH1 0x20 MSTORE PUSH1 0xD PUSH2 0x1A0 PUSH1 0x40 PUSH1 0x0 KECCAK256 SWAP3 PUSH1 0x1 DUP1 PUSH1 0xA0 SHL SUB DUP2 MLOAD AND PUSH1 0x1 PUSH1 0x1 PUSH1 0x60 SHL SUB PUSH1 0xA0 SHL DUP6 SLOAD AND OR DUP5 SSTORE PUSH1 0x20 DUP2 ADD MLOAD PUSH1 0x1 DUP6 ADD SSTORE PUSH1 0x40 DUP2 ADD MLOAD PUSH1 0x2 DUP6 ADD SSTORE PUSH1 0x60 DUP2 ADD MLOAD PUSH1 0x3 DUP6 ADD SSTORE PUSH1 0x80 DUP2 ADD MLOAD PUSH1 0x4 DUP6 ADD SSTORE PUSH2 0x308 PUSH1 0xA0 DUP3 ADD MLOAD ISZERO ISZERO PUSH1 0x5 DUP7 ADD SWAP1 PUSH1 0xFF DUP1 NOT DUP4 SLOAD AND SWAP2 ISZERO ISZERO AND OR SWAP1 SSTORE JUMP JUMPDEST PUSH1 0x40 MLOAD PUSH3 0x461BCD PUSH1 0xE5 SHL DUP2 MSTORE PUSH1 0x20 PUSH1 0x4 DUP3 ADD MSTORE PUSH1 0x3D PUSH1 0x24 DUP3 ADD MSTORE PUSH32 0x54686520726567756C61746F727920626F647920686173206E6F7420616C7265 PUSH1 0x44 DUP3 ADD MSTORE PUSH32 0x6164792073656E642069747320666972737420726573706F6E73652121000000 PUSH1 0x64 DUP3 ADD MSTORE PUSH1 0x84 SWAP1 REVERT JUMPDEST PUSH1 0x40 MLOAD PUSH3 0x461BCD PUSH1 0xE5 SHL DUP2 MSTORE PUSH1 0x20 PUSH1 0x4 DUP3 ADD MSTORE PUSH1 0x37 PUSH1 0x24 DUP3 ADD MSTORE PUSH32 0x5468652062616E6B206E6F742079657420636F6D6D6974656420666F72207468 PUSH1 0x44 DUP3 ADD MSTORE PUSH32 0x65206163636F756E7420696E666F726D6174696F6E2121000000000000000000 PUSH1 0x64 DUP3 ADD MSTORE PUSH1 0x84 SWAP1 REVERT JUMPDEST CALLVALUE PUSH2 0x47C JUMPI PUSH1 0x0 CALLDATASIZE PUSH1 0x3 NOT ADD SLT PUSH2 0x47C JUMPI PUSH1 0x4 SLOAD PUSH1 0x40 MLOAD PUSH1 0x1 PUSH1 0x1 PUSH1 0xA0 SHL SUB SWAP1 SWAP2 AND DUP2 MSTORE PUSH1 0x20 SWAP1 RETURN JUMPDEST CALLVALUE PUSH2 0x47C JUMPI PUSH1 0x0 CALLDATASIZE PUSH1 0x3 NOT ADD SLT PUSH2 0x47C JUMPI PUSH1 0x20 PUSH1 0x5 SLOAD PUSH1 0x40 MLOAD SWAP1 DUP2 MSTORE RETURN JUMPDEST CALLVALUE PUSH2 0x47C JUMPI PUSH1 0x0 CALLDATASIZE PUSH1 0x3 NOT ADD SLT PUSH2 0x47C JUMPI CALLER PUSH1 0x0 MSTORE PUSH1 0x0 PUSH1 0x20 MSTORE PUSH2 0x1469 PUSH1 0x40 PUSH1 0x0 KECCAK256 SLOAD ISZERO PUSH2 0x1C7B JUMP JUMPDEST CALLER PUSH1 0x0 MSTORE PUSH1 0x1 PUSH1 0x20 MSTORE PUSH1 0x40 PUSH1 0x0 KECCAK256 SLOAD DUP1 PUSH1 0x0 MSTORE PUSH1 0x3 PUSH1 0x20 MSTORE PUSH1 0x1 PUSH1 0xFF PUSH1 0x40 PUSH1 0x0 KECCAK256 SLOAD AND ISZERO ISZERO SUB PUSH2 0x16E6 JUMPI DUP1 PUSH1 0x0 MSTORE PUSH1 0x2 PUSH1 0x20 MSTORE PUSH1 0x40 PUSH1 0x0 KECCAK256 PUSH1 0x40 MLOAD SWAP1 PUSH2 0x1C0 DUP3 ADD SWAP1 DUP3 DUP3 LT PUSH8 0xFFFFFFFFFFFFFFFF DUP4 GT OR PUSH2 0x466 JUMPI PUSH2 0x156E SWAP2 PUSH1 0x40 MSTORE PUSH1 0xFF PUSH1 0xD PUSH1 0x1 DUP1 PUSH1 0xA0 SHL SUB DUP4 SLOAD AND SWAP3 DUP4 DUP7 MSTORE PUSH1 0x1 DUP2 ADD SLOAD PUSH1 0x20 DUP8 ADD MSTORE PUSH1 0x2 DUP2 ADD SLOAD PUSH1 0x40 DUP8 ADD MSTORE PUSH1 0x3 DUP2 ADD SLOAD PUSH1 0x60 DUP8 ADD MSTORE PUSH1 0x4 DUP2 ADD SLOAD PUSH1 0x80 DUP8 ADD MSTORE DUP3 PUSH1 0x5 DUP3 ADD SLOAD AND ISZERO ISZERO PUSH1 0xA0 DUP8 ADD MSTORE PUSH1 0x6 DUP2 ADD SLOAD PUSH1 0xC0 DUP8 ADD MSTORE DUP3 PUSH1 0x7 DUP3 ADD SLOAD AND ISZERO ISZERO PUSH1 0xE0 DUP8 ADD MSTORE PUSH1 0x8 DUP2 ADD SLOAD PUSH2 0x100 DUP8 ADD MSTORE PUSH1 0x9 DUP2 ADD SLOAD PUSH2 0x120 DUP8 ADD MSTORE PUSH1 0xA DUP2 ADD SLOAD PUSH2 0x140 DUP8 ADD MSTORE PUSH1 0xB DUP2 ADD SLOAD PUSH2 0x160 DUP8 ADD MSTORE PUSH1 0xC DUP2 ADD SLOAD PUSH2 0x180 DUP8 ADD MSTORE ADD SLOAD AND ISZERO ISZERO PUSH2 0x1A0 DUP5 ADD MSTORE CALLER EQ PUSH2 0x1D37 JUMP JUMPDEST PUSH1 0x20 DUP2 ADD MLOAD ISZERO PUSH2 0x1695 JUMPI PUSH1 0x40 DUP2 ADD MLOAD PUSH2 0x1635 JUMPI PUSH2 0x1595 PUSH2 0x12C PUSH2 0x253 PUSH1 0x20 DUP5 ADD MLOAD TIMESTAMP PUSH2 0x1D96 JUMP JUMPDEST PUSH2 0x3E8 SWAP2 PUSH1 0x0 DUP1 DUP1 DUP1 DUP7 CALLER DUP3 CALL ISZERO PUSH2 0x393 JUMPI PUSH2 0x37F SWAP3 PUSH2 0x120 DUP4 ADD MSTORE TIMESTAMP PUSH2 0x140 DUP4 ADD MSTORE PUSH1 0x1 PUSH2 0x1A0 DUP4 ADD MSTORE PUSH1 0x0 MSTORE PUSH1 0x2 PUSH1 0x20 MSTORE PUSH1 0xD PUSH2 0x1A0 PUSH1 0x40 PUSH1 0x0 KECCAK256 SWAP3 PUSH1 0x1 DUP1 PUSH1 0xA0 SHL SUB DUP2 MLOAD AND PUSH1 0x1 PUSH1 0x1 PUSH1 0x60 SHL SUB PUSH1 0xA0 SHL DUP6 SLOAD AND OR DUP5 SSTORE PUSH1 0x20 DUP2 ADD MLOAD PUSH1 0x1 DUP6 ADD SSTORE PUSH1 0x40 DUP2 ADD MLOAD PUSH1 0x2 DUP6 ADD SSTORE PUSH1 0x60 DUP2 ADD MLOAD PUSH1 0x3 DUP6 ADD SSTORE PUSH1 0x80 DUP2 ADD MLOAD PUSH1 0x4 DUP6 ADD SSTORE PUSH2 0x308 PUSH1 0xA0 DUP3 ADD MLOAD ISZERO ISZERO PUSH1 0x5 DUP7 ADD SWAP1 PUSH1 0xFF DUP1 NOT DUP4 SLOAD AND SWAP2 ISZERO ISZERO AND OR SWAP1 SSTORE JUMP JUMPDEST PUSH1 0x40 MLOAD PUSH3 0x461BCD PUSH1 0xE5 SHL DUP2 MSTORE PUSH1 0x20 PUSH1 0x4 DUP3 ADD MSTORE PUSH1 0x32 PUSH1 0x24 DUP3 ADD MSTORE PUSH32 0x54686520526567756C61746F727920626F64792068617320616C726561647920 PUSH1 0x44 DUP3 ADD MSTORE PUSH18 0x6C6F636B656420697473206D6F6E65792121 PUSH1 0x70 SHL PUSH1 0x64 DUP3 ADD MSTORE PUSH1 0x84 SWAP1 REVERT JUMPDEST PUSH1 0x40 MLOAD PUSH3 0x461BCD PUSH1 0xE5 SHL DUP2 MSTORE PUSH1 0x20 PUSH1 0x4 DUP3 ADD MSTORE PUSH1 0x23 PUSH1 0x24 DUP3 ADD MSTORE PUSH32 0x5468652062616E6B206E6F7420796574206C6F636B656420746865206D6F6E65 PUSH1 0x44 DUP3 ADD MSTORE PUSH3 0x792121 PUSH1 0xE8 SHL PUSH1 0x64 DUP3 ADD MSTORE PUSH1 0x84 SWAP1 REVERT JUMPDEST PUSH1 0x40 MLOAD PUSH3 0x461BCD PUSH1 0xE5 SHL DUP2 MSTORE PUSH1 0x20 PUSH1 0x4 DUP3 ADD MSTORE PUSH1 0x21 PUSH1 0x24 DUP3 ADD MSTORE PUSH32 0x5468652070726F746F636F6C206973206E6F7420796574207374617274656421 PUSH1 0x44 DUP3 ADD MSTORE PUSH1 0x21 PUSH1 0xF8 SHL PUSH1 0x64 DUP3 ADD MSTORE PUSH1 0x84 SWAP1 REVERT JUMPDEST CALLVALUE PUSH2 0x47C JUMPI PUSH1 0x0 CALLDATASIZE PUSH1 0x3 NOT ADD SLT PUSH2 0x47C JUMPI CALLER PUSH1 0x0 MSTORE PUSH1 0x0 PUSH1 0x20 MSTORE PUSH2 0x175E PUSH1 0x40 PUSH1 0x0 KECCAK256 SLOAD ISZERO PUSH2 0x1C7B JUMP JUMPDEST CALLER PUSH1 0x0 MSTORE PUSH1 0x1 PUSH1 0x20 MSTORE PUSH1 0x40 PUSH1 0x0 KECCAK256 SLOAD DUP1 PUSH1 0x0 MSTORE PUSH1 0x3 PUSH1 0x20 MSTORE PUSH2 0x178C PUSH1 0x1 PUSH1 0xFF PUSH1 0x40 PUSH1 0x0 KECCAK256 SLOAD AND ISZERO ISZERO EQ PUSH2 0x1EE1 JUMP JUMPDEST DUP1 PUSH1 0x0 MSTORE PUSH1 0x2 PUSH1 0x20 MSTORE PUSH1 0x40 PUSH1 0x0 KECCAK256 PUSH1 0x40 MLOAD SWAP1 PUSH2 0x1C0 DUP3 ADD SWAP1 DUP3 DUP3 LT PUSH8 0xFFFFFFFFFFFFFFFF DUP4 GT OR PUSH2 0x466 JUMPI PUSH2 0x1867 SWAP2 PUSH1 0x40 MSTORE PUSH1 0xFF PUSH1 0xD PUSH1 0x1 DUP1 PUSH1 0xA0 SHL SUB DUP4 SLOAD AND SWAP3 DUP4 DUP7 MSTORE PUSH1 0x1 DUP2 ADD SLOAD PUSH1 0x20 DUP8 ADD MSTORE PUSH1 0x2 DUP2 ADD SLOAD PUSH1 0x40 DUP8 ADD MSTORE PUSH1 0x3 DUP2 ADD SLOAD PUSH1 0x60 DUP8 ADD MSTORE PUSH1 0x4 DUP2 ADD SLOAD PUSH1 0x80 DUP8 ADD MSTORE DUP3 PUSH1 0x5 DUP3 ADD SLOAD AND ISZERO ISZERO PUSH1 0xA0 DUP8 ADD MSTORE PUSH1 0x6 DUP2 ADD SLOAD PUSH1 0xC0 DUP8 ADD MSTORE DUP3 PUSH1 0x7 DUP3 ADD SLOAD AND ISZERO ISZERO PUSH1 0xE0 DUP8 ADD MSTORE PUSH1 0x8 DUP2 ADD SLOAD PUSH2 0x100 DUP8 ADD MSTORE PUSH1 0x9 DUP2 ADD SLOAD PUSH2 0x120 DUP8 ADD MSTORE PUSH1 0xA DUP2 ADD SLOAD PUSH2 0x140 DUP8 ADD MSTORE PUSH1 0xB DUP2 ADD SLOAD PUSH2 0x160 DUP8 ADD MSTORE PUSH1 0xC DUP2 ADD SLOAD PUSH2 0x180 DUP8 ADD MSTORE ADD SLOAD AND ISZERO ISZERO PUSH2 0x1A0 DUP5 ADD MSTORE CALLER EQ PUSH2 0x1FA4 JUMP JUMPDEST PUSH1 0xC0 DUP2 ADD MLOAD ISZERO PUSH2 0x18FA JUMPI PUSH2 0x100 DUP2 ADD MLOAD PUSH2 0x188F JUMPI PUSH2 0x1274 PUSH2 0x12C PUSH2 0x253 PUSH1 0xC0 DUP5 ADD MLOAD TIMESTAMP PUSH2 0x1D96 JUMP JUMPDEST PUSH1 0x40 MLOAD PUSH3 0x461BCD PUSH1 0xE5 SHL DUP2 MSTORE PUSH1 0x20 PUSH1 0x4 DUP3 ADD MSTORE PUSH1 0x3E PUSH1 0x24 DUP3 ADD MSTORE PUSH32 0x54686520726567756C61746F727920626F647920686173206E6F7420616C7265 PUSH1 0x44 DUP3 ADD MSTORE PUSH32 0x6164792073656E6420697473207365636F6E6420726573706F6E736521210000 PUSH1 0x64 DUP3 ADD MSTORE PUSH1 0x84 SWAP1 REVERT JUMPDEST PUSH1 0x40 MLOAD PUSH3 0x461BCD PUSH1 0xE5 SHL DUP2 MSTORE PUSH1 0x20 PUSH1 0x4 DUP3 ADD MSTORE PUSH1 0x39 PUSH1 0x24 DUP3 ADD MSTORE PUSH32 0x54686520726567756C61746F727920626F64792068617320616C726561647920 PUSH1 0x44 DUP3 ADD MSTORE PUSH32 0x73656E642069747320666972737420726573706F6E7365212100000000000000 PUSH1 0x64 DUP3 ADD MSTORE PUSH1 0x84 SWAP1 REVERT JUMPDEST CALLVALUE PUSH2 0x47C JUMPI PUSH1 0x20 CALLDATASIZE PUSH1 0x3 NOT ADD SLT PUSH2 0x47C JUMPI CALLER PUSH1 0x0 MSTORE PUSH1 0x0 PUSH1 0x20 MSTORE PUSH2 0x198E PUSH1 0x40 PUSH1 0x0 KECCAK256 SLOAD ISZERO PUSH2 0x1C7B JUMP JUMPDEST CALLER PUSH1 0x0 MSTORE PUSH1 0x1 PUSH1 0x20 MSTORE PUSH1 0x40 PUSH1 0x0 KECCAK256 SLOAD DUP1 PUSH1 0x0 MSTORE PUSH1 0x3 PUSH1 0x20 MSTORE PUSH2 0x19BC PUSH1 0x1 PUSH1 0xFF PUSH1 0x40 PUSH1 0x0 KECCAK256 SLOAD AND ISZERO ISZERO EQ PUSH2 0x1EE1 JUMP JUMPDEST DUP1 PUSH1 0x0 MSTORE PUSH1 0x2 PUSH1 0x20 MSTORE PUSH1 0x40 PUSH1 0x0 KECCAK256 PUSH1 0x40 MLOAD SWAP1 PUSH2 0x1C0 DUP3 ADD SWAP1 DUP3 DUP3 LT PUSH8 0xFFFFFFFFFFFFFFFF DUP4 GT OR PUSH2 0x466 JUMPI PUSH2 0x1A97 SWAP2 PUSH1 0x40 MSTORE PUSH1 0xFF PUSH1 0xD PUSH1 0x1 DUP1 PUSH1 0xA0 SHL SUB DUP4 SLOAD AND SWAP3 DUP4 DUP7 MSTORE PUSH1 0x1 DUP2 ADD SLOAD PUSH1 0x20 DUP8 ADD MSTORE PUSH1 0x2 DUP2 ADD SLOAD PUSH1 0x40 DUP8 ADD MSTORE PUSH1 0x3 DUP2 ADD SLOAD PUSH1 0x60 DUP8 ADD MSTORE PUSH1 0x4 DUP2 ADD SLOAD PUSH1 0x80 DUP8 ADD MSTORE DUP3 PUSH1 0x5 DUP3 ADD SLOAD AND ISZERO ISZERO PUSH1 0xA0 DUP8 ADD MSTORE PUSH1 0x6 DUP2 ADD SLOAD PUSH1 0xC0 DUP8 ADD MSTORE DUP3 PUSH1 0x7 DUP3 ADD SLOAD AND ISZERO ISZERO PUSH1 0xE0 DUP8 ADD MSTORE PUSH1 0x8 DUP2 ADD SLOAD PUSH2 0x100 DUP8 ADD MSTORE PUSH1 0x9 DUP2 ADD SLOAD PUSH2 0x120 DUP8 ADD MSTORE PUSH1 0xA DUP2 ADD SLOAD PUSH2 0x140 DUP8 ADD MSTORE PUSH1 0xB DUP2 ADD SLOAD PUSH2 0x160 DUP8 ADD MSTORE PUSH1 0xC DUP2 ADD SLOAD PUSH2 0x180 DUP8 ADD MSTORE ADD SLOAD AND ISZERO ISZERO PUSH2 0x1A0 DUP5 ADD MSTORE CALLER EQ PUSH2 0x1FA4 JUMP JUMPDEST PUSH1 0x40 DUP2 ADD MLOAD ISZERO PUSH2 0x1B98 JUMPI PUSH1 0x80 DUP2 ADD MLOAD PUSH2 0x1B45 JUMPI PUSH2 0xA16 SWAP2 PUSH2 0x1AC2 PUSH2 0x12C PUSH2 0x982 PUSH1 0x40 DUP6 ADD MLOAD TIMESTAMP PUSH2 0x1D96 JUMP JUMPDEST PUSH1 0x4 CALLDATALOAD PUSH1 0x60 DUP4 ADD MSTORE TIMESTAMP PUSH1 0x80 DUP4 ADD MSTORE PUSH1 0x0 MSTORE PUSH1 0x2 PUSH1 0x20 MSTORE PUSH1 0xD PUSH2 0x1A0 PUSH1 0x40 PUSH1 0x0 KECCAK256 SWAP3 PUSH1 0x1 DUP1 PUSH1 0xA0 SHL SUB DUP2 MLOAD AND PUSH1 0x1 PUSH1 0x1 PUSH1 0x60 SHL SUB PUSH1 0xA0 SHL DUP6 SLOAD AND OR DUP5 SSTORE PUSH1 0x20 DUP2 ADD MLOAD PUSH1 0x1 DUP6 ADD SSTORE PUSH1 0x40 DUP2 ADD MLOAD PUSH1 0x2 DUP6 ADD SSTORE PUSH1 0x60 DUP2 ADD MLOAD PUSH1 0x3 DUP6 ADD SSTORE PUSH1 0x80 DUP2 ADD MLOAD PUSH1 0x4 DUP6 ADD SSTORE PUSH2 0x308 PUSH1 0xA0 DUP3 ADD MLOAD ISZERO ISZERO PUSH1 0x5 DUP7 ADD SWAP1 PUSH1 0xFF DUP1 NOT DUP4 SLOAD AND SWAP2 ISZERO ISZERO AND OR SWAP1 SSTORE JUMP JUMPDEST PUSH1 0x40 MLOAD PUSH3 0x461BCD PUSH1 0xE5 SHL DUP2 MSTORE PUSH1 0x20 PUSH1 0x4 DUP3 ADD MSTORE PUSH1 0x25 PUSH1 0x24 DUP3 ADD MSTORE PUSH32 0x5468652062616E6B2068617320616C726561647920636F6D6D69747465642050 PUSH1 0x44 DUP3 ADD MSTORE PUSH5 0x6F424C2121 PUSH1 0xD8 SHL PUSH1 0x64 DUP3 ADD MSTORE PUSH1 0x84 SWAP1 REVERT JUMPDEST PUSH1 0x40 MLOAD PUSH3 0x461BCD PUSH1 0xE5 SHL DUP2 MSTORE PUSH1 0x20 PUSH1 0x4 DUP3 ADD MSTORE PUSH1 0x2E PUSH1 0x24 DUP3 ADD MSTORE PUSH32 0x54686520726567756C61746F727920626F6479206E6F7420796574206C6F636B PUSH1 0x44 DUP3 ADD MSTORE PUSH14 0x656420697473206D6F6E65792121 PUSH1 0x90 SHL PUSH1 0x64 DUP3 ADD MSTORE PUSH1 0x84 SWAP1 REVERT JUMPDEST CALLVALUE PUSH2 0x47C JUMPI PUSH1 0x0 CALLDATASIZE PUSH1 0x3 NOT ADD SLT PUSH2 0x47C JUMPI DUP1 PUSH2 0x3E8 PUSH1 0x20 SWAP3 MSTORE RETURN JUMPDEST PUSH1 0x4 CALLDATALOAD SWAP1 PUSH1 0x1 PUSH1 0x1 PUSH1 0xA0 SHL SUB DUP3 AND DUP3 SUB PUSH2 0x47C JUMPI JUMP JUMPDEST PUSH1 0x40 SWAP1 PUSH1 0x3 NOT ADD SLT PUSH2 0x47C JUMPI PUSH1 0x4 CALLDATALOAD PUSH1 0x1 PUSH1 0x1 PUSH1 0xA0 SHL SUB DUP2 AND DUP2 SUB PUSH2 0x47C JUMPI SWAP1 PUSH1 0x24 CALLDATALOAD DUP1 ISZERO ISZERO DUP2 SUB PUSH2 0x47C JUMPI SWAP1 JUMP JUMPDEST DUP1 ISZERO ISZERO SWAP1 DUP2 PUSH2 0x1C6E JUMPI JUMPDEST POP ISZERO PUSH2 0x1C69 JUMPI PUSH1 0x1 SWAP1 JUMP JUMPDEST PUSH1 0x0 SWAP1 JUMP JUMPDEST SWAP1 POP PUSH1 0x6 SLOAD LT ISZERO CODESIZE PUSH2 0x1C5E JUMP JUMPDEST ISZERO PUSH2 0x1C82 JUMPI JUMP JUMPDEST PUSH1 0x64 PUSH1 0x40 MLOAD PUSH3 0x461BCD PUSH1 0xE5 SHL DUP2 MSTORE PUSH1 0x20 PUSH1 0x4 DUP3 ADD MSTORE PUSH1 0x20 PUSH1 0x24 DUP3 ADD MSTORE PUSH32 0x5468652062616E6B20697320616C726561647920726567697374657265642121 PUSH1 0x44 DUP3 ADD MSTORE REVERT JUMPDEST ISZERO PUSH2 0x1CCD JUMPI JUMP JUMPDEST PUSH1 0x40 MLOAD PUSH3 0x461BCD PUSH1 0xE5 SHL DUP2 MSTORE PUSH1 0x20 PUSH1 0x4 DUP3 ADD MSTORE PUSH1 0x1A PUSH1 0x24 DUP3 ADD MSTORE PUSH32 0x496E636F7272656374206C6F636B696E6720616D6F756E742121000000000000 PUSH1 0x44 DUP3 ADD MSTORE PUSH1 0x64 SWAP1 REVERT JUMPDEST PUSH1 0x0 NOT DUP2 EQ PUSH2 0x1D21 JUMPI PUSH1 0x1 ADD SWAP1 JUMP JUMPDEST PUSH4 0x4E487B71 PUSH1 0xE0 SHL PUSH1 0x0 MSTORE PUSH1 0x11 PUSH1 0x4 MSTORE PUSH1 0x24 PUSH1 0x0 REVERT JUMPDEST ISZERO PUSH2 0x1D3E JUMPI JUMP JUMPDEST PUSH1 0x40 MLOAD PUSH3 0x461BCD PUSH1 0xE5 SHL DUP2 MSTORE PUSH1 0x20 PUSH1 0x4 DUP3 ADD MSTORE PUSH1 0x2A PUSH1 0x24 DUP3 ADD MSTORE PUSH32 0x596F7520617265206E6F7420686F6C64696E672074686520696E74656E646564 PUSH1 0x44 DUP3 ADD MSTORE PUSH10 0x20616464726573732121 PUSH1 0xB0 SHL PUSH1 0x64 DUP3 ADD MSTORE PUSH1 0x84 SWAP1 REVERT JUMPDEST SWAP2 SWAP1 DUP3 SUB SWAP2 DUP3 GT PUSH2 0x1D21 JUMPI JUMP JUMPDEST ISZERO PUSH2 0x1DAA JUMPI JUMP JUMPDEST PUSH1 0x40 MLOAD PUSH3 0x461BCD PUSH1 0xE5 SHL DUP2 MSTORE PUSH1 0x20 PUSH1 0x4 DUP3 ADD MSTORE PUSH1 0x1C PUSH1 0x24 DUP3 ADD MSTORE PUSH32 0x54696D656C696D6974206E6F7420796574206578636565646564212100000000 PUSH1 0x44 DUP3 ADD MSTORE PUSH1 0x64 SWAP1 REVERT JUMPDEST ISZERO PUSH2 0x1DF6 JUMPI JUMP JUMPDEST PUSH1 0x40 MLOAD PUSH3 0x461BCD PUSH1 0xE5 SHL DUP2 MSTORE PUSH1 0x20 PUSH1 0x4 DUP3 ADD MSTORE PUSH1 0x37 PUSH1 0x24 DUP3 ADD MSTORE PUSH32 0x4F6E6C79207265677561746F727920626F647920686173206163636573732074 PUSH1 0x44 DUP3 ADD MSTORE PUSH32 0x6F20696E766F6B65207468652066756E6374696F6E2121000000000000000000 PUSH1 0x64 DUP3 ADD MSTORE PUSH1 0x84 SWAP1 REVERT JUMPDEST ISZERO PUSH2 0x1E68 JUMPI JUMP JUMPDEST PUSH1 0x40 MLOAD PUSH3 0x461BCD PUSH1 0xE5 SHL DUP2 MSTORE PUSH1 0x20 PUSH1 0x4 DUP3 ADD MSTORE PUSH1 0x45 PUSH1 0x24 DUP3 ADD MSTORE PUSH32 0x54686520676976656E2062616E6B206164647265737320697320696E636F7272 PUSH1 0x44 DUP3 ADD MSTORE PUSH32 0x6563742E205468652062616E6B20697320616C72656164792072656769737465 PUSH1 0x64 DUP3 ADD MSTORE PUSH5 0x7265642121 PUSH1 0xD8 SHL PUSH1 0x84 DUP3 ADD MSTORE PUSH1 0xA4 SWAP1 REVERT JUMPDEST ISZERO PUSH2 0x1EE8 JUMPI JUMP JUMPDEST PUSH1 0x40 MLOAD PUSH3 0x461BCD PUSH1 0xE5 SHL DUP2 MSTORE PUSH1 0x20 PUSH1 0x4 DUP3 ADD MSTORE PUSH1 0x45 PUSH1 0x24 DUP3 ADD MSTORE PUSH32 0x4E6F20696E7374616E6365206F66207468652062616E6B207265676973747261 PUSH1 0x44 DUP3 ADD MSTORE PUSH32 0x74696F6E2070726F746F636F6C2069732072756E6E696E672061742070726573 PUSH1 0x64 DUP3 ADD MSTORE PUSH5 0x656E742121 PUSH1 0xD8 SHL PUSH1 0x84 DUP3 ADD MSTORE PUSH1 0xA4 SWAP1 REVERT JUMPDEST ISZERO PUSH2 0x1F68 JUMPI JUMP JUMPDEST PUSH1 0x40 MLOAD PUSH3 0x461BCD PUSH1 0xE5 SHL DUP2 MSTORE PUSH1 0x20 PUSH1 0x4 DUP3 ADD MSTORE PUSH1 0x14 PUSH1 0x24 DUP3 ADD MSTORE PUSH20 0x54696D656C696D69742065786365656465642121 PUSH1 0x60 SHL PUSH1 0x44 DUP3 ADD MSTORE PUSH1 0x64 SWAP1 REVERT JUMPDEST ISZERO PUSH2 0x1FAB JUMPI JUMP JUMPDEST PUSH1 0x40 MLOAD PUSH3 0x461BCD PUSH1 0xE5 SHL DUP2 MSTORE PUSH1 0x20 PUSH1 0x4 DUP3 ADD MSTORE PUSH1 0x43 PUSH1 0x24 DUP3 ADD MSTORE PUSH32 0x4163636573732064656E696564206173207468652062616E6B20646F6573206E PUSH1 0x44 DUP3 ADD MSTORE PUSH32 0x6F7420686F6C642074686520696E74656E6465642062616E6B20616464726573 PUSH1 0x64 DUP3 ADD MSTORE PUSH3 0x732121 PUSH1 0xE8 SHL PUSH1 0x84 DUP3 ADD MSTORE PUSH1 0xA4 SWAP1 REVERT INVALID LOG2 PUSH5 0x6970667358 0x22 SLT KECCAK256 0x22 BALANCE CALLDATALOAD CALLDATALOAD 0xC8 0xBD CREATE CREATE2 MUL PUSH8 0x359532506F531982 ORIGIN 0xE0 0x49 CALLCODE LOG2 0xC3 MULMOD 0x5C PUSH11 0x1CC396FC764736F6C6343 STOP ADDMOD SLT STOP CALLER "
		},
		"gasEstimates": {
			"creation": {
				"codeDepositCost": "1656000",
				"executionCost": "35996",
				"totalCost": "1691996"
			},
			"external": {
				"bankRegProtocolIDGenerator()": "2346",
				"checkIfCommitmentMatches(address,bool)": "infinite",
				"commitPoBL(bytes32)": "355273",
				"exit1BankReg()": "infinite",
				"exit2BankReg(address)": "infinite",
				"exit3BankReg()": "infinite",
				"exit4BankReg()": "infinite",
				"getBankID(address)": "2585",
				"isBankIDValid(uint256)": "2571",
				"lockMoneyByBank()": "421695",
				"lockMoneyByRegulatoryBody(address)": "357683",
				"lockingAmount()": "150",
				"regulatory_Body()": "2392",
				"sendVerificationResult(address,bool)": "infinite",
				"timeLimit()": "397"
			}
		},
		"methodIdentifiers": {
			"bankRegProtocolIDGenerator()": "45b0f171",
			"checkIfCommitmentMatches(address,bool)": "c5fe01e4",
			"commitPoBL(bytes32)": "294a5806",
			"exit1BankReg()": "379cc80d",
			"exit2BankReg(address)": "f93be9e3",
			"exit3BankReg()": "62f59501",
			"exit4BankReg()": "33bcc388",
			"getBankID(address)": "9cfd3699",
			"isBankIDValid(uint256)": "9ec802ff",
			"lockMoneyByBank()": "bbd9f9b1",
			"lockMoneyByRegulatoryBody(address)": "75e5a871",
			"lockingAmount()": "25ab292e",
			"regulatory_Body()": "5013ad87",
			"sendVerificationResult(address,bool)": "d1706b6c",
			"timeLimit()": "c08d1fe5"
		}
	},
	"abi": [
		{
			"inputs": [],
			"stateMutability": "nonpayable",
			"type": "constructor"
		},
		{
			"inputs": [],
			"name": "bankRegProtocolIDGenerator",
			"outputs": [
				{
					"internalType": "uint256",
					"name": "",
					"type": "uint256"
				}
			],
			"stateMutability": "view",
			"type": "function"
		},
		{
			"inputs": [
				{
					"internalType": "address",
					"name": "_bankAddr",
					"type": "address"
				},
				{
					"internalType": "bool",
					"name": "_response1",
					"type": "bool"
				}
			],
			"name": "checkIfCommitmentMatches",
			"outputs": [],
			"stateMutability": "nonpayable",
			"type": "function"
		},
		{
			"inputs": [
				{
					"internalType": "bytes32",
					"name": "_commit",
					"type": "bytes32"
				}
			],
			"name": "commitPoBL",
			"outputs": [],
			"stateMutability": "nonpayable",
			"type": "function"
		},
		{
			"inputs": [],
			"name": "exit1BankReg",
			"outputs": [],
			"stateMutability": "nonpayable",
			"type": "function"
		},
		{
			"inputs": [
				{
					"internalType": "address",
					"name": "_bankAddr",
					"type": "address"
				}
			],
			"name": "exit2BankReg",
			"outputs": [],
			"stateMutability": "nonpayable",
			"type": "function"
		},
		{
			"inputs": [],
			"name": "exit3BankReg",
			"outputs": [],
			"stateMutability": "nonpayable",
			"type": "function"
		},
		{
			"inputs": [],
			"name": "exit4BankReg",
			"outputs": [],
			"stateMutability": "nonpayable",
			"type": "function"
		},
		{
			"inputs": [
				{
					"internalType": "address",
					"name": "_bankAddr",
					"type": "address"
				}
			],
			"name": "getBankID",
			"outputs": [
				{
					"internalType": "uint256",
					"name": "",
					"type": "uint256"
				}
			],
			"stateMutability": "view",
			"type": "function"
		},
		{
			"inputs": [
				{
					"internalType": "uint256",
					"name": "_bankID",
					"type": "uint256"
				}
			],
			"name": "isBankIDValid",
			"outputs": [
				{
					"internalType": "bool",
					"name": "",
					"type": "bool"
				}
			],
			"stateMutability": "view",
			"type": "function"
		},
		{
			"inputs": [],
			"name": "lockMoneyByBank",
			"outputs": [],
			"stateMutability": "payable",
			"type": "function"
		},
		{
			"inputs": [
				{
					"internalType": "address",
					"name": "_bankAddr",
					"type": "address"
				}
			],
			"name": "lockMoneyByRegulatoryBody",
			"outputs": [],
			"stateMutability": "payable",
			"type": "function"
		},
		{
			"inputs": [],
			"name": "lockingAmount",
			"outputs": [
				{
					"internalType": "uint256",
					"name": "",
					"type": "uint256"
				}
			],
			"stateMutability": "view",
			"type": "function"
		},
		{
			"inputs": [],
			"name": "regulatory_Body",
			"outputs": [
				{
					"internalType": "address",
					"name": "",
					"type": "address"
				}
			],
			"stateMutability": "view",
			"type": "function"
		},
		{
			"inputs": [
				{
					"internalType": "address",
					"name": "_bankAddr",
					"type": "address"
				},
				{
					"internalType": "bool",
					"name": "_response2",
					"type": "bool"
				}
			],
			"name": "sendVerificationResult",
			"outputs": [],
			"stateMutability": "nonpayable",
			"type": "function"
		},
		{
			"inputs": [],
			"name": "timeLimit",
			"outputs": [
				{
					"internalType": "uint256",
					"name": "",
					"type": "uint256"
				}
			],
			"stateMutability": "view",
			"type": "function"
		}
	]
}