{
	"data": {
		"bytecode": {
			"linkReferences": {},
			"object": "60803461007f57601f61229e38819003918201601f19168301916001600160401b038311848410176100845780849260209460405283398101031261007f57516001600160a01b0381169081900361007f57600060065560018060a01b0319818160005416176000556001541617600155604051612203908161009b8239f35b600080fd5b634e487b7160e01b600052604160045260246000fdfe608080604052600436101561001357600080fd5b60003560e01c908163193b39b5146117b9575080632558196e146114d057806325ab292e146114b357806327664ea11461148a5780637f9794c61461130f578063845a6c5d146110b5578063b53327a714610ee9578063c08d1fe514610ecc578063c5fe01e414610b72578063d1706b6c14610783578063e1ef759414610736578063e8c39e0f146104625763f8ad2390146100ae57600080fd5b602036600319011261045d57600154604051639ec802ff60e01b8152600480359082015290602090829060249082906001600160a01b03165afa9081156104515761010791600191600091610422575b50151514611bfe565b336000526002602052604060002060043560005260205261013060ff6040600020541615611c3d565b3360005260036020526040600020600435600052602052604060002054600052600560205260ff6040600020541661039f5761016f6103e83414611ca4565b6006546000198114610389578060016103729201600655336000526003602052604060002060043560005260205260018101604060002055600181016000526004602052600160406000209160ff600f604051946101cc86611b91565b6003810154606087015260048101546080870152600581015460a087015282600682015416151560c0870152600781015460e08701528260088201541615156101008701526009810154610120870152600a810154610140870152600b810154610160870152600c810154610180870152600d8101546101a0870152600e8101546101c087015201541615156101e08401523383526004356020840152426040840152016000526004602052600f6101e060406000209260018060a01b038151166001600160601b0360a01b8554161784556020810151600185015560408101516002850155606081015160038501556080810151600485015560a081015160058501556102ef60c08201511515600686019060ff801983541691151516179055565b60e081015160078501556103196101008201511515600886019060ff801983541691151516179055565b6101208101516009850155610140810151600a850155610160810151600b850155610180810151600c8501556101a0810151600d8501556101c0810151600e8501550151151591019060ff801983541691151516179055565b60056020526040600020805460ff19166001179055005b634e487b7160e01b600052601160045260246000fd5b60405162461bcd60e51b815260206004820152604f60248201527f50726576696f757320696e7374616e6365206f662074686520637573746f6d6560448201527f7220726567697374726174696f6e2070726f746f636f6c206973206e6f74207960648201526e6574207465726d696e61746564212160881b608482015260a490fd5b610444915060203d60201161044a575b61043c8183611bc4565b810190611be6565b386100fe565b503d610432565b6040513d6000823e3d90fd5b600080fd5b3461045d57602036600319011261045d57600154604051639ec802ff60e01b8152600480359082015290602090829060249082906001600160a01b03165afa908115610451576104bf916001916000916107175750151514611bfe565b33600052600260205260406000206004356000526020526104e860ff6040600020541615611c3d565b3360005260036020526040600020600435600052602052604060002054806000526005602052610524600160ff60406000205416151514611cf0565b80600052600460205260406000206106016040519161054283611b91565b60ff600f60018060a01b038354169283865260018101546020870152600281015460408701526003810154606087015260048101546080870152600581015460a087015282600682015416151560c0870152600781015460e08701528260088201541615156101008701526009810154610120870152600a810154610140870152600b810154610160870152600c810154610180870152600d8101546101a0870152600e8101546101c087015201541615156101e08401523314611d74565b610612600435602083015114611ddc565b61062160a08201511515612099565b61062f60e08201511561210b565b61064961012c61064360a084015142611eef565b11611efc565b60008080806107d03382f11561045157610703916107d061016083015260006101a083015242610180830152426101c083015260016101e08301526000526004602052600f6101e060406000209260018060a01b038151166001600160601b0360a01b8554161784556020810151600185015560408101516002850155606081015160038501556080810151600485015560a081015160058501556102ef60c08201511515600686019060ff801983541691151516179055565b60056020526040600020805460ff19169055005b610730915060203d60201161044a5761043c8183611bc4565b836100fe565b3461045d57604036600319011261045d576001600160a01b03610757611b4c565b1660005260026020526040600020602435600052602052602060ff604060002054166040519015158152f35b3461045d5761079136611b62565b600154604051639cfd369960e01b8152336004820152906001600160a01b0316602082602481845afa91821561045157600092610b3d575b50602060249160405192838092639ec802ff60e01b82528660048301525afa9081156104515761080691600191600091610b1e5750151514611bfe565b60018060a01b038316600052600260205260406000208160005260205261083560ff6040600020541615611c3d565b60018060a01b038316600052600360205260406000208160005260205260406000205490816000526005602052610878600160ff60406000205416151514611cf0565b81600052600460205260406000209261095e6040519461089786611b91565b80546001600160a01b0390811680885260018301546020890152600283015460408901526003830154606089015260048301546080890152600583015460a0890152600683015460ff908116151560c08a0152600784015460e08a01526008840154811615156101008a015260098401546101208a0152600a8401546101408a0152600b8401546101608a0152600c8401546101808a0152600d8401546101a08a0152600e8401546101c08a0152600f9093015490921615156101e0880152871614611f48565b61096d82602086015114611fa0565b61097c60e0850151151561216e565b610120840151610ac0576109a161012c61099a60e087015142611eef565b1115611ffe565b1515610100840181905242610120850152936103e86000808080846001600160a01b03871682f115610451576000808080843382f1156104515761070395816001926101608801526101a087015242610180870152426101c087015214600014610ab1576001600160a01b0316600090815260026020908152604080832093835292905220805460ff191660011790555b6000526004602052600f6101e060406000209260018060a01b038151166001600160601b0360a01b8554161784556020810151600185015560408101516002850155606081015160038501556080810151600485015560a081015160058501556102ef60c08201511515600686019060ff801983541691151516179055565b505060016101e0830152610a32565b60405162461bcd60e51b815260206004820152603060248201527f5468652062616e6b2068617320616c726561647920676976656e20697473207360448201526f65636f6e6420726573706f6e7365212160801b6064820152608490fd5b610b37915060203d60201161044a5761043c8183611bc4565b866100fe565b9091506020813d602011610b6a575b81610b5960209383611bc4565b8101031261045d57519060206107c9565b3d9150610b4c565b3461045d57610b8036611b62565b600154604051639cfd369960e01b81523360048201529192906001600160a01b0316602083602481845afa92831561045157600093610e97575b50602060249160405192838092639ec802ff60e01b82528760048301525afa90811561045157610bf791600191600091610b1e5750151514611bfe565b60018060a01b0381166000526002602052604060002082600052602052610c2660ff6040600020541615611c3d565b60018060a01b038116600052600360205260406000208260005260205260406000205492836000526005602052610c69600160ff60406000205416151514611cf0565b836000526004602052610d5d604060002093610d5260405195610c8b87611b91565b80546001600160a01b03908116808952600183015460208a0152600283015460408a0152600383015460608a0152600483015460808a0152600583015460a08a0152600683015460ff908116151560c08b0152600784015460e08b01526008840154811615156101008b015260098401546101208b0152600a8401546101408b0152600b8401546101608b0152600c8401546101808b0152600d8401546101a08b0152600e8401546101c08b0152600f9093015490921615156101e0890152861614611f48565b602085015114611fa0565b610d6c60a08401511515612099565b610d7a60e08401511561210b565b610d8e61012c61099a60a086015142611eef565b15801560c08401524260e0840152610e27575b50610e25916000526004602052600f6101e060406000209260018060a01b038151166001600160601b0360a01b8554161784556020810151600185015560408101516002850155606081015160038501556080810151600485015560a081015160058501556102ef60c08201511515600686019060ff801983541691151516179055565b005b600080806103e8819460018060a01b031682f1156104515760008080806103e83382f11561045157610e25916103e86101608301526103e86101a083015242610180830152426101c083015260016101e0830152806000526005602052604060002060ff19815416905591610da1565b9092506020813d602011610ec4575b81610eb360209383611bc4565b8101031261045d5751916020610bba565b3d9150610ea6565b3461045d57600036600319011261045d57602060405161012c8152f35b3461045d57602036600319011261045d57600154604051639ec802ff60e01b8152600480359082015290602090829060249082906001600160a01b03165afa90811561045157610f46916001916000916107175750151514611bfe565b3360005260026020526040600020600435600052602052610f6f60ff6040600020541615611c3d565b3360005260036020526040600020600435600052602052604060002054806000526005602052610fab600160ff60406000205416151514611cf0565b8060005260046020526040600020610fc96040519161054283611b91565b610fda600435602083015114611ddc565b610fe960408201511515611e37565b610ff7606082015115611e93565b61100b61012c610643604084015142611eef565b6103e8916000808080863382f11561045157610703926101608301524261018083015260016101e08301526000526004602052600f6101e060406000209260018060a01b038151166001600160601b0360a01b8554161784556020810151600185015560408101516002850155606081015160038501556080810151600485015560a081015160058501556102ef60c08201511515600686019060ff801983541691151516179055565b3461045d57604036600319011261045d57336000526002602052604060002060243560005260205260ff604060002054166112b857600154604051639ec802ff60e01b81526024803560048301529091602091839182906001600160a01b03165afa90811561045157611135916001916000916107175750151514611bfe565b3360005260036020526040600020602435600052602052604060002054806000526005602052611171600160ff60406000205416151514611cf0565b806000526004602052604060002061118f6040519161054283611b91565b6111a0602435602083015114611ddc565b6111af60608201511515612041565b60a081015161125d57610e25916111d061012c61099a606085015142611eef565b60043560808301524260a08301526000526004602052600f6101e060406000209260018060a01b038151166001600160601b0360a01b8554161784556020810151600185015560408101516002850155606081015160038501556080810151600485015560a081015160058501556102ef60c08201511515600686019060ff801983541691151516179055565b60405162461bcd60e51b815260206004820152602d60248201527f54686520637573746f6d65722068617320616c726561647920636f6d6d69746560448201526c64207468652076616c7565212160981b6064820152608490fd5b60405162461bcd60e51b815260206004820152602960248201527f596f752061726520616c7265616479207265676973746572656420666f7220746044820152683434b9903130b7359760b91b6064820152608490fd5b3461045d57602036600319011261045d57600154604051639ec802ff60e01b8152600480359082015290602090829060249082906001600160a01b03165afa9081156104515761136c916001916000916107175750151514611bfe565b336000526002602052604060002060043560005260205261139560ff6040600020541615611c3d565b33600052600360205260406000206004356000526020526040600020548060005260056020526113d1600160ff60406000205416151514611cf0565b80600052600460205260406000206113ef6040519161054283611b91565b611400600435602083015114611ddc565b61140f60e0820151151561216e565b61012081015161142d5761064961012c61064360e084015142611eef565b60405162461bcd60e51b815260206004820152602f60248201527f5468652062616e6b2068617320616c72656164792073656e642069747320736560448201526e636f6e6420726573706f6e7365212160881b6064820152608490fd5b3461045d57600036600319011261045d576000546040516001600160a01b039091168152602090f35b3461045d57600036600319011261045d5760206040516103e88152f35b602036600319011261045d576114e4611b4c565b600154604051639cfd369960e01b815233600482015291906001600160a01b0316602083602481845afa92831561045157600093611784575b5091602060249360405194858092639ec802ff60e01b82528560048301525afa801561045157600161155d91610e2595600091610b1e5750151514611bfe565b60018060a01b038216600052600260205260406000208160005260205261158c60ff6040600020541615611c3d565b60018060a01b03821660005260036020526040600020816000526020526116ce604060002054918260005260056020526115d2600160ff60406000205416151514611cf0565b6115df6103e83414611ca4565b8260005260046020526116c36040600020604051956115fd87611b91565b81546001600160a01b03908116808952600184015460208a0152600284015460408a0152600384015460608a0152600484015460808a0152600584015460a08a0152600684015460ff908116151560c08b0152600785015460e08b01526008850154811615156101008b015260098501546101208b0152600a8501546101408b0152600b8501546101608b0152600c8501546101808b0152600d8501546101a08b0152600e8501546101c08b0152600f9094015490931615156101e08901521614611f48565b602084015114611fa0565b6116dd60408301511515611e37565b6116eb606083015115611e93565b6116ff61012c61099a604085015142611eef565b4260608301526000526004602052600f6101e060406000209260018060a01b038151166001600160601b0360a01b8554161784556020810151600185015560408101516002850155606081015160038501556080810151600485015560a081015160058501556102ef60c08201511515600686019060ff801983541691151516179055565b92506020833d6020116117b1575b8161179f60209383611bc4565b8101031261045d57915191602061151d565b3d9150611792565b3461045d57602036600319011261045d576117d2611b4c565b600154639cfd369960e01b83523360048401526001600160a01b0316602083602481845afa92831561045157600093611b17575b50602060249160405192838092639ec802ff60e01b82528760048301525afa9081156104515761184391600191600091611af85750151514611bfe565b60018060a01b038116600052600260205260406000208260005260205261187260ff6040600020541615611c3d565b60018060a01b03811660005260036020526040600020826000526020526119a7604060002054928360005260056020526118b8600160ff60406000205416151514611cf0565b83600052600460205261199c6040600020604051946118d686611b91565b81546001600160a01b0390811680885260018401546020890152600284015460408901526003840154606089015260048401546080890152600584015460a0890152600684015460ff908116151560c08a0152600785015460e08a01526008850154811615156101008a015260098501546101208a0152600a8501546101408a0152600b8501546101608a0152600c8501546101808a0152600d8501546101a08a0152600e8501546101c08a0152600f9094015490931615156101e08801521614611f48565b602083015114611fa0565b6119b660608201511515612041565b60a0810151611a8d576119d361012c610643604084015142611eef565b60008080806107d03382f115610451576107039160006101608301526107d06101a083015242610180830152426101c083015260016101e08301526000526004602052600f6101e060406000209260018060a01b038151166001600160601b0360a01b8554161784556020810151600185015560408101516002850155606081015160038501556080810151600485015560a081015160058501556102ef60c08201511515600686019060ff801983541691151516179055565b60405162461bcd60e51b815260206004820152603f60248201527f54686520637573746f6d65722068617320616c726561647920636f6d6d69746560448201527f6420666f7220746865206163636f756e7420696e666f726d6174696f6e2121006064820152608490fd5b611b11915060203d60201161044a5761043c8183611bc4565b856100fe565b9092506020813d602011611b44575b81611b3360209383611bc4565b8101031261045d5751916020611806565b3d9150611b26565b600435906001600160a01b038216820361045d57565b604090600319011261045d576004356001600160a01b038116810361045d5790602435801515810361045d5790565b610200810190811067ffffffffffffffff821117611bae57604052565b634e487b7160e01b600052604160045260246000fd5b90601f8019910116810190811067ffffffffffffffff821117611bae57604052565b9081602091031261045d5751801515810361045d5790565b15611c0557565b60405162461bcd60e51b815260206004820152601060248201526f496e76616c69642042616e6b4944212160801b6044820152606490fd5b15611c4457565b60405162461bcd60e51b815260206004820152603260248201527f54686520637573746f6d657220697320616c7265616479207265676973746572604482015271656420666f7220746869732062616e6b212160701b6064820152608490fd5b15611cab57565b60405162461bcd60e51b815260206004820152601a60248201527f496e636f7272656374206c6f636b696e6720616d6f756e7421210000000000006044820152606490fd5b15611cf757565b60405162461bcd60e51b815260206004820152604960248201527f4e6f20696e7374616e6365206f662074686520637573746f6d6572207265676960448201527f7374726174696f6e2070726f746f636f6c2069732072756e6e696e672061742060648201526870726573656e74212160b81b608482015260a490fd5b15611d7b57565b60405162461bcd60e51b815260206004820152603360248201527f596f7520617265206e6f7420686f6c64696e672074686520696e74656e64656460448201527220637573746f6d65722061646472657373212160681b6064820152608490fd5b15611de357565b60405162461bcd60e51b815260206004820152602660248201527f476976656e2062616e6b4944206973206e6f742074686520696e74656e646564604482015265206f6e65212160d01b6064820152608490fd5b15611e3e57565b60405162461bcd60e51b815260206004820152602760248201527f54686520637573746f6d6572206e6f7420796574206c6f636b656420746865206044820152666d6f6e6579212160c81b6064820152608490fd5b15611e9a57565b60405162461bcd60e51b815260206004820152602760248201527f5468652062616e6b2068617320616c7265616479206c6f636b656420697473206044820152666d6f6e6579212160c81b6064820152608490fd5b9190820391821161038957565b15611f0357565b60405162461bcd60e51b815260206004820152601c60248201527f54696d656c696d6974206e6f74207965742065786365656465642121000000006044820152606490fd5b15611f4f57565b60405162461bcd60e51b815260206004820152602360248201527f476976656e20637573746f6d6572206164647265737320697320696e76616c6960448201526264212160e81b6064820152608490fd5b15611fa757565b60405162461bcd60e51b815260206004820152602960248201527f596f7520617265206e6f7420686f6c64696e672074686520696e74656e6465646044820152682062616e6b4944212160b81b6064820152608490fd5b1561200557565b60405162461bcd60e51b815260206004820152601460248201527354696d656c696d6974206578636565646564212160601b6044820152606490fd5b1561204857565b60405162461bcd60e51b815260206004820152602360248201527f5468652062616e6b206e6f7420796574206c6f636b656420746865206d6f6e6560448201526279212160e81b6064820152608490fd5b156120a057565b60405162461bcd60e51b815260206004820152603b60248201527f54686520637573746f6d6572206e6f742079657420636f6d6d6974656420666f60448201527f7220746865206163636f756e7420696e666f726d6174696f6e212100000000006064820152608490fd5b1561211257565b60405162461bcd60e51b815260206004820152602e60248201527f5468652062616e6b2068617320616c72656164792073656e642069747320666960448201526d72737420726573706f6e7365212160901b6064820152608490fd5b1561217557565b60405162461bcd60e51b815260206004820152602a60248201527f5468652062616e6b206e6f74207965742073656e642069747320666972737420604482015269726573706f6e7365212160b01b6064820152608490fdfea2646970667358221220be4a14e378ef973321978c975376cd91125c27d45d6e2fdd40ba6a85357589ff64736f6c63430008120033",
			"opcodes": "PUSH1 0x80 CALLVALUE PUSH2 0x7F JUMPI PUSH1 0x1F PUSH2 0x229E CODESIZE DUP2 SWAP1 SUB SWAP2 DUP3 ADD PUSH1 0x1F NOT AND DUP4 ADD SWAP2 PUSH1 0x1 PUSH1 0x1 PUSH1 0x40 SHL SUB DUP4 GT DUP5 DUP5 LT OR PUSH2 0x84 JUMPI DUP1 DUP5 SWAP3 PUSH1 0x20 SWAP5 PUSH1 0x40 MSTORE DUP4 CODECOPY DUP2 ADD SUB SLT PUSH2 0x7F JUMPI MLOAD PUSH1 0x1 PUSH1 0x1 PUSH1 0xA0 SHL SUB DUP2 AND SWAP1 DUP2 SWAP1 SUB PUSH2 0x7F JUMPI PUSH1 0x0 PUSH1 0x6 SSTORE PUSH1 0x1 DUP1 PUSH1 0xA0 SHL SUB NOT DUP2 DUP2 PUSH1 0x0 SLOAD AND OR PUSH1 0x0 SSTORE PUSH1 0x1 SLOAD AND OR PUSH1 0x1 SSTORE PUSH1 0x40 MLOAD PUSH2 0x2203 SWAP1 DUP2 PUSH2 0x9B DUP3 CODECOPY RETURN JUMPDEST PUSH1 0x0 DUP1 REVERT JUMPDEST PUSH4 0x4E487B71 PUSH1 0xE0 SHL PUSH1 0x0 MSTORE PUSH1 0x41 PUSH1 0x4 MSTORE PUSH1 0x24 PUSH1 0x0 REVERT INVALID PUSH1 0x80 DUP1 PUSH1 0x40 MSTORE PUSH1 0x4 CALLDATASIZE LT ISZERO PUSH2 0x13 JUMPI PUSH1 0x0 DUP1 REVERT JUMPDEST PUSH1 0x0 CALLDATALOAD PUSH1 0xE0 SHR SWAP1 DUP2 PUSH4 0x193B39B5 EQ PUSH2 0x17B9 JUMPI POP DUP1 PUSH4 0x2558196E EQ PUSH2 0x14D0 JUMPI DUP1 PUSH4 0x25AB292E EQ PUSH2 0x14B3 JUMPI DUP1 PUSH4 0x27664EA1 EQ PUSH2 0x148A JUMPI DUP1 PUSH4 0x7F9794C6 EQ PUSH2 0x130F JUMPI DUP1 PUSH4 0x845A6C5D EQ PUSH2 0x10B5 JUMPI DUP1 PUSH4 0xB53327A7 EQ PUSH2 0xEE9 JUMPI DUP1 PUSH4 0xC08D1FE5 EQ PUSH2 0xECC JUMPI DUP1 PUSH4 0xC5FE01E4 EQ PUSH2 0xB72 JUMPI DUP1 PUSH4 0xD1706B6C EQ PUSH2 0x783 JUMPI DUP1 PUSH4 0xE1EF7594 EQ PUSH2 0x736 JUMPI DUP1 PUSH4 0xE8C39E0F EQ PUSH2 0x462 JUMPI PUSH4 0xF8AD2390 EQ PUSH2 0xAE JUMPI PUSH1 0x0 DUP1 REVERT JUMPDEST PUSH1 0x20 CALLDATASIZE PUSH1 0x3 NOT ADD SLT PUSH2 0x45D JUMPI PUSH1 0x1 SLOAD PUSH1 0x40 MLOAD PUSH4 0x9EC802FF PUSH1 0xE0 SHL DUP2 MSTORE PUSH1 0x4 DUP1 CALLDATALOAD SWAP1 DUP3 ADD MSTORE SWAP1 PUSH1 0x20 SWAP1 DUP3 SWAP1 PUSH1 0x24 SWAP1 DUP3 SWAP1 PUSH1 0x1 PUSH1 0x1 PUSH1 0xA0 SHL SUB AND GAS STATICCALL SWAP1 DUP2 ISZERO PUSH2 0x451 JUMPI PUSH2 0x107 SWAP2 PUSH1 0x1 SWAP2 PUSH1 0x0 SWAP2 PUSH2 0x422 JUMPI JUMPDEST POP ISZERO ISZERO EQ PUSH2 0x1BFE JUMP JUMPDEST CALLER PUSH1 0x0 MSTORE PUSH1 0x2 PUSH1 0x20 MSTORE PUSH1 0x40 PUSH1 0x0 KECCAK256 PUSH1 0x4 CALLDATALOAD PUSH1 0x0 MSTORE PUSH1 0x20 MSTORE PUSH2 0x130 PUSH1 0xFF PUSH1 0x40 PUSH1 0x0 KECCAK256 SLOAD AND ISZERO PUSH2 0x1C3D JUMP JUMPDEST CALLER PUSH1 0x0 MSTORE PUSH1 0x3 PUSH1 0x20 MSTORE PUSH1 0x40 PUSH1 0x0 KECCAK256 PUSH1 0x4 CALLDATALOAD PUSH1 0x0 MSTORE PUSH1 0x20 MSTORE PUSH1 0x40 PUSH1 0x0 KECCAK256 SLOAD PUSH1 0x0 MSTORE PUSH1 0x5 PUSH1 0x20 MSTORE PUSH1 0xFF PUSH1 0x40 PUSH1 0x0 KECCAK256 SLOAD AND PUSH2 0x39F JUMPI PUSH2 0x16F PUSH2 0x3E8 CALLVALUE EQ PUSH2 0x1CA4 JUMP JUMPDEST PUSH1 0x6 SLOAD PUSH1 0x0 NOT DUP2 EQ PUSH2 0x389 JUMPI DUP1 PUSH1 0x1 PUSH2 0x372 SWAP3 ADD PUSH1 0x6 SSTORE CALLER PUSH1 0x0 MSTORE PUSH1 0x3 PUSH1 0x20 MSTORE PUSH1 0x40 PUSH1 0x0 KECCAK256 PUSH1 0x4 CALLDATALOAD PUSH1 0x0 MSTORE PUSH1 0x20 MSTORE PUSH1 0x1 DUP2 ADD PUSH1 0x40 PUSH1 0x0 KECCAK256 SSTORE PUSH1 0x1 DUP2 ADD PUSH1 0x0 MSTORE PUSH1 0x4 PUSH1 0x20 MSTORE PUSH1 0x1 PUSH1 0x40 PUSH1 0x0 KECCAK256 SWAP2 PUSH1 0xFF PUSH1 0xF PUSH1 0x40 MLOAD SWAP5 PUSH2 0x1CC DUP7 PUSH2 0x1B91 JUMP JUMPDEST PUSH1 0x3 DUP2 ADD SLOAD PUSH1 0x60 DUP8 ADD MSTORE PUSH1 0x4 DUP2 ADD SLOAD PUSH1 0x80 DUP8 ADD MSTORE PUSH1 0x5 DUP2 ADD SLOAD PUSH1 0xA0 DUP8 ADD MSTORE DUP3 PUSH1 0x6 DUP3 ADD SLOAD AND ISZERO ISZERO PUSH1 0xC0 DUP8 ADD MSTORE PUSH1 0x7 DUP2 ADD SLOAD PUSH1 0xE0 DUP8 ADD MSTORE DUP3 PUSH1 0x8 DUP3 ADD SLOAD AND ISZERO ISZERO PUSH2 0x100 DUP8 ADD MSTORE PUSH1 0x9 DUP2 ADD SLOAD PUSH2 0x120 DUP8 ADD MSTORE PUSH1 0xA DUP2 ADD SLOAD PUSH2 0x140 DUP8 ADD MSTORE PUSH1 0xB DUP2 ADD SLOAD PUSH2 0x160 DUP8 ADD MSTORE PUSH1 0xC DUP2 ADD SLOAD PUSH2 0x180 DUP8 ADD MSTORE PUSH1 0xD DUP2 ADD SLOAD PUSH2 0x1A0 DUP8 ADD MSTORE PUSH1 0xE DUP2 ADD SLOAD PUSH2 0x1C0 DUP8 ADD MSTORE ADD SLOAD AND ISZERO ISZERO PUSH2 0x1E0 DUP5 ADD MSTORE CALLER DUP4 MSTORE PUSH1 0x4 CALLDATALOAD PUSH1 0x20 DUP5 ADD MSTORE TIMESTAMP PUSH1 0x40 DUP5 ADD MSTORE ADD PUSH1 0x0 MSTORE PUSH1 0x4 PUSH1 0x20 MSTORE PUSH1 0xF PUSH2 0x1E0 PUSH1 0x40 PUSH1 0x0 KECCAK256 SWAP3 PUSH1 0x1 DUP1 PUSH1 0xA0 SHL SUB DUP2 MLOAD AND PUSH1 0x1 PUSH1 0x1 PUSH1 0x60 SHL SUB PUSH1 0xA0 SHL DUP6 SLOAD AND OR DUP5 SSTORE PUSH1 0x20 DUP2 ADD MLOAD PUSH1 0x1 DUP6 ADD SSTORE PUSH1 0x40 DUP2 ADD MLOAD PUSH1 0x2 DUP6 ADD SSTORE PUSH1 0x60 DUP2 ADD MLOAD PUSH1 0x3 DUP6 ADD SSTORE PUSH1 0x80 DUP2 ADD MLOAD PUSH1 0x4 DUP6 ADD SSTORE PUSH1 0xA0 DUP2 ADD MLOAD PUSH1 0x5 DUP6 ADD SSTORE PUSH2 0x2EF PUSH1 0xC0 DUP3 ADD MLOAD ISZERO ISZERO PUSH1 0x6 DUP7 ADD SWAP1 PUSH1 0xFF DUP1 NOT DUP4 SLOAD AND SWAP2 ISZERO ISZERO AND OR SWAP1 SSTORE JUMP JUMPDEST PUSH1 0xE0 DUP2 ADD MLOAD PUSH1 0x7 DUP6 ADD SSTORE PUSH2 0x319 PUSH2 0x100 DUP3 ADD MLOAD ISZERO ISZERO PUSH1 0x8 DUP7 ADD SWAP1 PUSH1 0xFF DUP1 NOT DUP4 SLOAD AND SWAP2 ISZERO ISZERO AND OR SWAP1 SSTORE JUMP JUMPDEST PUSH2 0x120 DUP2 ADD MLOAD PUSH1 0x9 DUP6 ADD SSTORE PUSH2 0x140 DUP2 ADD MLOAD PUSH1 0xA DUP6 ADD SSTORE PUSH2 0x160 DUP2 ADD MLOAD PUSH1 0xB DUP6 ADD SSTORE PUSH2 0x180 DUP2 ADD MLOAD PUSH1 0xC DUP6 ADD SSTORE PUSH2 0x1A0 DUP2 ADD MLOAD PUSH1 0xD DUP6 ADD SSTORE PUSH2 0x1C0 DUP2 ADD MLOAD PUSH1 0xE DUP6 ADD SSTORE ADD MLOAD ISZERO ISZERO SWAP2 ADD SWAP1 PUSH1 0xFF DUP1 NOT DUP4 SLOAD AND SWAP2 ISZERO ISZERO AND OR SWAP1 SSTORE JUMP JUMPDEST PUSH1 0x5 PUSH1 0x20 MSTORE PUSH1 0x40 PUSH1 0x0 KECCAK256 DUP1 SLOAD PUSH1 0xFF NOT AND PUSH1 0x1 OR SWAP1 SSTORE STOP JUMPDEST PUSH4 0x4E487B71 PUSH1 0xE0 SHL PUSH1 0x0 MSTORE PUSH1 0x11 PUSH1 0x4 MSTORE PUSH1 0x24 PUSH1 0x0 REVERT JUMPDEST PUSH1 0x40 MLOAD PUSH3 0x461BCD PUSH1 0xE5 SHL DUP2 MSTORE PUSH1 0x20 PUSH1 0x4 DUP3 ADD MSTORE PUSH1 0x4F PUSH1 0x24 DUP3 ADD MSTORE PUSH32 0x50726576696F757320696E7374616E6365206F662074686520637573746F6D65 PUSH1 0x44 DUP3 ADD MSTORE PUSH32 0x7220726567697374726174696F6E2070726F746F636F6C206973206E6F742079 PUSH1 0x64 DUP3 ADD MSTORE PUSH15 0x6574207465726D696E617465642121 PUSH1 0x88 SHL PUSH1 0x84 DUP3 ADD MSTORE PUSH1 0xA4 SWAP1 REVERT JUMPDEST PUSH2 0x444 SWAP2 POP PUSH1 0x20 RETURNDATASIZE PUSH1 0x20 GT PUSH2 0x44A JUMPI JUMPDEST PUSH2 0x43C DUP2 DUP4 PUSH2 0x1BC4 JUMP JUMPDEST DUP2 ADD SWAP1 PUSH2 0x1BE6 JUMP JUMPDEST CODESIZE PUSH2 0xFE JUMP JUMPDEST POP RETURNDATASIZE PUSH2 0x432 JUMP JUMPDEST PUSH1 0x40 MLOAD RETURNDATASIZE PUSH1 0x0 DUP3 RETURNDATACOPY RETURNDATASIZE SWAP1 REVERT JUMPDEST PUSH1 0x0 DUP1 REVERT JUMPDEST CALLVALUE PUSH2 0x45D JUMPI PUSH1 0x20 CALLDATASIZE PUSH1 0x3 NOT ADD SLT PUSH2 0x45D JUMPI PUSH1 0x1 SLOAD PUSH1 0x40 MLOAD PUSH4 0x9EC802FF PUSH1 0xE0 SHL DUP2 MSTORE PUSH1 0x4 DUP1 CALLDATALOAD SWAP1 DUP3 ADD MSTORE SWAP1 PUSH1 0x20 SWAP1 DUP3 SWAP1 PUSH1 0x24 SWAP1 DUP3 SWAP1 PUSH1 0x1 PUSH1 0x1 PUSH1 0xA0 SHL SUB AND GAS STATICCALL SWAP1 DUP2 ISZERO PUSH2 0x451 JUMPI PUSH2 0x4BF SWAP2 PUSH1 0x1 SWAP2 PUSH1 0x0 SWAP2 PUSH2 0x717 JUMPI POP ISZERO ISZERO EQ PUSH2 0x1BFE JUMP JUMPDEST CALLER PUSH1 0x0 MSTORE PUSH1 0x2 PUSH1 0x20 MSTORE PUSH1 0x40 PUSH1 0x0 KECCAK256 PUSH1 0x4 CALLDATALOAD PUSH1 0x0 MSTORE PUSH1 0x20 MSTORE PUSH2 0x4E8 PUSH1 0xFF PUSH1 0x40 PUSH1 0x0 KECCAK256 SLOAD AND ISZERO PUSH2 0x1C3D JUMP JUMPDEST CALLER PUSH1 0x0 MSTORE PUSH1 0x3 PUSH1 0x20 MSTORE PUSH1 0x40 PUSH1 0x0 KECCAK256 PUSH1 0x4 CALLDATALOAD PUSH1 0x0 MSTORE PUSH1 0x20 MSTORE PUSH1 0x40 PUSH1 0x0 KECCAK256 SLOAD DUP1 PUSH1 0x0 MSTORE PUSH1 0x5 PUSH1 0x20 MSTORE PUSH2 0x524 PUSH1 0x1 PUSH1 0xFF PUSH1 0x40 PUSH1 0x0 KECCAK256 SLOAD AND ISZERO ISZERO EQ PUSH2 0x1CF0 JUMP JUMPDEST DUP1 PUSH1 0x0 MSTORE PUSH1 0x4 PUSH1 0x20 MSTORE PUSH1 0x40 PUSH1 0x0 KECCAK256 PUSH2 0x601 PUSH1 0x40 MLOAD SWAP2 PUSH2 0x542 DUP4 PUSH2 0x1B91 JUMP JUMPDEST PUSH1 0xFF PUSH1 0xF PUSH1 0x1 DUP1 PUSH1 0xA0 SHL SUB DUP4 SLOAD AND SWAP3 DUP4 DUP7 MSTORE PUSH1 0x1 DUP2 ADD SLOAD PUSH1 0x20 DUP8 ADD MSTORE PUSH1 0x2 DUP2 ADD SLOAD PUSH1 0x40 DUP8 ADD MSTORE PUSH1 0x3 DUP2 ADD SLOAD PUSH1 0x60 DUP8 ADD MSTORE PUSH1 0x4 DUP2 ADD SLOAD PUSH1 0x80 DUP8 ADD MSTORE PUSH1 0x5 DUP2 ADD SLOAD PUSH1 0xA0 DUP8 ADD MSTORE DUP3 PUSH1 0x6 DUP3 ADD SLOAD AND ISZERO ISZERO PUSH1 0xC0 DUP8 ADD MSTORE PUSH1 0x7 DUP2 ADD SLOAD PUSH1 0xE0 DUP8 ADD MSTORE DUP3 PUSH1 0x8 DUP3 ADD SLOAD AND ISZERO ISZERO PUSH2 0x100 DUP8 ADD MSTORE PUSH1 0x9 DUP2 ADD SLOAD PUSH2 0x120 DUP8 ADD MSTORE PUSH1 0xA DUP2 ADD SLOAD PUSH2 0x140 DUP8 ADD MSTORE PUSH1 0xB DUP2 ADD SLOAD PUSH2 0x160 DUP8 ADD MSTORE PUSH1 0xC DUP2 ADD SLOAD PUSH2 0x180 DUP8 ADD MSTORE PUSH1 0xD DUP2 ADD SLOAD PUSH2 0x1A0 DUP8 ADD MSTORE PUSH1 0xE DUP2 ADD SLOAD PUSH2 0x1C0 DUP8 ADD MSTORE ADD SLOAD AND ISZERO ISZERO PUSH2 0x1E0 DUP5 ADD MSTORE CALLER EQ PUSH2 0x1D74 JUMP JUMPDEST PUSH2 0x612 PUSH1 0x4 CALLDATALOAD PUSH1 0x20 DUP4 ADD MLOAD EQ PUSH2 0x1DDC JUMP JUMPDEST PUSH2 0x621 PUSH1 0xA0 DUP3 ADD MLOAD ISZERO ISZERO PUSH2 0x2099 JUMP JUMPDEST PUSH2 0x62F PUSH1 0xE0 DUP3 ADD MLOAD ISZERO PUSH2 0x210B JUMP JUMPDEST PUSH2 0x649 PUSH2 0x12C PUSH2 0x643 PUSH1 0xA0 DUP5 ADD MLOAD TIMESTAMP PUSH2 0x1EEF JUMP JUMPDEST GT PUSH2 0x1EFC JUMP JUMPDEST PUSH1 0x0 DUP1 DUP1 DUP1 PUSH2 0x7D0 CALLER DUP3 CALL ISZERO PUSH2 0x451 JUMPI PUSH2 0x703 SWAP2 PUSH2 0x7D0 PUSH2 0x160 DUP4 ADD MSTORE PUSH1 0x0 PUSH2 0x1A0 DUP4 ADD MSTORE TIMESTAMP PUSH2 0x180 DUP4 ADD MSTORE TIMESTAMP PUSH2 0x1C0 DUP4 ADD MSTORE PUSH1 0x1 PUSH2 0x1E0 DUP4 ADD MSTORE PUSH1 0x0 MSTORE PUSH1 0x4 PUSH1 0x20 MSTORE PUSH1 0xF PUSH2 0x1E0 PUSH1 0x40 PUSH1 0x0 KECCAK256 SWAP3 PUSH1 0x1 DUP1 PUSH1 0xA0 SHL SUB DUP2 MLOAD AND PUSH1 0x1 PUSH1 0x1 PUSH1 0x60 SHL SUB PUSH1 0xA0 SHL DUP6 SLOAD AND OR DUP5 SSTORE PUSH1 0x20 DUP2 ADD MLOAD PUSH1 0x1 DUP6 ADD SSTORE PUSH1 0x40 DUP2 ADD MLOAD PUSH1 0x2 DUP6 ADD SSTORE PUSH1 0x60 DUP2 ADD MLOAD PUSH1 0x3 DUP6 ADD SSTORE PUSH1 0x80 DUP2 ADD MLOAD PUSH1 0x4 DUP6 ADD SSTORE PUSH1 0xA0 DUP2 ADD MLOAD PUSH1 0x5 DUP6 ADD SSTORE PUSH2 0x2EF PUSH1 0xC0 DUP3 ADD MLOAD ISZERO ISZERO PUSH1 0x6 DUP7 ADD SWAP1 PUSH1 0xFF DUP1 NOT DUP4 SLOAD AND SWAP2 ISZERO ISZERO AND OR SWAP1 SSTORE JUMP JUMPDEST PUSH1 0x5 PUSH1 0x20 MSTORE PUSH1 0x40 PUSH1 0x0 KECCAK256 DUP1 SLOAD PUSH1 0xFF NOT AND SWAP1 SSTORE STOP JUMPDEST PUSH2 0x730 SWAP2 POP PUSH1 0x20 RETURNDATASIZE PUSH1 0x20 GT PUSH2 0x44A JUMPI PUSH2 0x43C DUP2 DUP4 PUSH2 0x1BC4 JUMP JUMPDEST DUP4 PUSH2 0xFE JUMP JUMPDEST CALLVALUE PUSH2 0x45D JUMPI PUSH1 0x40 CALLDATASIZE PUSH1 0x3 NOT ADD SLT PUSH2 0x45D JUMPI PUSH1 0x1 PUSH1 0x1 PUSH1 0xA0 SHL SUB PUSH2 0x757 PUSH2 0x1B4C JUMP JUMPDEST AND PUSH1 0x0 MSTORE PUSH1 0x2 PUSH1 0x20 MSTORE PUSH1 0x40 PUSH1 0x0 KECCAK256 PUSH1 0x24 CALLDATALOAD PUSH1 0x0 MSTORE PUSH1 0x20 MSTORE PUSH1 0x20 PUSH1 0xFF PUSH1 0x40 PUSH1 0x0 KECCAK256 SLOAD AND PUSH1 0x40 MLOAD SWAP1 ISZERO ISZERO DUP2 MSTORE RETURN JUMPDEST CALLVALUE PUSH2 0x45D JUMPI PUSH2 0x791 CALLDATASIZE PUSH2 0x1B62 JUMP JUMPDEST PUSH1 0x1 SLOAD PUSH1 0x40 MLOAD PUSH4 0x9CFD3699 PUSH1 0xE0 SHL DUP2 MSTORE CALLER PUSH1 0x4 DUP3 ADD MSTORE SWAP1 PUSH1 0x1 PUSH1 0x1 PUSH1 0xA0 SHL SUB AND PUSH1 0x20 DUP3 PUSH1 0x24 DUP2 DUP5 GAS STATICCALL SWAP2 DUP3 ISZERO PUSH2 0x451 JUMPI PUSH1 0x0 SWAP3 PUSH2 0xB3D JUMPI JUMPDEST POP PUSH1 0x20 PUSH1 0x24 SWAP2 PUSH1 0x40 MLOAD SWAP3 DUP4 DUP1 SWAP3 PUSH4 0x9EC802FF PUSH1 0xE0 SHL DUP3 MSTORE DUP7 PUSH1 0x4 DUP4 ADD MSTORE GAS STATICCALL SWAP1 DUP2 ISZERO PUSH2 0x451 JUMPI PUSH2 0x806 SWAP2 PUSH1 0x1 SWAP2 PUSH1 0x0 SWAP2 PUSH2 0xB1E JUMPI POP ISZERO ISZERO EQ PUSH2 0x1BFE JUMP JUMPDEST PUSH1 0x1 DUP1 PUSH1 0xA0 SHL SUB DUP4 AND PUSH1 0x0 MSTORE PUSH1 0x2 PUSH1 0x20 MSTORE PUSH1 0x40 PUSH1 0x0 KECCAK256 DUP2 PUSH1 0x0 MSTORE PUSH1 0x20 MSTORE PUSH2 0x835 PUSH1 0xFF PUSH1 0x40 PUSH1 0x0 KECCAK256 SLOAD AND ISZERO PUSH2 0x1C3D JUMP JUMPDEST PUSH1 0x1 DUP1 PUSH1 0xA0 SHL SUB DUP4 AND PUSH1 0x0 MSTORE PUSH1 0x3 PUSH1 0x20 MSTORE PUSH1 0x40 PUSH1 0x0 KECCAK256 DUP2 PUSH1 0x0 MSTORE PUSH1 0x20 MSTORE PUSH1 0x40 PUSH1 0x0 KECCAK256 SLOAD SWAP1 DUP2 PUSH1 0x0 MSTORE PUSH1 0x5 PUSH1 0x20 MSTORE PUSH2 0x878 PUSH1 0x1 PUSH1 0xFF PUSH1 0x40 PUSH1 0x0 KECCAK256 SLOAD AND ISZERO ISZERO EQ PUSH2 0x1CF0 JUMP JUMPDEST DUP2 PUSH1 0x0 MSTORE PUSH1 0x4 PUSH1 0x20 MSTORE PUSH1 0x40 PUSH1 0x0 KECCAK256 SWAP3 PUSH2 0x95E PUSH1 0x40 MLOAD SWAP5 PUSH2 0x897 DUP7 PUSH2 0x1B91 JUMP JUMPDEST DUP1 SLOAD PUSH1 0x1 PUSH1 0x1 PUSH1 0xA0 SHL SUB SWAP1 DUP2 AND DUP1 DUP9 MSTORE PUSH1 0x1 DUP4 ADD SLOAD PUSH1 0x20 DUP10 ADD MSTORE PUSH1 0x2 DUP4 ADD SLOAD PUSH1 0x40 DUP10 ADD MSTORE PUSH1 0x3 DUP4 ADD SLOAD PUSH1 0x60 DUP10 ADD MSTORE PUSH1 0x4 DUP4 ADD SLOAD PUSH1 0x80 DUP10 ADD MSTORE PUSH1 0x5 DUP4 ADD SLOAD PUSH1 0xA0 DUP10 ADD MSTORE PUSH1 0x6 DUP4 ADD SLOAD PUSH1 0xFF SWAP1 DUP2 AND ISZERO ISZERO PUSH1 0xC0 DUP11 ADD MSTORE PUSH1 0x7 DUP5 ADD SLOAD PUSH1 0xE0 DUP11 ADD MSTORE PUSH1 0x8 DUP5 ADD SLOAD DUP2 AND ISZERO ISZERO PUSH2 0x100 DUP11 ADD MSTORE PUSH1 0x9 DUP5 ADD SLOAD PUSH2 0x120 DUP11 ADD MSTORE PUSH1 0xA DUP5 ADD SLOAD PUSH2 0x140 DUP11 ADD MSTORE PUSH1 0xB DUP5 ADD SLOAD PUSH2 0x160 DUP11 ADD MSTORE PUSH1 0xC DUP5 ADD SLOAD PUSH2 0x180 DUP11 ADD MSTORE PUSH1 0xD DUP5 ADD SLOAD PUSH2 0x1A0 DUP11 ADD MSTORE PUSH1 0xE DUP5 ADD SLOAD PUSH2 0x1C0 DUP11 ADD MSTORE PUSH1 0xF SWAP1 SWAP4 ADD SLOAD SWAP1 SWAP3 AND ISZERO ISZERO PUSH2 0x1E0 DUP9 ADD MSTORE DUP8 AND EQ PUSH2 0x1F48 JUMP JUMPDEST PUSH2 0x96D DUP3 PUSH1 0x20 DUP7 ADD MLOAD EQ PUSH2 0x1FA0 JUMP JUMPDEST PUSH2 0x97C PUSH1 0xE0 DUP6 ADD MLOAD ISZERO ISZERO PUSH2 0x216E JUMP JUMPDEST PUSH2 0x120 DUP5 ADD MLOAD PUSH2 0xAC0 JUMPI PUSH2 0x9A1 PUSH2 0x12C PUSH2 0x99A PUSH1 0xE0 DUP8 ADD MLOAD TIMESTAMP PUSH2 0x1EEF JUMP JUMPDEST GT ISZERO PUSH2 0x1FFE JUMP JUMPDEST ISZERO ISZERO PUSH2 0x100 DUP5 ADD DUP2 SWAP1 MSTORE TIMESTAMP PUSH2 0x120 DUP6 ADD MSTORE SWAP4 PUSH2 0x3E8 PUSH1 0x0 DUP1 DUP1 DUP1 DUP5 PUSH1 0x1 PUSH1 0x1 PUSH1 0xA0 SHL SUB DUP8 AND DUP3 CALL ISZERO PUSH2 0x451 JUMPI PUSH1 0x0 DUP1 DUP1 DUP1 DUP5 CALLER DUP3 CALL ISZERO PUSH2 0x451 JUMPI PUSH2 0x703 SWAP6 DUP2 PUSH1 0x1 SWAP3 PUSH2 0x160 DUP9 ADD MSTORE PUSH2 0x1A0 DUP8 ADD MSTORE TIMESTAMP PUSH2 0x180 DUP8 ADD MSTORE TIMESTAMP PUSH2 0x1C0 DUP8 ADD MSTORE EQ PUSH1 0x0 EQ PUSH2 0xAB1 JUMPI PUSH1 0x1 PUSH1 0x1 PUSH1 0xA0 SHL SUB AND PUSH1 0x0 SWAP1 DUP2 MSTORE PUSH1 0x2 PUSH1 0x20 SWAP1 DUP2 MSTORE PUSH1 0x40 DUP1 DUP4 KECCAK256 SWAP4 DUP4 MSTORE SWAP3 SWAP1 MSTORE KECCAK256 DUP1 SLOAD PUSH1 0xFF NOT AND PUSH1 0x1 OR SWAP1 SSTORE JUMPDEST PUSH1 0x0 MSTORE PUSH1 0x4 PUSH1 0x20 MSTORE PUSH1 0xF PUSH2 0x1E0 PUSH1 0x40 PUSH1 0x0 KECCAK256 SWAP3 PUSH1 0x1 DUP1 PUSH1 0xA0 SHL SUB DUP2 MLOAD AND PUSH1 0x1 PUSH1 0x1 PUSH1 0x60 SHL SUB PUSH1 0xA0 SHL DUP6 SLOAD AND OR DUP5 SSTORE PUSH1 0x20 DUP2 ADD MLOAD PUSH1 0x1 DUP6 ADD SSTORE PUSH1 0x40 DUP2 ADD MLOAD PUSH1 0x2 DUP6 ADD SSTORE PUSH1 0x60 DUP2 ADD MLOAD PUSH1 0x3 DUP6 ADD SSTORE PUSH1 0x80 DUP2 ADD MLOAD PUSH1 0x4 DUP6 ADD SSTORE PUSH1 0xA0 DUP2 ADD MLOAD PUSH1 0x5 DUP6 ADD SSTORE PUSH2 0x2EF PUSH1 0xC0 DUP3 ADD MLOAD ISZERO ISZERO PUSH1 0x6 DUP7 ADD SWAP1 PUSH1 0xFF DUP1 NOT DUP4 SLOAD AND SWAP2 ISZERO ISZERO AND OR SWAP1 SSTORE JUMP JUMPDEST POP POP PUSH1 0x1 PUSH2 0x1E0 DUP4 ADD MSTORE PUSH2 0xA32 JUMP JUMPDEST PUSH1 0x40 MLOAD PUSH3 0x461BCD PUSH1 0xE5 SHL DUP2 MSTORE PUSH1 0x20 PUSH1 0x4 DUP3 ADD MSTORE PUSH1 0x30 PUSH1 0x24 DUP3 ADD MSTORE PUSH32 0x5468652062616E6B2068617320616C726561647920676976656E206974732073 PUSH1 0x44 DUP3 ADD MSTORE PUSH16 0x65636F6E6420726573706F6E73652121 PUSH1 0x80 SHL PUSH1 0x64 DUP3 ADD MSTORE PUSH1 0x84 SWAP1 REVERT JUMPDEST PUSH2 0xB37 SWAP2 POP PUSH1 0x20 RETURNDATASIZE PUSH1 0x20 GT PUSH2 0x44A JUMPI PUSH2 0x43C DUP2 DUP4 PUSH2 0x1BC4 JUMP JUMPDEST DUP7 PUSH2 0xFE JUMP JUMPDEST SWAP1 SWAP2 POP PUSH1 0x20 DUP2 RETURNDATASIZE PUSH1 0x20 GT PUSH2 0xB6A JUMPI JUMPDEST DUP2 PUSH2 0xB59 PUSH1 0x20 SWAP4 DUP4 PUSH2 0x1BC4 JUMP JUMPDEST DUP2 ADD SUB SLT PUSH2 0x45D JUMPI MLOAD SWAP1 PUSH1 0x20 PUSH2 0x7C9 JUMP JUMPDEST RETURNDATASIZE SWAP2 POP PUSH2 0xB4C JUMP JUMPDEST CALLVALUE PUSH2 0x45D JUMPI PUSH2 0xB80 CALLDATASIZE PUSH2 0x1B62 JUMP JUMPDEST PUSH1 0x1 SLOAD PUSH1 0x40 MLOAD PUSH4 0x9CFD3699 PUSH1 0xE0 SHL DUP2 MSTORE CALLER PUSH1 0x4 DUP3 ADD MSTORE SWAP2 SWAP3 SWAP1 PUSH1 0x1 PUSH1 0x1 PUSH1 0xA0 SHL SUB AND PUSH1 0x20 DUP4 PUSH1 0x24 DUP2 DUP5 GAS STATICCALL SWAP3 DUP4 ISZERO PUSH2 0x451 JUMPI PUSH1 0x0 SWAP4 PUSH2 0xE97 JUMPI JUMPDEST POP PUSH1 0x20 PUSH1 0x24 SWAP2 PUSH1 0x40 MLOAD SWAP3 DUP4 DUP1 SWAP3 PUSH4 0x9EC802FF PUSH1 0xE0 SHL DUP3 MSTORE DUP8 PUSH1 0x4 DUP4 ADD MSTORE GAS STATICCALL SWAP1 DUP2 ISZERO PUSH2 0x451 JUMPI PUSH2 0xBF7 SWAP2 PUSH1 0x1 SWAP2 PUSH1 0x0 SWAP2 PUSH2 0xB1E JUMPI POP ISZERO ISZERO EQ PUSH2 0x1BFE JUMP JUMPDEST PUSH1 0x1 DUP1 PUSH1 0xA0 SHL SUB DUP2 AND PUSH1 0x0 MSTORE PUSH1 0x2 PUSH1 0x20 MSTORE PUSH1 0x40 PUSH1 0x0 KECCAK256 DUP3 PUSH1 0x0 MSTORE PUSH1 0x20 MSTORE PUSH2 0xC26 PUSH1 0xFF PUSH1 0x40 PUSH1 0x0 KECCAK256 SLOAD AND ISZERO PUSH2 0x1C3D JUMP JUMPDEST PUSH1 0x1 DUP1 PUSH1 0xA0 SHL SUB DUP2 AND PUSH1 0x0 MSTORE PUSH1 0x3 PUSH1 0x20 MSTORE PUSH1 0x40 PUSH1 0x0 KECCAK256 DUP3 PUSH1 0x0 MSTORE PUSH1 0x20 MSTORE PUSH1 0x40 PUSH1 0x0 KECCAK256 SLOAD SWAP3 DUP4 PUSH1 0x0 MSTORE PUSH1 0x5 PUSH1 0x20 MSTORE PUSH2 0xC69 PUSH1 0x1 PUSH1 0xFF PUSH1 0x40 PUSH1 0x0 KECCAK256 SLOAD AND ISZERO ISZERO EQ PUSH2 0x1CF0 JUMP JUMPDEST DUP4 PUSH1 0x0 MSTORE PUSH1 0x4 PUSH1 0x20 MSTORE PUSH2 0xD5D PUSH1 0x40 PUSH1 0x0 KECCAK256 SWAP4 PUSH2 0xD52 PUSH1 0x40 MLOAD SWAP6 PUSH2 0xC8B DUP8 PUSH2 0x1B91 JUMP JUMPDEST DUP1 SLOAD PUSH1 0x1 PUSH1 0x1 PUSH1 0xA0 SHL SUB SWAP1 DUP2 AND DUP1 DUP10 MSTORE PUSH1 0x1 DUP4 ADD SLOAD PUSH1 0x20 DUP11 ADD MSTORE PUSH1 0x2 DUP4 ADD SLOAD PUSH1 0x40 DUP11 ADD MSTORE PUSH1 0x3 DUP4 ADD SLOAD PUSH1 0x60 DUP11 ADD MSTORE PUSH1 0x4 DUP4 ADD SLOAD PUSH1 0x80 DUP11 ADD MSTORE PUSH1 0x5 DUP4 ADD SLOAD PUSH1 0xA0 DUP11 ADD MSTORE PUSH1 0x6 DUP4 ADD SLOAD PUSH1 0xFF SWAP1 DUP2 AND ISZERO ISZERO PUSH1 0xC0 DUP12 ADD MSTORE PUSH1 0x7 DUP5 ADD SLOAD PUSH1 0xE0 DUP12 ADD MSTORE PUSH1 0x8 DUP5 ADD SLOAD DUP2 AND ISZERO ISZERO PUSH2 0x100 DUP12 ADD MSTORE PUSH1 0x9 DUP5 ADD SLOAD PUSH2 0x120 DUP12 ADD MSTORE PUSH1 0xA DUP5 ADD SLOAD PUSH2 0x140 DUP12 ADD MSTORE PUSH1 0xB DUP5 ADD SLOAD PUSH2 0x160 DUP12 ADD MSTORE PUSH1 0xC DUP5 ADD SLOAD PUSH2 0x180 DUP12 ADD MSTORE PUSH1 0xD DUP5 ADD SLOAD PUSH2 0x1A0 DUP12 ADD MSTORE PUSH1 0xE DUP5 ADD SLOAD PUSH2 0x1C0 DUP12 ADD MSTORE PUSH1 0xF SWAP1 SWAP4 ADD SLOAD SWAP1 SWAP3 AND ISZERO ISZERO PUSH2 0x1E0 DUP10 ADD MSTORE DUP7 AND EQ PUSH2 0x1F48 JUMP JUMPDEST PUSH1 0x20 DUP6 ADD MLOAD EQ PUSH2 0x1FA0 JUMP JUMPDEST PUSH2 0xD6C PUSH1 0xA0 DUP5 ADD MLOAD ISZERO ISZERO PUSH2 0x2099 JUMP JUMPDEST PUSH2 0xD7A PUSH1 0xE0 DUP5 ADD MLOAD ISZERO PUSH2 0x210B JUMP JUMPDEST PUSH2 0xD8E PUSH2 0x12C PUSH2 0x99A PUSH1 0xA0 DUP7 ADD MLOAD TIMESTAMP PUSH2 0x1EEF JUMP JUMPDEST ISZERO DUP1 ISZERO PUSH1 0xC0 DUP5 ADD MSTORE TIMESTAMP PUSH1 0xE0 DUP5 ADD MSTORE PUSH2 0xE27 JUMPI JUMPDEST POP PUSH2 0xE25 SWAP2 PUSH1 0x0 MSTORE PUSH1 0x4 PUSH1 0x20 MSTORE PUSH1 0xF PUSH2 0x1E0 PUSH1 0x40 PUSH1 0x0 KECCAK256 SWAP3 PUSH1 0x1 DUP1 PUSH1 0xA0 SHL SUB DUP2 MLOAD AND PUSH1 0x1 PUSH1 0x1 PUSH1 0x60 SHL SUB PUSH1 0xA0 SHL DUP6 SLOAD AND OR DUP5 SSTORE PUSH1 0x20 DUP2 ADD MLOAD PUSH1 0x1 DUP6 ADD SSTORE PUSH1 0x40 DUP2 ADD MLOAD PUSH1 0x2 DUP6 ADD SSTORE PUSH1 0x60 DUP2 ADD MLOAD PUSH1 0x3 DUP6 ADD SSTORE PUSH1 0x80 DUP2 ADD MLOAD PUSH1 0x4 DUP6 ADD SSTORE PUSH1 0xA0 DUP2 ADD MLOAD PUSH1 0x5 DUP6 ADD SSTORE PUSH2 0x2EF PUSH1 0xC0 DUP3 ADD MLOAD ISZERO ISZERO PUSH1 0x6 DUP7 ADD SWAP1 PUSH1 0xFF DUP1 NOT DUP4 SLOAD AND SWAP2 ISZERO ISZERO AND OR SWAP1 SSTORE JUMP JUMPDEST STOP JUMPDEST PUSH1 0x0 DUP1 DUP1 PUSH2 0x3E8 DUP2 SWAP5 PUSH1 0x1 DUP1 PUSH1 0xA0 SHL SUB AND DUP3 CALL ISZERO PUSH2 0x451 JUMPI PUSH1 0x0 DUP1 DUP1 DUP1 PUSH2 0x3E8 CALLER DUP3 CALL ISZERO PUSH2 0x451 JUMPI PUSH2 0xE25 SWAP2 PUSH2 0x3E8 PUSH2 0x160 DUP4 ADD MSTORE PUSH2 0x3E8 PUSH2 0x1A0 DUP4 ADD MSTORE TIMESTAMP PUSH2 0x180 DUP4 ADD MSTORE TIMESTAMP PUSH2 0x1C0 DUP4 ADD MSTORE PUSH1 0x1 PUSH2 0x1E0 DUP4 ADD MSTORE DUP1 PUSH1 0x0 MSTORE PUSH1 0x5 PUSH1 0x20 MSTORE PUSH1 0x40 PUSH1 0x0 KECCAK256 PUSH1 0xFF NOT DUP2 SLOAD AND SWAP1 SSTORE SWAP2 PUSH2 0xDA1 JUMP JUMPDEST SWAP1 SWAP3 POP PUSH1 0x20 DUP2 RETURNDATASIZE PUSH1 0x20 GT PUSH2 0xEC4 JUMPI JUMPDEST DUP2 PUSH2 0xEB3 PUSH1 0x20 SWAP4 DUP4 PUSH2 0x1BC4 JUMP JUMPDEST DUP2 ADD SUB SLT PUSH2 0x45D JUMPI MLOAD SWAP2 PUSH1 0x20 PUSH2 0xBBA JUMP JUMPDEST RETURNDATASIZE SWAP2 POP PUSH2 0xEA6 JUMP JUMPDEST CALLVALUE PUSH2 0x45D JUMPI PUSH1 0x0 CALLDATASIZE PUSH1 0x3 NOT ADD SLT PUSH2 0x45D JUMPI PUSH1 0x20 PUSH1 0x40 MLOAD PUSH2 0x12C DUP2 MSTORE RETURN JUMPDEST CALLVALUE PUSH2 0x45D JUMPI PUSH1 0x20 CALLDATASIZE PUSH1 0x3 NOT ADD SLT PUSH2 0x45D JUMPI PUSH1 0x1 SLOAD PUSH1 0x40 MLOAD PUSH4 0x9EC802FF PUSH1 0xE0 SHL DUP2 MSTORE PUSH1 0x4 DUP1 CALLDATALOAD SWAP1 DUP3 ADD MSTORE SWAP1 PUSH1 0x20 SWAP1 DUP3 SWAP1 PUSH1 0x24 SWAP1 DUP3 SWAP1 PUSH1 0x1 PUSH1 0x1 PUSH1 0xA0 SHL SUB AND GAS STATICCALL SWAP1 DUP2 ISZERO PUSH2 0x451 JUMPI PUSH2 0xF46 SWAP2 PUSH1 0x1 SWAP2 PUSH1 0x0 SWAP2 PUSH2 0x717 JUMPI POP ISZERO ISZERO EQ PUSH2 0x1BFE JUMP JUMPDEST CALLER PUSH1 0x0 MSTORE PUSH1 0x2 PUSH1 0x20 MSTORE PUSH1 0x40 PUSH1 0x0 KECCAK256 PUSH1 0x4 CALLDATALOAD PUSH1 0x0 MSTORE PUSH1 0x20 MSTORE PUSH2 0xF6F PUSH1 0xFF PUSH1 0x40 PUSH1 0x0 KECCAK256 SLOAD AND ISZERO PUSH2 0x1C3D JUMP JUMPDEST CALLER PUSH1 0x0 MSTORE PUSH1 0x3 PUSH1 0x20 MSTORE PUSH1 0x40 PUSH1 0x0 KECCAK256 PUSH1 0x4 CALLDATALOAD PUSH1 0x0 MSTORE PUSH1 0x20 MSTORE PUSH1 0x40 PUSH1 0x0 KECCAK256 SLOAD DUP1 PUSH1 0x0 MSTORE PUSH1 0x5 PUSH1 0x20 MSTORE PUSH2 0xFAB PUSH1 0x1 PUSH1 0xFF PUSH1 0x40 PUSH1 0x0 KECCAK256 SLOAD AND ISZERO ISZERO EQ PUSH2 0x1CF0 JUMP JUMPDEST DUP1 PUSH1 0x0 MSTORE PUSH1 0x4 PUSH1 0x20 MSTORE PUSH1 0x40 PUSH1 0x0 KECCAK256 PUSH2 0xFC9 PUSH1 0x40 MLOAD SWAP2 PUSH2 0x542 DUP4 PUSH2 0x1B91 JUMP JUMPDEST PUSH2 0xFDA PUSH1 0x4 CALLDATALOAD PUSH1 0x20 DUP4 ADD MLOAD EQ PUSH2 0x1DDC JUMP JUMPDEST PUSH2 0xFE9 PUSH1 0x40 DUP3 ADD MLOAD ISZERO ISZERO PUSH2 0x1E37 JUMP JUMPDEST PUSH2 0xFF7 PUSH1 0x60 DUP3 ADD MLOAD ISZERO PUSH2 0x1E93 JUMP JUMPDEST PUSH2 0x100B PUSH2 0x12C PUSH2 0x643 PUSH1 0x40 DUP5 ADD MLOAD TIMESTAMP PUSH2 0x1EEF JUMP JUMPDEST PUSH2 0x3E8 SWAP2 PUSH1 0x0 DUP1 DUP1 DUP1 DUP7 CALLER DUP3 CALL ISZERO PUSH2 0x451 JUMPI PUSH2 0x703 SWAP3 PUSH2 0x160 DUP4 ADD MSTORE TIMESTAMP PUSH2 0x180 DUP4 ADD MSTORE PUSH1 0x1 PUSH2 0x1E0 DUP4 ADD MSTORE PUSH1 0x0 MSTORE PUSH1 0x4 PUSH1 0x20 MSTORE PUSH1 0xF PUSH2 0x1E0 PUSH1 0x40 PUSH1 0x0 KECCAK256 SWAP3 PUSH1 0x1 DUP1 PUSH1 0xA0 SHL SUB DUP2 MLOAD AND PUSH1 0x1 PUSH1 0x1 PUSH1 0x60 SHL SUB PUSH1 0xA0 SHL DUP6 SLOAD AND OR DUP5 SSTORE PUSH1 0x20 DUP2 ADD MLOAD PUSH1 0x1 DUP6 ADD SSTORE PUSH1 0x40 DUP2 ADD MLOAD PUSH1 0x2 DUP6 ADD SSTORE PUSH1 0x60 DUP2 ADD MLOAD PUSH1 0x3 DUP6 ADD SSTORE PUSH1 0x80 DUP2 ADD MLOAD PUSH1 0x4 DUP6 ADD SSTORE PUSH1 0xA0 DUP2 ADD MLOAD PUSH1 0x5 DUP6 ADD SSTORE PUSH2 0x2EF PUSH1 0xC0 DUP3 ADD MLOAD ISZERO ISZERO PUSH1 0x6 DUP7 ADD SWAP1 PUSH1 0xFF DUP1 NOT DUP4 SLOAD AND SWAP2 ISZERO ISZERO AND OR SWAP1 SSTORE JUMP JUMPDEST CALLVALUE PUSH2 0x45D JUMPI PUSH1 0x40 CALLDATASIZE PUSH1 0x3 NOT ADD SLT PUSH2 0x45D JUMPI CALLER PUSH1 0x0 MSTORE PUSH1 0x2 PUSH1 0x20 MSTORE PUSH1 0x40 PUSH1 0x0 KECCAK256 PUSH1 0x24 CALLDATALOAD PUSH1 0x0 MSTORE PUSH1 0x20 MSTORE PUSH1 0xFF PUSH1 0x40 PUSH1 0x0 KECCAK256 SLOAD AND PUSH2 0x12B8 JUMPI PUSH1 0x1 SLOAD PUSH1 0x40 MLOAD PUSH4 0x9EC802FF PUSH1 0xE0 SHL DUP2 MSTORE PUSH1 0x24 DUP1 CALLDATALOAD PUSH1 0x4 DUP4 ADD MSTORE SWAP1 SWAP2 PUSH1 0x20 SWAP2 DUP4 SWAP2 DUP3 SWAP1 PUSH1 0x1 PUSH1 0x1 PUSH1 0xA0 SHL SUB AND GAS STATICCALL SWAP1 DUP2 ISZERO PUSH2 0x451 JUMPI PUSH2 0x1135 SWAP2 PUSH1 0x1 SWAP2 PUSH1 0x0 SWAP2 PUSH2 0x717 JUMPI POP ISZERO ISZERO EQ PUSH2 0x1BFE JUMP JUMPDEST CALLER PUSH1 0x0 MSTORE PUSH1 0x3 PUSH1 0x20 MSTORE PUSH1 0x40 PUSH1 0x0 KECCAK256 PUSH1 0x24 CALLDATALOAD PUSH1 0x0 MSTORE PUSH1 0x20 MSTORE PUSH1 0x40 PUSH1 0x0 KECCAK256 SLOAD DUP1 PUSH1 0x0 MSTORE PUSH1 0x5 PUSH1 0x20 MSTORE PUSH2 0x1171 PUSH1 0x1 PUSH1 0xFF PUSH1 0x40 PUSH1 0x0 KECCAK256 SLOAD AND ISZERO ISZERO EQ PUSH2 0x1CF0 JUMP JUMPDEST DUP1 PUSH1 0x0 MSTORE PUSH1 0x4 PUSH1 0x20 MSTORE PUSH1 0x40 PUSH1 0x0 KECCAK256 PUSH2 0x118F PUSH1 0x40 MLOAD SWAP2 PUSH2 0x542 DUP4 PUSH2 0x1B91 JUMP JUMPDEST PUSH2 0x11A0 PUSH1 0x24 CALLDATALOAD PUSH1 0x20 DUP4 ADD MLOAD EQ PUSH2 0x1DDC JUMP JUMPDEST PUSH2 0x11AF PUSH1 0x60 DUP3 ADD MLOAD ISZERO ISZERO PUSH2 0x2041 JUMP JUMPDEST PUSH1 0xA0 DUP2 ADD MLOAD PUSH2 0x125D JUMPI PUSH2 0xE25 SWAP2 PUSH2 0x11D0 PUSH2 0x12C PUSH2 0x99A PUSH1 0x60 DUP6 ADD MLOAD TIMESTAMP PUSH2 0x1EEF JUMP JUMPDEST PUSH1 0x4 CALLDATALOAD PUSH1 0x80 DUP4 ADD MSTORE TIMESTAMP PUSH1 0xA0 DUP4 ADD MSTORE PUSH1 0x0 MSTORE PUSH1 0x4 PUSH1 0x20 MSTORE PUSH1 0xF PUSH2 0x1E0 PUSH1 0x40 PUSH1 0x0 KECCAK256 SWAP3 PUSH1 0x1 DUP1 PUSH1 0xA0 SHL SUB DUP2 MLOAD AND PUSH1 0x1 PUSH1 0x1 PUSH1 0x60 SHL SUB PUSH1 0xA0 SHL DUP6 SLOAD AND OR DUP5 SSTORE PUSH1 0x20 DUP2 ADD MLOAD PUSH1 0x1 DUP6 ADD SSTORE PUSH1 0x40 DUP2 ADD MLOAD PUSH1 0x2 DUP6 ADD SSTORE PUSH1 0x60 DUP2 ADD MLOAD PUSH1 0x3 DUP6 ADD SSTORE PUSH1 0x80 DUP2 ADD MLOAD PUSH1 0x4 DUP6 ADD SSTORE PUSH1 0xA0 DUP2 ADD MLOAD PUSH1 0x5 DUP6 ADD SSTORE PUSH2 0x2EF PUSH1 0xC0 DUP3 ADD MLOAD ISZERO ISZERO PUSH1 0x6 DUP7 ADD SWAP1 PUSH1 0xFF DUP1 NOT DUP4 SLOAD AND SWAP2 ISZERO ISZERO AND OR SWAP1 SSTORE JUMP JUMPDEST PUSH1 0x40 MLOAD PUSH3 0x461BCD PUSH1 0xE5 SHL DUP2 MSTORE PUSH1 0x20 PUSH1 0x4 DUP3 ADD MSTORE PUSH1 0x2D PUSH1 0x24 DUP3 ADD MSTORE PUSH32 0x54686520637573746F6D65722068617320616C726561647920636F6D6D697465 PUSH1 0x44 DUP3 ADD MSTORE PUSH13 0x64207468652076616C75652121 PUSH1 0x98 SHL PUSH1 0x64 DUP3 ADD MSTORE PUSH1 0x84 SWAP1 REVERT JUMPDEST PUSH1 0x40 MLOAD PUSH3 0x461BCD PUSH1 0xE5 SHL DUP2 MSTORE PUSH1 0x20 PUSH1 0x4 DUP3 ADD MSTORE PUSH1 0x29 PUSH1 0x24 DUP3 ADD MSTORE PUSH32 0x596F752061726520616C7265616479207265676973746572656420666F722074 PUSH1 0x44 DUP3 ADD MSTORE PUSH9 0x3434B9903130B73597 PUSH1 0xB9 SHL PUSH1 0x64 DUP3 ADD MSTORE PUSH1 0x84 SWAP1 REVERT JUMPDEST CALLVALUE PUSH2 0x45D JUMPI PUSH1 0x20 CALLDATASIZE PUSH1 0x3 NOT ADD SLT PUSH2 0x45D JUMPI PUSH1 0x1 SLOAD PUSH1 0x40 MLOAD PUSH4 0x9EC802FF PUSH1 0xE0 SHL DUP2 MSTORE PUSH1 0x4 DUP1 CALLDATALOAD SWAP1 DUP3 ADD MSTORE SWAP1 PUSH1 0x20 SWAP1 DUP3 SWAP1 PUSH1 0x24 SWAP1 DUP3 SWAP1 PUSH1 0x1 PUSH1 0x1 PUSH1 0xA0 SHL SUB AND GAS STATICCALL SWAP1 DUP2 ISZERO PUSH2 0x451 JUMPI PUSH2 0x136C SWAP2 PUSH1 0x1 SWAP2 PUSH1 0x0 SWAP2 PUSH2 0x717 JUMPI POP ISZERO ISZERO EQ PUSH2 0x1BFE JUMP JUMPDEST CALLER PUSH1 0x0 MSTORE PUSH1 0x2 PUSH1 0x20 MSTORE PUSH1 0x40 PUSH1 0x0 KECCAK256 PUSH1 0x4 CALLDATALOAD PUSH1 0x0 MSTORE PUSH1 0x20 MSTORE PUSH2 0x1395 PUSH1 0xFF PUSH1 0x40 PUSH1 0x0 KECCAK256 SLOAD AND ISZERO PUSH2 0x1C3D JUMP JUMPDEST CALLER PUSH1 0x0 MSTORE PUSH1 0x3 PUSH1 0x20 MSTORE PUSH1 0x40 PUSH1 0x0 KECCAK256 PUSH1 0x4 CALLDATALOAD PUSH1 0x0 MSTORE PUSH1 0x20 MSTORE PUSH1 0x40 PUSH1 0x0 KECCAK256 SLOAD DUP1 PUSH1 0x0 MSTORE PUSH1 0x5 PUSH1 0x20 MSTORE PUSH2 0x13D1 PUSH1 0x1 PUSH1 0xFF PUSH1 0x40 PUSH1 0x0 KECCAK256 SLOAD AND ISZERO ISZERO EQ PUSH2 0x1CF0 JUMP JUMPDEST DUP1 PUSH1 0x0 MSTORE PUSH1 0x4 PUSH1 0x20 MSTORE PUSH1 0x40 PUSH1 0x0 KECCAK256 PUSH2 0x13EF PUSH1 0x40 MLOAD SWAP2 PUSH2 0x542 DUP4 PUSH2 0x1B91 JUMP JUMPDEST PUSH2 0x1400 PUSH1 0x4 CALLDATALOAD PUSH1 0x20 DUP4 ADD MLOAD EQ PUSH2 0x1DDC JUMP JUMPDEST PUSH2 0x140F PUSH1 0xE0 DUP3 ADD MLOAD ISZERO ISZERO PUSH2 0x216E JUMP JUMPDEST PUSH2 0x120 DUP2 ADD MLOAD PUSH2 0x142D JUMPI PUSH2 0x649 PUSH2 0x12C PUSH2 0x643 PUSH1 0xE0 DUP5 ADD MLOAD TIMESTAMP PUSH2 0x1EEF JUMP JUMPDEST PUSH1 0x40 MLOAD PUSH3 0x461BCD PUSH1 0xE5 SHL DUP2 MSTORE PUSH1 0x20 PUSH1 0x4 DUP3 ADD MSTORE PUSH1 0x2F PUSH1 0x24 DUP3 ADD MSTORE PUSH32 0x5468652062616E6B2068617320616C72656164792073656E6420697473207365 PUSH1 0x44 DUP3 ADD MSTORE PUSH15 0x636F6E6420726573706F6E73652121 PUSH1 0x88 SHL PUSH1 0x64 DUP3 ADD MSTORE PUSH1 0x84 SWAP1 REVERT JUMPDEST CALLVALUE PUSH2 0x45D JUMPI PUSH1 0x0 CALLDATASIZE PUSH1 0x3 NOT ADD SLT PUSH2 0x45D JUMPI PUSH1 0x0 SLOAD PUSH1 0x40 MLOAD PUSH1 0x1 PUSH1 0x1 PUSH1 0xA0 SHL SUB SWAP1 SWAP2 AND DUP2 MSTORE PUSH1 0x20 SWAP1 RETURN JUMPDEST CALLVALUE PUSH2 0x45D JUMPI PUSH1 0x0 CALLDATASIZE PUSH1 0x3 NOT ADD SLT PUSH2 0x45D JUMPI PUSH1 0x20 PUSH1 0x40 MLOAD PUSH2 0x3E8 DUP2 MSTORE RETURN JUMPDEST PUSH1 0x20 CALLDATASIZE PUSH1 0x3 NOT ADD SLT PUSH2 0x45D JUMPI PUSH2 0x14E4 PUSH2 0x1B4C JUMP JUMPDEST PUSH1 0x1 SLOAD PUSH1 0x40 MLOAD PUSH4 0x9CFD3699 PUSH1 0xE0 SHL DUP2 MSTORE CALLER PUSH1 0x4 DUP3 ADD MSTORE SWAP2 SWAP1 PUSH1 0x1 PUSH1 0x1 PUSH1 0xA0 SHL SUB AND PUSH1 0x20 DUP4 PUSH1 0x24 DUP2 DUP5 GAS STATICCALL SWAP3 DUP4 ISZERO PUSH2 0x451 JUMPI PUSH1 0x0 SWAP4 PUSH2 0x1784 JUMPI JUMPDEST POP SWAP2 PUSH1 0x20 PUSH1 0x24 SWAP4 PUSH1 0x40 MLOAD SWAP5 DUP6 DUP1 SWAP3 PUSH4 0x9EC802FF PUSH1 0xE0 SHL DUP3 MSTORE DUP6 PUSH1 0x4 DUP4 ADD MSTORE GAS STATICCALL DUP1 ISZERO PUSH2 0x451 JUMPI PUSH1 0x1 PUSH2 0x155D SWAP2 PUSH2 0xE25 SWAP6 PUSH1 0x0 SWAP2 PUSH2 0xB1E JUMPI POP ISZERO ISZERO EQ PUSH2 0x1BFE JUMP JUMPDEST PUSH1 0x1 DUP1 PUSH1 0xA0 SHL SUB DUP3 AND PUSH1 0x0 MSTORE PUSH1 0x2 PUSH1 0x20 MSTORE PUSH1 0x40 PUSH1 0x0 KECCAK256 DUP2 PUSH1 0x0 MSTORE PUSH1 0x20 MSTORE PUSH2 0x158C PUSH1 0xFF PUSH1 0x40 PUSH1 0x0 KECCAK256 SLOAD AND ISZERO PUSH2 0x1C3D JUMP JUMPDEST PUSH1 0x1 DUP1 PUSH1 0xA0 SHL SUB DUP3 AND PUSH1 0x0 MSTORE PUSH1 0x3 PUSH1 0x20 MSTORE PUSH1 0x40 PUSH1 0x0 KECCAK256 DUP2 PUSH1 0x0 MSTORE PUSH1 0x20 MSTORE PUSH2 0x16CE PUSH1 0x40 PUSH1 0x0 KECCAK256 SLOAD SWAP2 DUP3 PUSH1 0x0 MSTORE PUSH1 0x5 PUSH1 0x20 MSTORE PUSH2 0x15D2 PUSH1 0x1 PUSH1 0xFF PUSH1 0x40 PUSH1 0x0 KECCAK256 SLOAD AND ISZERO ISZERO EQ PUSH2 0x1CF0 JUMP JUMPDEST PUSH2 0x15DF PUSH2 0x3E8 CALLVALUE EQ PUSH2 0x1CA4 JUMP JUMPDEST DUP3 PUSH1 0x0 MSTORE PUSH1 0x4 PUSH1 0x20 MSTORE PUSH2 0x16C3 PUSH1 0x40 PUSH1 0x0 KECCAK256 PUSH1 0x40 MLOAD SWAP6 PUSH2 0x15FD DUP8 PUSH2 0x1B91 JUMP JUMPDEST DUP2 SLOAD PUSH1 0x1 PUSH1 0x1 PUSH1 0xA0 SHL SUB SWAP1 DUP2 AND DUP1 DUP10 MSTORE PUSH1 0x1 DUP5 ADD SLOAD PUSH1 0x20 DUP11 ADD MSTORE PUSH1 0x2 DUP5 ADD SLOAD PUSH1 0x40 DUP11 ADD MSTORE PUSH1 0x3 DUP5 ADD SLOAD PUSH1 0x60 DUP11 ADD MSTORE PUSH1 0x4 DUP5 ADD SLOAD PUSH1 0x80 DUP11 ADD MSTORE PUSH1 0x5 DUP5 ADD SLOAD PUSH1 0xA0 DUP11 ADD MSTORE PUSH1 0x6 DUP5 ADD SLOAD PUSH1 0xFF SWAP1 DUP2 AND ISZERO ISZERO PUSH1 0xC0 DUP12 ADD MSTORE PUSH1 0x7 DUP6 ADD SLOAD PUSH1 0xE0 DUP12 ADD MSTORE PUSH1 0x8 DUP6 ADD SLOAD DUP2 AND ISZERO ISZERO PUSH2 0x100 DUP12 ADD MSTORE PUSH1 0x9 DUP6 ADD SLOAD PUSH2 0x120 DUP12 ADD MSTORE PUSH1 0xA DUP6 ADD SLOAD PUSH2 0x140 DUP12 ADD MSTORE PUSH1 0xB DUP6 ADD SLOAD PUSH2 0x160 DUP12 ADD MSTORE PUSH1 0xC DUP6 ADD SLOAD PUSH2 0x180 DUP12 ADD MSTORE PUSH1 0xD DUP6 ADD SLOAD PUSH2 0x1A0 DUP12 ADD MSTORE PUSH1 0xE DUP6 ADD SLOAD PUSH2 0x1C0 DUP12 ADD MSTORE PUSH1 0xF SWAP1 SWAP5 ADD SLOAD SWAP1 SWAP4 AND ISZERO ISZERO PUSH2 0x1E0 DUP10 ADD MSTORE AND EQ PUSH2 0x1F48 JUMP JUMPDEST PUSH1 0x20 DUP5 ADD MLOAD EQ PUSH2 0x1FA0 JUMP JUMPDEST PUSH2 0x16DD PUSH1 0x40 DUP4 ADD MLOAD ISZERO ISZERO PUSH2 0x1E37 JUMP JUMPDEST PUSH2 0x16EB PUSH1 0x60 DUP4 ADD MLOAD ISZERO PUSH2 0x1E93 JUMP JUMPDEST PUSH2 0x16FF PUSH2 0x12C PUSH2 0x99A PUSH1 0x40 DUP6 ADD MLOAD TIMESTAMP PUSH2 0x1EEF JUMP JUMPDEST TIMESTAMP PUSH1 0x60 DUP4 ADD MSTORE PUSH1 0x0 MSTORE PUSH1 0x4 PUSH1 0x20 MSTORE PUSH1 0xF PUSH2 0x1E0 PUSH1 0x40 PUSH1 0x0 KECCAK256 SWAP3 PUSH1 0x1 DUP1 PUSH1 0xA0 SHL SUB DUP2 MLOAD AND PUSH1 0x1 PUSH1 0x1 PUSH1 0x60 SHL SUB PUSH1 0xA0 SHL DUP6 SLOAD AND OR DUP5 SSTORE PUSH1 0x20 DUP2 ADD MLOAD PUSH1 0x1 DUP6 ADD SSTORE PUSH1 0x40 DUP2 ADD MLOAD PUSH1 0x2 DUP6 ADD SSTORE PUSH1 0x60 DUP2 ADD MLOAD PUSH1 0x3 DUP6 ADD SSTORE PUSH1 0x80 DUP2 ADD MLOAD PUSH1 0x4 DUP6 ADD SSTORE PUSH1 0xA0 DUP2 ADD MLOAD PUSH1 0x5 DUP6 ADD SSTORE PUSH2 0x2EF PUSH1 0xC0 DUP3 ADD MLOAD ISZERO ISZERO PUSH1 0x6 DUP7 ADD SWAP1 PUSH1 0xFF DUP1 NOT DUP4 SLOAD AND SWAP2 ISZERO ISZERO AND OR SWAP1 SSTORE JUMP JUMPDEST SWAP3 POP PUSH1 0x20 DUP4 RETURNDATASIZE PUSH1 0x20 GT PUSH2 0x17B1 JUMPI JUMPDEST DUP2 PUSH2 0x179F PUSH1 0x20 SWAP4 DUP4 PUSH2 0x1BC4 JUMP JUMPDEST DUP2 ADD SUB SLT PUSH2 0x45D JUMPI SWAP2 MLOAD SWAP2 PUSH1 0x20 PUSH2 0x151D JUMP JUMPDEST RETURNDATASIZE SWAP2 POP PUSH2 0x1792 JUMP JUMPDEST CALLVALUE PUSH2 0x45D JUMPI PUSH1 0x20 CALLDATASIZE PUSH1 0x3 NOT ADD SLT PUSH2 0x45D JUMPI PUSH2 0x17D2 PUSH2 0x1B4C JUMP JUMPDEST PUSH1 0x1 SLOAD PUSH4 0x9CFD3699 PUSH1 0xE0 SHL DUP4 MSTORE CALLER PUSH1 0x4 DUP5 ADD MSTORE PUSH1 0x1 PUSH1 0x1 PUSH1 0xA0 SHL SUB AND PUSH1 0x20 DUP4 PUSH1 0x24 DUP2 DUP5 GAS STATICCALL SWAP3 DUP4 ISZERO PUSH2 0x451 JUMPI PUSH1 0x0 SWAP4 PUSH2 0x1B17 JUMPI JUMPDEST POP PUSH1 0x20 PUSH1 0x24 SWAP2 PUSH1 0x40 MLOAD SWAP3 DUP4 DUP1 SWAP3 PUSH4 0x9EC802FF PUSH1 0xE0 SHL DUP3 MSTORE DUP8 PUSH1 0x4 DUP4 ADD MSTORE GAS STATICCALL SWAP1 DUP2 ISZERO PUSH2 0x451 JUMPI PUSH2 0x1843 SWAP2 PUSH1 0x1 SWAP2 PUSH1 0x0 SWAP2 PUSH2 0x1AF8 JUMPI POP ISZERO ISZERO EQ PUSH2 0x1BFE JUMP JUMPDEST PUSH1 0x1 DUP1 PUSH1 0xA0 SHL SUB DUP2 AND PUSH1 0x0 MSTORE PUSH1 0x2 PUSH1 0x20 MSTORE PUSH1 0x40 PUSH1 0x0 KECCAK256 DUP3 PUSH1 0x0 MSTORE PUSH1 0x20 MSTORE PUSH2 0x1872 PUSH1 0xFF PUSH1 0x40 PUSH1 0x0 KECCAK256 SLOAD AND ISZERO PUSH2 0x1C3D JUMP JUMPDEST PUSH1 0x1 DUP1 PUSH1 0xA0 SHL SUB DUP2 AND PUSH1 0x0 MSTORE PUSH1 0x3 PUSH1 0x20 MSTORE PUSH1 0x40 PUSH1 0x0 KECCAK256 DUP3 PUSH1 0x0 MSTORE PUSH1 0x20 MSTORE PUSH2 0x19A7 PUSH1 0x40 PUSH1 0x0 KECCAK256 SLOAD SWAP3 DUP4 PUSH1 0x0 MSTORE PUSH1 0x5 PUSH1 0x20 MSTORE PUSH2 0x18B8 PUSH1 0x1 PUSH1 0xFF PUSH1 0x40 PUSH1 0x0 KECCAK256 SLOAD AND ISZERO ISZERO EQ PUSH2 0x1CF0 JUMP JUMPDEST DUP4 PUSH1 0x0 MSTORE PUSH1 0x4 PUSH1 0x20 MSTORE PUSH2 0x199C PUSH1 0x40 PUSH1 0x0 KECCAK256 PUSH1 0x40 MLOAD SWAP5 PUSH2 0x18D6 DUP7 PUSH2 0x1B91 JUMP JUMPDEST DUP2 SLOAD PUSH1 0x1 PUSH1 0x1 PUSH1 0xA0 SHL SUB SWAP1 DUP2 AND DUP1 DUP9 MSTORE PUSH1 0x1 DUP5 ADD SLOAD PUSH1 0x20 DUP10 ADD MSTORE PUSH1 0x2 DUP5 ADD SLOAD PUSH1 0x40 DUP10 ADD MSTORE PUSH1 0x3 DUP5 ADD SLOAD PUSH1 0x60 DUP10 ADD MSTORE PUSH1 0x4 DUP5 ADD SLOAD PUSH1 0x80 DUP10 ADD MSTORE PUSH1 0x5 DUP5 ADD SLOAD PUSH1 0xA0 DUP10 ADD MSTORE PUSH1 0x6 DUP5 ADD SLOAD PUSH1 0xFF SWAP1 DUP2 AND ISZERO ISZERO PUSH1 0xC0 DUP11 ADD MSTORE PUSH1 0x7 DUP6 ADD SLOAD PUSH1 0xE0 DUP11 ADD MSTORE PUSH1 0x8 DUP6 ADD SLOAD DUP2 AND ISZERO ISZERO PUSH2 0x100 DUP11 ADD MSTORE PUSH1 0x9 DUP6 ADD SLOAD PUSH2 0x120 DUP11 ADD MSTORE PUSH1 0xA DUP6 ADD SLOAD PUSH2 0x140 DUP11 ADD MSTORE PUSH1 0xB DUP6 ADD SLOAD PUSH2 0x160 DUP11 ADD MSTORE PUSH1 0xC DUP6 ADD SLOAD PUSH2 0x180 DUP11 ADD MSTORE PUSH1 0xD DUP6 ADD SLOAD PUSH2 0x1A0 DUP11 ADD MSTORE PUSH1 0xE DUP6 ADD SLOAD PUSH2 0x1C0 DUP11 ADD MSTORE PUSH1 0xF SWAP1 SWAP5 ADD SLOAD SWAP1 SWAP4 AND ISZERO ISZERO PUSH2 0x1E0 DUP9 ADD MSTORE AND EQ PUSH2 0x1F48 JUMP JUMPDEST PUSH1 0x20 DUP4 ADD MLOAD EQ PUSH2 0x1FA0 JUMP JUMPDEST PUSH2 0x19B6 PUSH1 0x60 DUP3 ADD MLOAD ISZERO ISZERO PUSH2 0x2041 JUMP JUMPDEST PUSH1 0xA0 DUP2 ADD MLOAD PUSH2 0x1A8D JUMPI PUSH2 0x19D3 PUSH2 0x12C PUSH2 0x643 PUSH1 0x40 DUP5 ADD MLOAD TIMESTAMP PUSH2 0x1EEF JUMP JUMPDEST PUSH1 0x0 DUP1 DUP1 DUP1 PUSH2 0x7D0 CALLER DUP3 CALL ISZERO PUSH2 0x451 JUMPI PUSH2 0x703 SWAP2 PUSH1 0x0 PUSH2 0x160 DUP4 ADD MSTORE PUSH2 0x7D0 PUSH2 0x1A0 DUP4 ADD MSTORE TIMESTAMP PUSH2 0x180 DUP4 ADD MSTORE TIMESTAMP PUSH2 0x1C0 DUP4 ADD MSTORE PUSH1 0x1 PUSH2 0x1E0 DUP4 ADD MSTORE PUSH1 0x0 MSTORE PUSH1 0x4 PUSH1 0x20 MSTORE PUSH1 0xF PUSH2 0x1E0 PUSH1 0x40 PUSH1 0x0 KECCAK256 SWAP3 PUSH1 0x1 DUP1 PUSH1 0xA0 SHL SUB DUP2 MLOAD AND PUSH1 0x1 PUSH1 0x1 PUSH1 0x60 SHL SUB PUSH1 0xA0 SHL DUP6 SLOAD AND OR DUP5 SSTORE PUSH1 0x20 DUP2 ADD MLOAD PUSH1 0x1 DUP6 ADD SSTORE PUSH1 0x40 DUP2 ADD MLOAD PUSH1 0x2 DUP6 ADD SSTORE PUSH1 0x60 DUP2 ADD MLOAD PUSH1 0x3 DUP6 ADD SSTORE PUSH1 0x80 DUP2 ADD MLOAD PUSH1 0x4 DUP6 ADD SSTORE PUSH1 0xA0 DUP2 ADD MLOAD PUSH1 0x5 DUP6 ADD SSTORE PUSH2 0x2EF PUSH1 0xC0 DUP3 ADD MLOAD ISZERO ISZERO PUSH1 0x6 DUP7 ADD SWAP1 PUSH1 0xFF DUP1 NOT DUP4 SLOAD AND SWAP2 ISZERO ISZERO AND OR SWAP1 SSTORE JUMP JUMPDEST PUSH1 0x40 MLOAD PUSH3 0x461BCD PUSH1 0xE5 SHL DUP2 MSTORE PUSH1 0x20 PUSH1 0x4 DUP3 ADD MSTORE PUSH1 0x3F PUSH1 0x24 DUP3 ADD MSTORE PUSH32 0x54686520637573746F6D65722068617320616C726561647920636F6D6D697465 PUSH1 0x44 DUP3 ADD MSTORE PUSH32 0x6420666F7220746865206163636F756E7420696E666F726D6174696F6E212100 PUSH1 0x64 DUP3 ADD MSTORE PUSH1 0x84 SWAP1 REVERT JUMPDEST PUSH2 0x1B11 SWAP2 POP PUSH1 0x20 RETURNDATASIZE PUSH1 0x20 GT PUSH2 0x44A JUMPI PUSH2 0x43C DUP2 DUP4 PUSH2 0x1BC4 JUMP JUMPDEST DUP6 PUSH2 0xFE JUMP JUMPDEST SWAP1 SWAP3 POP PUSH1 0x20 DUP2 RETURNDATASIZE PUSH1 0x20 GT PUSH2 0x1B44 JUMPI JUMPDEST DUP2 PUSH2 0x1B33 PUSH1 0x20 SWAP4 DUP4 PUSH2 0x1BC4 JUMP JUMPDEST DUP2 ADD SUB SLT PUSH2 0x45D JUMPI MLOAD SWAP2 PUSH1 0x20 PUSH2 0x1806 JUMP JUMPDEST RETURNDATASIZE SWAP2 POP PUSH2 0x1B26 JUMP JUMPDEST PUSH1 0x4 CALLDATALOAD SWAP1 PUSH1 0x1 PUSH1 0x1 PUSH1 0xA0 SHL SUB DUP3 AND DUP3 SUB PUSH2 0x45D JUMPI JUMP JUMPDEST PUSH1 0x40 SWAP1 PUSH1 0x3 NOT ADD SLT PUSH2 0x45D JUMPI PUSH1 0x4 CALLDATALOAD PUSH1 0x1 PUSH1 0x1 PUSH1 0xA0 SHL SUB DUP2 AND DUP2 SUB PUSH2 0x45D JUMPI SWAP1 PUSH1 0x24 CALLDATALOAD DUP1 ISZERO ISZERO DUP2 SUB PUSH2 0x45D JUMPI SWAP1 JUMP JUMPDEST PUSH2 0x200 DUP2 ADD SWAP1 DUP2 LT PUSH8 0xFFFFFFFFFFFFFFFF DUP3 GT OR PUSH2 0x1BAE JUMPI PUSH1 0x40 MSTORE JUMP JUMPDEST PUSH4 0x4E487B71 PUSH1 0xE0 SHL PUSH1 0x0 MSTORE PUSH1 0x41 PUSH1 0x4 MSTORE PUSH1 0x24 PUSH1 0x0 REVERT JUMPDEST SWAP1 PUSH1 0x1F DUP1 NOT SWAP2 ADD AND DUP2 ADD SWAP1 DUP2 LT PUSH8 0xFFFFFFFFFFFFFFFF DUP3 GT OR PUSH2 0x1BAE JUMPI PUSH1 0x40 MSTORE JUMP JUMPDEST SWAP1 DUP2 PUSH1 0x20 SWAP2 SUB SLT PUSH2 0x45D JUMPI MLOAD DUP1 ISZERO ISZERO DUP2 SUB PUSH2 0x45D JUMPI SWAP1 JUMP JUMPDEST ISZERO PUSH2 0x1C05 JUMPI JUMP JUMPDEST PUSH1 0x40 MLOAD PUSH3 0x461BCD PUSH1 0xE5 SHL DUP2 MSTORE PUSH1 0x20 PUSH1 0x4 DUP3 ADD MSTORE PUSH1 0x10 PUSH1 0x24 DUP3 ADD MSTORE PUSH16 0x496E76616C69642042616E6B49442121 PUSH1 0x80 SHL PUSH1 0x44 DUP3 ADD MSTORE PUSH1 0x64 SWAP1 REVERT JUMPDEST ISZERO PUSH2 0x1C44 JUMPI JUMP JUMPDEST PUSH1 0x40 MLOAD PUSH3 0x461BCD PUSH1 0xE5 SHL DUP2 MSTORE PUSH1 0x20 PUSH1 0x4 DUP3 ADD MSTORE PUSH1 0x32 PUSH1 0x24 DUP3 ADD MSTORE PUSH32 0x54686520637573746F6D657220697320616C7265616479207265676973746572 PUSH1 0x44 DUP3 ADD MSTORE PUSH18 0x656420666F7220746869732062616E6B2121 PUSH1 0x70 SHL PUSH1 0x64 DUP3 ADD MSTORE PUSH1 0x84 SWAP1 REVERT JUMPDEST ISZERO PUSH2 0x1CAB JUMPI JUMP JUMPDEST PUSH1 0x40 MLOAD PUSH3 0x461BCD PUSH1 0xE5 SHL DUP2 MSTORE PUSH1 0x20 PUSH1 0x4 DUP3 ADD MSTORE PUSH1 0x1A PUSH1 0x24 DUP3 ADD MSTORE PUSH32 0x496E636F7272656374206C6F636B696E6720616D6F756E742121000000000000 PUSH1 0x44 DUP3 ADD MSTORE PUSH1 0x64 SWAP1 REVERT JUMPDEST ISZERO PUSH2 0x1CF7 JUMPI JUMP JUMPDEST PUSH1 0x40 MLOAD PUSH3 0x461BCD PUSH1 0xE5 SHL DUP2 MSTORE PUSH1 0x20 PUSH1 0x4 DUP3 ADD MSTORE PUSH1 0x49 PUSH1 0x24 DUP3 ADD MSTORE PUSH32 0x4E6F20696E7374616E6365206F662074686520637573746F6D65722072656769 PUSH1 0x44 DUP3 ADD MSTORE PUSH32 0x7374726174696F6E2070726F746F636F6C2069732072756E6E696E6720617420 PUSH1 0x64 DUP3 ADD MSTORE PUSH9 0x70726573656E742121 PUSH1 0xB8 SHL PUSH1 0x84 DUP3 ADD MSTORE PUSH1 0xA4 SWAP1 REVERT JUMPDEST ISZERO PUSH2 0x1D7B JUMPI JUMP JUMPDEST PUSH1 0x40 MLOAD PUSH3 0x461BCD PUSH1 0xE5 SHL DUP2 MSTORE PUSH1 0x20 PUSH1 0x4 DUP3 ADD MSTORE PUSH1 0x33 PUSH1 0x24 DUP3 ADD MSTORE PUSH32 0x596F7520617265206E6F7420686F6C64696E672074686520696E74656E646564 PUSH1 0x44 DUP3 ADD MSTORE PUSH19 0x20637573746F6D657220616464726573732121 PUSH1 0x68 SHL PUSH1 0x64 DUP3 ADD MSTORE PUSH1 0x84 SWAP1 REVERT JUMPDEST ISZERO PUSH2 0x1DE3 JUMPI JUMP JUMPDEST PUSH1 0x40 MLOAD PUSH3 0x461BCD PUSH1 0xE5 SHL DUP2 MSTORE PUSH1 0x20 PUSH1 0x4 DUP3 ADD MSTORE PUSH1 0x26 PUSH1 0x24 DUP3 ADD MSTORE PUSH32 0x476976656E2062616E6B4944206973206E6F742074686520696E74656E646564 PUSH1 0x44 DUP3 ADD MSTORE PUSH6 0x206F6E652121 PUSH1 0xD0 SHL PUSH1 0x64 DUP3 ADD MSTORE PUSH1 0x84 SWAP1 REVERT JUMPDEST ISZERO PUSH2 0x1E3E JUMPI JUMP JUMPDEST PUSH1 0x40 MLOAD PUSH3 0x461BCD PUSH1 0xE5 SHL DUP2 MSTORE PUSH1 0x20 PUSH1 0x4 DUP3 ADD MSTORE PUSH1 0x27 PUSH1 0x24 DUP3 ADD MSTORE PUSH32 0x54686520637573746F6D6572206E6F7420796574206C6F636B65642074686520 PUSH1 0x44 DUP3 ADD MSTORE PUSH7 0x6D6F6E65792121 PUSH1 0xC8 SHL PUSH1 0x64 DUP3 ADD MSTORE PUSH1 0x84 SWAP1 REVERT JUMPDEST ISZERO PUSH2 0x1E9A JUMPI JUMP JUMPDEST PUSH1 0x40 MLOAD PUSH3 0x461BCD PUSH1 0xE5 SHL DUP2 MSTORE PUSH1 0x20 PUSH1 0x4 DUP3 ADD MSTORE PUSH1 0x27 PUSH1 0x24 DUP3 ADD MSTORE PUSH32 0x5468652062616E6B2068617320616C7265616479206C6F636B65642069747320 PUSH1 0x44 DUP3 ADD MSTORE PUSH7 0x6D6F6E65792121 PUSH1 0xC8 SHL PUSH1 0x64 DUP3 ADD MSTORE PUSH1 0x84 SWAP1 REVERT JUMPDEST SWAP2 SWAP1 DUP3 SUB SWAP2 DUP3 GT PUSH2 0x389 JUMPI JUMP JUMPDEST ISZERO PUSH2 0x1F03 JUMPI JUMP JUMPDEST PUSH1 0x40 MLOAD PUSH3 0x461BCD PUSH1 0xE5 SHL DUP2 MSTORE PUSH1 0x20 PUSH1 0x4 DUP3 ADD MSTORE PUSH1 0x1C PUSH1 0x24 DUP3 ADD MSTORE PUSH32 0x54696D656C696D6974206E6F7420796574206578636565646564212100000000 PUSH1 0x44 DUP3 ADD MSTORE PUSH1 0x64 SWAP1 REVERT JUMPDEST ISZERO PUSH2 0x1F4F JUMPI JUMP JUMPDEST PUSH1 0x40 MLOAD PUSH3 0x461BCD PUSH1 0xE5 SHL DUP2 MSTORE PUSH1 0x20 PUSH1 0x4 DUP3 ADD MSTORE PUSH1 0x23 PUSH1 0x24 DUP3 ADD MSTORE PUSH32 0x476976656E20637573746F6D6572206164647265737320697320696E76616C69 PUSH1 0x44 DUP3 ADD MSTORE PUSH3 0x642121 PUSH1 0xE8 SHL PUSH1 0x64 DUP3 ADD MSTORE PUSH1 0x84 SWAP1 REVERT JUMPDEST ISZERO PUSH2 0x1FA7 JUMPI JUMP JUMPDEST PUSH1 0x40 MLOAD PUSH3 0x461BCD PUSH1 0xE5 SHL DUP2 MSTORE PUSH1 0x20 PUSH1 0x4 DUP3 ADD MSTORE PUSH1 0x29 PUSH1 0x24 DUP3 ADD MSTORE PUSH32 0x596F7520617265206E6F7420686F6C64696E672074686520696E74656E646564 PUSH1 0x44 DUP3 ADD MSTORE PUSH9 0x2062616E6B49442121 PUSH1 0xB8 SHL PUSH1 0x64 DUP3 ADD MSTORE PUSH1 0x84 SWAP1 REVERT JUMPDEST ISZERO PUSH2 0x2005 JUMPI JUMP JUMPDEST PUSH1 0x40 MLOAD PUSH3 0x461BCD PUSH1 0xE5 SHL DUP2 MSTORE PUSH1 0x20 PUSH1 0x4 DUP3 ADD MSTORE PUSH1 0x14 PUSH1 0x24 DUP3 ADD MSTORE PUSH20 0x54696D656C696D69742065786365656465642121 PUSH1 0x60 SHL PUSH1 0x44 DUP3 ADD MSTORE PUSH1 0x64 SWAP1 REVERT JUMPDEST ISZERO PUSH2 0x2048 JUMPI JUMP JUMPDEST PUSH1 0x40 MLOAD PUSH3 0x461BCD PUSH1 0xE5 SHL DUP2 MSTORE PUSH1 0x20 PUSH1 0x4 DUP3 ADD MSTORE PUSH1 0x23 PUSH1 0x24 DUP3 ADD MSTORE PUSH32 0x5468652062616E6B206E6F7420796574206C6F636B656420746865206D6F6E65 PUSH1 0x44 DUP3 ADD MSTORE PUSH3 0x792121 PUSH1 0xE8 SHL PUSH1 0x64 DUP3 ADD MSTORE PUSH1 0x84 SWAP1 REVERT JUMPDEST ISZERO PUSH2 0x20A0 JUMPI JUMP JUMPDEST PUSH1 0x40 MLOAD PUSH3 0x461BCD PUSH1 0xE5 SHL DUP2 MSTORE PUSH1 0x20 PUSH1 0x4 DUP3 ADD MSTORE PUSH1 0x3B PUSH1 0x24 DUP3 ADD MSTORE PUSH32 0x54686520637573746F6D6572206E6F742079657420636F6D6D6974656420666F PUSH1 0x44 DUP3 ADD MSTORE PUSH32 0x7220746865206163636F756E7420696E666F726D6174696F6E21210000000000 PUSH1 0x64 DUP3 ADD MSTORE PUSH1 0x84 SWAP1 REVERT JUMPDEST ISZERO PUSH2 0x2112 JUMPI JUMP JUMPDEST PUSH1 0x40 MLOAD PUSH3 0x461BCD PUSH1 0xE5 SHL DUP2 MSTORE PUSH1 0x20 PUSH1 0x4 DUP3 ADD MSTORE PUSH1 0x2E PUSH1 0x24 DUP3 ADD MSTORE PUSH32 0x5468652062616E6B2068617320616C72656164792073656E6420697473206669 PUSH1 0x44 DUP3 ADD MSTORE PUSH14 0x72737420726573706F6E73652121 PUSH1 0x90 SHL PUSH1 0x64 DUP3 ADD MSTORE PUSH1 0x84 SWAP1 REVERT JUMPDEST ISZERO PUSH2 0x2175 JUMPI JUMP JUMPDEST PUSH1 0x40 MLOAD PUSH3 0x461BCD PUSH1 0xE5 SHL DUP2 MSTORE PUSH1 0x20 PUSH1 0x4 DUP3 ADD MSTORE PUSH1 0x2A PUSH1 0x24 DUP3 ADD MSTORE PUSH32 0x5468652062616E6B206E6F74207965742073656E642069747320666972737420 PUSH1 0x44 DUP3 ADD MSTORE PUSH10 0x726573706F6E73652121 PUSH1 0xB0 SHL PUSH1 0x64 DUP3 ADD MSTORE PUSH1 0x84 SWAP1 REVERT INVALID LOG2 PUSH5 0x6970667358 0x22 SLT KECCAK256 0xBE 0x4A EQ 0xE3 PUSH25 0xEF973321978C975376CD91125C27D45D6E2FDD40BA6A853575 DUP10 SELFDESTRUCT PUSH5 0x736F6C6343 STOP ADDMOD SLT STOP CALLER "
		},
		"gasEstimates": {
			"creation": {
				"codeDepositCost": "1741400",
				"executionCost": "infinite",
				"totalCost": "infinite"
			},
			"external": {
				"addr_SC_Bank_Registration()": "2348",
				"checkIfCommitmentMatches(address,bool)": "infinite",
				"commitAccountInfo(bytes32,uint256)": "infinite",
				"exit1CustomerReg(uint256)": "infinite",
				"exit2CustomerReg(address)": "infinite",
				"exit3CustomerReg(uint256)": "infinite",
				"exit4CustomerReg(uint256)": "infinite",
				"isCustomerRegisteredToBank(address,uint256)": "2707",
				"lockMoneyByBank(address)": "infinite",
				"lockMoneyByCustomer(uint256)": "infinite",
				"lockingAmount()": "199",
				"sendVerificationResult(address,bool)": "infinite",
				"timeLimit()": "309"
			}
		},
		"methodIdentifiers": {
			"addr_SC_Bank_Registration()": "27664ea1",
			"checkIfCommitmentMatches(address,bool)": "c5fe01e4",
			"commitAccountInfo(bytes32,uint256)": "845a6c5d",
			"exit1CustomerReg(uint256)": "b53327a7",
			"exit2CustomerReg(address)": "193b39b5",
			"exit3CustomerReg(uint256)": "e8c39e0f",
			"exit4CustomerReg(uint256)": "7f9794c6",
			"isCustomerRegisteredToBank(address,uint256)": "e1ef7594",
			"lockMoneyByBank(address)": "2558196e",
			"lockMoneyByCustomer(uint256)": "f8ad2390",
			"lockingAmount()": "25ab292e",
			"sendVerificationResult(address,bool)": "d1706b6c",
			"timeLimit()": "c08d1fe5"
		}
	},
	"abi": [
		{
			"inputs": [
				{
					"internalType": "address",
					"name": "_addr_SC_Bank_Registration",
					"type": "address"
				}
			],
			"stateMutability": "nonpayable",
			"type": "constructor"
		},
		{
			"inputs": [],
			"name": "addr_SC_Bank_Registration",
			"outputs": [
				{
					"internalType": "address",
					"name": "",
					"type": "address"
				}
			],
			"stateMutability": "view",
			"type": "function"
		},
		{
			"inputs": [
				{
					"internalType": "address",
					"name": "_cAddr",
					"type": "address"
				},
				{
					"internalType": "bool",
					"name": "_response1",
					"type": "bool"
				}
			],
			"name": "checkIfCommitmentMatches",
			"outputs": [],
			"stateMutability": "nonpayable",
			"type": "function"
		},
		{
			"inputs": [
				{
					"internalType": "bytes32",
					"name": "_commitment",
					"type": "bytes32"
				},
				{
					"internalType": "uint256",
					"name": "_bankID",
					"type": "uint256"
				}
			],
			"name": "commitAccountInfo",
			"outputs": [],
			"stateMutability": "nonpayable",
			"type": "function"
		},
		{
			"inputs": [
				{
					"internalType": "uint256",
					"name": "_bankID",
					"type": "uint256"
				}
			],
			"name": "exit1CustomerReg",
			"outputs": [],
			"stateMutability": "nonpayable",
			"type": "function"
		},
		{
			"inputs": [
				{
					"internalType": "address",
					"name": "_cAddr",
					"type": "address"
				}
			],
			"name": "exit2CustomerReg",
			"outputs": [],
			"stateMutability": "nonpayable",
			"type": "function"
		},
		{
			"inputs": [
				{
					"internalType": "uint256",
					"name": "_bankID",
					"type": "uint256"
				}
			],
			"name": "exit3CustomerReg",
			"outputs": [],
			"stateMutability": "nonpayable",
			"type": "function"
		},
		{
			"inputs": [
				{
					"internalType": "uint256",
					"name": "_bankID",
					"type": "uint256"
				}
			],
			"name": "exit4CustomerReg",
			"outputs": [],
			"stateMutability": "nonpayable",
			"type": "function"
		},
		{
			"inputs": [
				{
					"internalType": "address",
					"name": "_cAddr",
					"type": "address"
				},
				{
					"internalType": "uint256",
					"name": "_bankID",
					"type": "uint256"
				}
			],
			"name": "isCustomerRegisteredToBank",
			"outputs": [
				{
					"internalType": "bool",
					"name": "",
					"type": "bool"
				}
			],
			"stateMutability": "view",
			"type": "function"
		},
		{
			"inputs": [
				{
					"internalType": "address",
					"name": "_cAddr",
					"type": "address"
				}
			],
			"name": "lockMoneyByBank",
			"outputs": [],
			"stateMutability": "payable",
			"type": "function"
		},
		{
			"inputs": [
				{
					"internalType": "uint256",
					"name": "_bankID",
					"type": "uint256"
				}
			],
			"name": "lockMoneyByCustomer",
			"outputs": [],
			"stateMutability": "payable",
			"type": "function"
		},
		{
			"inputs": [],
			"name": "lockingAmount",
			"outputs": [
				{
					"internalType": "uint256",
					"name": "",
					"type": "uint256"
				}
			],
			"stateMutability": "view",
			"type": "function"
		},
		{
			"inputs": [
				{
					"internalType": "address",
					"name": "_cAddr",
					"type": "address"
				},
				{
					"internalType": "bool",
					"name": "_response2",
					"type": "bool"
				}
			],
			"name": "sendVerificationResult",
			"outputs": [],
			"stateMutability": "nonpayable",
			"type": "function"
		},
		{
			"inputs": [],
			"name": "timeLimit",
			"outputs": [
				{
					"internalType": "uint256",
					"name": "",
					"type": "uint256"
				}
			],
			"stateMutability": "view",
			"type": "function"
		}
	]
}