{
	"data": {
		"bytecode": {
			"linkReferences": {},
			"object": "608034620000b057601f6200565138819003918201601f19168301916001600160401b03831184841017620000b5578084926040948552833981010312620000b0576200005a60206200005283620000cb565b9201620000cb565b906000600d556000600e5560018060a01b038091169160018060a01b0319928084600054161760005583600154161760015516908181600254161760025560035416176003556040516155709081620000e18239f35b600080fd5b634e487b7160e01b600052604160045260246000fd5b51906001600160a01b0382168203620000b05756fe6101c080604052600436101561001457600080fd5b60003560e01c908163044215c614614a18575080630a0f378e146147b95780630cbe7bf41461415e578063189317aa14613d2357806325ab292e14613d0657806327664ea114613cdd578063319071321461389f5780633714008a146138765780633d4004b8146135dd5780634f68d9da146131d7578063593c569114612fc05780635f02166914612c4a5780636b34123b14612c2c5780636c0c6ca114612bfb57806371c9384414612b945780637f02808714612b765780637ff1954814612b2e578063b48a660f14612769578063c08d1fe51461274c578063c0ecbb54146122e3578063c19a8a8e14612067578063c5fe01e414611d13578063ce3c562b14611ce2578063cf9ae96114611c77578063d28e58de14611c46578063d5476d8f146116dc578063d7f8ed331461132d578063dd5708ad14610f67578063df8a303f14610dad578063e8610b7c1461086d578063ea5f9a97146103e0578063f1d0babf146101c15763f869d14c1461018b57600080fd5b346101bc5760203660031901126101bc57600435600052600b602052602060ff604060002054166040519015158152f35b600080fd5b346101bc576101cf36614ac0565b90801515806103d4575b6101e29061507b565b806000526102be60209260098452610206600160ff604060002054161515146152ba565b82600052600c845260406000206102b760405161022281614b89565b8254908181526102ae8760018060a01b039384600188015416938b8101948552856002890154166040820152610140600a60038a015499606084019a8b5260048101546080850152600581015460a0850152600681015460c0850152600781015460e0850152600881015461010085015260ff6009820154161515610120850152015491015214615107565b51163314615167565b51146151b3565b80600052600882526102d36040600020615342565b906102e0818351146153b7565b6040820180511561037c57606083019081516103295791610327949161031661012c61030f6008965142614ee3565b11156151ff565b429052600052526040600020615242565b005b60405162461bcd60e51b815260048101869052602560248201527f54686520706179657220616c726564617920657865637574656420746865207460448201526437b5b2b71760d91b6064820152608490fd5b60405162461bcd60e51b815260048101859052602a60248201527f546865206973737565722062616e6b206e6f7420796574206c6f636b656420746044820152696865206d6f6e6579212160b01b6064820152608490fd5b50600e548111156101d9565b346101bc576103ee36614b11565b9180151580610861575b6104019061507b565b806000526009602052610420600160ff604060002054161515146152ba565b600154604051639cfd369960e01b815233600482015290602090829060249082906001600160a01b03165afa90811561073f5760009161082f575b5081600052600c60205261052a604060002091610503846040519461047f86614b89565b805480875260018201546001600160a01b03908116602089015260028301541660408801526003820154606088015260048201546080880152600582015460a0880152600682015460c0880152600782015460e08801526008820154610100880152600982015460ff161515610120880152600a9091015461014087015214615107565b602083015161051f906001600160a01b03878116911614615167565b6060830151146151b3565b8160005260086020526105406040600020615342565b9261054d838551146153b7565b6060840151156107dc57608084015161074b5761057461012c61030f606087015142614ee3565b6103e8946000808080896001600160a01b03871682f11561073f576000808080893382f11561073f57600184916105e1974260e08901524261012089015260c08801524261010088015215158060a0880152146105f5575b50505060005260086020526040600020615242565b60096020526040600020805460ff19169055005b426080860181905260a0840152604080516001600160a01b0393909316835260208301919091527fcf846c25fee71ff9b347180328d521e9bab2246d61a92929dfa7c62027302f8491a160408181015181516001600160a01b039091168152602081018490527f36ece0452bf465827fd3376fa5d0bfe2fe9f1106911466349d63bee03fd55cc09190a181600052600c602052600a610140604060002092805184556001840160018060a01b03602083015116906001600160601b0360a01b9182825416179055600285019060018060a01b0360408401511690825416179055606081015160038501556080810151600485015560a0810151600585015560c0810151600685015560e0810151600785015561010081015160088501556107326101208201511515600986019060ff801983541691151516179055565b01519101558380826105cc565b6040513d6000823e3d90fd5b60405162461bcd60e51b815260206004820152605a60248201527f546865206973737565722062616e6b20616c726561647920636f6e6669726d6560448201527f6420746861742074686520746f6b656e20616d6f756e7420776173206465626960648201527f7465642066726f6d2070617965722773206163636f756e742121000000000000608482015260a490fd5b60405162461bcd60e51b815260206004820152602560248201527f54686520706179657220646f6573206e6f74206578656375746520746865207460448201526437b5b2b71760d91b6064820152608490fd5b90506020813d602011610859575b8161084a60209383614bf6565b810103126101bc57518461045b565b3d915061083d565b50600e548111156103f8565b60203660031901126101bc57610881614ad6565b600154604051639cfd369960e01b8152336004820152906001600160a01b0316602082602481845afa91821561073f57600092610d78575b50602060249160405192838092639ec802ff60e01b82528660048301525afa90811561073f576108f791600191600091610d59575b50151514614c30565b60035460405163387bdd6560e21b81526001600160a01b03848116600483015260248201849052909160209183916044918391165afa90811561073f5761094c91600191600091610d2a575b50151514614d41565b60018060a01b0382166000526004602052604060002081600052602052610ad560406000205491826000526005602052610992600160ff60406000205416151514614da5565b61099f6103e83414614cd0565b826000526007602052610aca6040600020604051956109bd87614bd9565b8154875260018201546001600160a01b0390811660208901819052600284015460408a0152600384015460608a0152600484015460808a0152600584015460a08a0152600684015460c08a0152600784015460ff908116151560e08b015260088501546101008b01526009850154811615156101208b0152600a8501546101408b0152600b850154811615156101608b0152600c8501546101808b0152600d85015483166101a08b0152600e8501546101c08b0152600f8501546101e08b015260108501541615156102008a015260118401546102208a015260128401546102408a015260138401546102608a015260148401546102808a01526015909301546102a08901521614614e2b565b604084015114614e85565b606082015115610cd9576080820151610c8157610b0261012c610afc606085015142614ee3565b10614ef0565b426080830152600052600760205260156102a06040600020928051845560018060a01b036020820151166001600160601b0360a01b60018601541617600185015560408101516002850155606081015160038501556080810151600485015560a0810151600585015560c08101516006850155610b9460e08201511515600786019060ff801983541691151516179055565b6101008101516008850155610bbf6101208201511515600986019060ff801983541691151516179055565b610140810151600a850155610bea6101608201511515600b86019060ff801983541691151516179055565b610180810151600c850155600d840160018060a01b036101a0830151166001600160601b0360a01b8254161790556101c0810151600e8501556101e0810151600f850155610c4e6102008201511515601086019060ff801983541691151516179055565b61022081015160118501556102408101516012850155610260810151601385015561028081015160148501550151910155005b60405162461bcd60e51b815260206004820152602a60248201527f546865206973737565722062616e6b20616c7265616479206c6f636b656420696044820152697473206d6f6e6579212160b01b6064820152608490fd5b60405162461bcd60e51b8152602060048201526024808201527f546865207061796572206e6f7420796574206c6f636b656420697473206d6f6e6044820152636579212160e01b6064820152608490fd5b610d4c915060203d602011610d52575b610d448183614bf6565b810190614c18565b85610943565b503d610d3a565b610d72915060203d602011610d5257610d448183614bf6565b856108ee565b9091506020813d602011610da5575b81610d9460209383614bf6565b810103126101bc57519060206108b9565b3d9150610d87565b346101bc5760203660031901126101bc576004356000526007602052604060002080608052808054600160a01b600190038060018401541661012052600283015460a0526003830154600484015460058501546006860154600787015460ff16600888015491600989015460ff1693600a8a015495600b8b015460ff1697600c8c015499600d8d0154169a600e8d01549c600f01549d601081015460ff1661010052601181015461018052601281015461016052601381015460c05260148101546101a0526015015460e05260405180610140525261012051610140516020015260a0516101405160400152610140516060015261014051608001526101405160a001526101405160c0015215156101405160e0015261014051610100015215156101405161012001526101405161014001521515610140516101600152610140516101800152610140516101a00152610140516101c00152610140516101e00152610100511515610140516102000152610180516101405161022001526101605161014051610240015260c0516101405161026001526101a05161014051610280015260e051610140516102a00152610140516102c090f35b346101bc5760403660031901126101bc57600154604051639ec802ff60e01b8152600480359082015290602090829060249082906001600160a01b03165afa90811561073f57610fc49160019160009161130e5750151514614c30565b60035460405163387bdd6560e21b81523360048083019190915235602482015290602090829060449082906001600160a01b03165afa90811561073f57611019916001916000916112ef575b50151514614c6f565b3360005260046020526040600020600435600052602052604060002054806000526005602052611055600160ff60406000205416151514614f33565b8060005260076020526040600020906111846040519261107484614bd9565b80548452601560018060a01b0360018301541691826020870152600281015460408701526003810154606087015260048101546080870152600581015460a0870152600681015460c087015260ff600782015416151560e0870152600881015461010087015260ff6009820154161515610120870152600a81015461014087015260ff600b820154161515610160870152600c81015461018087015260018060a01b03600d820154166101a0870152600e8101546101c0870152600f8101546101e087015260ff6010820154161515610200870152601181015461022087015260128101546102408701526013810154610260870152601481015461028087015201546102a08501523314614fb7565b61119560043560408401511461501c565b60808201511561129b5760c0820151611256576111bc61012c610afc608085015142614ee3565b60243560a08301524260c0830152600052600760205260156102a06040600020928051845560018060a01b036020820151166001600160601b0360a01b60018601541617600185015560408101516002850155606081015160038501556080810151600485015560a0810151600585015560c08101516006850155610b9460e08201511515600786019060ff801983541691151516179055565b60405162461bcd60e51b815260206004820152601b60248201527f436f6d6d69746d656e7420697320616c726561647920646f6e652100000000006044820152606490fd5b60405162461bcd60e51b815260206004820152602660248201527f4973737565722062616e6b206e6f7420796574206c6f636b656420746865206d6044820152656f6e6579212160d01b6064820152608490fd5b611308915060203d602011610d5257610d448183614bf6565b83611010565b611327915060203d602011610d5257610d448183614bf6565b836108ee565b346101bc5761133b36614ac0565b90801515806116d0575b61134e9061507b565b80600052600c6020526114176040600020926113f5836040519561137187614b89565b805480885260018201546001600160a01b0390811660208a015260028301541660408901526003820154606089015260048201546080890152600582015460a0890152600682015460c0890152600782015460e08901526008820154610100890152600982015460ff161515610120890152600a9091015461014088015214615107565b61140c60018060a01b036020860151163314615167565b6060840151146151b3565b60a08201511561166f5760e082015161160b576104b061143b60a084015142614ee3565b11156115ae57610100820151611543577f964a988eb71730d9dc1a5ff3b1d6a37f048054d295ae02d766bec12af5f52f20916060914261010083015280600052600c6020526040600020825181556001810160018060a01b03602085015116906001600160601b0360a01b9182825416179055600282019060018060a01b0360408601511690825416179055600a61014085850151948560038501556080810151600485015560a0810151600585015560c0810151600685015560e08101516007850155610100810151600885015561152a6101208201511515600986019060ff801983541691151516179055565b01519101556040519133835260208301526040820152a1005b60405162461bcd60e51b815260206004820152603e60248201527f596f75206861766520616c726561647920706c6163656420612072657175657360448201527f7420746f20726566756e642074686520746f6b656e20616d6f756e74212100006064820152608490fd5b60405162461bcd60e51b815260206004820152602f60248201527f54696d65206c696d6974206e6f74207965742065786365656465642e20596f7560448201526e206861766520746f2077616974212160881b6064820152608490fd5b60405162461bcd60e51b815260206004820152603660248201527f546f6b656e20616d6f756e742077617320616c726561647920637265646974656044820152756420746f2070617965652773206163636f756e74212160501b6064820152608490fd5b60405162461bcd60e51b815260206004820152603360248201527f546f6b656e20616d6f756e7420776173206e6f7420646562697465642066726f6044820152726d2070617965722773206163636f756e74212160681b6064820152608490fd5b50600e54811115611345565b346101bc5760403660031901126101bc576116f5614ad6565b6116fd614b02565b600154604051639cfd369960e01b815233600482015292906001600160a01b0316602084602481845afa93841561073f57600094611c11575b50602060249160405192838092639ec802ff60e01b82528860048301525afa90811561073f5761177391600191600091611bf25750151514614c30565b60035460405163387bdd6560e21b81526001600160a01b03838116600483015260248201869052909160209183916044918391165afa90811561073f576117c791600191600091611bd35750151514614d41565b60018060a01b03811660005260046020526040600020836000526020526040600020549182600052600560205261180a600160ff60406000205416151514614da5565b82600052600760205261194560406000209461193a6040519661182c88614bd9565b8054885260018101546001600160a01b0390811660208a01819052600283015460408b0152600383015460608b0152600483015460808b0152600583015460a08b0152600683015460c08b0152600783015460ff908116151560e08c015260088401546101008c01526009840154811615156101208c0152600a8401546101408c0152600b840154811615156101608c0152600c8401546101808c0152600d84015483166101a08c0152600e8401546101c08c0152600f8401546101e08c015260108401541615156102008b015260118301546102208b015260128301546102408b015260138301546102608b015260148301546102808b01526015909201546102a08a0152861614614e2b565b604086015114614e85565b61014084015115611b79576001610120850151151503611b1e57610180840151611ad657829061198061012c610afc61014088015142614ee3565b1515610160850181905242610180860152611a94576000526006602052604060002060ff19906001828254161790556005602052604060002090815416905560008080806103e83382f11561073f57600080806103e8819460018060a01b031682f11561073f576103e86102408301526103e861028083015242610260830152426102a08301525b600052600760205260156102a06040600020928051845560018060a01b036020820151166001600160601b0360a01b60018601541617600185015560408101516002850155606081015160038501556080810151600485015560a0810151600585015560c08101516006850155610b9460e08201511515600786019060ff801983541691151516179055565b604080516001600160a01b0393909316835260208301919091527f0fa053961d64c3b762e9f4bc2fdca9d2b02715c34ec5cfcd4643118e0d15987e91a1611a08565b60405162461bcd60e51b815260206004820152602c602482015260008051602061551b83398151915260448201526b20726573706f6e736533212160a01b6064820152608490fd5b60405162461bcd60e51b815260206004820152602d60248201527f5468652062616e6b206d656e74696f6e6564207468617420746865206361726460448201526c20697320696e76616c6964212160981b6064820152608490fd5b60405162461bcd60e51b815260206004820152602c60248201527f546865206973737565722062616e6b206e6f74207965742073656e742074686560448201526b20726573706f6e736532212160a01b6064820152608490fd5b611bec915060203d602011610d5257610d448183614bf6565b86610943565b611c0b915060203d602011610d5257610d448183614bf6565b866108ee565b9093506020813d602011611c3e575b81611c2d60209383614bf6565b810103126101bc5751926020611736565b3d9150611c20565b346101bc5760203660031901126101bc576004356000526009602052602060ff604060002054166040519015158152f35b346101bc5760203660031901126101bc57600435600052600860205260406000208054611cde6001830154926002810154906003810154600482015460ff60058401541660068401549160078501549360096008870154960154966040519a8b9a8b614b44565b0390f35b346101bc5760203660031901126101bc576004356000526006602052602060ff604060002054166040519015158152f35b346101bc5760403660031901126101bc57611d2c614ad6565b611d34614b02565b600154604051639cfd369960e01b815233600482015292906001600160a01b0316602084602481845afa93841561073f57600094612032575b50602060249160405192838092639ec802ff60e01b82528860048301525afa90811561073f57611daa91600191600091611bf25750151514614c30565b60035460405163387bdd6560e21b81526001600160a01b03838116600483015260248201869052909160209183916044918391165afa90811561073f57611dfe91600191600091611bd35750151514614d41565b60018060a01b038116600052600460205260406000208360005260205260406000205491826000526005602052611e41600160ff60406000205416151514614da5565b826000526007602052611e6360406000209461193a6040519661182c88614bd9565b60c084015115611fed57610100840151611fa557611e8b61012c610afc60c087015142614ee3565b15801560e085015242610100850152611f2c575b50600052600760205260156102a06040600020928051845560018060a01b036020820151166001600160601b0360a01b60018601541617600185015560408101516002850155606081015160038501556080810151600485015560a0810151600585015560c08101516006850155610b9460e08201511515600786019060ff801983541691151516179055565b816000526006602052604060002060ff19906001828254161790556005602052604060002090815416905560008080806103e83382f11561073f57600080806103e8819460018060a01b031682f11561073f576103e86102408301526103e861028083015242610260830152426102a083015282611e9f565b60405162461bcd60e51b815260206004820152602c602482015260008051602061551b83398151915260448201526b20726573706f6e736531212160a01b6064820152608490fd5b60405162461bcd60e51b815260206004820152601d60248201527f546865207061796572206e6f742079657420636f6d6d697474656421210000006044820152606490fd5b9093506020813d60201161205f575b8161204e60209383614bf6565b810103126101bc5751926020611d6d565b3d9150612041565b60403660031901126101bc5760043561207e614aec565b90801515806122d7575b6120919061507b565b80600052602091600983526120b2600160ff604060002054161515146152ba565b6120bf6103e834146150bb565b600154604051639cfd369960e01b8152336004820152906001600160a01b039085908390602490829085165afa91821561073f576000926122a4575b506102b76121ab9385600052600c87526040600020928060405161211e81614b89565b6121a18987548084528460018a015416938d81019485528560028b0154166040820152610140600a60038c01549b606084019c8d5260048101546080850152600581015460a0850152600681015460c0850152600781015460e0850152600881015461010085015260ff6009820154161515610120850152015491015214615107565b5116911614615167565b80600052600882526121c06040600020615342565b906121cd818351146153b7565b82820180511561225357604083019081516121fb5791610327949161031661012c61030f6008965142614ee3565b60405162461bcd60e51b815260048101869052602a60248201527f546865206973737565722062616e6b20616c7265616479206c6f636b656420746044820152696865206d6f6e6579212160b01b6064820152608490fd5b60405162461bcd60e51b8152600481018590526024808201527f546865207061796572206e6f7420796574206c6f636b656420746865206d6f6e6044820152636579212160e01b6064820152608490fd5b9291508483813d83116122d0575b6122bc8183614bf6565b810103126101bc57915190916102b76120fb565b503d6122b2565b50600e54811115612088565b346101bc5760603660031901126101bc576122fc614aec565b600154604051639ec802ff60e01b8152600480359082015290602090829060249082906001600160a01b03165afa90811561073f576123489160019160009161272d5750151514614c30565b60035460405163387bdd6560e21b81523360048083019190915235602482015290602090829060449082906001600160a01b03165afa90811561073f5761239c9160019160009161270e5750151514614c6f565b33600052600460205260406000206004356000526020526040600020548060005260056020526123d8600160ff60406000205416151514614f33565b806000526007602052604060002091612507604051936123f785614bd9565b80548552601560018060a01b0360018301541691826020880152600281015460408801526003810154606088015260048101546080880152600581015460a0880152600681015460c088015260ff600782015416151560e0880152600881015461010088015260ff6009820154161515610120880152600a81015461014088015260ff600b820154161515610160880152600c81015461018088015260018060a01b03600d820154166101a0880152600e8101546101c0880152600f8101546101e088015260ff6010820154161515610200880152601181015461022088015260128101546102408801526013810154610260880152601481015461028088015201546102a08601523314614fb7565b61251860043560408501511461501c565b610180830151156126bd576001610160840151151503612652576101e08301516125fb5761255161012c610afc61018086015142614ee3565b60018060a01b03166101a08301526044356101c0830152426101e0830152600052600760205260156102a06040600020928051845560018060a01b036020820151166001600160601b0360a01b60018601541617600185015560408101516002850155606081015160038501556080810151600485015560a0810151600585015560c08101516006850155610b9460e08201511515600786019060ff801983541691151516179055565b60405162461bcd60e51b815260206004820152602960248201527f5468652070617965722068617320616c726561647920726571756573746564206044820152686120746f6b656e212160b81b6064820152608490fd5b60405162461bcd60e51b815260206004820152603860248201527f5468652042616e6b206d656e74696f6e6564207468617420746865204361726460448201527f2069732063757272656e746c7920696e616374697665212100000000000000006064820152608490fd5b60405162461bcd60e51b8152602060048201526024808201527f4973737565722062616e6b206e6f74207965742073656e7420726573706f6e736044820152636533212160e01b6064820152608490fd5b612727915060203d602011610d5257610d448183614bf6565b84611010565b612746915060203d602011610d5257610d448183614bf6565b846108ee565b346101bc5760003660031901126101bc57602060405161012c8152f35b346101bc5760403660031901126101bc57612782614aec565b600435151580612b20575b6127969061507b565b600154604051639cfd369960e01b815233600482015290602090829060249082906001600160a01b03165afa801561073f57600090612aec575b6128989150600435600052600c60205261051f604060002093612880604051956127f987614b89565b805480885260018201546001600160a01b0390811660208a015260028301541660408901526003820154606089015260048083015460808a0152600583015460a08a0152600683015460c08a0152600783015460e08a015260088301546101008a0152600983015460ff1615156101208a0152600a90920154610140890152903514615107565b60208501516001600160a01b03918216911614615167565b61010081015115612a9557610140810151612a1f5761012c6128bf61010083015142614ee3565b116129da576129d57fc084b0af0fe52a81fde243cba85bff878c1e785e6e58c2b454a4d6bc8381feff91426101408201526001610120820152600435600052600c602052604060002081518155600a610140600183019360018060a01b03602082015116946001600160601b0360a01b908682825416179055600285019060018060a01b0360408401511690825416179055606081015160038501556080810151600485015560a0810151600585015560c0810151600685015560e0810151600785015561010081015160088501556129ae6101208201511515600986019060ff801983541691151516179055565b0151910155604080516001600160a01b039092168252600435602083015290918291820190565b0390a1005b60405162461bcd60e51b815260206004820152601d60248201527f54696d65206c696d6974206e6f742079657420657863656564656421210000006044820152606490fd5b60405162461bcd60e51b815260206004820152604260248201527f546865206973737565722062616e6b2068617320616c7265616479207265737060448201527f6f6e64656420726567617264696e672074686520726566756e20616d6f756e74606482015261212160f01b608482015260a490fd5b60405162461bcd60e51b815260206004820152602960248201527f546865207061796572206e6f742079657420706c6163656420726566756e642060448201526872657175657374212160b81b6064820152608490fd5b506020813d602011612b18575b81612b0660209383614bf6565b810103126101bc5761289890516127d0565b3d9150612af9565b50600e54600435111561278d565b346101bc5760403660031901126101bc576001600160a01b03612b4f614ad6565b16600052600460205260406000206024356000526020526020604060002054604051908152f35b346101bc5760003660031901126101bc576020600d54604051908152f35b346101bc5760203660031901126101bc57600435600052600a60205260406000208054611cde6001830154926002810154906003810154600482015460ff60058401541660068401549160078501549360096008870154960154966040519a8b9a8b614b44565b346101bc5760203660031901126101bc576004356000526005602052602060ff604060002054166040519015158152f35b346101bc5760003660031901126101bc576020600e54604051908152f35b346101bc5760403660031901126101bc57612c63614ad6565b612c6b614b02565b600154604051639cfd369960e01b815233600482015292906001600160a01b0316602084602481845afa93841561073f57600094612f8b575b50602060249160405192838092639ec802ff60e01b82528860048301525afa90811561073f57612ce191600191600091611bf25750151514614c30565b60035460405163387bdd6560e21b81526001600160a01b03838116600483015260248201869052909160209183916044918391165afa90811561073f57612d3591600191600091611bd35750151514614d41565b60018060a01b038116600052600460205260406000208360005260205260406000205491826000526005602052612d78600160ff60406000205416151514614da5565b826000526007602052612d9a60406000209461193a6040519661182c88614bd9565b61010084015115612f3157600160e0850151151503612ebb57610140840151612e7357612dd261012c610afc61010087015142614ee3565b15801561012085015242610140850152611f2c5750600052600760205260156102a06040600020928051845560018060a01b036020820151166001600160601b0360a01b60018601541617600185015560408101516002850155606081015160038501556080810151600485015560a0810151600585015560c08101516006850155610b9460e08201511515600786019060ff801983541691151516179055565b60405162461bcd60e51b815260206004820152602c602482015260008051602061551b83398151915260448201526b20726573706f6e736532212160a01b6064820152608490fd5b60405162461bcd60e51b815260206004820152604260248201527f596f752063616e27742063616c6c20746869732066756e6374696f6e2061732060448201527f7468652070726576696f757320726573706f6e736531207761732066616c7365606482015261212160f01b608482015260a490fd5b60405162461bcd60e51b815260206004820152602c60248201527f546865206973737565722062616e6b206e6f74207965742073656e742074686560448201526b20726573706f6e736531212160a01b6064820152608490fd5b9093506020813d602011612fb8575b81612fa760209383614bf6565b810103126101bc5751926020612ca4565b3d9150612f9a565b346101bc57612fce36614ac0565b90801515806131cb575b612fe19061507b565b806000526130bd602092600b8452613005600160ff60406000205416151514615446565b82600052600c845260406000206130b660405161302181614b89565b8254908181526130ad8760018060a01b0393846001880154168b8501528460028801541693604081019485526003880154606082015260048801546080820152600588015460a0820152610140600a60068a01549960c084019a8b52600781015460e0850152600881015461010085015260ff6009820154161515610120850152015491015214615107565b511633146153fa565b51146154ce565b80600052600a82526130d26040600020615342565b906130df818351146153b7565b60408201805115613171576060830190815161310e5791610327949161031661012c61030f600a965142614ee3565b60405162461bcd60e51b815260048101869052603560248201527f5468652070617965652068617320616c726561647920726571756573746564206044820152743a379032bc32b1baba32903a3432903a37b5b2b71760591b6064820152608490fd5b60405162461bcd60e51b815260048101859052602c60248201527f5468652061637175697265722062616e6b206e6f7420796574206c6f636b656460448201526b20746865206d6f6e6579212160a01b6064820152608490fd5b50600e54811115612fd8565b346101bc576131e536614b11565b91801515806135d1575b6131f89061507b565b80600052600b602052613217600160ff60406000205416151514615446565b600154604051639cfd369960e01b815233600482015290602090829060249082906001600160a01b03165afa90811561073f5760009161359f575b5081600052600c60205261329d604060002091613276846040519461047f86614b89565b6040830151613292906001600160a01b038781169116146153fa565b60c0830151146151b3565b81600052600a6020526132b36040600020615342565b926132c0838551146153b7565b60608401511561353f5760808401516134ae5761012c6132e4606086015142614ee3565b11613474576103e8946000808080896001600160a01b03871682f11561073f576000808080893382f11561073f5760018491613356974260e0890152426101208901528060c089015261010088015215158060a08801521461336a575b505050600052600a6020526040600020615242565b600b6020526040600020805460ff19169055005b426080860181905260e0840152604080516001600160a01b0393909316835260208301919091527ff390dc07a0cd3b3b7d65df1e784e40d833ec2fc45829ddef5d0afb955c5768b591a181600052600c602052600a610140604060002092805184556001840160018060a01b03602083015116906001600160601b0360a01b9182825416179055600285019060018060a01b0360408401511690825416179055606081015160038501556080810151600485015560a0810151600585015560c0810151600685015560e0810151600785015561010081015160088501556134676101208201511515600986019060ff801983541691151516179055565b0151910155838082613341565b60405162461bcd60e51b815260206004820152601260248201527154696d656c696d697420457863656564732160701b6044820152606490fd5b60405162461bcd60e51b815260206004820152605b60248201527f5468652061637175697265722062616e6b20616c726561647920636f6e66697260448201527f6d656420746861742074686520746f6b656e20616d6f756e742077617320637260648201527f65646974656420746f2070617965652773206163636f756e7421210000000000608482015260a490fd5b60405162461bcd60e51b815260206004820152603260248201527f546865207061796565206e6f74207965742072657175657374656420746f20656044820152717865637574652074686520746f6b656e212160701b6064820152608490fd5b90506020813d6020116135c9575b816135ba60209383614bf6565b810103126101bc575184613252565b3d91506135ad565b50600e548111156131ef565b60403660031901126101bc576004356135f4614aec565b908015158061386a575b6136079061507b565b80600052602091600b8352613628600160ff60406000205416151514615446565b6136356103e834146150bb565b600154604051639cfd369960e01b8152336004820152906001600160a01b039085908390602490829085165afa91821561073f57600092613837575b506130b66137219385600052600c87526040600020928060405161369481614b89565b6137178987548084528460018a0154168d8501528460028a015416936040810194855260038a0154606082015260048a0154608082015260058a015460a0820152610140600a60068c01549b60c084019c8d52600781015460e0850152600881015461010085015260ff6009820154161515610120850152015491015214615107565b51169116146153fa565b80600052600a82526137366040600020615342565b90613743818351146153b7565b8282018051156137dc57604083019081516137715791610327949161031661012c61030f600a965142614ee3565b60405162461bcd60e51b815260048101869052603960248201527f5468652061637175697265722062616e6b2068617320616c7265616479206c6f60448201527f636b656420746865207365637572697479206d6f6e65792121000000000000006064820152608490fd5b60405162461bcd60e51b815260048101859052602d60248201527f546865207061796565206e6f7420796574206c6f636b6564207468652073656360448201526c7572697479206d6f6e6579212160981b6064820152608490fd5b9291508483813d8311613863575b61384f8183614bf6565b810103126101bc57915190916130b6613671565b503d613845565b50600e548111156135fe565b346101bc5760003660031901126101bc576002546040516001600160a01b039091168152602090f35b6138a836614ac0565b906024602060018060a01b036001541660405192838092639ec802ff60e01b82528760048301525afa90811561073f576138ef91600191600091610d595750151514614c30565b60035460405163387bdd6560e21b81523360048201526024810184905290602090829060449082906001600160a01b03165afa801561073f57600191600091613cbe575b50151503613c645780151580613c58575b61394d9061507b565b80600052600b60205260ff60406000205416613bd3576139706103e834146150bb565b80600052600c6020526040600020613a13826040519261398f84614b89565b805480855260018201546001600160a01b03908116602087015260028301541660408601526003820154606086015260048201546080860152600582015460a0860152600682015460c0860152600782015460e08601526008820154610100860152600982015460ff161515610120860152600a9091015461014085015214615107565b6040810151613a2c906001600160a01b031633146153fa565b60a081015115613b8457613b6d92613a4e61012c61030f60a085015142614ee3565b60c082015281600052600c602052600a610140604060002092805184556001840160018060a01b03602083015116906001600160601b0360a01b9182825416179055600285019060018060a01b0360408401511690825416179055606081015160038501556080810151600485015560a0810151600585015560c0810151600685015560e081015160078501556101008101516008850155613b066101208201511515600986019060ff801983541691151516179055565b015191015560405190613b1882614bbc565b808252426020830152600060408301526000606083015260006080830152600060a0830152600060c0830152600060e083015260006101008301526000610120830152600052600a6020526040600020615242565b600b6020526040600020805460ff19166001179055005b60405162461bcd60e51b815260206004820152602160248201527f546f6b656e20616d6f756e74206973206e6f74207965742064656269746564216044820152602160f81b6064820152608490fd5b60405162461bcd60e51b815260206004820152605160248201527f546f6b656e206578637574696f6e20666f7220706179656520636f727265737060448201527f6f6e64696e6720746f207468697320746f6b656e494420697320616c726561646064820152707920756e6465722070726f63657373212160781b608482015260a490fd5b50600e54811115613944565b60405162461bcd60e51b815260206004820152602c60248201527f546865207061796565206973206e6f742072656769737465726564207769746860448201526b20746869732062616e6b212160a01b6064820152608490fd5b613cd7915060203d602011610d5257610d448183614bf6565b84613933565b346101bc5760003660031901126101bc576000546040516001600160a01b039091168152602090f35b346101bc5760003660031901126101bc5760206040516103e88152f35b60203660031901126101bc57600154604051639ec802ff60e01b8152600480359082015290602090829060249082906001600160a01b03165afa90811561073f57613d7b9160019160009161130e5750151514614c30565b60035460405163387bdd6560e21b81523360048083019190915235602482015290602090829060449082906001600160a01b03165afa90811561073f57613dcf916001916000916112ef5750151514614c6f565b3360005260046020526040600020600435600052602052604060002054600052600560205260ff604060002054166140d957613e0e6103e83414614cd0565b613e19600d54614d1c565b80600d55336000526004602052604060002060043560005260205280604060002055806000526007602052604060002090601560405192613e5984614bd9565b60048101546080850152600581015460a0850152600681015460c085015260ff600782015416151560e0850152600881015461010085015260ff6009820154161515610120850152600a81015461014085015260ff600b820154161515610160850152600c81015461018085015260018060a01b03600d820154166101a0850152600e8101546101c0850152600f8101546101e085015260ff6010820154161515610200850152601181015461022085015260128101546102408501526013810154610260850152601481015461028085015201546102a08301528082523360208301526004356040830152426060830152600052600760205260156102a06040600020928051845560018060a01b036020820151166001600160601b0360a01b60018601541617600185015560408101516002850155606081015160038501556080810151600485015560a0810151600585015560c08101516006850155613fd760e08201511515600786019060ff801983541691151516179055565b61010081015160088501556140026101208201511515600986019060ff801983541691151516179055565b610140810151600a85015561402d6101608201511515600b86019060ff801983541691151516179055565b610180810151600c850155600d840160018060a01b036101a0830151166001600160601b0360a01b8254161790556101c0810151600e8501556101e0810151600f8501556140916102008201511515601086019060ff801983541691151516179055565b6102208101516011850155610240810151601285015561026081015160138501556102808101516014850155015191015560056020526040600020805460ff19166001179055005b60405162461bcd60e51b815260206004820152605160248201527f50726576696f757320746f6b656e206170706c69636174696f6e20626574776560448201527f656e2074686520706179657220616e64207468652062616e6b206973206e6f7460648201527020796574207465726d696e61746564212160781b608482015260a490fd5b346101bc5760403660031901126101bc57614177614ad6565b61417f614b02565b600154604051639cfd369960e01b81523360048201529192906001600160a01b0316602083602481845afa92831561073f57600093614784575b50602060249160405192838092639ec802ff60e01b82528760048301525afa90811561073f576141f691600191600091611bf25750151514614c30565b60035460405163387bdd6560e21b81526001600160a01b03838116600483015260248201859052909160209183916044918391165afa90811561073f5761424a91600191600091611bd35750151514614d41565b60018060a01b03811660005260046020526040600020826000526020526040600020549182600052600560205261428d600160ff60406000205416151514614da5565b8260005260076020526040600020936143ba604051956142ac87614bd9565b8054875260018101546001600160a01b0390811660208901819052600283015460408a0152600383015460608a0152600483015460808a0152600583015460a08a0152600683015460c08a0152600783015460ff908116151560e08b015260088401546101008b01526009840154811615156101208b0152600a8401546101408b0152600b840154811615156101608b0152600c8401546101808b0152600d84015483166101a08b0152600e8401546101c08b0152600f8401546101e08b015260108401541615156102008a015260118301546102208a015260128301546102408a015260138301546102608a015260148301546102808a01526015909201546102a0890152851614614e2b565b6143c982604087015114614e85565b6101e08501511561472f576102208501516146e7576143f361012c610afc6101e088015142614ee3565b8015156102008601524261022086015260008080806103e86001600160a01b03881682f11561073f5760008080806103e83382f11561073f576001906103e86102408701526103e861028087015242610260870152426102a08701521515146000146146c7577ff4e9ad126006f0fd1a9eabd57ee92d0b4720ecf08e7909c41346e70689e0a4e991614486600e54614d1c565b9182600e5582600052600c602052604060002090600a604051926144a984614b89565b60018060a01b03600182015416602085015260018060a01b0360028201541660408501526003810154606085015260048101546080850152600581015460a0850152600681015460c0850152600781015460e0850152600881015461010085015260ff6009820154161515610120850152015461014083015283825260018060a01b03602088015116602083015260018060a01b036101a0880151166040830152606082015242608082015282600052600c602052600a610140604060002092805184556001840160018060a01b03602083015116906001600160601b0360a01b9182825416179055600285019060018060a01b0360408401511690825416179055606081015160038501556080810151600485015560a0810151600585015560c0810151600685015560e0810151600785015561010081015160088501556146086101208201511515600986019060ff801983541691151516179055565b0151910155604080516001600160a01b039290921682526020820192909252a15b6000526005602052604060002060ff198154169055600760205260156102a06040600020928051845560018060a01b036020820151166001600160601b0360a01b60018601541617600185015560408101516002850155606081015160038501556080810151600485015560a0810151600585015560c08101516006850155610b9460e08201511515600786019060ff801983541691151516179055565b50508060005260066020526040600020600160ff19825416179055614629565b60405162461bcd60e51b815260206004820152602c602482015260008051602061551b83398151915260448201526b20726573706f6e736534212160a01b6064820152608490fd5b60405162461bcd60e51b815260206004820152602760248201527f546865207061796572206e6f74207965742072657175657374656420666f7220604482015266746f6b656e212160c81b6064820152608490fd5b9092506020813d6020116147b1575b816147a060209383614bf6565b810103126101bc57519160206141b9565b3d9150614793565b6147c236614ac0565b9080151580614a0c575b6147d59061507b565b806000526020906009825260ff60406000205416614987576147fa6103e834146150bb565b80600052600c825260406000206040519361481485614b89565b815490818652600160a01b600190038060018501541690868801918252806002860154166040890152600385015491606089019283528660048701549560808b01968752600588015460a08c0152600688015460c08c0152600788015460e08c015260088801549a6101009b8c820152600989015460ff16151598610120998a830152600a0154906101400152146148ab90615107565b511633146148b890615167565b51146148c3906151b3565b80511561494957916000600995926148e561012c61030f614936975142614ee3565b81604051946148f386614bbc565b84865242888701528160408701528160608701528160808701528160a08701528160c08701528160e0870152850152830152600052600883526040600020615242565b526040600020805460ff19166001179055005b60405162461bcd60e51b8152600481018590526016602482015275546f6b656e20776173206e6f7420697373756564212160501b6044820152606490fd5b60405162461bcd60e51b815260048101839052605160248201527f546f6b656e206578637574696f6e20666f7220706179657220636f727265737060448201527f6f6e64696e6720746f207468697320746f6b656e494420697320616c726561646064820152707920756e6465722070726f63657373212160781b608482015260a490fd5b50600e548111156147cc565b346101bc5760203660031901126101bc5761016090600435600052600c602052604060002080549060018060a01b03806001830154169060028301541660038301546004840154600585015490600686015492600787015494600888015496600a60ff60098b015416990154998b5260208b015260408a01526060890152608088015260a087015260c086015260e08501526101008401521515610120830152610140820152f35b60409060031901126101bc576004359060243590565b600435906001600160a01b03821682036101bc57565b602435906001600160a01b03821682036101bc57565b6024359081151582036101bc57565b60609060031901126101bc57600435906024356001600160a01b03811681036101bc579060443580151581036101bc5790565b9693909a9998959261012098959261014089019c89526020890152604088015260608701526080860152151560a085015260c084015260e08301526101008201520152565b610160810190811067ffffffffffffffff821117614ba657604052565b634e487b7160e01b600052604160045260246000fd5b610140810190811067ffffffffffffffff821117614ba657604052565b6102c0810190811067ffffffffffffffff821117614ba657604052565b90601f8019910116810190811067ffffffffffffffff821117614ba657604052565b908160209103126101bc575180151581036101bc5790565b15614c3757565b60405162461bcd60e51b815260206004820152601060248201526f496e76616c69642042616e6b4944212160801b6044820152606490fd5b15614c7657565b60405162461bcd60e51b815260206004820152602c60248201527f546865207061796572206973206e6f742072656769737465726564207769746860448201526b20746869732062616e6b212160a01b6064820152608490fd5b15614cd757565b60405162461bcd60e51b815260206004820152601a60248201527f496e636f7272656374206c6f636b696e6720616d6f756e7421210000000000006044820152606490fd5b6000198114614d2b5760010190565b634e487b7160e01b600052601160045260246000fd5b15614d4857565b60405162461bcd60e51b815260206004820152602f60248201527f54686520637573746f6d6572206973206e6f742072656769737465726564207760448201526e69746820746869732062616e6b212160881b6064820152608490fd5b15614dac57565b60405162461bcd60e51b815260206004820152604b60248201527f4e6f20746f6b656e206170706c69636174696f6e2069732072756e6e696e672060448201527f61742070726573656e74206265747765656e2074686520706179657220616e6460648201526a207468652062616e6b212160a81b608482015260a490fd5b15614e3257565b60405162461bcd60e51b815260206004820152602560248201527f496e74656e6465642070617965722061646472657373206973206e6f7420676960448201526476656e212160d81b6064820152608490fd5b15614e8c57565b60405162461bcd60e51b815260206004820152602960248201527f596f7520617265206e6f7420686f6c64696e672074686520696e74656e6465646044820152682062616e6b4944212160b81b6064820152608490fd5b91908203918211614d2b57565b15614ef757565b60405162461bcd60e51b815260206004820152601460248201527354696d656c696d6974206578636565646564212160601b6044820152606490fd5b15614f3a57565b60405162461bcd60e51b815260206004820152604960248201527f50726576696f757320746f6b656e206170706c69636174696f6e20626574776560448201527f656e2074686520706179657220616e64207468652062616e6b206973207465726064820152686d696e61746564212160b81b608482015260a490fd5b15614fbe57565b60405162461bcd60e51b815260206004820152603060248201527f596f7520617265206e6f7420686f6c64696e672074686520696e74656e64656460448201526f2070617965722061646472657373212160801b6064820152608490fd5b1561502357565b60405162461bcd60e51b815260206004820152602a60248201527f54686520676976656e2042616e6b4944206973206e6f742074686520696e74656044820152696e646564206f6e65212160b01b6064820152608490fd5b1561508257565b60405162461bcd60e51b8152602060048201526011602482015270496e76616c696420546f6b656e4944212160781b6044820152606490fd5b156150c257565b60405162461bcd60e51b815260206004820152601e60248201527f456e74657220612076616c6964206c6f636b696e6720616d6f756e74212100006044820152606490fd5b1561510e57565b60405162461bcd60e51b815260206004820152602b60248201527f54686520676976656e20746f6b656e4944206973206e6f742074686520696e7460448201526a656e646564206f6e65212160a81b6064820152608490fd5b1561516e57565b60405162461bcd60e51b815260206004820152601a60248201527f4d69736d617463686564207061796572206164647265737321210000000000006044820152606490fd5b156151ba57565b60405162461bcd60e51b815260206004820152601a60248201527f4d69736d617463686564204973737565722042616e6b494421210000000000006044820152606490fd5b1561520657565b60405162461bcd60e51b815260206004820152601460248201527354696d656c696d6974204578636565646564212160601b6044820152606490fd5b90610120600991805184556020810151600185015560408101516002850155606081015160038501556080810151600485015561529460a08201511515600586019060ff801983541691151516179055565b60c0810151600685015560e0810151600785015561010081015160088501550151910155565b156152c157565b60405162461bcd60e51b815260206004820152604d60248201527f546f6b656e206578637574696f6e20666f7220706179657220636f727265737060448201527f6f6e64696e6720746f207468697320746f6b656e4944206973206e6f7420756e60648201526c6465722070726f63657373212160981b608482015260a490fd5b9060405161534f81614bbc565b61012060098294805484526001810154602085015260028101546040850152600381015460608501526004810154608085015260ff600582015416151560a0850152600681015460c0850152600781015460e085015260088101546101008501520154910152565b156153be57565b60405162461bcd60e51b81526020600482015260146024820152734d69736d61746368656420546f6b656e4944212160601b6044820152606490fd5b1561540157565b60405162461bcd60e51b815260206004820152601a60248201527f4d69736d617463686564207061796565206164647265737321210000000000006044820152606490fd5b1561544d57565b60405162461bcd60e51b815260206004820152604d60248201527f546f6b656e206578637574696f6e20666f7220706179656520636f727265737060448201527f6f6e64696e6720746f207468697320746f6b656e4944206973206e6f7420756e60648201526c6465722070726f63657373212160981b608482015260a490fd5b156154d557565b60405162461bcd60e51b815260206004820152601c60248201527f4d69736d6174636865642041637175697265722042616e6b49442121000000006044820152606490fdfe546865206973737565722062616e6b20616c72656164792073656e7420746865a2646970667358221220dcf735079e67fc422d35d3d38ff5e46f72370a192326272d96b23067118ffee664736f6c63430008120033",
			"opcodes": "PUSH1 0x80 CALLVALUE PUSH3 0xB0 JUMPI PUSH1 0x1F PUSH3 0x5651 CODESIZE DUP2 SWAP1 SUB SWAP2 DUP3 ADD PUSH1 0x1F NOT AND DUP4 ADD SWAP2 PUSH1 0x1 PUSH1 0x1 PUSH1 0x40 SHL SUB DUP4 GT DUP5 DUP5 LT OR PUSH3 0xB5 JUMPI DUP1 DUP5 SWAP3 PUSH1 0x40 SWAP5 DUP6 MSTORE DUP4 CODECOPY DUP2 ADD SUB SLT PUSH3 0xB0 JUMPI PUSH3 0x5A PUSH1 0x20 PUSH3 0x52 DUP4 PUSH3 0xCB JUMP JUMPDEST SWAP3 ADD PUSH3 0xCB JUMP JUMPDEST SWAP1 PUSH1 0x0 PUSH1 0xD SSTORE PUSH1 0x0 PUSH1 0xE SSTORE PUSH1 0x1 DUP1 PUSH1 0xA0 SHL SUB DUP1 SWAP2 AND SWAP2 PUSH1 0x1 DUP1 PUSH1 0xA0 SHL SUB NOT SWAP3 DUP1 DUP5 PUSH1 0x0 SLOAD AND OR PUSH1 0x0 SSTORE DUP4 PUSH1 0x1 SLOAD AND OR PUSH1 0x1 SSTORE AND SWAP1 DUP2 DUP2 PUSH1 0x2 SLOAD AND OR PUSH1 0x2 SSTORE PUSH1 0x3 SLOAD AND OR PUSH1 0x3 SSTORE PUSH1 0x40 MLOAD PUSH2 0x5570 SWAP1 DUP2 PUSH3 0xE1 DUP3 CODECOPY RETURN JUMPDEST PUSH1 0x0 DUP1 REVERT JUMPDEST PUSH4 0x4E487B71 PUSH1 0xE0 SHL PUSH1 0x0 MSTORE PUSH1 0x41 PUSH1 0x4 MSTORE PUSH1 0x24 PUSH1 0x0 REVERT JUMPDEST MLOAD SWAP1 PUSH1 0x1 PUSH1 0x1 PUSH1 0xA0 SHL SUB DUP3 AND DUP3 SUB PUSH3 0xB0 JUMPI JUMP INVALID PUSH2 0x1C0 DUP1 PUSH1 0x40 MSTORE PUSH1 0x4 CALLDATASIZE LT ISZERO PUSH2 0x14 JUMPI PUSH1 0x0 DUP1 REVERT JUMPDEST PUSH1 0x0 CALLDATALOAD PUSH1 0xE0 SHR SWAP1 DUP2 PUSH4 0x44215C6 EQ PUSH2 0x4A18 JUMPI POP DUP1 PUSH4 0xA0F378E EQ PUSH2 0x47B9 JUMPI DUP1 PUSH4 0xCBE7BF4 EQ PUSH2 0x415E JUMPI DUP1 PUSH4 0x189317AA EQ PUSH2 0x3D23 JUMPI DUP1 PUSH4 0x25AB292E EQ PUSH2 0x3D06 JUMPI DUP1 PUSH4 0x27664EA1 EQ PUSH2 0x3CDD JUMPI DUP1 PUSH4 0x31907132 EQ PUSH2 0x389F JUMPI DUP1 PUSH4 0x3714008A EQ PUSH2 0x3876 JUMPI DUP1 PUSH4 0x3D4004B8 EQ PUSH2 0x35DD JUMPI DUP1 PUSH4 0x4F68D9DA EQ PUSH2 0x31D7 JUMPI DUP1 PUSH4 0x593C5691 EQ PUSH2 0x2FC0 JUMPI DUP1 PUSH4 0x5F021669 EQ PUSH2 0x2C4A JUMPI DUP1 PUSH4 0x6B34123B EQ PUSH2 0x2C2C JUMPI DUP1 PUSH4 0x6C0C6CA1 EQ PUSH2 0x2BFB JUMPI DUP1 PUSH4 0x71C93844 EQ PUSH2 0x2B94 JUMPI DUP1 PUSH4 0x7F028087 EQ PUSH2 0x2B76 JUMPI DUP1 PUSH4 0x7FF19548 EQ PUSH2 0x2B2E JUMPI DUP1 PUSH4 0xB48A660F EQ PUSH2 0x2769 JUMPI DUP1 PUSH4 0xC08D1FE5 EQ PUSH2 0x274C JUMPI DUP1 PUSH4 0xC0ECBB54 EQ PUSH2 0x22E3 JUMPI DUP1 PUSH4 0xC19A8A8E EQ PUSH2 0x2067 JUMPI DUP1 PUSH4 0xC5FE01E4 EQ PUSH2 0x1D13 JUMPI DUP1 PUSH4 0xCE3C562B EQ PUSH2 0x1CE2 JUMPI DUP1 PUSH4 0xCF9AE961 EQ PUSH2 0x1C77 JUMPI DUP1 PUSH4 0xD28E58DE EQ PUSH2 0x1C46 JUMPI DUP1 PUSH4 0xD5476D8F EQ PUSH2 0x16DC JUMPI DUP1 PUSH4 0xD7F8ED33 EQ PUSH2 0x132D JUMPI DUP1 PUSH4 0xDD5708AD EQ PUSH2 0xF67 JUMPI DUP1 PUSH4 0xDF8A303F EQ PUSH2 0xDAD JUMPI DUP1 PUSH4 0xE8610B7C EQ PUSH2 0x86D JUMPI DUP1 PUSH4 0xEA5F9A97 EQ PUSH2 0x3E0 JUMPI DUP1 PUSH4 0xF1D0BABF EQ PUSH2 0x1C1 JUMPI PUSH4 0xF869D14C EQ PUSH2 0x18B JUMPI PUSH1 0x0 DUP1 REVERT JUMPDEST CALLVALUE PUSH2 0x1BC JUMPI PUSH1 0x20 CALLDATASIZE PUSH1 0x3 NOT ADD SLT PUSH2 0x1BC JUMPI PUSH1 0x4 CALLDATALOAD PUSH1 0x0 MSTORE PUSH1 0xB PUSH1 0x20 MSTORE PUSH1 0x20 PUSH1 0xFF PUSH1 0x40 PUSH1 0x0 KECCAK256 SLOAD AND PUSH1 0x40 MLOAD SWAP1 ISZERO ISZERO DUP2 MSTORE RETURN JUMPDEST PUSH1 0x0 DUP1 REVERT JUMPDEST CALLVALUE PUSH2 0x1BC JUMPI PUSH2 0x1CF CALLDATASIZE PUSH2 0x4AC0 JUMP JUMPDEST SWAP1 DUP1 ISZERO ISZERO DUP1 PUSH2 0x3D4 JUMPI JUMPDEST PUSH2 0x1E2 SWAP1 PUSH2 0x507B JUMP JUMPDEST DUP1 PUSH1 0x0 MSTORE PUSH2 0x2BE PUSH1 0x20 SWAP3 PUSH1 0x9 DUP5 MSTORE PUSH2 0x206 PUSH1 0x1 PUSH1 0xFF PUSH1 0x40 PUSH1 0x0 KECCAK256 SLOAD AND ISZERO ISZERO EQ PUSH2 0x52BA JUMP JUMPDEST DUP3 PUSH1 0x0 MSTORE PUSH1 0xC DUP5 MSTORE PUSH1 0x40 PUSH1 0x0 KECCAK256 PUSH2 0x2B7 PUSH1 0x40 MLOAD PUSH2 0x222 DUP2 PUSH2 0x4B89 JUMP JUMPDEST DUP3 SLOAD SWAP1 DUP2 DUP2 MSTORE PUSH2 0x2AE DUP8 PUSH1 0x1 DUP1 PUSH1 0xA0 SHL SUB SWAP4 DUP5 PUSH1 0x1 DUP9 ADD SLOAD AND SWAP4 DUP12 DUP2 ADD SWAP5 DUP6 MSTORE DUP6 PUSH1 0x2 DUP10 ADD SLOAD AND PUSH1 0x40 DUP3 ADD MSTORE PUSH2 0x140 PUSH1 0xA PUSH1 0x3 DUP11 ADD SLOAD SWAP10 PUSH1 0x60 DUP5 ADD SWAP11 DUP12 MSTORE PUSH1 0x4 DUP2 ADD SLOAD PUSH1 0x80 DUP6 ADD MSTORE PUSH1 0x5 DUP2 ADD SLOAD PUSH1 0xA0 DUP6 ADD MSTORE PUSH1 0x6 DUP2 ADD SLOAD PUSH1 0xC0 DUP6 ADD MSTORE PUSH1 0x7 DUP2 ADD SLOAD PUSH1 0xE0 DUP6 ADD MSTORE PUSH1 0x8 DUP2 ADD SLOAD PUSH2 0x100 DUP6 ADD MSTORE PUSH1 0xFF PUSH1 0x9 DUP3 ADD SLOAD AND ISZERO ISZERO PUSH2 0x120 DUP6 ADD MSTORE ADD SLOAD SWAP2 ADD MSTORE EQ PUSH2 0x5107 JUMP JUMPDEST MLOAD AND CALLER EQ PUSH2 0x5167 JUMP JUMPDEST MLOAD EQ PUSH2 0x51B3 JUMP JUMPDEST DUP1 PUSH1 0x0 MSTORE PUSH1 0x8 DUP3 MSTORE PUSH2 0x2D3 PUSH1 0x40 PUSH1 0x0 KECCAK256 PUSH2 0x5342 JUMP JUMPDEST SWAP1 PUSH2 0x2E0 DUP2 DUP4 MLOAD EQ PUSH2 0x53B7 JUMP JUMPDEST PUSH1 0x40 DUP3 ADD DUP1 MLOAD ISZERO PUSH2 0x37C JUMPI PUSH1 0x60 DUP4 ADD SWAP1 DUP2 MLOAD PUSH2 0x329 JUMPI SWAP2 PUSH2 0x327 SWAP5 SWAP2 PUSH2 0x316 PUSH2 0x12C PUSH2 0x30F PUSH1 0x8 SWAP7 MLOAD TIMESTAMP PUSH2 0x4EE3 JUMP JUMPDEST GT ISZERO PUSH2 0x51FF JUMP JUMPDEST TIMESTAMP SWAP1 MSTORE PUSH1 0x0 MSTORE MSTORE PUSH1 0x40 PUSH1 0x0 KECCAK256 PUSH2 0x5242 JUMP JUMPDEST STOP JUMPDEST PUSH1 0x40 MLOAD PUSH3 0x461BCD PUSH1 0xE5 SHL DUP2 MSTORE PUSH1 0x4 DUP2 ADD DUP7 SWAP1 MSTORE PUSH1 0x25 PUSH1 0x24 DUP3 ADD MSTORE PUSH32 0x54686520706179657220616C7265646179206578656375746564207468652074 PUSH1 0x44 DUP3 ADD MSTORE PUSH5 0x37B5B2B717 PUSH1 0xD9 SHL PUSH1 0x64 DUP3 ADD MSTORE PUSH1 0x84 SWAP1 REVERT JUMPDEST PUSH1 0x40 MLOAD PUSH3 0x461BCD PUSH1 0xE5 SHL DUP2 MSTORE PUSH1 0x4 DUP2 ADD DUP6 SWAP1 MSTORE PUSH1 0x2A PUSH1 0x24 DUP3 ADD MSTORE PUSH32 0x546865206973737565722062616E6B206E6F7420796574206C6F636B65642074 PUSH1 0x44 DUP3 ADD MSTORE PUSH10 0x6865206D6F6E65792121 PUSH1 0xB0 SHL PUSH1 0x64 DUP3 ADD MSTORE PUSH1 0x84 SWAP1 REVERT JUMPDEST POP PUSH1 0xE SLOAD DUP2 GT ISZERO PUSH2 0x1D9 JUMP JUMPDEST CALLVALUE PUSH2 0x1BC JUMPI PUSH2 0x3EE CALLDATASIZE PUSH2 0x4B11 JUMP JUMPDEST SWAP2 DUP1 ISZERO ISZERO DUP1 PUSH2 0x861 JUMPI JUMPDEST PUSH2 0x401 SWAP1 PUSH2 0x507B JUMP JUMPDEST DUP1 PUSH1 0x0 MSTORE PUSH1 0x9 PUSH1 0x20 MSTORE PUSH2 0x420 PUSH1 0x1 PUSH1 0xFF PUSH1 0x40 PUSH1 0x0 KECCAK256 SLOAD AND ISZERO ISZERO EQ PUSH2 0x52BA JUMP JUMPDEST PUSH1 0x1 SLOAD PUSH1 0x40 MLOAD PUSH4 0x9CFD3699 PUSH1 0xE0 SHL DUP2 MSTORE CALLER PUSH1 0x4 DUP3 ADD MSTORE SWAP1 PUSH1 0x20 SWAP1 DUP3 SWAP1 PUSH1 0x24 SWAP1 DUP3 SWAP1 PUSH1 0x1 PUSH1 0x1 PUSH1 0xA0 SHL SUB AND GAS STATICCALL SWAP1 DUP2 ISZERO PUSH2 0x73F JUMPI PUSH1 0x0 SWAP2 PUSH2 0x82F JUMPI JUMPDEST POP DUP2 PUSH1 0x0 MSTORE PUSH1 0xC PUSH1 0x20 MSTORE PUSH2 0x52A PUSH1 0x40 PUSH1 0x0 KECCAK256 SWAP2 PUSH2 0x503 DUP5 PUSH1 0x40 MLOAD SWAP5 PUSH2 0x47F DUP7 PUSH2 0x4B89 JUMP JUMPDEST DUP1 SLOAD DUP1 DUP8 MSTORE PUSH1 0x1 DUP3 ADD SLOAD PUSH1 0x1 PUSH1 0x1 PUSH1 0xA0 SHL SUB SWAP1 DUP2 AND PUSH1 0x20 DUP10 ADD MSTORE PUSH1 0x2 DUP4 ADD SLOAD AND PUSH1 0x40 DUP9 ADD MSTORE PUSH1 0x3 DUP3 ADD SLOAD PUSH1 0x60 DUP9 ADD MSTORE PUSH1 0x4 DUP3 ADD SLOAD PUSH1 0x80 DUP9 ADD MSTORE PUSH1 0x5 DUP3 ADD SLOAD PUSH1 0xA0 DUP9 ADD MSTORE PUSH1 0x6 DUP3 ADD SLOAD PUSH1 0xC0 DUP9 ADD MSTORE PUSH1 0x7 DUP3 ADD SLOAD PUSH1 0xE0 DUP9 ADD MSTORE PUSH1 0x8 DUP3 ADD SLOAD PUSH2 0x100 DUP9 ADD MSTORE PUSH1 0x9 DUP3 ADD SLOAD PUSH1 0xFF AND ISZERO ISZERO PUSH2 0x120 DUP9 ADD MSTORE PUSH1 0xA SWAP1 SWAP2 ADD SLOAD PUSH2 0x140 DUP8 ADD MSTORE EQ PUSH2 0x5107 JUMP JUMPDEST PUSH1 0x20 DUP4 ADD MLOAD PUSH2 0x51F SWAP1 PUSH1 0x1 PUSH1 0x1 PUSH1 0xA0 SHL SUB DUP8 DUP2 AND SWAP2 AND EQ PUSH2 0x5167 JUMP JUMPDEST PUSH1 0x60 DUP4 ADD MLOAD EQ PUSH2 0x51B3 JUMP JUMPDEST DUP2 PUSH1 0x0 MSTORE PUSH1 0x8 PUSH1 0x20 MSTORE PUSH2 0x540 PUSH1 0x40 PUSH1 0x0 KECCAK256 PUSH2 0x5342 JUMP JUMPDEST SWAP3 PUSH2 0x54D DUP4 DUP6 MLOAD EQ PUSH2 0x53B7 JUMP JUMPDEST PUSH1 0x60 DUP5 ADD MLOAD ISZERO PUSH2 0x7DC JUMPI PUSH1 0x80 DUP5 ADD MLOAD PUSH2 0x74B JUMPI PUSH2 0x574 PUSH2 0x12C PUSH2 0x30F PUSH1 0x60 DUP8 ADD MLOAD TIMESTAMP PUSH2 0x4EE3 JUMP JUMPDEST PUSH2 0x3E8 SWAP5 PUSH1 0x0 DUP1 DUP1 DUP1 DUP10 PUSH1 0x1 PUSH1 0x1 PUSH1 0xA0 SHL SUB DUP8 AND DUP3 CALL ISZERO PUSH2 0x73F JUMPI PUSH1 0x0 DUP1 DUP1 DUP1 DUP10 CALLER DUP3 CALL ISZERO PUSH2 0x73F JUMPI PUSH1 0x1 DUP5 SWAP2 PUSH2 0x5E1 SWAP8 TIMESTAMP PUSH1 0xE0 DUP10 ADD MSTORE TIMESTAMP PUSH2 0x120 DUP10 ADD MSTORE PUSH1 0xC0 DUP9 ADD MSTORE TIMESTAMP PUSH2 0x100 DUP9 ADD MSTORE ISZERO ISZERO DUP1 PUSH1 0xA0 DUP9 ADD MSTORE EQ PUSH2 0x5F5 JUMPI JUMPDEST POP POP POP PUSH1 0x0 MSTORE PUSH1 0x8 PUSH1 0x20 MSTORE PUSH1 0x40 PUSH1 0x0 KECCAK256 PUSH2 0x5242 JUMP JUMPDEST PUSH1 0x9 PUSH1 0x20 MSTORE PUSH1 0x40 PUSH1 0x0 KECCAK256 DUP1 SLOAD PUSH1 0xFF NOT AND SWAP1 SSTORE STOP JUMPDEST TIMESTAMP PUSH1 0x80 DUP7 ADD DUP2 SWAP1 MSTORE PUSH1 0xA0 DUP5 ADD MSTORE PUSH1 0x40 DUP1 MLOAD PUSH1 0x1 PUSH1 0x1 PUSH1 0xA0 SHL SUB SWAP4 SWAP1 SWAP4 AND DUP4 MSTORE PUSH1 0x20 DUP4 ADD SWAP2 SWAP1 SWAP2 MSTORE PUSH32 0xCF846C25FEE71FF9B347180328D521E9BAB2246D61A92929DFA7C62027302F84 SWAP2 LOG1 PUSH1 0x40 DUP2 DUP2 ADD MLOAD DUP2 MLOAD PUSH1 0x1 PUSH1 0x1 PUSH1 0xA0 SHL SUB SWAP1 SWAP2 AND DUP2 MSTORE PUSH1 0x20 DUP2 ADD DUP5 SWAP1 MSTORE PUSH32 0x36ECE0452BF465827FD3376FA5D0BFE2FE9F1106911466349D63BEE03FD55CC0 SWAP2 SWAP1 LOG1 DUP2 PUSH1 0x0 MSTORE PUSH1 0xC PUSH1 0x20 MSTORE PUSH1 0xA PUSH2 0x140 PUSH1 0x40 PUSH1 0x0 KECCAK256 SWAP3 DUP1 MLOAD DUP5 SSTORE PUSH1 0x1 DUP5 ADD PUSH1 0x1 DUP1 PUSH1 0xA0 SHL SUB PUSH1 0x20 DUP4 ADD MLOAD AND SWAP1 PUSH1 0x1 PUSH1 0x1 PUSH1 0x60 SHL SUB PUSH1 0xA0 SHL SWAP2 DUP3 DUP3 SLOAD AND OR SWAP1 SSTORE PUSH1 0x2 DUP6 ADD SWAP1 PUSH1 0x1 DUP1 PUSH1 0xA0 SHL SUB PUSH1 0x40 DUP5 ADD MLOAD AND SWAP1 DUP3 SLOAD AND OR SWAP1 SSTORE PUSH1 0x60 DUP2 ADD MLOAD PUSH1 0x3 DUP6 ADD SSTORE PUSH1 0x80 DUP2 ADD MLOAD PUSH1 0x4 DUP6 ADD SSTORE PUSH1 0xA0 DUP2 ADD MLOAD PUSH1 0x5 DUP6 ADD SSTORE PUSH1 0xC0 DUP2 ADD MLOAD PUSH1 0x6 DUP6 ADD SSTORE PUSH1 0xE0 DUP2 ADD MLOAD PUSH1 0x7 DUP6 ADD SSTORE PUSH2 0x100 DUP2 ADD MLOAD PUSH1 0x8 DUP6 ADD SSTORE PUSH2 0x732 PUSH2 0x120 DUP3 ADD MLOAD ISZERO ISZERO PUSH1 0x9 DUP7 ADD SWAP1 PUSH1 0xFF DUP1 NOT DUP4 SLOAD AND SWAP2 ISZERO ISZERO AND OR SWAP1 SSTORE JUMP JUMPDEST ADD MLOAD SWAP2 ADD SSTORE DUP4 DUP1 DUP3 PUSH2 0x5CC JUMP JUMPDEST PUSH1 0x40 MLOAD RETURNDATASIZE PUSH1 0x0 DUP3 RETURNDATACOPY RETURNDATASIZE SWAP1 REVERT JUMPDEST PUSH1 0x40 MLOAD PUSH3 0x461BCD PUSH1 0xE5 SHL DUP2 MSTORE PUSH1 0x20 PUSH1 0x4 DUP3 ADD MSTORE PUSH1 0x5A PUSH1 0x24 DUP3 ADD MSTORE PUSH32 0x546865206973737565722062616E6B20616C726561647920636F6E6669726D65 PUSH1 0x44 DUP3 ADD MSTORE PUSH32 0x6420746861742074686520746F6B656E20616D6F756E74207761732064656269 PUSH1 0x64 DUP3 ADD MSTORE PUSH32 0x7465642066726F6D2070617965722773206163636F756E742121000000000000 PUSH1 0x84 DUP3 ADD MSTORE PUSH1 0xA4 SWAP1 REVERT JUMPDEST PUSH1 0x40 MLOAD PUSH3 0x461BCD PUSH1 0xE5 SHL DUP2 MSTORE PUSH1 0x20 PUSH1 0x4 DUP3 ADD MSTORE PUSH1 0x25 PUSH1 0x24 DUP3 ADD MSTORE PUSH32 0x54686520706179657220646F6573206E6F742065786563757465207468652074 PUSH1 0x44 DUP3 ADD MSTORE PUSH5 0x37B5B2B717 PUSH1 0xD9 SHL PUSH1 0x64 DUP3 ADD MSTORE PUSH1 0x84 SWAP1 REVERT JUMPDEST SWAP1 POP PUSH1 0x20 DUP2 RETURNDATASIZE PUSH1 0x20 GT PUSH2 0x859 JUMPI JUMPDEST DUP2 PUSH2 0x84A PUSH1 0x20 SWAP4 DUP4 PUSH2 0x4BF6 JUMP JUMPDEST DUP2 ADD SUB SLT PUSH2 0x1BC JUMPI MLOAD DUP5 PUSH2 0x45B JUMP JUMPDEST RETURNDATASIZE SWAP2 POP PUSH2 0x83D JUMP JUMPDEST POP PUSH1 0xE SLOAD DUP2 GT ISZERO PUSH2 0x3F8 JUMP JUMPDEST PUSH1 0x20 CALLDATASIZE PUSH1 0x3 NOT ADD SLT PUSH2 0x1BC JUMPI PUSH2 0x881 PUSH2 0x4AD6 JUMP JUMPDEST PUSH1 0x1 SLOAD PUSH1 0x40 MLOAD PUSH4 0x9CFD3699 PUSH1 0xE0 SHL DUP2 MSTORE CALLER PUSH1 0x4 DUP3 ADD MSTORE SWAP1 PUSH1 0x1 PUSH1 0x1 PUSH1 0xA0 SHL SUB AND PUSH1 0x20 DUP3 PUSH1 0x24 DUP2 DUP5 GAS STATICCALL SWAP2 DUP3 ISZERO PUSH2 0x73F JUMPI PUSH1 0x0 SWAP3 PUSH2 0xD78 JUMPI JUMPDEST POP PUSH1 0x20 PUSH1 0x24 SWAP2 PUSH1 0x40 MLOAD SWAP3 DUP4 DUP1 SWAP3 PUSH4 0x9EC802FF PUSH1 0xE0 SHL DUP3 MSTORE DUP7 PUSH1 0x4 DUP4 ADD MSTORE GAS STATICCALL SWAP1 DUP2 ISZERO PUSH2 0x73F JUMPI PUSH2 0x8F7 SWAP2 PUSH1 0x1 SWAP2 PUSH1 0x0 SWAP2 PUSH2 0xD59 JUMPI JUMPDEST POP ISZERO ISZERO EQ PUSH2 0x4C30 JUMP JUMPDEST PUSH1 0x3 SLOAD PUSH1 0x40 MLOAD PUSH4 0x387BDD65 PUSH1 0xE2 SHL DUP2 MSTORE PUSH1 0x1 PUSH1 0x1 PUSH1 0xA0 SHL SUB DUP5 DUP2 AND PUSH1 0x4 DUP4 ADD MSTORE PUSH1 0x24 DUP3 ADD DUP5 SWAP1 MSTORE SWAP1 SWAP2 PUSH1 0x20 SWAP2 DUP4 SWAP2 PUSH1 0x44 SWAP2 DUP4 SWAP2 AND GAS STATICCALL SWAP1 DUP2 ISZERO PUSH2 0x73F JUMPI PUSH2 0x94C SWAP2 PUSH1 0x1 SWAP2 PUSH1 0x0 SWAP2 PUSH2 0xD2A JUMPI JUMPDEST POP ISZERO ISZERO EQ PUSH2 0x4D41 JUMP JUMPDEST PUSH1 0x1 DUP1 PUSH1 0xA0 SHL SUB DUP3 AND PUSH1 0x0 MSTORE PUSH1 0x4 PUSH1 0x20 MSTORE PUSH1 0x40 PUSH1 0x0 KECCAK256 DUP2 PUSH1 0x0 MSTORE PUSH1 0x20 MSTORE PUSH2 0xAD5 PUSH1 0x40 PUSH1 0x0 KECCAK256 SLOAD SWAP2 DUP3 PUSH1 0x0 MSTORE PUSH1 0x5 PUSH1 0x20 MSTORE PUSH2 0x992 PUSH1 0x1 PUSH1 0xFF PUSH1 0x40 PUSH1 0x0 KECCAK256 SLOAD AND ISZERO ISZERO EQ PUSH2 0x4DA5 JUMP JUMPDEST PUSH2 0x99F PUSH2 0x3E8 CALLVALUE EQ PUSH2 0x4CD0 JUMP JUMPDEST DUP3 PUSH1 0x0 MSTORE PUSH1 0x7 PUSH1 0x20 MSTORE PUSH2 0xACA PUSH1 0x40 PUSH1 0x0 KECCAK256 PUSH1 0x40 MLOAD SWAP6 PUSH2 0x9BD DUP8 PUSH2 0x4BD9 JUMP JUMPDEST DUP2 SLOAD DUP8 MSTORE PUSH1 0x1 DUP3 ADD SLOAD PUSH1 0x1 PUSH1 0x1 PUSH1 0xA0 SHL SUB SWAP1 DUP2 AND PUSH1 0x20 DUP10 ADD DUP2 SWAP1 MSTORE PUSH1 0x2 DUP5 ADD SLOAD PUSH1 0x40 DUP11 ADD MSTORE PUSH1 0x3 DUP5 ADD SLOAD PUSH1 0x60 DUP11 ADD MSTORE PUSH1 0x4 DUP5 ADD SLOAD PUSH1 0x80 DUP11 ADD MSTORE PUSH1 0x5 DUP5 ADD SLOAD PUSH1 0xA0 DUP11 ADD MSTORE PUSH1 0x6 DUP5 ADD SLOAD PUSH1 0xC0 DUP11 ADD MSTORE PUSH1 0x7 DUP5 ADD SLOAD PUSH1 0xFF SWAP1 DUP2 AND ISZERO ISZERO PUSH1 0xE0 DUP12 ADD MSTORE PUSH1 0x8 DUP6 ADD SLOAD PUSH2 0x100 DUP12 ADD MSTORE PUSH1 0x9 DUP6 ADD SLOAD DUP2 AND ISZERO ISZERO PUSH2 0x120 DUP12 ADD MSTORE PUSH1 0xA DUP6 ADD SLOAD PUSH2 0x140 DUP12 ADD MSTORE PUSH1 0xB DUP6 ADD SLOAD DUP2 AND ISZERO ISZERO PUSH2 0x160 DUP12 ADD MSTORE PUSH1 0xC DUP6 ADD SLOAD PUSH2 0x180 DUP12 ADD MSTORE PUSH1 0xD DUP6 ADD SLOAD DUP4 AND PUSH2 0x1A0 DUP12 ADD MSTORE PUSH1 0xE DUP6 ADD SLOAD PUSH2 0x1C0 DUP12 ADD MSTORE PUSH1 0xF DUP6 ADD SLOAD PUSH2 0x1E0 DUP12 ADD MSTORE PUSH1 0x10 DUP6 ADD SLOAD AND ISZERO ISZERO PUSH2 0x200 DUP11 ADD MSTORE PUSH1 0x11 DUP5 ADD SLOAD PUSH2 0x220 DUP11 ADD MSTORE PUSH1 0x12 DUP5 ADD SLOAD PUSH2 0x240 DUP11 ADD MSTORE PUSH1 0x13 DUP5 ADD SLOAD PUSH2 0x260 DUP11 ADD MSTORE PUSH1 0x14 DUP5 ADD SLOAD PUSH2 0x280 DUP11 ADD MSTORE PUSH1 0x15 SWAP1 SWAP4 ADD SLOAD PUSH2 0x2A0 DUP10 ADD MSTORE AND EQ PUSH2 0x4E2B JUMP JUMPDEST PUSH1 0x40 DUP5 ADD MLOAD EQ PUSH2 0x4E85 JUMP JUMPDEST PUSH1 0x60 DUP3 ADD MLOAD ISZERO PUSH2 0xCD9 JUMPI PUSH1 0x80 DUP3 ADD MLOAD PUSH2 0xC81 JUMPI PUSH2 0xB02 PUSH2 0x12C PUSH2 0xAFC PUSH1 0x60 DUP6 ADD MLOAD TIMESTAMP PUSH2 0x4EE3 JUMP JUMPDEST LT PUSH2 0x4EF0 JUMP JUMPDEST TIMESTAMP PUSH1 0x80 DUP4 ADD MSTORE PUSH1 0x0 MSTORE PUSH1 0x7 PUSH1 0x20 MSTORE PUSH1 0x15 PUSH2 0x2A0 PUSH1 0x40 PUSH1 0x0 KECCAK256 SWAP3 DUP1 MLOAD DUP5 SSTORE PUSH1 0x1 DUP1 PUSH1 0xA0 SHL SUB PUSH1 0x20 DUP3 ADD MLOAD AND PUSH1 0x1 PUSH1 0x1 PUSH1 0x60 SHL SUB PUSH1 0xA0 SHL PUSH1 0x1 DUP7 ADD SLOAD AND OR PUSH1 0x1 DUP6 ADD SSTORE PUSH1 0x40 DUP2 ADD MLOAD PUSH1 0x2 DUP6 ADD SSTORE PUSH1 0x60 DUP2 ADD MLOAD PUSH1 0x3 DUP6 ADD SSTORE PUSH1 0x80 DUP2 ADD MLOAD PUSH1 0x4 DUP6 ADD SSTORE PUSH1 0xA0 DUP2 ADD MLOAD PUSH1 0x5 DUP6 ADD SSTORE PUSH1 0xC0 DUP2 ADD MLOAD PUSH1 0x6 DUP6 ADD SSTORE PUSH2 0xB94 PUSH1 0xE0 DUP3 ADD MLOAD ISZERO ISZERO PUSH1 0x7 DUP7 ADD SWAP1 PUSH1 0xFF DUP1 NOT DUP4 SLOAD AND SWAP2 ISZERO ISZERO AND OR SWAP1 SSTORE JUMP JUMPDEST PUSH2 0x100 DUP2 ADD MLOAD PUSH1 0x8 DUP6 ADD SSTORE PUSH2 0xBBF PUSH2 0x120 DUP3 ADD MLOAD ISZERO ISZERO PUSH1 0x9 DUP7 ADD SWAP1 PUSH1 0xFF DUP1 NOT DUP4 SLOAD AND SWAP2 ISZERO ISZERO AND OR SWAP1 SSTORE JUMP JUMPDEST PUSH2 0x140 DUP2 ADD MLOAD PUSH1 0xA DUP6 ADD SSTORE PUSH2 0xBEA PUSH2 0x160 DUP3 ADD MLOAD ISZERO ISZERO PUSH1 0xB DUP7 ADD SWAP1 PUSH1 0xFF DUP1 NOT DUP4 SLOAD AND SWAP2 ISZERO ISZERO AND OR SWAP1 SSTORE JUMP JUMPDEST PUSH2 0x180 DUP2 ADD MLOAD PUSH1 0xC DUP6 ADD SSTORE PUSH1 0xD DUP5 ADD PUSH1 0x1 DUP1 PUSH1 0xA0 SHL SUB PUSH2 0x1A0 DUP4 ADD MLOAD AND PUSH1 0x1 PUSH1 0x1 PUSH1 0x60 SHL SUB PUSH1 0xA0 SHL DUP3 SLOAD AND OR SWAP1 SSTORE PUSH2 0x1C0 DUP2 ADD MLOAD PUSH1 0xE DUP6 ADD SSTORE PUSH2 0x1E0 DUP2 ADD MLOAD PUSH1 0xF DUP6 ADD SSTORE PUSH2 0xC4E PUSH2 0x200 DUP3 ADD MLOAD ISZERO ISZERO PUSH1 0x10 DUP7 ADD SWAP1 PUSH1 0xFF DUP1 NOT DUP4 SLOAD AND SWAP2 ISZERO ISZERO AND OR SWAP1 SSTORE JUMP JUMPDEST PUSH2 0x220 DUP2 ADD MLOAD PUSH1 0x11 DUP6 ADD SSTORE PUSH2 0x240 DUP2 ADD MLOAD PUSH1 0x12 DUP6 ADD SSTORE PUSH2 0x260 DUP2 ADD MLOAD PUSH1 0x13 DUP6 ADD SSTORE PUSH2 0x280 DUP2 ADD MLOAD PUSH1 0x14 DUP6 ADD SSTORE ADD MLOAD SWAP2 ADD SSTORE STOP JUMPDEST PUSH1 0x40 MLOAD PUSH3 0x461BCD PUSH1 0xE5 SHL DUP2 MSTORE PUSH1 0x20 PUSH1 0x4 DUP3 ADD MSTORE PUSH1 0x2A PUSH1 0x24 DUP3 ADD MSTORE PUSH32 0x546865206973737565722062616E6B20616C7265616479206C6F636B65642069 PUSH1 0x44 DUP3 ADD MSTORE PUSH10 0x7473206D6F6E65792121 PUSH1 0xB0 SHL PUSH1 0x64 DUP3 ADD MSTORE PUSH1 0x84 SWAP1 REVERT JUMPDEST PUSH1 0x40 MLOAD PUSH3 0x461BCD PUSH1 0xE5 SHL DUP2 MSTORE PUSH1 0x20 PUSH1 0x4 DUP3 ADD MSTORE PUSH1 0x24 DUP1 DUP3 ADD MSTORE PUSH32 0x546865207061796572206E6F7420796574206C6F636B656420697473206D6F6E PUSH1 0x44 DUP3 ADD MSTORE PUSH4 0x65792121 PUSH1 0xE0 SHL PUSH1 0x64 DUP3 ADD MSTORE PUSH1 0x84 SWAP1 REVERT JUMPDEST PUSH2 0xD4C SWAP2 POP PUSH1 0x20 RETURNDATASIZE PUSH1 0x20 GT PUSH2 0xD52 JUMPI JUMPDEST PUSH2 0xD44 DUP2 DUP4 PUSH2 0x4BF6 JUMP JUMPDEST DUP2 ADD SWAP1 PUSH2 0x4C18 JUMP JUMPDEST DUP6 PUSH2 0x943 JUMP JUMPDEST POP RETURNDATASIZE PUSH2 0xD3A JUMP JUMPDEST PUSH2 0xD72 SWAP2 POP PUSH1 0x20 RETURNDATASIZE PUSH1 0x20 GT PUSH2 0xD52 JUMPI PUSH2 0xD44 DUP2 DUP4 PUSH2 0x4BF6 JUMP JUMPDEST DUP6 PUSH2 0x8EE JUMP JUMPDEST SWAP1 SWAP2 POP PUSH1 0x20 DUP2 RETURNDATASIZE PUSH1 0x20 GT PUSH2 0xDA5 JUMPI JUMPDEST DUP2 PUSH2 0xD94 PUSH1 0x20 SWAP4 DUP4 PUSH2 0x4BF6 JUMP JUMPDEST DUP2 ADD SUB SLT PUSH2 0x1BC JUMPI MLOAD SWAP1 PUSH1 0x20 PUSH2 0x8B9 JUMP JUMPDEST RETURNDATASIZE SWAP2 POP PUSH2 0xD87 JUMP JUMPDEST CALLVALUE PUSH2 0x1BC JUMPI PUSH1 0x20 CALLDATASIZE PUSH1 0x3 NOT ADD SLT PUSH2 0x1BC JUMPI PUSH1 0x4 CALLDATALOAD PUSH1 0x0 MSTORE PUSH1 0x7 PUSH1 0x20 MSTORE PUSH1 0x40 PUSH1 0x0 KECCAK256 DUP1 PUSH1 0x80 MSTORE DUP1 DUP1 SLOAD PUSH1 0x1 PUSH1 0xA0 SHL PUSH1 0x1 SWAP1 SUB DUP1 PUSH1 0x1 DUP5 ADD SLOAD AND PUSH2 0x120 MSTORE PUSH1 0x2 DUP4 ADD SLOAD PUSH1 0xA0 MSTORE PUSH1 0x3 DUP4 ADD SLOAD PUSH1 0x4 DUP5 ADD SLOAD PUSH1 0x5 DUP6 ADD SLOAD PUSH1 0x6 DUP7 ADD SLOAD PUSH1 0x7 DUP8 ADD SLOAD PUSH1 0xFF AND PUSH1 0x8 DUP9 ADD SLOAD SWAP2 PUSH1 0x9 DUP10 ADD SLOAD PUSH1 0xFF AND SWAP4 PUSH1 0xA DUP11 ADD SLOAD SWAP6 PUSH1 0xB DUP12 ADD SLOAD PUSH1 0xFF AND SWAP8 PUSH1 0xC DUP13 ADD SLOAD SWAP10 PUSH1 0xD DUP14 ADD SLOAD AND SWAP11 PUSH1 0xE DUP14 ADD SLOAD SWAP13 PUSH1 0xF ADD SLOAD SWAP14 PUSH1 0x10 DUP2 ADD SLOAD PUSH1 0xFF AND PUSH2 0x100 MSTORE PUSH1 0x11 DUP2 ADD SLOAD PUSH2 0x180 MSTORE PUSH1 0x12 DUP2 ADD SLOAD PUSH2 0x160 MSTORE PUSH1 0x13 DUP2 ADD SLOAD PUSH1 0xC0 MSTORE PUSH1 0x14 DUP2 ADD SLOAD PUSH2 0x1A0 MSTORE PUSH1 0x15 ADD SLOAD PUSH1 0xE0 MSTORE PUSH1 0x40 MLOAD DUP1 PUSH2 0x140 MSTORE MSTORE PUSH2 0x120 MLOAD PUSH2 0x140 MLOAD PUSH1 0x20 ADD MSTORE PUSH1 0xA0 MLOAD PUSH2 0x140 MLOAD PUSH1 0x40 ADD MSTORE PUSH2 0x140 MLOAD PUSH1 0x60 ADD MSTORE PUSH2 0x140 MLOAD PUSH1 0x80 ADD MSTORE PUSH2 0x140 MLOAD PUSH1 0xA0 ADD MSTORE PUSH2 0x140 MLOAD PUSH1 0xC0 ADD MSTORE ISZERO ISZERO PUSH2 0x140 MLOAD PUSH1 0xE0 ADD MSTORE PUSH2 0x140 MLOAD PUSH2 0x100 ADD MSTORE ISZERO ISZERO PUSH2 0x140 MLOAD PUSH2 0x120 ADD MSTORE PUSH2 0x140 MLOAD PUSH2 0x140 ADD MSTORE ISZERO ISZERO PUSH2 0x140 MLOAD PUSH2 0x160 ADD MSTORE PUSH2 0x140 MLOAD PUSH2 0x180 ADD MSTORE PUSH2 0x140 MLOAD PUSH2 0x1A0 ADD MSTORE PUSH2 0x140 MLOAD PUSH2 0x1C0 ADD MSTORE PUSH2 0x140 MLOAD PUSH2 0x1E0 ADD MSTORE PUSH2 0x100 MLOAD ISZERO ISZERO PUSH2 0x140 MLOAD PUSH2 0x200 ADD MSTORE PUSH2 0x180 MLOAD PUSH2 0x140 MLOAD PUSH2 0x220 ADD MSTORE PUSH2 0x160 MLOAD PUSH2 0x140 MLOAD PUSH2 0x240 ADD MSTORE PUSH1 0xC0 MLOAD PUSH2 0x140 MLOAD PUSH2 0x260 ADD MSTORE PUSH2 0x1A0 MLOAD PUSH2 0x140 MLOAD PUSH2 0x280 ADD MSTORE PUSH1 0xE0 MLOAD PUSH2 0x140 MLOAD PUSH2 0x2A0 ADD MSTORE PUSH2 0x140 MLOAD PUSH2 0x2C0 SWAP1 RETURN JUMPDEST CALLVALUE PUSH2 0x1BC JUMPI PUSH1 0x40 CALLDATASIZE PUSH1 0x3 NOT ADD SLT PUSH2 0x1BC JUMPI PUSH1 0x1 SLOAD PUSH1 0x40 MLOAD PUSH4 0x9EC802FF PUSH1 0xE0 SHL DUP2 MSTORE PUSH1 0x4 DUP1 CALLDATALOAD SWAP1 DUP3 ADD MSTORE SWAP1 PUSH1 0x20 SWAP1 DUP3 SWAP1 PUSH1 0x24 SWAP1 DUP3 SWAP1 PUSH1 0x1 PUSH1 0x1 PUSH1 0xA0 SHL SUB AND GAS STATICCALL SWAP1 DUP2 ISZERO PUSH2 0x73F JUMPI PUSH2 0xFC4 SWAP2 PUSH1 0x1 SWAP2 PUSH1 0x0 SWAP2 PUSH2 0x130E JUMPI POP ISZERO ISZERO EQ PUSH2 0x4C30 JUMP JUMPDEST PUSH1 0x3 SLOAD PUSH1 0x40 MLOAD PUSH4 0x387BDD65 PUSH1 0xE2 SHL DUP2 MSTORE CALLER PUSH1 0x4 DUP1 DUP4 ADD SWAP2 SWAP1 SWAP2 MSTORE CALLDATALOAD PUSH1 0x24 DUP3 ADD MSTORE SWAP1 PUSH1 0x20 SWAP1 DUP3 SWAP1 PUSH1 0x44 SWAP1 DUP3 SWAP1 PUSH1 0x1 PUSH1 0x1 PUSH1 0xA0 SHL SUB AND GAS STATICCALL SWAP1 DUP2 ISZERO PUSH2 0x73F JUMPI PUSH2 0x1019 SWAP2 PUSH1 0x1 SWAP2 PUSH1 0x0 SWAP2 PUSH2 0x12EF JUMPI JUMPDEST POP ISZERO ISZERO EQ PUSH2 0x4C6F JUMP JUMPDEST CALLER PUSH1 0x0 MSTORE PUSH1 0x4 PUSH1 0x20 MSTORE PUSH1 0x40 PUSH1 0x0 KECCAK256 PUSH1 0x4 CALLDATALOAD PUSH1 0x0 MSTORE PUSH1 0x20 MSTORE PUSH1 0x40 PUSH1 0x0 KECCAK256 SLOAD DUP1 PUSH1 0x0 MSTORE PUSH1 0x5 PUSH1 0x20 MSTORE PUSH2 0x1055 PUSH1 0x1 PUSH1 0xFF PUSH1 0x40 PUSH1 0x0 KECCAK256 SLOAD AND ISZERO ISZERO EQ PUSH2 0x4F33 JUMP JUMPDEST DUP1 PUSH1 0x0 MSTORE PUSH1 0x7 PUSH1 0x20 MSTORE PUSH1 0x40 PUSH1 0x0 KECCAK256 SWAP1 PUSH2 0x1184 PUSH1 0x40 MLOAD SWAP3 PUSH2 0x1074 DUP5 PUSH2 0x4BD9 JUMP JUMPDEST DUP1 SLOAD DUP5 MSTORE PUSH1 0x15 PUSH1 0x1 DUP1 PUSH1 0xA0 SHL SUB PUSH1 0x1 DUP4 ADD SLOAD AND SWAP2 DUP3 PUSH1 0x20 DUP8 ADD MSTORE PUSH1 0x2 DUP2 ADD SLOAD PUSH1 0x40 DUP8 ADD MSTORE PUSH1 0x3 DUP2 ADD SLOAD PUSH1 0x60 DUP8 ADD MSTORE PUSH1 0x4 DUP2 ADD SLOAD PUSH1 0x80 DUP8 ADD MSTORE PUSH1 0x5 DUP2 ADD SLOAD PUSH1 0xA0 DUP8 ADD MSTORE PUSH1 0x6 DUP2 ADD SLOAD PUSH1 0xC0 DUP8 ADD MSTORE PUSH1 0xFF PUSH1 0x7 DUP3 ADD SLOAD AND ISZERO ISZERO PUSH1 0xE0 DUP8 ADD MSTORE PUSH1 0x8 DUP2 ADD SLOAD PUSH2 0x100 DUP8 ADD MSTORE PUSH1 0xFF PUSH1 0x9 DUP3 ADD SLOAD AND ISZERO ISZERO PUSH2 0x120 DUP8 ADD MSTORE PUSH1 0xA DUP2 ADD SLOAD PUSH2 0x140 DUP8 ADD MSTORE PUSH1 0xFF PUSH1 0xB DUP3 ADD SLOAD AND ISZERO ISZERO PUSH2 0x160 DUP8 ADD MSTORE PUSH1 0xC DUP2 ADD SLOAD PUSH2 0x180 DUP8 ADD MSTORE PUSH1 0x1 DUP1 PUSH1 0xA0 SHL SUB PUSH1 0xD DUP3 ADD SLOAD AND PUSH2 0x1A0 DUP8 ADD MSTORE PUSH1 0xE DUP2 ADD SLOAD PUSH2 0x1C0 DUP8 ADD MSTORE PUSH1 0xF DUP2 ADD SLOAD PUSH2 0x1E0 DUP8 ADD MSTORE PUSH1 0xFF PUSH1 0x10 DUP3 ADD SLOAD AND ISZERO ISZERO PUSH2 0x200 DUP8 ADD MSTORE PUSH1 0x11 DUP2 ADD SLOAD PUSH2 0x220 DUP8 ADD MSTORE PUSH1 0x12 DUP2 ADD SLOAD PUSH2 0x240 DUP8 ADD MSTORE PUSH1 0x13 DUP2 ADD SLOAD PUSH2 0x260 DUP8 ADD MSTORE PUSH1 0x14 DUP2 ADD SLOAD PUSH2 0x280 DUP8 ADD MSTORE ADD SLOAD PUSH2 0x2A0 DUP6 ADD MSTORE CALLER EQ PUSH2 0x4FB7 JUMP JUMPDEST PUSH2 0x1195 PUSH1 0x4 CALLDATALOAD PUSH1 0x40 DUP5 ADD MLOAD EQ PUSH2 0x501C JUMP JUMPDEST PUSH1 0x80 DUP3 ADD MLOAD ISZERO PUSH2 0x129B JUMPI PUSH1 0xC0 DUP3 ADD MLOAD PUSH2 0x1256 JUMPI PUSH2 0x11BC PUSH2 0x12C PUSH2 0xAFC PUSH1 0x80 DUP6 ADD MLOAD TIMESTAMP PUSH2 0x4EE3 JUMP JUMPDEST PUSH1 0x24 CALLDATALOAD PUSH1 0xA0 DUP4 ADD MSTORE TIMESTAMP PUSH1 0xC0 DUP4 ADD MSTORE PUSH1 0x0 MSTORE PUSH1 0x7 PUSH1 0x20 MSTORE PUSH1 0x15 PUSH2 0x2A0 PUSH1 0x40 PUSH1 0x0 KECCAK256 SWAP3 DUP1 MLOAD DUP5 SSTORE PUSH1 0x1 DUP1 PUSH1 0xA0 SHL SUB PUSH1 0x20 DUP3 ADD MLOAD AND PUSH1 0x1 PUSH1 0x1 PUSH1 0x60 SHL SUB PUSH1 0xA0 SHL PUSH1 0x1 DUP7 ADD SLOAD AND OR PUSH1 0x1 DUP6 ADD SSTORE PUSH1 0x40 DUP2 ADD MLOAD PUSH1 0x2 DUP6 ADD SSTORE PUSH1 0x60 DUP2 ADD MLOAD PUSH1 0x3 DUP6 ADD SSTORE PUSH1 0x80 DUP2 ADD MLOAD PUSH1 0x4 DUP6 ADD SSTORE PUSH1 0xA0 DUP2 ADD MLOAD PUSH1 0x5 DUP6 ADD SSTORE PUSH1 0xC0 DUP2 ADD MLOAD PUSH1 0x6 DUP6 ADD SSTORE PUSH2 0xB94 PUSH1 0xE0 DUP3 ADD MLOAD ISZERO ISZERO PUSH1 0x7 DUP7 ADD SWAP1 PUSH1 0xFF DUP1 NOT DUP4 SLOAD AND SWAP2 ISZERO ISZERO AND OR SWAP1 SSTORE JUMP JUMPDEST PUSH1 0x40 MLOAD PUSH3 0x461BCD PUSH1 0xE5 SHL DUP2 MSTORE PUSH1 0x20 PUSH1 0x4 DUP3 ADD MSTORE PUSH1 0x1B PUSH1 0x24 DUP3 ADD MSTORE PUSH32 0x436F6D6D69746D656E7420697320616C726561647920646F6E65210000000000 PUSH1 0x44 DUP3 ADD MSTORE PUSH1 0x64 SWAP1 REVERT JUMPDEST PUSH1 0x40 MLOAD PUSH3 0x461BCD PUSH1 0xE5 SHL DUP2 MSTORE PUSH1 0x20 PUSH1 0x4 DUP3 ADD MSTORE PUSH1 0x26 PUSH1 0x24 DUP3 ADD MSTORE PUSH32 0x4973737565722062616E6B206E6F7420796574206C6F636B656420746865206D PUSH1 0x44 DUP3 ADD MSTORE PUSH6 0x6F6E65792121 PUSH1 0xD0 SHL PUSH1 0x64 DUP3 ADD MSTORE PUSH1 0x84 SWAP1 REVERT JUMPDEST PUSH2 0x1308 SWAP2 POP PUSH1 0x20 RETURNDATASIZE PUSH1 0x20 GT PUSH2 0xD52 JUMPI PUSH2 0xD44 DUP2 DUP4 PUSH2 0x4BF6 JUMP JUMPDEST DUP4 PUSH2 0x1010 JUMP JUMPDEST PUSH2 0x1327 SWAP2 POP PUSH1 0x20 RETURNDATASIZE PUSH1 0x20 GT PUSH2 0xD52 JUMPI PUSH2 0xD44 DUP2 DUP4 PUSH2 0x4BF6 JUMP JUMPDEST DUP4 PUSH2 0x8EE JUMP JUMPDEST CALLVALUE PUSH2 0x1BC JUMPI PUSH2 0x133B CALLDATASIZE PUSH2 0x4AC0 JUMP JUMPDEST SWAP1 DUP1 ISZERO ISZERO DUP1 PUSH2 0x16D0 JUMPI JUMPDEST PUSH2 0x134E SWAP1 PUSH2 0x507B JUMP JUMPDEST DUP1 PUSH1 0x0 MSTORE PUSH1 0xC PUSH1 0x20 MSTORE PUSH2 0x1417 PUSH1 0x40 PUSH1 0x0 KECCAK256 SWAP3 PUSH2 0x13F5 DUP4 PUSH1 0x40 MLOAD SWAP6 PUSH2 0x1371 DUP8 PUSH2 0x4B89 JUMP JUMPDEST DUP1 SLOAD DUP1 DUP9 MSTORE PUSH1 0x1 DUP3 ADD SLOAD PUSH1 0x1 PUSH1 0x1 PUSH1 0xA0 SHL SUB SWAP1 DUP2 AND PUSH1 0x20 DUP11 ADD MSTORE PUSH1 0x2 DUP4 ADD SLOAD AND PUSH1 0x40 DUP10 ADD MSTORE PUSH1 0x3 DUP3 ADD SLOAD PUSH1 0x60 DUP10 ADD MSTORE PUSH1 0x4 DUP3 ADD SLOAD PUSH1 0x80 DUP10 ADD MSTORE PUSH1 0x5 DUP3 ADD SLOAD PUSH1 0xA0 DUP10 ADD MSTORE PUSH1 0x6 DUP3 ADD SLOAD PUSH1 0xC0 DUP10 ADD MSTORE PUSH1 0x7 DUP3 ADD SLOAD PUSH1 0xE0 DUP10 ADD MSTORE PUSH1 0x8 DUP3 ADD SLOAD PUSH2 0x100 DUP10 ADD MSTORE PUSH1 0x9 DUP3 ADD SLOAD PUSH1 0xFF AND ISZERO ISZERO PUSH2 0x120 DUP10 ADD MSTORE PUSH1 0xA SWAP1 SWAP2 ADD SLOAD PUSH2 0x140 DUP9 ADD MSTORE EQ PUSH2 0x5107 JUMP JUMPDEST PUSH2 0x140C PUSH1 0x1 DUP1 PUSH1 0xA0 SHL SUB PUSH1 0x20 DUP7 ADD MLOAD AND CALLER EQ PUSH2 0x5167 JUMP JUMPDEST PUSH1 0x60 DUP5 ADD MLOAD EQ PUSH2 0x51B3 JUMP JUMPDEST PUSH1 0xA0 DUP3 ADD MLOAD ISZERO PUSH2 0x166F JUMPI PUSH1 0xE0 DUP3 ADD MLOAD PUSH2 0x160B JUMPI PUSH2 0x4B0 PUSH2 0x143B PUSH1 0xA0 DUP5 ADD MLOAD TIMESTAMP PUSH2 0x4EE3 JUMP JUMPDEST GT ISZERO PUSH2 0x15AE JUMPI PUSH2 0x100 DUP3 ADD MLOAD PUSH2 0x1543 JUMPI PUSH32 0x964A988EB71730D9DC1A5FF3B1D6A37F048054D295AE02D766BEC12AF5F52F20 SWAP2 PUSH1 0x60 SWAP2 TIMESTAMP PUSH2 0x100 DUP4 ADD MSTORE DUP1 PUSH1 0x0 MSTORE PUSH1 0xC PUSH1 0x20 MSTORE PUSH1 0x40 PUSH1 0x0 KECCAK256 DUP3 MLOAD DUP2 SSTORE PUSH1 0x1 DUP2 ADD PUSH1 0x1 DUP1 PUSH1 0xA0 SHL SUB PUSH1 0x20 DUP6 ADD MLOAD AND SWAP1 PUSH1 0x1 PUSH1 0x1 PUSH1 0x60 SHL SUB PUSH1 0xA0 SHL SWAP2 DUP3 DUP3 SLOAD AND OR SWAP1 SSTORE PUSH1 0x2 DUP3 ADD SWAP1 PUSH1 0x1 DUP1 PUSH1 0xA0 SHL SUB PUSH1 0x40 DUP7 ADD MLOAD AND SWAP1 DUP3 SLOAD AND OR SWAP1 SSTORE PUSH1 0xA PUSH2 0x140 DUP6 DUP6 ADD MLOAD SWAP5 DUP6 PUSH1 0x3 DUP6 ADD SSTORE PUSH1 0x80 DUP2 ADD MLOAD PUSH1 0x4 DUP6 ADD SSTORE PUSH1 0xA0 DUP2 ADD MLOAD PUSH1 0x5 DUP6 ADD SSTORE PUSH1 0xC0 DUP2 ADD MLOAD PUSH1 0x6 DUP6 ADD SSTORE PUSH1 0xE0 DUP2 ADD MLOAD PUSH1 0x7 DUP6 ADD SSTORE PUSH2 0x100 DUP2 ADD MLOAD PUSH1 0x8 DUP6 ADD SSTORE PUSH2 0x152A PUSH2 0x120 DUP3 ADD MLOAD ISZERO ISZERO PUSH1 0x9 DUP7 ADD SWAP1 PUSH1 0xFF DUP1 NOT DUP4 SLOAD AND SWAP2 ISZERO ISZERO AND OR SWAP1 SSTORE JUMP JUMPDEST ADD MLOAD SWAP2 ADD SSTORE PUSH1 0x40 MLOAD SWAP2 CALLER DUP4 MSTORE PUSH1 0x20 DUP4 ADD MSTORE PUSH1 0x40 DUP3 ADD MSTORE LOG1 STOP JUMPDEST PUSH1 0x40 MLOAD PUSH3 0x461BCD PUSH1 0xE5 SHL DUP2 MSTORE PUSH1 0x20 PUSH1 0x4 DUP3 ADD MSTORE PUSH1 0x3E PUSH1 0x24 DUP3 ADD MSTORE PUSH32 0x596F75206861766520616C726561647920706C61636564206120726571756573 PUSH1 0x44 DUP3 ADD MSTORE PUSH32 0x7420746F20726566756E642074686520746F6B656E20616D6F756E7421210000 PUSH1 0x64 DUP3 ADD MSTORE PUSH1 0x84 SWAP1 REVERT JUMPDEST PUSH1 0x40 MLOAD PUSH3 0x461BCD PUSH1 0xE5 SHL DUP2 MSTORE PUSH1 0x20 PUSH1 0x4 DUP3 ADD MSTORE PUSH1 0x2F PUSH1 0x24 DUP3 ADD MSTORE PUSH32 0x54696D65206C696D6974206E6F74207965742065786365656465642E20596F75 PUSH1 0x44 DUP3 ADD MSTORE PUSH15 0x206861766520746F20776169742121 PUSH1 0x88 SHL PUSH1 0x64 DUP3 ADD MSTORE PUSH1 0x84 SWAP1 REVERT JUMPDEST PUSH1 0x40 MLOAD PUSH3 0x461BCD PUSH1 0xE5 SHL DUP2 MSTORE PUSH1 0x20 PUSH1 0x4 DUP3 ADD MSTORE PUSH1 0x36 PUSH1 0x24 DUP3 ADD MSTORE PUSH32 0x546F6B656E20616D6F756E742077617320616C72656164792063726564697465 PUSH1 0x44 DUP3 ADD MSTORE PUSH22 0x6420746F2070617965652773206163636F756E742121 PUSH1 0x50 SHL PUSH1 0x64 DUP3 ADD MSTORE PUSH1 0x84 SWAP1 REVERT JUMPDEST PUSH1 0x40 MLOAD PUSH3 0x461BCD PUSH1 0xE5 SHL DUP2 MSTORE PUSH1 0x20 PUSH1 0x4 DUP3 ADD MSTORE PUSH1 0x33 PUSH1 0x24 DUP3 ADD MSTORE PUSH32 0x546F6B656E20616D6F756E7420776173206E6F7420646562697465642066726F PUSH1 0x44 DUP3 ADD MSTORE PUSH19 0x6D2070617965722773206163636F756E742121 PUSH1 0x68 SHL PUSH1 0x64 DUP3 ADD MSTORE PUSH1 0x84 SWAP1 REVERT JUMPDEST POP PUSH1 0xE SLOAD DUP2 GT ISZERO PUSH2 0x1345 JUMP JUMPDEST CALLVALUE PUSH2 0x1BC JUMPI PUSH1 0x40 CALLDATASIZE PUSH1 0x3 NOT ADD SLT PUSH2 0x1BC JUMPI PUSH2 0x16F5 PUSH2 0x4AD6 JUMP JUMPDEST PUSH2 0x16FD PUSH2 0x4B02 JUMP JUMPDEST PUSH1 0x1 SLOAD PUSH1 0x40 MLOAD PUSH4 0x9CFD3699 PUSH1 0xE0 SHL DUP2 MSTORE CALLER PUSH1 0x4 DUP3 ADD MSTORE SWAP3 SWAP1 PUSH1 0x1 PUSH1 0x1 PUSH1 0xA0 SHL SUB AND PUSH1 0x20 DUP5 PUSH1 0x24 DUP2 DUP5 GAS STATICCALL SWAP4 DUP5 ISZERO PUSH2 0x73F JUMPI PUSH1 0x0 SWAP5 PUSH2 0x1C11 JUMPI JUMPDEST POP PUSH1 0x20 PUSH1 0x24 SWAP2 PUSH1 0x40 MLOAD SWAP3 DUP4 DUP1 SWAP3 PUSH4 0x9EC802FF PUSH1 0xE0 SHL DUP3 MSTORE DUP9 PUSH1 0x4 DUP4 ADD MSTORE GAS STATICCALL SWAP1 DUP2 ISZERO PUSH2 0x73F JUMPI PUSH2 0x1773 SWAP2 PUSH1 0x1 SWAP2 PUSH1 0x0 SWAP2 PUSH2 0x1BF2 JUMPI POP ISZERO ISZERO EQ PUSH2 0x4C30 JUMP JUMPDEST PUSH1 0x3 SLOAD PUSH1 0x40 MLOAD PUSH4 0x387BDD65 PUSH1 0xE2 SHL DUP2 MSTORE PUSH1 0x1 PUSH1 0x1 PUSH1 0xA0 SHL SUB DUP4 DUP2 AND PUSH1 0x4 DUP4 ADD MSTORE PUSH1 0x24 DUP3 ADD DUP7 SWAP1 MSTORE SWAP1 SWAP2 PUSH1 0x20 SWAP2 DUP4 SWAP2 PUSH1 0x44 SWAP2 DUP4 SWAP2 AND GAS STATICCALL SWAP1 DUP2 ISZERO PUSH2 0x73F JUMPI PUSH2 0x17C7 SWAP2 PUSH1 0x1 SWAP2 PUSH1 0x0 SWAP2 PUSH2 0x1BD3 JUMPI POP ISZERO ISZERO EQ PUSH2 0x4D41 JUMP JUMPDEST PUSH1 0x1 DUP1 PUSH1 0xA0 SHL SUB DUP2 AND PUSH1 0x0 MSTORE PUSH1 0x4 PUSH1 0x20 MSTORE PUSH1 0x40 PUSH1 0x0 KECCAK256 DUP4 PUSH1 0x0 MSTORE PUSH1 0x20 MSTORE PUSH1 0x40 PUSH1 0x0 KECCAK256 SLOAD SWAP2 DUP3 PUSH1 0x0 MSTORE PUSH1 0x5 PUSH1 0x20 MSTORE PUSH2 0x180A PUSH1 0x1 PUSH1 0xFF PUSH1 0x40 PUSH1 0x0 KECCAK256 SLOAD AND ISZERO ISZERO EQ PUSH2 0x4DA5 JUMP JUMPDEST DUP3 PUSH1 0x0 MSTORE PUSH1 0x7 PUSH1 0x20 MSTORE PUSH2 0x1945 PUSH1 0x40 PUSH1 0x0 KECCAK256 SWAP5 PUSH2 0x193A PUSH1 0x40 MLOAD SWAP7 PUSH2 0x182C DUP9 PUSH2 0x4BD9 JUMP JUMPDEST DUP1 SLOAD DUP9 MSTORE PUSH1 0x1 DUP2 ADD SLOAD PUSH1 0x1 PUSH1 0x1 PUSH1 0xA0 SHL SUB SWAP1 DUP2 AND PUSH1 0x20 DUP11 ADD DUP2 SWAP1 MSTORE PUSH1 0x2 DUP4 ADD SLOAD PUSH1 0x40 DUP12 ADD MSTORE PUSH1 0x3 DUP4 ADD SLOAD PUSH1 0x60 DUP12 ADD MSTORE PUSH1 0x4 DUP4 ADD SLOAD PUSH1 0x80 DUP12 ADD MSTORE PUSH1 0x5 DUP4 ADD SLOAD PUSH1 0xA0 DUP12 ADD MSTORE PUSH1 0x6 DUP4 ADD SLOAD PUSH1 0xC0 DUP12 ADD MSTORE PUSH1 0x7 DUP4 ADD SLOAD PUSH1 0xFF SWAP1 DUP2 AND ISZERO ISZERO PUSH1 0xE0 DUP13 ADD MSTORE PUSH1 0x8 DUP5 ADD SLOAD PUSH2 0x100 DUP13 ADD MSTORE PUSH1 0x9 DUP5 ADD SLOAD DUP2 AND ISZERO ISZERO PUSH2 0x120 DUP13 ADD MSTORE PUSH1 0xA DUP5 ADD SLOAD PUSH2 0x140 DUP13 ADD MSTORE PUSH1 0xB DUP5 ADD SLOAD DUP2 AND ISZERO ISZERO PUSH2 0x160 DUP13 ADD MSTORE PUSH1 0xC DUP5 ADD SLOAD PUSH2 0x180 DUP13 ADD MSTORE PUSH1 0xD DUP5 ADD SLOAD DUP4 AND PUSH2 0x1A0 DUP13 ADD MSTORE PUSH1 0xE DUP5 ADD SLOAD PUSH2 0x1C0 DUP13 ADD MSTORE PUSH1 0xF DUP5 ADD SLOAD PUSH2 0x1E0 DUP13 ADD MSTORE PUSH1 0x10 DUP5 ADD SLOAD AND ISZERO ISZERO PUSH2 0x200 DUP12 ADD MSTORE PUSH1 0x11 DUP4 ADD SLOAD PUSH2 0x220 DUP12 ADD MSTORE PUSH1 0x12 DUP4 ADD SLOAD PUSH2 0x240 DUP12 ADD MSTORE PUSH1 0x13 DUP4 ADD SLOAD PUSH2 0x260 DUP12 ADD MSTORE PUSH1 0x14 DUP4 ADD SLOAD PUSH2 0x280 DUP12 ADD MSTORE PUSH1 0x15 SWAP1 SWAP3 ADD SLOAD PUSH2 0x2A0 DUP11 ADD MSTORE DUP7 AND EQ PUSH2 0x4E2B JUMP JUMPDEST PUSH1 0x40 DUP7 ADD MLOAD EQ PUSH2 0x4E85 JUMP JUMPDEST PUSH2 0x140 DUP5 ADD MLOAD ISZERO PUSH2 0x1B79 JUMPI PUSH1 0x1 PUSH2 0x120 DUP6 ADD MLOAD ISZERO ISZERO SUB PUSH2 0x1B1E JUMPI PUSH2 0x180 DUP5 ADD MLOAD PUSH2 0x1AD6 JUMPI DUP3 SWAP1 PUSH2 0x1980 PUSH2 0x12C PUSH2 0xAFC PUSH2 0x140 DUP9 ADD MLOAD TIMESTAMP PUSH2 0x4EE3 JUMP JUMPDEST ISZERO ISZERO PUSH2 0x160 DUP6 ADD DUP2 SWAP1 MSTORE TIMESTAMP PUSH2 0x180 DUP7 ADD MSTORE PUSH2 0x1A94 JUMPI PUSH1 0x0 MSTORE PUSH1 0x6 PUSH1 0x20 MSTORE PUSH1 0x40 PUSH1 0x0 KECCAK256 PUSH1 0xFF NOT SWAP1 PUSH1 0x1 DUP3 DUP3 SLOAD AND OR SWAP1 SSTORE PUSH1 0x5 PUSH1 0x20 MSTORE PUSH1 0x40 PUSH1 0x0 KECCAK256 SWAP1 DUP2 SLOAD AND SWAP1 SSTORE PUSH1 0x0 DUP1 DUP1 DUP1 PUSH2 0x3E8 CALLER DUP3 CALL ISZERO PUSH2 0x73F JUMPI PUSH1 0x0 DUP1 DUP1 PUSH2 0x3E8 DUP2 SWAP5 PUSH1 0x1 DUP1 PUSH1 0xA0 SHL SUB AND DUP3 CALL ISZERO PUSH2 0x73F JUMPI PUSH2 0x3E8 PUSH2 0x240 DUP4 ADD MSTORE PUSH2 0x3E8 PUSH2 0x280 DUP4 ADD MSTORE TIMESTAMP PUSH2 0x260 DUP4 ADD MSTORE TIMESTAMP PUSH2 0x2A0 DUP4 ADD MSTORE JUMPDEST PUSH1 0x0 MSTORE PUSH1 0x7 PUSH1 0x20 MSTORE PUSH1 0x15 PUSH2 0x2A0 PUSH1 0x40 PUSH1 0x0 KECCAK256 SWAP3 DUP1 MLOAD DUP5 SSTORE PUSH1 0x1 DUP1 PUSH1 0xA0 SHL SUB PUSH1 0x20 DUP3 ADD MLOAD AND PUSH1 0x1 PUSH1 0x1 PUSH1 0x60 SHL SUB PUSH1 0xA0 SHL PUSH1 0x1 DUP7 ADD SLOAD AND OR PUSH1 0x1 DUP6 ADD SSTORE PUSH1 0x40 DUP2 ADD MLOAD PUSH1 0x2 DUP6 ADD SSTORE PUSH1 0x60 DUP2 ADD MLOAD PUSH1 0x3 DUP6 ADD SSTORE PUSH1 0x80 DUP2 ADD MLOAD PUSH1 0x4 DUP6 ADD SSTORE PUSH1 0xA0 DUP2 ADD MLOAD PUSH1 0x5 DUP6 ADD SSTORE PUSH1 0xC0 DUP2 ADD MLOAD PUSH1 0x6 DUP6 ADD SSTORE PUSH2 0xB94 PUSH1 0xE0 DUP3 ADD MLOAD ISZERO ISZERO PUSH1 0x7 DUP7 ADD SWAP1 PUSH1 0xFF DUP1 NOT DUP4 SLOAD AND SWAP2 ISZERO ISZERO AND OR SWAP1 SSTORE JUMP JUMPDEST PUSH1 0x40 DUP1 MLOAD PUSH1 0x1 PUSH1 0x1 PUSH1 0xA0 SHL SUB SWAP4 SWAP1 SWAP4 AND DUP4 MSTORE PUSH1 0x20 DUP4 ADD SWAP2 SWAP1 SWAP2 MSTORE PUSH32 0xFA053961D64C3B762E9F4BC2FDCA9D2B02715C34EC5CFCD4643118E0D15987E SWAP2 LOG1 PUSH2 0x1A08 JUMP JUMPDEST PUSH1 0x40 MLOAD PUSH3 0x461BCD PUSH1 0xE5 SHL DUP2 MSTORE PUSH1 0x20 PUSH1 0x4 DUP3 ADD MSTORE PUSH1 0x2C PUSH1 0x24 DUP3 ADD MSTORE PUSH1 0x0 DUP1 MLOAD PUSH1 0x20 PUSH2 0x551B DUP4 CODECOPY DUP2 MLOAD SWAP2 MSTORE PUSH1 0x44 DUP3 ADD MSTORE PUSH12 0x20726573706F6E7365332121 PUSH1 0xA0 SHL PUSH1 0x64 DUP3 ADD MSTORE PUSH1 0x84 SWAP1 REVERT JUMPDEST PUSH1 0x40 MLOAD PUSH3 0x461BCD PUSH1 0xE5 SHL DUP2 MSTORE PUSH1 0x20 PUSH1 0x4 DUP3 ADD MSTORE PUSH1 0x2D PUSH1 0x24 DUP3 ADD MSTORE PUSH32 0x5468652062616E6B206D656E74696F6E65642074686174207468652063617264 PUSH1 0x44 DUP3 ADD MSTORE PUSH13 0x20697320696E76616C69642121 PUSH1 0x98 SHL PUSH1 0x64 DUP3 ADD MSTORE PUSH1 0x84 SWAP1 REVERT JUMPDEST PUSH1 0x40 MLOAD PUSH3 0x461BCD PUSH1 0xE5 SHL DUP2 MSTORE PUSH1 0x20 PUSH1 0x4 DUP3 ADD MSTORE PUSH1 0x2C PUSH1 0x24 DUP3 ADD MSTORE PUSH32 0x546865206973737565722062616E6B206E6F74207965742073656E7420746865 PUSH1 0x44 DUP3 ADD MSTORE PUSH12 0x20726573706F6E7365322121 PUSH1 0xA0 SHL PUSH1 0x64 DUP3 ADD MSTORE PUSH1 0x84 SWAP1 REVERT JUMPDEST PUSH2 0x1BEC SWAP2 POP PUSH1 0x20 RETURNDATASIZE PUSH1 0x20 GT PUSH2 0xD52 JUMPI PUSH2 0xD44 DUP2 DUP4 PUSH2 0x4BF6 JUMP JUMPDEST DUP7 PUSH2 0x943 JUMP JUMPDEST PUSH2 0x1C0B SWAP2 POP PUSH1 0x20 RETURNDATASIZE PUSH1 0x20 GT PUSH2 0xD52 JUMPI PUSH2 0xD44 DUP2 DUP4 PUSH2 0x4BF6 JUMP JUMPDEST DUP7 PUSH2 0x8EE JUMP JUMPDEST SWAP1 SWAP4 POP PUSH1 0x20 DUP2 RETURNDATASIZE PUSH1 0x20 GT PUSH2 0x1C3E JUMPI JUMPDEST DUP2 PUSH2 0x1C2D PUSH1 0x20 SWAP4 DUP4 PUSH2 0x4BF6 JUMP JUMPDEST DUP2 ADD SUB SLT PUSH2 0x1BC JUMPI MLOAD SWAP3 PUSH1 0x20 PUSH2 0x1736 JUMP JUMPDEST RETURNDATASIZE SWAP2 POP PUSH2 0x1C20 JUMP JUMPDEST CALLVALUE PUSH2 0x1BC JUMPI PUSH1 0x20 CALLDATASIZE PUSH1 0x3 NOT ADD SLT PUSH2 0x1BC JUMPI PUSH1 0x4 CALLDATALOAD PUSH1 0x0 MSTORE PUSH1 0x9 PUSH1 0x20 MSTORE PUSH1 0x20 PUSH1 0xFF PUSH1 0x40 PUSH1 0x0 KECCAK256 SLOAD AND PUSH1 0x40 MLOAD SWAP1 ISZERO ISZERO DUP2 MSTORE RETURN JUMPDEST CALLVALUE PUSH2 0x1BC JUMPI PUSH1 0x20 CALLDATASIZE PUSH1 0x3 NOT ADD SLT PUSH2 0x1BC JUMPI PUSH1 0x4 CALLDATALOAD PUSH1 0x0 MSTORE PUSH1 0x8 PUSH1 0x20 MSTORE PUSH1 0x40 PUSH1 0x0 KECCAK256 DUP1 SLOAD PUSH2 0x1CDE PUSH1 0x1 DUP4 ADD SLOAD SWAP3 PUSH1 0x2 DUP2 ADD SLOAD SWAP1 PUSH1 0x3 DUP2 ADD SLOAD PUSH1 0x4 DUP3 ADD SLOAD PUSH1 0xFF PUSH1 0x5 DUP5 ADD SLOAD AND PUSH1 0x6 DUP5 ADD SLOAD SWAP2 PUSH1 0x7 DUP6 ADD SLOAD SWAP4 PUSH1 0x9 PUSH1 0x8 DUP8 ADD SLOAD SWAP7 ADD SLOAD SWAP7 PUSH1 0x40 MLOAD SWAP11 DUP12 SWAP11 DUP12 PUSH2 0x4B44 JUMP JUMPDEST SUB SWAP1 RETURN JUMPDEST CALLVALUE PUSH2 0x1BC JUMPI PUSH1 0x20 CALLDATASIZE PUSH1 0x3 NOT ADD SLT PUSH2 0x1BC JUMPI PUSH1 0x4 CALLDATALOAD PUSH1 0x0 MSTORE PUSH1 0x6 PUSH1 0x20 MSTORE PUSH1 0x20 PUSH1 0xFF PUSH1 0x40 PUSH1 0x0 KECCAK256 SLOAD AND PUSH1 0x40 MLOAD SWAP1 ISZERO ISZERO DUP2 MSTORE RETURN JUMPDEST CALLVALUE PUSH2 0x1BC JUMPI PUSH1 0x40 CALLDATASIZE PUSH1 0x3 NOT ADD SLT PUSH2 0x1BC JUMPI PUSH2 0x1D2C PUSH2 0x4AD6 JUMP JUMPDEST PUSH2 0x1D34 PUSH2 0x4B02 JUMP JUMPDEST PUSH1 0x1 SLOAD PUSH1 0x40 MLOAD PUSH4 0x9CFD3699 PUSH1 0xE0 SHL DUP2 MSTORE CALLER PUSH1 0x4 DUP3 ADD MSTORE SWAP3 SWAP1 PUSH1 0x1 PUSH1 0x1 PUSH1 0xA0 SHL SUB AND PUSH1 0x20 DUP5 PUSH1 0x24 DUP2 DUP5 GAS STATICCALL SWAP4 DUP5 ISZERO PUSH2 0x73F JUMPI PUSH1 0x0 SWAP5 PUSH2 0x2032 JUMPI JUMPDEST POP PUSH1 0x20 PUSH1 0x24 SWAP2 PUSH1 0x40 MLOAD SWAP3 DUP4 DUP1 SWAP3 PUSH4 0x9EC802FF PUSH1 0xE0 SHL DUP3 MSTORE DUP9 PUSH1 0x4 DUP4 ADD MSTORE GAS STATICCALL SWAP1 DUP2 ISZERO PUSH2 0x73F JUMPI PUSH2 0x1DAA SWAP2 PUSH1 0x1 SWAP2 PUSH1 0x0 SWAP2 PUSH2 0x1BF2 JUMPI POP ISZERO ISZERO EQ PUSH2 0x4C30 JUMP JUMPDEST PUSH1 0x3 SLOAD PUSH1 0x40 MLOAD PUSH4 0x387BDD65 PUSH1 0xE2 SHL DUP2 MSTORE PUSH1 0x1 PUSH1 0x1 PUSH1 0xA0 SHL SUB DUP4 DUP2 AND PUSH1 0x4 DUP4 ADD MSTORE PUSH1 0x24 DUP3 ADD DUP7 SWAP1 MSTORE SWAP1 SWAP2 PUSH1 0x20 SWAP2 DUP4 SWAP2 PUSH1 0x44 SWAP2 DUP4 SWAP2 AND GAS STATICCALL SWAP1 DUP2 ISZERO PUSH2 0x73F JUMPI PUSH2 0x1DFE SWAP2 PUSH1 0x1 SWAP2 PUSH1 0x0 SWAP2 PUSH2 0x1BD3 JUMPI POP ISZERO ISZERO EQ PUSH2 0x4D41 JUMP JUMPDEST PUSH1 0x1 DUP1 PUSH1 0xA0 SHL SUB DUP2 AND PUSH1 0x0 MSTORE PUSH1 0x4 PUSH1 0x20 MSTORE PUSH1 0x40 PUSH1 0x0 KECCAK256 DUP4 PUSH1 0x0 MSTORE PUSH1 0x20 MSTORE PUSH1 0x40 PUSH1 0x0 KECCAK256 SLOAD SWAP2 DUP3 PUSH1 0x0 MSTORE PUSH1 0x5 PUSH1 0x20 MSTORE PUSH2 0x1E41 PUSH1 0x1 PUSH1 0xFF PUSH1 0x40 PUSH1 0x0 KECCAK256 SLOAD AND ISZERO ISZERO EQ PUSH2 0x4DA5 JUMP JUMPDEST DUP3 PUSH1 0x0 MSTORE PUSH1 0x7 PUSH1 0x20 MSTORE PUSH2 0x1E63 PUSH1 0x40 PUSH1 0x0 KECCAK256 SWAP5 PUSH2 0x193A PUSH1 0x40 MLOAD SWAP7 PUSH2 0x182C DUP9 PUSH2 0x4BD9 JUMP JUMPDEST PUSH1 0xC0 DUP5 ADD MLOAD ISZERO PUSH2 0x1FED JUMPI PUSH2 0x100 DUP5 ADD MLOAD PUSH2 0x1FA5 JUMPI PUSH2 0x1E8B PUSH2 0x12C PUSH2 0xAFC PUSH1 0xC0 DUP8 ADD MLOAD TIMESTAMP PUSH2 0x4EE3 JUMP JUMPDEST ISZERO DUP1 ISZERO PUSH1 0xE0 DUP6 ADD MSTORE TIMESTAMP PUSH2 0x100 DUP6 ADD MSTORE PUSH2 0x1F2C JUMPI JUMPDEST POP PUSH1 0x0 MSTORE PUSH1 0x7 PUSH1 0x20 MSTORE PUSH1 0x15 PUSH2 0x2A0 PUSH1 0x40 PUSH1 0x0 KECCAK256 SWAP3 DUP1 MLOAD DUP5 SSTORE PUSH1 0x1 DUP1 PUSH1 0xA0 SHL SUB PUSH1 0x20 DUP3 ADD MLOAD AND PUSH1 0x1 PUSH1 0x1 PUSH1 0x60 SHL SUB PUSH1 0xA0 SHL PUSH1 0x1 DUP7 ADD SLOAD AND OR PUSH1 0x1 DUP6 ADD SSTORE PUSH1 0x40 DUP2 ADD MLOAD PUSH1 0x2 DUP6 ADD SSTORE PUSH1 0x60 DUP2 ADD MLOAD PUSH1 0x3 DUP6 ADD SSTORE PUSH1 0x80 DUP2 ADD MLOAD PUSH1 0x4 DUP6 ADD SSTORE PUSH1 0xA0 DUP2 ADD MLOAD PUSH1 0x5 DUP6 ADD SSTORE PUSH1 0xC0 DUP2 ADD MLOAD PUSH1 0x6 DUP6 ADD SSTORE PUSH2 0xB94 PUSH1 0xE0 DUP3 ADD MLOAD ISZERO ISZERO PUSH1 0x7 DUP7 ADD SWAP1 PUSH1 0xFF DUP1 NOT DUP4 SLOAD AND SWAP2 ISZERO ISZERO AND OR SWAP1 SSTORE JUMP JUMPDEST DUP2 PUSH1 0x0 MSTORE PUSH1 0x6 PUSH1 0x20 MSTORE PUSH1 0x40 PUSH1 0x0 KECCAK256 PUSH1 0xFF NOT SWAP1 PUSH1 0x1 DUP3 DUP3 SLOAD AND OR SWAP1 SSTORE PUSH1 0x5 PUSH1 0x20 MSTORE PUSH1 0x40 PUSH1 0x0 KECCAK256 SWAP1 DUP2 SLOAD AND SWAP1 SSTORE PUSH1 0x0 DUP1 DUP1 DUP1 PUSH2 0x3E8 CALLER DUP3 CALL ISZERO PUSH2 0x73F JUMPI PUSH1 0x0 DUP1 DUP1 PUSH2 0x3E8 DUP2 SWAP5 PUSH1 0x1 DUP1 PUSH1 0xA0 SHL SUB AND DUP3 CALL ISZERO PUSH2 0x73F JUMPI PUSH2 0x3E8 PUSH2 0x240 DUP4 ADD MSTORE PUSH2 0x3E8 PUSH2 0x280 DUP4 ADD MSTORE TIMESTAMP PUSH2 0x260 DUP4 ADD MSTORE TIMESTAMP PUSH2 0x2A0 DUP4 ADD MSTORE DUP3 PUSH2 0x1E9F JUMP JUMPDEST PUSH1 0x40 MLOAD PUSH3 0x461BCD PUSH1 0xE5 SHL DUP2 MSTORE PUSH1 0x20 PUSH1 0x4 DUP3 ADD MSTORE PUSH1 0x2C PUSH1 0x24 DUP3 ADD MSTORE PUSH1 0x0 DUP1 MLOAD PUSH1 0x20 PUSH2 0x551B DUP4 CODECOPY DUP2 MLOAD SWAP2 MSTORE PUSH1 0x44 DUP3 ADD MSTORE PUSH12 0x20726573706F6E7365312121 PUSH1 0xA0 SHL PUSH1 0x64 DUP3 ADD MSTORE PUSH1 0x84 SWAP1 REVERT JUMPDEST PUSH1 0x40 MLOAD PUSH3 0x461BCD PUSH1 0xE5 SHL DUP2 MSTORE PUSH1 0x20 PUSH1 0x4 DUP3 ADD MSTORE PUSH1 0x1D PUSH1 0x24 DUP3 ADD MSTORE PUSH32 0x546865207061796572206E6F742079657420636F6D6D69747465642121000000 PUSH1 0x44 DUP3 ADD MSTORE PUSH1 0x64 SWAP1 REVERT JUMPDEST SWAP1 SWAP4 POP PUSH1 0x20 DUP2 RETURNDATASIZE PUSH1 0x20 GT PUSH2 0x205F JUMPI JUMPDEST DUP2 PUSH2 0x204E PUSH1 0x20 SWAP4 DUP4 PUSH2 0x4BF6 JUMP JUMPDEST DUP2 ADD SUB SLT PUSH2 0x1BC JUMPI MLOAD SWAP3 PUSH1 0x20 PUSH2 0x1D6D JUMP JUMPDEST RETURNDATASIZE SWAP2 POP PUSH2 0x2041 JUMP JUMPDEST PUSH1 0x40 CALLDATASIZE PUSH1 0x3 NOT ADD SLT PUSH2 0x1BC JUMPI PUSH1 0x4 CALLDATALOAD PUSH2 0x207E PUSH2 0x4AEC JUMP JUMPDEST SWAP1 DUP1 ISZERO ISZERO DUP1 PUSH2 0x22D7 JUMPI JUMPDEST PUSH2 0x2091 SWAP1 PUSH2 0x507B JUMP JUMPDEST DUP1 PUSH1 0x0 MSTORE PUSH1 0x20 SWAP2 PUSH1 0x9 DUP4 MSTORE PUSH2 0x20B2 PUSH1 0x1 PUSH1 0xFF PUSH1 0x40 PUSH1 0x0 KECCAK256 SLOAD AND ISZERO ISZERO EQ PUSH2 0x52BA JUMP JUMPDEST PUSH2 0x20BF PUSH2 0x3E8 CALLVALUE EQ PUSH2 0x50BB JUMP JUMPDEST PUSH1 0x1 SLOAD PUSH1 0x40 MLOAD PUSH4 0x9CFD3699 PUSH1 0xE0 SHL DUP2 MSTORE CALLER PUSH1 0x4 DUP3 ADD MSTORE SWAP1 PUSH1 0x1 PUSH1 0x1 PUSH1 0xA0 SHL SUB SWAP1 DUP6 SWAP1 DUP4 SWAP1 PUSH1 0x24 SWAP1 DUP3 SWAP1 DUP6 AND GAS STATICCALL SWAP2 DUP3 ISZERO PUSH2 0x73F JUMPI PUSH1 0x0 SWAP3 PUSH2 0x22A4 JUMPI JUMPDEST POP PUSH2 0x2B7 PUSH2 0x21AB SWAP4 DUP6 PUSH1 0x0 MSTORE PUSH1 0xC DUP8 MSTORE PUSH1 0x40 PUSH1 0x0 KECCAK256 SWAP3 DUP1 PUSH1 0x40 MLOAD PUSH2 0x211E DUP2 PUSH2 0x4B89 JUMP JUMPDEST PUSH2 0x21A1 DUP10 DUP8 SLOAD DUP1 DUP5 MSTORE DUP5 PUSH1 0x1 DUP11 ADD SLOAD AND SWAP4 DUP14 DUP2 ADD SWAP5 DUP6 MSTORE DUP6 PUSH1 0x2 DUP12 ADD SLOAD AND PUSH1 0x40 DUP3 ADD MSTORE PUSH2 0x140 PUSH1 0xA PUSH1 0x3 DUP13 ADD SLOAD SWAP12 PUSH1 0x60 DUP5 ADD SWAP13 DUP14 MSTORE PUSH1 0x4 DUP2 ADD SLOAD PUSH1 0x80 DUP6 ADD MSTORE PUSH1 0x5 DUP2 ADD SLOAD PUSH1 0xA0 DUP6 ADD MSTORE PUSH1 0x6 DUP2 ADD SLOAD PUSH1 0xC0 DUP6 ADD MSTORE PUSH1 0x7 DUP2 ADD SLOAD PUSH1 0xE0 DUP6 ADD MSTORE PUSH1 0x8 DUP2 ADD SLOAD PUSH2 0x100 DUP6 ADD MSTORE PUSH1 0xFF PUSH1 0x9 DUP3 ADD SLOAD AND ISZERO ISZERO PUSH2 0x120 DUP6 ADD MSTORE ADD SLOAD SWAP2 ADD MSTORE EQ PUSH2 0x5107 JUMP JUMPDEST MLOAD AND SWAP2 AND EQ PUSH2 0x5167 JUMP JUMPDEST DUP1 PUSH1 0x0 MSTORE PUSH1 0x8 DUP3 MSTORE PUSH2 0x21C0 PUSH1 0x40 PUSH1 0x0 KECCAK256 PUSH2 0x5342 JUMP JUMPDEST SWAP1 PUSH2 0x21CD DUP2 DUP4 MLOAD EQ PUSH2 0x53B7 JUMP JUMPDEST DUP3 DUP3 ADD DUP1 MLOAD ISZERO PUSH2 0x2253 JUMPI PUSH1 0x40 DUP4 ADD SWAP1 DUP2 MLOAD PUSH2 0x21FB JUMPI SWAP2 PUSH2 0x327 SWAP5 SWAP2 PUSH2 0x316 PUSH2 0x12C PUSH2 0x30F PUSH1 0x8 SWAP7 MLOAD TIMESTAMP PUSH2 0x4EE3 JUMP JUMPDEST PUSH1 0x40 MLOAD PUSH3 0x461BCD PUSH1 0xE5 SHL DUP2 MSTORE PUSH1 0x4 DUP2 ADD DUP7 SWAP1 MSTORE PUSH1 0x2A PUSH1 0x24 DUP3 ADD MSTORE PUSH32 0x546865206973737565722062616E6B20616C7265616479206C6F636B65642074 PUSH1 0x44 DUP3 ADD MSTORE PUSH10 0x6865206D6F6E65792121 PUSH1 0xB0 SHL PUSH1 0x64 DUP3 ADD MSTORE PUSH1 0x84 SWAP1 REVERT JUMPDEST PUSH1 0x40 MLOAD PUSH3 0x461BCD PUSH1 0xE5 SHL DUP2 MSTORE PUSH1 0x4 DUP2 ADD DUP6 SWAP1 MSTORE PUSH1 0x24 DUP1 DUP3 ADD MSTORE PUSH32 0x546865207061796572206E6F7420796574206C6F636B656420746865206D6F6E PUSH1 0x44 DUP3 ADD MSTORE PUSH4 0x65792121 PUSH1 0xE0 SHL PUSH1 0x64 DUP3 ADD MSTORE PUSH1 0x84 SWAP1 REVERT JUMPDEST SWAP3 SWAP2 POP DUP5 DUP4 DUP2 RETURNDATASIZE DUP4 GT PUSH2 0x22D0 JUMPI JUMPDEST PUSH2 0x22BC DUP2 DUP4 PUSH2 0x4BF6 JUMP JUMPDEST DUP2 ADD SUB SLT PUSH2 0x1BC JUMPI SWAP2 MLOAD SWAP1 SWAP2 PUSH2 0x2B7 PUSH2 0x20FB JUMP JUMPDEST POP RETURNDATASIZE PUSH2 0x22B2 JUMP JUMPDEST POP PUSH1 0xE SLOAD DUP2 GT ISZERO PUSH2 0x2088 JUMP JUMPDEST CALLVALUE PUSH2 0x1BC JUMPI PUSH1 0x60 CALLDATASIZE PUSH1 0x3 NOT ADD SLT PUSH2 0x1BC JUMPI PUSH2 0x22FC PUSH2 0x4AEC JUMP JUMPDEST PUSH1 0x1 SLOAD PUSH1 0x40 MLOAD PUSH4 0x9EC802FF PUSH1 0xE0 SHL DUP2 MSTORE PUSH1 0x4 DUP1 CALLDATALOAD SWAP1 DUP3 ADD MSTORE SWAP1 PUSH1 0x20 SWAP1 DUP3 SWAP1 PUSH1 0x24 SWAP1 DUP3 SWAP1 PUSH1 0x1 PUSH1 0x1 PUSH1 0xA0 SHL SUB AND GAS STATICCALL SWAP1 DUP2 ISZERO PUSH2 0x73F JUMPI PUSH2 0x2348 SWAP2 PUSH1 0x1 SWAP2 PUSH1 0x0 SWAP2 PUSH2 0x272D JUMPI POP ISZERO ISZERO EQ PUSH2 0x4C30 JUMP JUMPDEST PUSH1 0x3 SLOAD PUSH1 0x40 MLOAD PUSH4 0x387BDD65 PUSH1 0xE2 SHL DUP2 MSTORE CALLER PUSH1 0x4 DUP1 DUP4 ADD SWAP2 SWAP1 SWAP2 MSTORE CALLDATALOAD PUSH1 0x24 DUP3 ADD MSTORE SWAP1 PUSH1 0x20 SWAP1 DUP3 SWAP1 PUSH1 0x44 SWAP1 DUP3 SWAP1 PUSH1 0x1 PUSH1 0x1 PUSH1 0xA0 SHL SUB AND GAS STATICCALL SWAP1 DUP2 ISZERO PUSH2 0x73F JUMPI PUSH2 0x239C SWAP2 PUSH1 0x1 SWAP2 PUSH1 0x0 SWAP2 PUSH2 0x270E JUMPI POP ISZERO ISZERO EQ PUSH2 0x4C6F JUMP JUMPDEST CALLER PUSH1 0x0 MSTORE PUSH1 0x4 PUSH1 0x20 MSTORE PUSH1 0x40 PUSH1 0x0 KECCAK256 PUSH1 0x4 CALLDATALOAD PUSH1 0x0 MSTORE PUSH1 0x20 MSTORE PUSH1 0x40 PUSH1 0x0 KECCAK256 SLOAD DUP1 PUSH1 0x0 MSTORE PUSH1 0x5 PUSH1 0x20 MSTORE PUSH2 0x23D8 PUSH1 0x1 PUSH1 0xFF PUSH1 0x40 PUSH1 0x0 KECCAK256 SLOAD AND ISZERO ISZERO EQ PUSH2 0x4F33 JUMP JUMPDEST DUP1 PUSH1 0x0 MSTORE PUSH1 0x7 PUSH1 0x20 MSTORE PUSH1 0x40 PUSH1 0x0 KECCAK256 SWAP2 PUSH2 0x2507 PUSH1 0x40 MLOAD SWAP4 PUSH2 0x23F7 DUP6 PUSH2 0x4BD9 JUMP JUMPDEST DUP1 SLOAD DUP6 MSTORE PUSH1 0x15 PUSH1 0x1 DUP1 PUSH1 0xA0 SHL SUB PUSH1 0x1 DUP4 ADD SLOAD AND SWAP2 DUP3 PUSH1 0x20 DUP9 ADD MSTORE PUSH1 0x2 DUP2 ADD SLOAD PUSH1 0x40 DUP9 ADD MSTORE PUSH1 0x3 DUP2 ADD SLOAD PUSH1 0x60 DUP9 ADD MSTORE PUSH1 0x4 DUP2 ADD SLOAD PUSH1 0x80 DUP9 ADD MSTORE PUSH1 0x5 DUP2 ADD SLOAD PUSH1 0xA0 DUP9 ADD MSTORE PUSH1 0x6 DUP2 ADD SLOAD PUSH1 0xC0 DUP9 ADD MSTORE PUSH1 0xFF PUSH1 0x7 DUP3 ADD SLOAD AND ISZERO ISZERO PUSH1 0xE0 DUP9 ADD MSTORE PUSH1 0x8 DUP2 ADD SLOAD PUSH2 0x100 DUP9 ADD MSTORE PUSH1 0xFF PUSH1 0x9 DUP3 ADD SLOAD AND ISZERO ISZERO PUSH2 0x120 DUP9 ADD MSTORE PUSH1 0xA DUP2 ADD SLOAD PUSH2 0x140 DUP9 ADD MSTORE PUSH1 0xFF PUSH1 0xB DUP3 ADD SLOAD AND ISZERO ISZERO PUSH2 0x160 DUP9 ADD MSTORE PUSH1 0xC DUP2 ADD SLOAD PUSH2 0x180 DUP9 ADD MSTORE PUSH1 0x1 DUP1 PUSH1 0xA0 SHL SUB PUSH1 0xD DUP3 ADD SLOAD AND PUSH2 0x1A0 DUP9 ADD MSTORE PUSH1 0xE DUP2 ADD SLOAD PUSH2 0x1C0 DUP9 ADD MSTORE PUSH1 0xF DUP2 ADD SLOAD PUSH2 0x1E0 DUP9 ADD MSTORE PUSH1 0xFF PUSH1 0x10 DUP3 ADD SLOAD AND ISZERO ISZERO PUSH2 0x200 DUP9 ADD MSTORE PUSH1 0x11 DUP2 ADD SLOAD PUSH2 0x220 DUP9 ADD MSTORE PUSH1 0x12 DUP2 ADD SLOAD PUSH2 0x240 DUP9 ADD MSTORE PUSH1 0x13 DUP2 ADD SLOAD PUSH2 0x260 DUP9 ADD MSTORE PUSH1 0x14 DUP2 ADD SLOAD PUSH2 0x280 DUP9 ADD MSTORE ADD SLOAD PUSH2 0x2A0 DUP7 ADD MSTORE CALLER EQ PUSH2 0x4FB7 JUMP JUMPDEST PUSH2 0x2518 PUSH1 0x4 CALLDATALOAD PUSH1 0x40 DUP6 ADD MLOAD EQ PUSH2 0x501C JUMP JUMPDEST PUSH2 0x180 DUP4 ADD MLOAD ISZERO PUSH2 0x26BD JUMPI PUSH1 0x1 PUSH2 0x160 DUP5 ADD MLOAD ISZERO ISZERO SUB PUSH2 0x2652 JUMPI PUSH2 0x1E0 DUP4 ADD MLOAD PUSH2 0x25FB JUMPI PUSH2 0x2551 PUSH2 0x12C PUSH2 0xAFC PUSH2 0x180 DUP7 ADD MLOAD TIMESTAMP PUSH2 0x4EE3 JUMP JUMPDEST PUSH1 0x1 DUP1 PUSH1 0xA0 SHL SUB AND PUSH2 0x1A0 DUP4 ADD MSTORE PUSH1 0x44 CALLDATALOAD PUSH2 0x1C0 DUP4 ADD MSTORE TIMESTAMP PUSH2 0x1E0 DUP4 ADD MSTORE PUSH1 0x0 MSTORE PUSH1 0x7 PUSH1 0x20 MSTORE PUSH1 0x15 PUSH2 0x2A0 PUSH1 0x40 PUSH1 0x0 KECCAK256 SWAP3 DUP1 MLOAD DUP5 SSTORE PUSH1 0x1 DUP1 PUSH1 0xA0 SHL SUB PUSH1 0x20 DUP3 ADD MLOAD AND PUSH1 0x1 PUSH1 0x1 PUSH1 0x60 SHL SUB PUSH1 0xA0 SHL PUSH1 0x1 DUP7 ADD SLOAD AND OR PUSH1 0x1 DUP6 ADD SSTORE PUSH1 0x40 DUP2 ADD MLOAD PUSH1 0x2 DUP6 ADD SSTORE PUSH1 0x60 DUP2 ADD MLOAD PUSH1 0x3 DUP6 ADD SSTORE PUSH1 0x80 DUP2 ADD MLOAD PUSH1 0x4 DUP6 ADD SSTORE PUSH1 0xA0 DUP2 ADD MLOAD PUSH1 0x5 DUP6 ADD SSTORE PUSH1 0xC0 DUP2 ADD MLOAD PUSH1 0x6 DUP6 ADD SSTORE PUSH2 0xB94 PUSH1 0xE0 DUP3 ADD MLOAD ISZERO ISZERO PUSH1 0x7 DUP7 ADD SWAP1 PUSH1 0xFF DUP1 NOT DUP4 SLOAD AND SWAP2 ISZERO ISZERO AND OR SWAP1 SSTORE JUMP JUMPDEST PUSH1 0x40 MLOAD PUSH3 0x461BCD PUSH1 0xE5 SHL DUP2 MSTORE PUSH1 0x20 PUSH1 0x4 DUP3 ADD MSTORE PUSH1 0x29 PUSH1 0x24 DUP3 ADD MSTORE PUSH32 0x5468652070617965722068617320616C72656164792072657175657374656420 PUSH1 0x44 DUP3 ADD MSTORE PUSH9 0x6120746F6B656E2121 PUSH1 0xB8 SHL PUSH1 0x64 DUP3 ADD MSTORE PUSH1 0x84 SWAP1 REVERT JUMPDEST PUSH1 0x40 MLOAD PUSH3 0x461BCD PUSH1 0xE5 SHL DUP2 MSTORE PUSH1 0x20 PUSH1 0x4 DUP3 ADD MSTORE PUSH1 0x38 PUSH1 0x24 DUP3 ADD MSTORE PUSH32 0x5468652042616E6B206D656E74696F6E65642074686174207468652043617264 PUSH1 0x44 DUP3 ADD MSTORE PUSH32 0x2069732063757272656E746C7920696E61637469766521210000000000000000 PUSH1 0x64 DUP3 ADD MSTORE PUSH1 0x84 SWAP1 REVERT JUMPDEST PUSH1 0x40 MLOAD PUSH3 0x461BCD PUSH1 0xE5 SHL DUP2 MSTORE PUSH1 0x20 PUSH1 0x4 DUP3 ADD MSTORE PUSH1 0x24 DUP1 DUP3 ADD MSTORE PUSH32 0x4973737565722062616E6B206E6F74207965742073656E7420726573706F6E73 PUSH1 0x44 DUP3 ADD MSTORE PUSH4 0x65332121 PUSH1 0xE0 SHL PUSH1 0x64 DUP3 ADD MSTORE PUSH1 0x84 SWAP1 REVERT JUMPDEST PUSH2 0x2727 SWAP2 POP PUSH1 0x20 RETURNDATASIZE PUSH1 0x20 GT PUSH2 0xD52 JUMPI PUSH2 0xD44 DUP2 DUP4 PUSH2 0x4BF6 JUMP JUMPDEST DUP5 PUSH2 0x1010 JUMP JUMPDEST PUSH2 0x2746 SWAP2 POP PUSH1 0x20 RETURNDATASIZE PUSH1 0x20 GT PUSH2 0xD52 JUMPI PUSH2 0xD44 DUP2 DUP4 PUSH2 0x4BF6 JUMP JUMPDEST DUP5 PUSH2 0x8EE JUMP JUMPDEST CALLVALUE PUSH2 0x1BC JUMPI PUSH1 0x0 CALLDATASIZE PUSH1 0x3 NOT ADD SLT PUSH2 0x1BC JUMPI PUSH1 0x20 PUSH1 0x40 MLOAD PUSH2 0x12C DUP2 MSTORE RETURN JUMPDEST CALLVALUE PUSH2 0x1BC JUMPI PUSH1 0x40 CALLDATASIZE PUSH1 0x3 NOT ADD SLT PUSH2 0x1BC JUMPI PUSH2 0x2782 PUSH2 0x4AEC JUMP JUMPDEST PUSH1 0x4 CALLDATALOAD ISZERO ISZERO DUP1 PUSH2 0x2B20 JUMPI JUMPDEST PUSH2 0x2796 SWAP1 PUSH2 0x507B JUMP JUMPDEST PUSH1 0x1 SLOAD PUSH1 0x40 MLOAD PUSH4 0x9CFD3699 PUSH1 0xE0 SHL DUP2 MSTORE CALLER PUSH1 0x4 DUP3 ADD MSTORE SWAP1 PUSH1 0x20 SWAP1 DUP3 SWAP1 PUSH1 0x24 SWAP1 DUP3 SWAP1 PUSH1 0x1 PUSH1 0x1 PUSH1 0xA0 SHL SUB AND GAS STATICCALL DUP1 ISZERO PUSH2 0x73F JUMPI PUSH1 0x0 SWAP1 PUSH2 0x2AEC JUMPI JUMPDEST PUSH2 0x2898 SWAP2 POP PUSH1 0x4 CALLDATALOAD PUSH1 0x0 MSTORE PUSH1 0xC PUSH1 0x20 MSTORE PUSH2 0x51F PUSH1 0x40 PUSH1 0x0 KECCAK256 SWAP4 PUSH2 0x2880 PUSH1 0x40 MLOAD SWAP6 PUSH2 0x27F9 DUP8 PUSH2 0x4B89 JUMP JUMPDEST DUP1 SLOAD DUP1 DUP9 MSTORE PUSH1 0x1 DUP3 ADD SLOAD PUSH1 0x1 PUSH1 0x1 PUSH1 0xA0 SHL SUB SWAP1 DUP2 AND PUSH1 0x20 DUP11 ADD MSTORE PUSH1 0x2 DUP4 ADD SLOAD AND PUSH1 0x40 DUP10 ADD MSTORE PUSH1 0x3 DUP3 ADD SLOAD PUSH1 0x60 DUP10 ADD MSTORE PUSH1 0x4 DUP1 DUP4 ADD SLOAD PUSH1 0x80 DUP11 ADD MSTORE PUSH1 0x5 DUP4 ADD SLOAD PUSH1 0xA0 DUP11 ADD MSTORE PUSH1 0x6 DUP4 ADD SLOAD PUSH1 0xC0 DUP11 ADD MSTORE PUSH1 0x7 DUP4 ADD SLOAD PUSH1 0xE0 DUP11 ADD MSTORE PUSH1 0x8 DUP4 ADD SLOAD PUSH2 0x100 DUP11 ADD MSTORE PUSH1 0x9 DUP4 ADD SLOAD PUSH1 0xFF AND ISZERO ISZERO PUSH2 0x120 DUP11 ADD MSTORE PUSH1 0xA SWAP1 SWAP3 ADD SLOAD PUSH2 0x140 DUP10 ADD MSTORE SWAP1 CALLDATALOAD EQ PUSH2 0x5107 JUMP JUMPDEST PUSH1 0x20 DUP6 ADD MLOAD PUSH1 0x1 PUSH1 0x1 PUSH1 0xA0 SHL SUB SWAP2 DUP3 AND SWAP2 AND EQ PUSH2 0x5167 JUMP JUMPDEST PUSH2 0x100 DUP2 ADD MLOAD ISZERO PUSH2 0x2A95 JUMPI PUSH2 0x140 DUP2 ADD MLOAD PUSH2 0x2A1F JUMPI PUSH2 0x12C PUSH2 0x28BF PUSH2 0x100 DUP4 ADD MLOAD TIMESTAMP PUSH2 0x4EE3 JUMP JUMPDEST GT PUSH2 0x29DA JUMPI PUSH2 0x29D5 PUSH32 0xC084B0AF0FE52A81FDE243CBA85BFF878C1E785E6E58C2B454A4D6BC8381FEFF SWAP2 TIMESTAMP PUSH2 0x140 DUP3 ADD MSTORE PUSH1 0x1 PUSH2 0x120 DUP3 ADD MSTORE PUSH1 0x4 CALLDATALOAD PUSH1 0x0 MSTORE PUSH1 0xC PUSH1 0x20 MSTORE PUSH1 0x40 PUSH1 0x0 KECCAK256 DUP2 MLOAD DUP2 SSTORE PUSH1 0xA PUSH2 0x140 PUSH1 0x1 DUP4 ADD SWAP4 PUSH1 0x1 DUP1 PUSH1 0xA0 SHL SUB PUSH1 0x20 DUP3 ADD MLOAD AND SWAP5 PUSH1 0x1 PUSH1 0x1 PUSH1 0x60 SHL SUB PUSH1 0xA0 SHL SWAP1 DUP7 DUP3 DUP3 SLOAD AND OR SWAP1 SSTORE PUSH1 0x2 DUP6 ADD SWAP1 PUSH1 0x1 DUP1 PUSH1 0xA0 SHL SUB PUSH1 0x40 DUP5 ADD MLOAD AND SWAP1 DUP3 SLOAD AND OR SWAP1 SSTORE PUSH1 0x60 DUP2 ADD MLOAD PUSH1 0x3 DUP6 ADD SSTORE PUSH1 0x80 DUP2 ADD MLOAD PUSH1 0x4 DUP6 ADD SSTORE PUSH1 0xA0 DUP2 ADD MLOAD PUSH1 0x5 DUP6 ADD SSTORE PUSH1 0xC0 DUP2 ADD MLOAD PUSH1 0x6 DUP6 ADD SSTORE PUSH1 0xE0 DUP2 ADD MLOAD PUSH1 0x7 DUP6 ADD SSTORE PUSH2 0x100 DUP2 ADD MLOAD PUSH1 0x8 DUP6 ADD SSTORE PUSH2 0x29AE PUSH2 0x120 DUP3 ADD MLOAD ISZERO ISZERO PUSH1 0x9 DUP7 ADD SWAP1 PUSH1 0xFF DUP1 NOT DUP4 SLOAD AND SWAP2 ISZERO ISZERO AND OR SWAP1 SSTORE JUMP JUMPDEST ADD MLOAD SWAP2 ADD SSTORE PUSH1 0x40 DUP1 MLOAD PUSH1 0x1 PUSH1 0x1 PUSH1 0xA0 SHL SUB SWAP1 SWAP3 AND DUP3 MSTORE PUSH1 0x4 CALLDATALOAD PUSH1 0x20 DUP4 ADD MSTORE SWAP1 SWAP2 DUP3 SWAP2 DUP3 ADD SWAP1 JUMP JUMPDEST SUB SWAP1 LOG1 STOP JUMPDEST PUSH1 0x40 MLOAD PUSH3 0x461BCD PUSH1 0xE5 SHL DUP2 MSTORE PUSH1 0x20 PUSH1 0x4 DUP3 ADD MSTORE PUSH1 0x1D PUSH1 0x24 DUP3 ADD MSTORE PUSH32 0x54696D65206C696D6974206E6F74207965742065786365656465642121000000 PUSH1 0x44 DUP3 ADD MSTORE PUSH1 0x64 SWAP1 REVERT JUMPDEST PUSH1 0x40 MLOAD PUSH3 0x461BCD PUSH1 0xE5 SHL DUP2 MSTORE PUSH1 0x20 PUSH1 0x4 DUP3 ADD MSTORE PUSH1 0x42 PUSH1 0x24 DUP3 ADD MSTORE PUSH32 0x546865206973737565722062616E6B2068617320616C72656164792072657370 PUSH1 0x44 DUP3 ADD MSTORE PUSH32 0x6F6E64656420726567617264696E672074686520726566756E20616D6F756E74 PUSH1 0x64 DUP3 ADD MSTORE PUSH2 0x2121 PUSH1 0xF0 SHL PUSH1 0x84 DUP3 ADD MSTORE PUSH1 0xA4 SWAP1 REVERT JUMPDEST PUSH1 0x40 MLOAD PUSH3 0x461BCD PUSH1 0xE5 SHL DUP2 MSTORE PUSH1 0x20 PUSH1 0x4 DUP3 ADD MSTORE PUSH1 0x29 PUSH1 0x24 DUP3 ADD MSTORE PUSH32 0x546865207061796572206E6F742079657420706C6163656420726566756E6420 PUSH1 0x44 DUP3 ADD MSTORE PUSH9 0x726571756573742121 PUSH1 0xB8 SHL PUSH1 0x64 DUP3 ADD MSTORE PUSH1 0x84 SWAP1 REVERT JUMPDEST POP PUSH1 0x20 DUP2 RETURNDATASIZE PUSH1 0x20 GT PUSH2 0x2B18 JUMPI JUMPDEST DUP2 PUSH2 0x2B06 PUSH1 0x20 SWAP4 DUP4 PUSH2 0x4BF6 JUMP JUMPDEST DUP2 ADD SUB SLT PUSH2 0x1BC JUMPI PUSH2 0x2898 SWAP1 MLOAD PUSH2 0x27D0 JUMP JUMPDEST RETURNDATASIZE SWAP2 POP PUSH2 0x2AF9 JUMP JUMPDEST POP PUSH1 0xE SLOAD PUSH1 0x4 CALLDATALOAD GT ISZERO PUSH2 0x278D JUMP JUMPDEST CALLVALUE PUSH2 0x1BC JUMPI PUSH1 0x40 CALLDATASIZE PUSH1 0x3 NOT ADD SLT PUSH2 0x1BC JUMPI PUSH1 0x1 PUSH1 0x1 PUSH1 0xA0 SHL SUB PUSH2 0x2B4F PUSH2 0x4AD6 JUMP JUMPDEST AND PUSH1 0x0 MSTORE PUSH1 0x4 PUSH1 0x20 MSTORE PUSH1 0x40 PUSH1 0x0 KECCAK256 PUSH1 0x24 CALLDATALOAD PUSH1 0x0 MSTORE PUSH1 0x20 MSTORE PUSH1 0x20 PUSH1 0x40 PUSH1 0x0 KECCAK256 SLOAD PUSH1 0x40 MLOAD SWAP1 DUP2 MSTORE RETURN JUMPDEST CALLVALUE PUSH2 0x1BC JUMPI PUSH1 0x0 CALLDATASIZE PUSH1 0x3 NOT ADD SLT PUSH2 0x1BC JUMPI PUSH1 0x20 PUSH1 0xD SLOAD PUSH1 0x40 MLOAD SWAP1 DUP2 MSTORE RETURN JUMPDEST CALLVALUE PUSH2 0x1BC JUMPI PUSH1 0x20 CALLDATASIZE PUSH1 0x3 NOT ADD SLT PUSH2 0x1BC JUMPI PUSH1 0x4 CALLDATALOAD PUSH1 0x0 MSTORE PUSH1 0xA PUSH1 0x20 MSTORE PUSH1 0x40 PUSH1 0x0 KECCAK256 DUP1 SLOAD PUSH2 0x1CDE PUSH1 0x1 DUP4 ADD SLOAD SWAP3 PUSH1 0x2 DUP2 ADD SLOAD SWAP1 PUSH1 0x3 DUP2 ADD SLOAD PUSH1 0x4 DUP3 ADD SLOAD PUSH1 0xFF PUSH1 0x5 DUP5 ADD SLOAD AND PUSH1 0x6 DUP5 ADD SLOAD SWAP2 PUSH1 0x7 DUP6 ADD SLOAD SWAP4 PUSH1 0x9 PUSH1 0x8 DUP8 ADD SLOAD SWAP7 ADD SLOAD SWAP7 PUSH1 0x40 MLOAD SWAP11 DUP12 SWAP11 DUP12 PUSH2 0x4B44 JUMP JUMPDEST CALLVALUE PUSH2 0x1BC JUMPI PUSH1 0x20 CALLDATASIZE PUSH1 0x3 NOT ADD SLT PUSH2 0x1BC JUMPI PUSH1 0x4 CALLDATALOAD PUSH1 0x0 MSTORE PUSH1 0x5 PUSH1 0x20 MSTORE PUSH1 0x20 PUSH1 0xFF PUSH1 0x40 PUSH1 0x0 KECCAK256 SLOAD AND PUSH1 0x40 MLOAD SWAP1 ISZERO ISZERO DUP2 MSTORE RETURN JUMPDEST CALLVALUE PUSH2 0x1BC JUMPI PUSH1 0x0 CALLDATASIZE PUSH1 0x3 NOT ADD SLT PUSH2 0x1BC JUMPI PUSH1 0x20 PUSH1 0xE SLOAD PUSH1 0x40 MLOAD SWAP1 DUP2 MSTORE RETURN JUMPDEST CALLVALUE PUSH2 0x1BC JUMPI PUSH1 0x40 CALLDATASIZE PUSH1 0x3 NOT ADD SLT PUSH2 0x1BC JUMPI PUSH2 0x2C63 PUSH2 0x4AD6 JUMP JUMPDEST PUSH2 0x2C6B PUSH2 0x4B02 JUMP JUMPDEST PUSH1 0x1 SLOAD PUSH1 0x40 MLOAD PUSH4 0x9CFD3699 PUSH1 0xE0 SHL DUP2 MSTORE CALLER PUSH1 0x4 DUP3 ADD MSTORE SWAP3 SWAP1 PUSH1 0x1 PUSH1 0x1 PUSH1 0xA0 SHL SUB AND PUSH1 0x20 DUP5 PUSH1 0x24 DUP2 DUP5 GAS STATICCALL SWAP4 DUP5 ISZERO PUSH2 0x73F JUMPI PUSH1 0x0 SWAP5 PUSH2 0x2F8B JUMPI JUMPDEST POP PUSH1 0x20 PUSH1 0x24 SWAP2 PUSH1 0x40 MLOAD SWAP3 DUP4 DUP1 SWAP3 PUSH4 0x9EC802FF PUSH1 0xE0 SHL DUP3 MSTORE DUP9 PUSH1 0x4 DUP4 ADD MSTORE GAS STATICCALL SWAP1 DUP2 ISZERO PUSH2 0x73F JUMPI PUSH2 0x2CE1 SWAP2 PUSH1 0x1 SWAP2 PUSH1 0x0 SWAP2 PUSH2 0x1BF2 JUMPI POP ISZERO ISZERO EQ PUSH2 0x4C30 JUMP JUMPDEST PUSH1 0x3 SLOAD PUSH1 0x40 MLOAD PUSH4 0x387BDD65 PUSH1 0xE2 SHL DUP2 MSTORE PUSH1 0x1 PUSH1 0x1 PUSH1 0xA0 SHL SUB DUP4 DUP2 AND PUSH1 0x4 DUP4 ADD MSTORE PUSH1 0x24 DUP3 ADD DUP7 SWAP1 MSTORE SWAP1 SWAP2 PUSH1 0x20 SWAP2 DUP4 SWAP2 PUSH1 0x44 SWAP2 DUP4 SWAP2 AND GAS STATICCALL SWAP1 DUP2 ISZERO PUSH2 0x73F JUMPI PUSH2 0x2D35 SWAP2 PUSH1 0x1 SWAP2 PUSH1 0x0 SWAP2 PUSH2 0x1BD3 JUMPI POP ISZERO ISZERO EQ PUSH2 0x4D41 JUMP JUMPDEST PUSH1 0x1 DUP1 PUSH1 0xA0 SHL SUB DUP2 AND PUSH1 0x0 MSTORE PUSH1 0x4 PUSH1 0x20 MSTORE PUSH1 0x40 PUSH1 0x0 KECCAK256 DUP4 PUSH1 0x0 MSTORE PUSH1 0x20 MSTORE PUSH1 0x40 PUSH1 0x0 KECCAK256 SLOAD SWAP2 DUP3 PUSH1 0x0 MSTORE PUSH1 0x5 PUSH1 0x20 MSTORE PUSH2 0x2D78 PUSH1 0x1 PUSH1 0xFF PUSH1 0x40 PUSH1 0x0 KECCAK256 SLOAD AND ISZERO ISZERO EQ PUSH2 0x4DA5 JUMP JUMPDEST DUP3 PUSH1 0x0 MSTORE PUSH1 0x7 PUSH1 0x20 MSTORE PUSH2 0x2D9A PUSH1 0x40 PUSH1 0x0 KECCAK256 SWAP5 PUSH2 0x193A PUSH1 0x40 MLOAD SWAP7 PUSH2 0x182C DUP9 PUSH2 0x4BD9 JUMP JUMPDEST PUSH2 0x100 DUP5 ADD MLOAD ISZERO PUSH2 0x2F31 JUMPI PUSH1 0x1 PUSH1 0xE0 DUP6 ADD MLOAD ISZERO ISZERO SUB PUSH2 0x2EBB JUMPI PUSH2 0x140 DUP5 ADD MLOAD PUSH2 0x2E73 JUMPI PUSH2 0x2DD2 PUSH2 0x12C PUSH2 0xAFC PUSH2 0x100 DUP8 ADD MLOAD TIMESTAMP PUSH2 0x4EE3 JUMP JUMPDEST ISZERO DUP1 ISZERO PUSH2 0x120 DUP6 ADD MSTORE TIMESTAMP PUSH2 0x140 DUP6 ADD MSTORE PUSH2 0x1F2C JUMPI POP PUSH1 0x0 MSTORE PUSH1 0x7 PUSH1 0x20 MSTORE PUSH1 0x15 PUSH2 0x2A0 PUSH1 0x40 PUSH1 0x0 KECCAK256 SWAP3 DUP1 MLOAD DUP5 SSTORE PUSH1 0x1 DUP1 PUSH1 0xA0 SHL SUB PUSH1 0x20 DUP3 ADD MLOAD AND PUSH1 0x1 PUSH1 0x1 PUSH1 0x60 SHL SUB PUSH1 0xA0 SHL PUSH1 0x1 DUP7 ADD SLOAD AND OR PUSH1 0x1 DUP6 ADD SSTORE PUSH1 0x40 DUP2 ADD MLOAD PUSH1 0x2 DUP6 ADD SSTORE PUSH1 0x60 DUP2 ADD MLOAD PUSH1 0x3 DUP6 ADD SSTORE PUSH1 0x80 DUP2 ADD MLOAD PUSH1 0x4 DUP6 ADD SSTORE PUSH1 0xA0 DUP2 ADD MLOAD PUSH1 0x5 DUP6 ADD SSTORE PUSH1 0xC0 DUP2 ADD MLOAD PUSH1 0x6 DUP6 ADD SSTORE PUSH2 0xB94 PUSH1 0xE0 DUP3 ADD MLOAD ISZERO ISZERO PUSH1 0x7 DUP7 ADD SWAP1 PUSH1 0xFF DUP1 NOT DUP4 SLOAD AND SWAP2 ISZERO ISZERO AND OR SWAP1 SSTORE JUMP JUMPDEST PUSH1 0x40 MLOAD PUSH3 0x461BCD PUSH1 0xE5 SHL DUP2 MSTORE PUSH1 0x20 PUSH1 0x4 DUP3 ADD MSTORE PUSH1 0x2C PUSH1 0x24 DUP3 ADD MSTORE PUSH1 0x0 DUP1 MLOAD PUSH1 0x20 PUSH2 0x551B DUP4 CODECOPY DUP2 MLOAD SWAP2 MSTORE PUSH1 0x44 DUP3 ADD MSTORE PUSH12 0x20726573706F6E7365322121 PUSH1 0xA0 SHL PUSH1 0x64 DUP3 ADD MSTORE PUSH1 0x84 SWAP1 REVERT JUMPDEST PUSH1 0x40 MLOAD PUSH3 0x461BCD PUSH1 0xE5 SHL DUP2 MSTORE PUSH1 0x20 PUSH1 0x4 DUP3 ADD MSTORE PUSH1 0x42 PUSH1 0x24 DUP3 ADD MSTORE PUSH32 0x596F752063616E27742063616C6C20746869732066756E6374696F6E20617320 PUSH1 0x44 DUP3 ADD MSTORE PUSH32 0x7468652070726576696F757320726573706F6E736531207761732066616C7365 PUSH1 0x64 DUP3 ADD MSTORE PUSH2 0x2121 PUSH1 0xF0 SHL PUSH1 0x84 DUP3 ADD MSTORE PUSH1 0xA4 SWAP1 REVERT JUMPDEST PUSH1 0x40 MLOAD PUSH3 0x461BCD PUSH1 0xE5 SHL DUP2 MSTORE PUSH1 0x20 PUSH1 0x4 DUP3 ADD MSTORE PUSH1 0x2C PUSH1 0x24 DUP3 ADD MSTORE PUSH32 0x546865206973737565722062616E6B206E6F74207965742073656E7420746865 PUSH1 0x44 DUP3 ADD MSTORE PUSH12 0x20726573706F6E7365312121 PUSH1 0xA0 SHL PUSH1 0x64 DUP3 ADD MSTORE PUSH1 0x84 SWAP1 REVERT JUMPDEST SWAP1 SWAP4 POP PUSH1 0x20 DUP2 RETURNDATASIZE PUSH1 0x20 GT PUSH2 0x2FB8 JUMPI JUMPDEST DUP2 PUSH2 0x2FA7 PUSH1 0x20 SWAP4 DUP4 PUSH2 0x4BF6 JUMP JUMPDEST DUP2 ADD SUB SLT PUSH2 0x1BC JUMPI MLOAD SWAP3 PUSH1 0x20 PUSH2 0x2CA4 JUMP JUMPDEST RETURNDATASIZE SWAP2 POP PUSH2 0x2F9A JUMP JUMPDEST CALLVALUE PUSH2 0x1BC JUMPI PUSH2 0x2FCE CALLDATASIZE PUSH2 0x4AC0 JUMP JUMPDEST SWAP1 DUP1 ISZERO ISZERO DUP1 PUSH2 0x31CB JUMPI JUMPDEST PUSH2 0x2FE1 SWAP1 PUSH2 0x507B JUMP JUMPDEST DUP1 PUSH1 0x0 MSTORE PUSH2 0x30BD PUSH1 0x20 SWAP3 PUSH1 0xB DUP5 MSTORE PUSH2 0x3005 PUSH1 0x1 PUSH1 0xFF PUSH1 0x40 PUSH1 0x0 KECCAK256 SLOAD AND ISZERO ISZERO EQ PUSH2 0x5446 JUMP JUMPDEST DUP3 PUSH1 0x0 MSTORE PUSH1 0xC DUP5 MSTORE PUSH1 0x40 PUSH1 0x0 KECCAK256 PUSH2 0x30B6 PUSH1 0x40 MLOAD PUSH2 0x3021 DUP2 PUSH2 0x4B89 JUMP JUMPDEST DUP3 SLOAD SWAP1 DUP2 DUP2 MSTORE PUSH2 0x30AD DUP8 PUSH1 0x1 DUP1 PUSH1 0xA0 SHL SUB SWAP4 DUP5 PUSH1 0x1 DUP9 ADD SLOAD AND DUP12 DUP6 ADD MSTORE DUP5 PUSH1 0x2 DUP9 ADD SLOAD AND SWAP4 PUSH1 0x40 DUP2 ADD SWAP5 DUP6 MSTORE PUSH1 0x3 DUP9 ADD SLOAD PUSH1 0x60 DUP3 ADD MSTORE PUSH1 0x4 DUP9 ADD SLOAD PUSH1 0x80 DUP3 ADD MSTORE PUSH1 0x5 DUP9 ADD SLOAD PUSH1 0xA0 DUP3 ADD MSTORE PUSH2 0x140 PUSH1 0xA PUSH1 0x6 DUP11 ADD SLOAD SWAP10 PUSH1 0xC0 DUP5 ADD SWAP11 DUP12 MSTORE PUSH1 0x7 DUP2 ADD SLOAD PUSH1 0xE0 DUP6 ADD MSTORE PUSH1 0x8 DUP2 ADD SLOAD PUSH2 0x100 DUP6 ADD MSTORE PUSH1 0xFF PUSH1 0x9 DUP3 ADD SLOAD AND ISZERO ISZERO PUSH2 0x120 DUP6 ADD MSTORE ADD SLOAD SWAP2 ADD MSTORE EQ PUSH2 0x5107 JUMP JUMPDEST MLOAD AND CALLER EQ PUSH2 0x53FA JUMP JUMPDEST MLOAD EQ PUSH2 0x54CE JUMP JUMPDEST DUP1 PUSH1 0x0 MSTORE PUSH1 0xA DUP3 MSTORE PUSH2 0x30D2 PUSH1 0x40 PUSH1 0x0 KECCAK256 PUSH2 0x5342 JUMP JUMPDEST SWAP1 PUSH2 0x30DF DUP2 DUP4 MLOAD EQ PUSH2 0x53B7 JUMP JUMPDEST PUSH1 0x40 DUP3 ADD DUP1 MLOAD ISZERO PUSH2 0x3171 JUMPI PUSH1 0x60 DUP4 ADD SWAP1 DUP2 MLOAD PUSH2 0x310E JUMPI SWAP2 PUSH2 0x327 SWAP5 SWAP2 PUSH2 0x316 PUSH2 0x12C PUSH2 0x30F PUSH1 0xA SWAP7 MLOAD TIMESTAMP PUSH2 0x4EE3 JUMP JUMPDEST PUSH1 0x40 MLOAD PUSH3 0x461BCD PUSH1 0xE5 SHL DUP2 MSTORE PUSH1 0x4 DUP2 ADD DUP7 SWAP1 MSTORE PUSH1 0x35 PUSH1 0x24 DUP3 ADD MSTORE PUSH32 0x5468652070617965652068617320616C72656164792072657175657374656420 PUSH1 0x44 DUP3 ADD MSTORE PUSH21 0x3A379032BC32B1BABA32903A3432903A37B5B2B717 PUSH1 0x59 SHL PUSH1 0x64 DUP3 ADD MSTORE PUSH1 0x84 SWAP1 REVERT JUMPDEST PUSH1 0x40 MLOAD PUSH3 0x461BCD PUSH1 0xE5 SHL DUP2 MSTORE PUSH1 0x4 DUP2 ADD DUP6 SWAP1 MSTORE PUSH1 0x2C PUSH1 0x24 DUP3 ADD MSTORE PUSH32 0x5468652061637175697265722062616E6B206E6F7420796574206C6F636B6564 PUSH1 0x44 DUP3 ADD MSTORE PUSH12 0x20746865206D6F6E65792121 PUSH1 0xA0 SHL PUSH1 0x64 DUP3 ADD MSTORE PUSH1 0x84 SWAP1 REVERT JUMPDEST POP PUSH1 0xE SLOAD DUP2 GT ISZERO PUSH2 0x2FD8 JUMP JUMPDEST CALLVALUE PUSH2 0x1BC JUMPI PUSH2 0x31E5 CALLDATASIZE PUSH2 0x4B11 JUMP JUMPDEST SWAP2 DUP1 ISZERO ISZERO DUP1 PUSH2 0x35D1 JUMPI JUMPDEST PUSH2 0x31F8 SWAP1 PUSH2 0x507B JUMP JUMPDEST DUP1 PUSH1 0x0 MSTORE PUSH1 0xB PUSH1 0x20 MSTORE PUSH2 0x3217 PUSH1 0x1 PUSH1 0xFF PUSH1 0x40 PUSH1 0x0 KECCAK256 SLOAD AND ISZERO ISZERO EQ PUSH2 0x5446 JUMP JUMPDEST PUSH1 0x1 SLOAD PUSH1 0x40 MLOAD PUSH4 0x9CFD3699 PUSH1 0xE0 SHL DUP2 MSTORE CALLER PUSH1 0x4 DUP3 ADD MSTORE SWAP1 PUSH1 0x20 SWAP1 DUP3 SWAP1 PUSH1 0x24 SWAP1 DUP3 SWAP1 PUSH1 0x1 PUSH1 0x1 PUSH1 0xA0 SHL SUB AND GAS STATICCALL SWAP1 DUP2 ISZERO PUSH2 0x73F JUMPI PUSH1 0x0 SWAP2 PUSH2 0x359F JUMPI JUMPDEST POP DUP2 PUSH1 0x0 MSTORE PUSH1 0xC PUSH1 0x20 MSTORE PUSH2 0x329D PUSH1 0x40 PUSH1 0x0 KECCAK256 SWAP2 PUSH2 0x3276 DUP5 PUSH1 0x40 MLOAD SWAP5 PUSH2 0x47F DUP7 PUSH2 0x4B89 JUMP JUMPDEST PUSH1 0x40 DUP4 ADD MLOAD PUSH2 0x3292 SWAP1 PUSH1 0x1 PUSH1 0x1 PUSH1 0xA0 SHL SUB DUP8 DUP2 AND SWAP2 AND EQ PUSH2 0x53FA JUMP JUMPDEST PUSH1 0xC0 DUP4 ADD MLOAD EQ PUSH2 0x51B3 JUMP JUMPDEST DUP2 PUSH1 0x0 MSTORE PUSH1 0xA PUSH1 0x20 MSTORE PUSH2 0x32B3 PUSH1 0x40 PUSH1 0x0 KECCAK256 PUSH2 0x5342 JUMP JUMPDEST SWAP3 PUSH2 0x32C0 DUP4 DUP6 MLOAD EQ PUSH2 0x53B7 JUMP JUMPDEST PUSH1 0x60 DUP5 ADD MLOAD ISZERO PUSH2 0x353F JUMPI PUSH1 0x80 DUP5 ADD MLOAD PUSH2 0x34AE JUMPI PUSH2 0x12C PUSH2 0x32E4 PUSH1 0x60 DUP7 ADD MLOAD TIMESTAMP PUSH2 0x4EE3 JUMP JUMPDEST GT PUSH2 0x3474 JUMPI PUSH2 0x3E8 SWAP5 PUSH1 0x0 DUP1 DUP1 DUP1 DUP10 PUSH1 0x1 PUSH1 0x1 PUSH1 0xA0 SHL SUB DUP8 AND DUP3 CALL ISZERO PUSH2 0x73F JUMPI PUSH1 0x0 DUP1 DUP1 DUP1 DUP10 CALLER DUP3 CALL ISZERO PUSH2 0x73F JUMPI PUSH1 0x1 DUP5 SWAP2 PUSH2 0x3356 SWAP8 TIMESTAMP PUSH1 0xE0 DUP10 ADD MSTORE TIMESTAMP PUSH2 0x120 DUP10 ADD MSTORE DUP1 PUSH1 0xC0 DUP10 ADD MSTORE PUSH2 0x100 DUP9 ADD MSTORE ISZERO ISZERO DUP1 PUSH1 0xA0 DUP9 ADD MSTORE EQ PUSH2 0x336A JUMPI JUMPDEST POP POP POP PUSH1 0x0 MSTORE PUSH1 0xA PUSH1 0x20 MSTORE PUSH1 0x40 PUSH1 0x0 KECCAK256 PUSH2 0x5242 JUMP JUMPDEST PUSH1 0xB PUSH1 0x20 MSTORE PUSH1 0x40 PUSH1 0x0 KECCAK256 DUP1 SLOAD PUSH1 0xFF NOT AND SWAP1 SSTORE STOP JUMPDEST TIMESTAMP PUSH1 0x80 DUP7 ADD DUP2 SWAP1 MSTORE PUSH1 0xE0 DUP5 ADD MSTORE PUSH1 0x40 DUP1 MLOAD PUSH1 0x1 PUSH1 0x1 PUSH1 0xA0 SHL SUB SWAP4 SWAP1 SWAP4 AND DUP4 MSTORE PUSH1 0x20 DUP4 ADD SWAP2 SWAP1 SWAP2 MSTORE PUSH32 0xF390DC07A0CD3B3B7D65DF1E784E40D833EC2FC45829DDEF5D0AFB955C5768B5 SWAP2 LOG1 DUP2 PUSH1 0x0 MSTORE PUSH1 0xC PUSH1 0x20 MSTORE PUSH1 0xA PUSH2 0x140 PUSH1 0x40 PUSH1 0x0 KECCAK256 SWAP3 DUP1 MLOAD DUP5 SSTORE PUSH1 0x1 DUP5 ADD PUSH1 0x1 DUP1 PUSH1 0xA0 SHL SUB PUSH1 0x20 DUP4 ADD MLOAD AND SWAP1 PUSH1 0x1 PUSH1 0x1 PUSH1 0x60 SHL SUB PUSH1 0xA0 SHL SWAP2 DUP3 DUP3 SLOAD AND OR SWAP1 SSTORE PUSH1 0x2 DUP6 ADD SWAP1 PUSH1 0x1 DUP1 PUSH1 0xA0 SHL SUB PUSH1 0x40 DUP5 ADD MLOAD AND SWAP1 DUP3 SLOAD AND OR SWAP1 SSTORE PUSH1 0x60 DUP2 ADD MLOAD PUSH1 0x3 DUP6 ADD SSTORE PUSH1 0x80 DUP2 ADD MLOAD PUSH1 0x4 DUP6 ADD SSTORE PUSH1 0xA0 DUP2 ADD MLOAD PUSH1 0x5 DUP6 ADD SSTORE PUSH1 0xC0 DUP2 ADD MLOAD PUSH1 0x6 DUP6 ADD SSTORE PUSH1 0xE0 DUP2 ADD MLOAD PUSH1 0x7 DUP6 ADD SSTORE PUSH2 0x100 DUP2 ADD MLOAD PUSH1 0x8 DUP6 ADD SSTORE PUSH2 0x3467 PUSH2 0x120 DUP3 ADD MLOAD ISZERO ISZERO PUSH1 0x9 DUP7 ADD SWAP1 PUSH1 0xFF DUP1 NOT DUP4 SLOAD AND SWAP2 ISZERO ISZERO AND OR SWAP1 SSTORE JUMP JUMPDEST ADD MLOAD SWAP2 ADD SSTORE DUP4 DUP1 DUP3 PUSH2 0x3341 JUMP JUMPDEST PUSH1 0x40 MLOAD PUSH3 0x461BCD PUSH1 0xE5 SHL DUP2 MSTORE PUSH1 0x20 PUSH1 0x4 DUP3 ADD MSTORE PUSH1 0x12 PUSH1 0x24 DUP3 ADD MSTORE PUSH18 0x54696D656C696D6974204578636565647321 PUSH1 0x70 SHL PUSH1 0x44 DUP3 ADD MSTORE PUSH1 0x64 SWAP1 REVERT JUMPDEST PUSH1 0x40 MLOAD PUSH3 0x461BCD PUSH1 0xE5 SHL DUP2 MSTORE PUSH1 0x20 PUSH1 0x4 DUP3 ADD MSTORE PUSH1 0x5B PUSH1 0x24 DUP3 ADD MSTORE PUSH32 0x5468652061637175697265722062616E6B20616C726561647920636F6E666972 PUSH1 0x44 DUP3 ADD MSTORE PUSH32 0x6D656420746861742074686520746F6B656E20616D6F756E7420776173206372 PUSH1 0x64 DUP3 ADD MSTORE PUSH32 0x65646974656420746F2070617965652773206163636F756E7421210000000000 PUSH1 0x84 DUP3 ADD MSTORE PUSH1 0xA4 SWAP1 REVERT JUMPDEST PUSH1 0x40 MLOAD PUSH3 0x461BCD PUSH1 0xE5 SHL DUP2 MSTORE PUSH1 0x20 PUSH1 0x4 DUP3 ADD MSTORE PUSH1 0x32 PUSH1 0x24 DUP3 ADD MSTORE PUSH32 0x546865207061796565206E6F74207965742072657175657374656420746F2065 PUSH1 0x44 DUP3 ADD MSTORE PUSH18 0x7865637574652074686520746F6B656E2121 PUSH1 0x70 SHL PUSH1 0x64 DUP3 ADD MSTORE PUSH1 0x84 SWAP1 REVERT JUMPDEST SWAP1 POP PUSH1 0x20 DUP2 RETURNDATASIZE PUSH1 0x20 GT PUSH2 0x35C9 JUMPI JUMPDEST DUP2 PUSH2 0x35BA PUSH1 0x20 SWAP4 DUP4 PUSH2 0x4BF6 JUMP JUMPDEST DUP2 ADD SUB SLT PUSH2 0x1BC JUMPI MLOAD DUP5 PUSH2 0x3252 JUMP JUMPDEST RETURNDATASIZE SWAP2 POP PUSH2 0x35AD JUMP JUMPDEST POP PUSH1 0xE SLOAD DUP2 GT ISZERO PUSH2 0x31EF JUMP JUMPDEST PUSH1 0x40 CALLDATASIZE PUSH1 0x3 NOT ADD SLT PUSH2 0x1BC JUMPI PUSH1 0x4 CALLDATALOAD PUSH2 0x35F4 PUSH2 0x4AEC JUMP JUMPDEST SWAP1 DUP1 ISZERO ISZERO DUP1 PUSH2 0x386A JUMPI JUMPDEST PUSH2 0x3607 SWAP1 PUSH2 0x507B JUMP JUMPDEST DUP1 PUSH1 0x0 MSTORE PUSH1 0x20 SWAP2 PUSH1 0xB DUP4 MSTORE PUSH2 0x3628 PUSH1 0x1 PUSH1 0xFF PUSH1 0x40 PUSH1 0x0 KECCAK256 SLOAD AND ISZERO ISZERO EQ PUSH2 0x5446 JUMP JUMPDEST PUSH2 0x3635 PUSH2 0x3E8 CALLVALUE EQ PUSH2 0x50BB JUMP JUMPDEST PUSH1 0x1 SLOAD PUSH1 0x40 MLOAD PUSH4 0x9CFD3699 PUSH1 0xE0 SHL DUP2 MSTORE CALLER PUSH1 0x4 DUP3 ADD MSTORE SWAP1 PUSH1 0x1 PUSH1 0x1 PUSH1 0xA0 SHL SUB SWAP1 DUP6 SWAP1 DUP4 SWAP1 PUSH1 0x24 SWAP1 DUP3 SWAP1 DUP6 AND GAS STATICCALL SWAP2 DUP3 ISZERO PUSH2 0x73F JUMPI PUSH1 0x0 SWAP3 PUSH2 0x3837 JUMPI JUMPDEST POP PUSH2 0x30B6 PUSH2 0x3721 SWAP4 DUP6 PUSH1 0x0 MSTORE PUSH1 0xC DUP8 MSTORE PUSH1 0x40 PUSH1 0x0 KECCAK256 SWAP3 DUP1 PUSH1 0x40 MLOAD PUSH2 0x3694 DUP2 PUSH2 0x4B89 JUMP JUMPDEST PUSH2 0x3717 DUP10 DUP8 SLOAD DUP1 DUP5 MSTORE DUP5 PUSH1 0x1 DUP11 ADD SLOAD AND DUP14 DUP6 ADD MSTORE DUP5 PUSH1 0x2 DUP11 ADD SLOAD AND SWAP4 PUSH1 0x40 DUP2 ADD SWAP5 DUP6 MSTORE PUSH1 0x3 DUP11 ADD SLOAD PUSH1 0x60 DUP3 ADD MSTORE PUSH1 0x4 DUP11 ADD SLOAD PUSH1 0x80 DUP3 ADD MSTORE PUSH1 0x5 DUP11 ADD SLOAD PUSH1 0xA0 DUP3 ADD MSTORE PUSH2 0x140 PUSH1 0xA PUSH1 0x6 DUP13 ADD SLOAD SWAP12 PUSH1 0xC0 DUP5 ADD SWAP13 DUP14 MSTORE PUSH1 0x7 DUP2 ADD SLOAD PUSH1 0xE0 DUP6 ADD MSTORE PUSH1 0x8 DUP2 ADD SLOAD PUSH2 0x100 DUP6 ADD MSTORE PUSH1 0xFF PUSH1 0x9 DUP3 ADD SLOAD AND ISZERO ISZERO PUSH2 0x120 DUP6 ADD MSTORE ADD SLOAD SWAP2 ADD MSTORE EQ PUSH2 0x5107 JUMP JUMPDEST MLOAD AND SWAP2 AND EQ PUSH2 0x53FA JUMP JUMPDEST DUP1 PUSH1 0x0 MSTORE PUSH1 0xA DUP3 MSTORE PUSH2 0x3736 PUSH1 0x40 PUSH1 0x0 KECCAK256 PUSH2 0x5342 JUMP JUMPDEST SWAP1 PUSH2 0x3743 DUP2 DUP4 MLOAD EQ PUSH2 0x53B7 JUMP JUMPDEST DUP3 DUP3 ADD DUP1 MLOAD ISZERO PUSH2 0x37DC JUMPI PUSH1 0x40 DUP4 ADD SWAP1 DUP2 MLOAD PUSH2 0x3771 JUMPI SWAP2 PUSH2 0x327 SWAP5 SWAP2 PUSH2 0x316 PUSH2 0x12C PUSH2 0x30F PUSH1 0xA SWAP7 MLOAD TIMESTAMP PUSH2 0x4EE3 JUMP JUMPDEST PUSH1 0x40 MLOAD PUSH3 0x461BCD PUSH1 0xE5 SHL DUP2 MSTORE PUSH1 0x4 DUP2 ADD DUP7 SWAP1 MSTORE PUSH1 0x39 PUSH1 0x24 DUP3 ADD MSTORE PUSH32 0x5468652061637175697265722062616E6B2068617320616C7265616479206C6F PUSH1 0x44 DUP3 ADD MSTORE PUSH32 0x636B656420746865207365637572697479206D6F6E6579212100000000000000 PUSH1 0x64 DUP3 ADD MSTORE PUSH1 0x84 SWAP1 REVERT JUMPDEST PUSH1 0x40 MLOAD PUSH3 0x461BCD PUSH1 0xE5 SHL DUP2 MSTORE PUSH1 0x4 DUP2 ADD DUP6 SWAP1 MSTORE PUSH1 0x2D PUSH1 0x24 DUP3 ADD MSTORE PUSH32 0x546865207061796565206E6F7420796574206C6F636B65642074686520736563 PUSH1 0x44 DUP3 ADD MSTORE PUSH13 0x7572697479206D6F6E65792121 PUSH1 0x98 SHL PUSH1 0x64 DUP3 ADD MSTORE PUSH1 0x84 SWAP1 REVERT JUMPDEST SWAP3 SWAP2 POP DUP5 DUP4 DUP2 RETURNDATASIZE DUP4 GT PUSH2 0x3863 JUMPI JUMPDEST PUSH2 0x384F DUP2 DUP4 PUSH2 0x4BF6 JUMP JUMPDEST DUP2 ADD SUB SLT PUSH2 0x1BC JUMPI SWAP2 MLOAD SWAP1 SWAP2 PUSH2 0x30B6 PUSH2 0x3671 JUMP JUMPDEST POP RETURNDATASIZE PUSH2 0x3845 JUMP JUMPDEST POP PUSH1 0xE SLOAD DUP2 GT ISZERO PUSH2 0x35FE JUMP JUMPDEST CALLVALUE PUSH2 0x1BC JUMPI PUSH1 0x0 CALLDATASIZE PUSH1 0x3 NOT ADD SLT PUSH2 0x1BC JUMPI PUSH1 0x2 SLOAD PUSH1 0x40 MLOAD PUSH1 0x1 PUSH1 0x1 PUSH1 0xA0 SHL SUB SWAP1 SWAP2 AND DUP2 MSTORE PUSH1 0x20 SWAP1 RETURN JUMPDEST PUSH2 0x38A8 CALLDATASIZE PUSH2 0x4AC0 JUMP JUMPDEST SWAP1 PUSH1 0x24 PUSH1 0x20 PUSH1 0x1 DUP1 PUSH1 0xA0 SHL SUB PUSH1 0x1 SLOAD AND PUSH1 0x40 MLOAD SWAP3 DUP4 DUP1 SWAP3 PUSH4 0x9EC802FF PUSH1 0xE0 SHL DUP3 MSTORE DUP8 PUSH1 0x4 DUP4 ADD MSTORE GAS STATICCALL SWAP1 DUP2 ISZERO PUSH2 0x73F JUMPI PUSH2 0x38EF SWAP2 PUSH1 0x1 SWAP2 PUSH1 0x0 SWAP2 PUSH2 0xD59 JUMPI POP ISZERO ISZERO EQ PUSH2 0x4C30 JUMP JUMPDEST PUSH1 0x3 SLOAD PUSH1 0x40 MLOAD PUSH4 0x387BDD65 PUSH1 0xE2 SHL DUP2 MSTORE CALLER PUSH1 0x4 DUP3 ADD MSTORE PUSH1 0x24 DUP2 ADD DUP5 SWAP1 MSTORE SWAP1 PUSH1 0x20 SWAP1 DUP3 SWAP1 PUSH1 0x44 SWAP1 DUP3 SWAP1 PUSH1 0x1 PUSH1 0x1 PUSH1 0xA0 SHL SUB AND GAS STATICCALL DUP1 ISZERO PUSH2 0x73F JUMPI PUSH1 0x1 SWAP2 PUSH1 0x0 SWAP2 PUSH2 0x3CBE JUMPI JUMPDEST POP ISZERO ISZERO SUB PUSH2 0x3C64 JUMPI DUP1 ISZERO ISZERO DUP1 PUSH2 0x3C58 JUMPI JUMPDEST PUSH2 0x394D SWAP1 PUSH2 0x507B JUMP JUMPDEST DUP1 PUSH1 0x0 MSTORE PUSH1 0xB PUSH1 0x20 MSTORE PUSH1 0xFF PUSH1 0x40 PUSH1 0x0 KECCAK256 SLOAD AND PUSH2 0x3BD3 JUMPI PUSH2 0x3970 PUSH2 0x3E8 CALLVALUE EQ PUSH2 0x50BB JUMP JUMPDEST DUP1 PUSH1 0x0 MSTORE PUSH1 0xC PUSH1 0x20 MSTORE PUSH1 0x40 PUSH1 0x0 KECCAK256 PUSH2 0x3A13 DUP3 PUSH1 0x40 MLOAD SWAP3 PUSH2 0x398F DUP5 PUSH2 0x4B89 JUMP JUMPDEST DUP1 SLOAD DUP1 DUP6 MSTORE PUSH1 0x1 DUP3 ADD SLOAD PUSH1 0x1 PUSH1 0x1 PUSH1 0xA0 SHL SUB SWAP1 DUP2 AND PUSH1 0x20 DUP8 ADD MSTORE PUSH1 0x2 DUP4 ADD SLOAD AND PUSH1 0x40 DUP7 ADD MSTORE PUSH1 0x3 DUP3 ADD SLOAD PUSH1 0x60 DUP7 ADD MSTORE PUSH1 0x4 DUP3 ADD SLOAD PUSH1 0x80 DUP7 ADD MSTORE PUSH1 0x5 DUP3 ADD SLOAD PUSH1 0xA0 DUP7 ADD MSTORE PUSH1 0x6 DUP3 ADD SLOAD PUSH1 0xC0 DUP7 ADD MSTORE PUSH1 0x7 DUP3 ADD SLOAD PUSH1 0xE0 DUP7 ADD MSTORE PUSH1 0x8 DUP3 ADD SLOAD PUSH2 0x100 DUP7 ADD MSTORE PUSH1 0x9 DUP3 ADD SLOAD PUSH1 0xFF AND ISZERO ISZERO PUSH2 0x120 DUP7 ADD MSTORE PUSH1 0xA SWAP1 SWAP2 ADD SLOAD PUSH2 0x140 DUP6 ADD MSTORE EQ PUSH2 0x5107 JUMP JUMPDEST PUSH1 0x40 DUP2 ADD MLOAD PUSH2 0x3A2C SWAP1 PUSH1 0x1 PUSH1 0x1 PUSH1 0xA0 SHL SUB AND CALLER EQ PUSH2 0x53FA JUMP JUMPDEST PUSH1 0xA0 DUP2 ADD MLOAD ISZERO PUSH2 0x3B84 JUMPI PUSH2 0x3B6D SWAP3 PUSH2 0x3A4E PUSH2 0x12C PUSH2 0x30F PUSH1 0xA0 DUP6 ADD MLOAD TIMESTAMP PUSH2 0x4EE3 JUMP JUMPDEST PUSH1 0xC0 DUP3 ADD MSTORE DUP2 PUSH1 0x0 MSTORE PUSH1 0xC PUSH1 0x20 MSTORE PUSH1 0xA PUSH2 0x140 PUSH1 0x40 PUSH1 0x0 KECCAK256 SWAP3 DUP1 MLOAD DUP5 SSTORE PUSH1 0x1 DUP5 ADD PUSH1 0x1 DUP1 PUSH1 0xA0 SHL SUB PUSH1 0x20 DUP4 ADD MLOAD AND SWAP1 PUSH1 0x1 PUSH1 0x1 PUSH1 0x60 SHL SUB PUSH1 0xA0 SHL SWAP2 DUP3 DUP3 SLOAD AND OR SWAP1 SSTORE PUSH1 0x2 DUP6 ADD SWAP1 PUSH1 0x1 DUP1 PUSH1 0xA0 SHL SUB PUSH1 0x40 DUP5 ADD MLOAD AND SWAP1 DUP3 SLOAD AND OR SWAP1 SSTORE PUSH1 0x60 DUP2 ADD MLOAD PUSH1 0x3 DUP6 ADD SSTORE PUSH1 0x80 DUP2 ADD MLOAD PUSH1 0x4 DUP6 ADD SSTORE PUSH1 0xA0 DUP2 ADD MLOAD PUSH1 0x5 DUP6 ADD SSTORE PUSH1 0xC0 DUP2 ADD MLOAD PUSH1 0x6 DUP6 ADD SSTORE PUSH1 0xE0 DUP2 ADD MLOAD PUSH1 0x7 DUP6 ADD SSTORE PUSH2 0x100 DUP2 ADD MLOAD PUSH1 0x8 DUP6 ADD SSTORE PUSH2 0x3B06 PUSH2 0x120 DUP3 ADD MLOAD ISZERO ISZERO PUSH1 0x9 DUP7 ADD SWAP1 PUSH1 0xFF DUP1 NOT DUP4 SLOAD AND SWAP2 ISZERO ISZERO AND OR SWAP1 SSTORE JUMP JUMPDEST ADD MLOAD SWAP2 ADD SSTORE PUSH1 0x40 MLOAD SWAP1 PUSH2 0x3B18 DUP3 PUSH2 0x4BBC JUMP JUMPDEST DUP1 DUP3 MSTORE TIMESTAMP PUSH1 0x20 DUP4 ADD MSTORE PUSH1 0x0 PUSH1 0x40 DUP4 ADD MSTORE PUSH1 0x0 PUSH1 0x60 DUP4 ADD MSTORE PUSH1 0x0 PUSH1 0x80 DUP4 ADD MSTORE PUSH1 0x0 PUSH1 0xA0 DUP4 ADD MSTORE PUSH1 0x0 PUSH1 0xC0 DUP4 ADD MSTORE PUSH1 0x0 PUSH1 0xE0 DUP4 ADD MSTORE PUSH1 0x0 PUSH2 0x100 DUP4 ADD MSTORE PUSH1 0x0 PUSH2 0x120 DUP4 ADD MSTORE PUSH1 0x0 MSTORE PUSH1 0xA PUSH1 0x20 MSTORE PUSH1 0x40 PUSH1 0x0 KECCAK256 PUSH2 0x5242 JUMP JUMPDEST PUSH1 0xB PUSH1 0x20 MSTORE PUSH1 0x40 PUSH1 0x0 KECCAK256 DUP1 SLOAD PUSH1 0xFF NOT AND PUSH1 0x1 OR SWAP1 SSTORE STOP JUMPDEST PUSH1 0x40 MLOAD PUSH3 0x461BCD PUSH1 0xE5 SHL DUP2 MSTORE PUSH1 0x20 PUSH1 0x4 DUP3 ADD MSTORE PUSH1 0x21 PUSH1 0x24 DUP3 ADD MSTORE PUSH32 0x546F6B656E20616D6F756E74206973206E6F7420796574206465626974656421 PUSH1 0x44 DUP3 ADD MSTORE PUSH1 0x21 PUSH1 0xF8 SHL PUSH1 0x64 DUP3 ADD MSTORE PUSH1 0x84 SWAP1 REVERT JUMPDEST PUSH1 0x40 MLOAD PUSH3 0x461BCD PUSH1 0xE5 SHL DUP2 MSTORE PUSH1 0x20 PUSH1 0x4 DUP3 ADD MSTORE PUSH1 0x51 PUSH1 0x24 DUP3 ADD MSTORE PUSH32 0x546F6B656E206578637574696F6E20666F7220706179656520636F7272657370 PUSH1 0x44 DUP3 ADD MSTORE PUSH32 0x6F6E64696E6720746F207468697320746F6B656E494420697320616C72656164 PUSH1 0x64 DUP3 ADD MSTORE PUSH17 0x7920756E6465722070726F636573732121 PUSH1 0x78 SHL PUSH1 0x84 DUP3 ADD MSTORE PUSH1 0xA4 SWAP1 REVERT JUMPDEST POP PUSH1 0xE SLOAD DUP2 GT ISZERO PUSH2 0x3944 JUMP JUMPDEST PUSH1 0x40 MLOAD PUSH3 0x461BCD PUSH1 0xE5 SHL DUP2 MSTORE PUSH1 0x20 PUSH1 0x4 DUP3 ADD MSTORE PUSH1 0x2C PUSH1 0x24 DUP3 ADD MSTORE PUSH32 0x546865207061796565206973206E6F7420726567697374657265642077697468 PUSH1 0x44 DUP3 ADD MSTORE PUSH12 0x20746869732062616E6B2121 PUSH1 0xA0 SHL PUSH1 0x64 DUP3 ADD MSTORE PUSH1 0x84 SWAP1 REVERT JUMPDEST PUSH2 0x3CD7 SWAP2 POP PUSH1 0x20 RETURNDATASIZE PUSH1 0x20 GT PUSH2 0xD52 JUMPI PUSH2 0xD44 DUP2 DUP4 PUSH2 0x4BF6 JUMP JUMPDEST DUP5 PUSH2 0x3933 JUMP JUMPDEST CALLVALUE PUSH2 0x1BC JUMPI PUSH1 0x0 CALLDATASIZE PUSH1 0x3 NOT ADD SLT PUSH2 0x1BC JUMPI PUSH1 0x0 SLOAD PUSH1 0x40 MLOAD PUSH1 0x1 PUSH1 0x1 PUSH1 0xA0 SHL SUB SWAP1 SWAP2 AND DUP2 MSTORE PUSH1 0x20 SWAP1 RETURN JUMPDEST CALLVALUE PUSH2 0x1BC JUMPI PUSH1 0x0 CALLDATASIZE PUSH1 0x3 NOT ADD SLT PUSH2 0x1BC JUMPI PUSH1 0x20 PUSH1 0x40 MLOAD PUSH2 0x3E8 DUP2 MSTORE RETURN JUMPDEST PUSH1 0x20 CALLDATASIZE PUSH1 0x3 NOT ADD SLT PUSH2 0x1BC JUMPI PUSH1 0x1 SLOAD PUSH1 0x40 MLOAD PUSH4 0x9EC802FF PUSH1 0xE0 SHL DUP2 MSTORE PUSH1 0x4 DUP1 CALLDATALOAD SWAP1 DUP3 ADD MSTORE SWAP1 PUSH1 0x20 SWAP1 DUP3 SWAP1 PUSH1 0x24 SWAP1 DUP3 SWAP1 PUSH1 0x1 PUSH1 0x1 PUSH1 0xA0 SHL SUB AND GAS STATICCALL SWAP1 DUP2 ISZERO PUSH2 0x73F JUMPI PUSH2 0x3D7B SWAP2 PUSH1 0x1 SWAP2 PUSH1 0x0 SWAP2 PUSH2 0x130E JUMPI POP ISZERO ISZERO EQ PUSH2 0x4C30 JUMP JUMPDEST PUSH1 0x3 SLOAD PUSH1 0x40 MLOAD PUSH4 0x387BDD65 PUSH1 0xE2 SHL DUP2 MSTORE CALLER PUSH1 0x4 DUP1 DUP4 ADD SWAP2 SWAP1 SWAP2 MSTORE CALLDATALOAD PUSH1 0x24 DUP3 ADD MSTORE SWAP1 PUSH1 0x20 SWAP1 DUP3 SWAP1 PUSH1 0x44 SWAP1 DUP3 SWAP1 PUSH1 0x1 PUSH1 0x1 PUSH1 0xA0 SHL SUB AND GAS STATICCALL SWAP1 DUP2 ISZERO PUSH2 0x73F JUMPI PUSH2 0x3DCF SWAP2 PUSH1 0x1 SWAP2 PUSH1 0x0 SWAP2 PUSH2 0x12EF JUMPI POP ISZERO ISZERO EQ PUSH2 0x4C6F JUMP JUMPDEST CALLER PUSH1 0x0 MSTORE PUSH1 0x4 PUSH1 0x20 MSTORE PUSH1 0x40 PUSH1 0x0 KECCAK256 PUSH1 0x4 CALLDATALOAD PUSH1 0x0 MSTORE PUSH1 0x20 MSTORE PUSH1 0x40 PUSH1 0x0 KECCAK256 SLOAD PUSH1 0x0 MSTORE PUSH1 0x5 PUSH1 0x20 MSTORE PUSH1 0xFF PUSH1 0x40 PUSH1 0x0 KECCAK256 SLOAD AND PUSH2 0x40D9 JUMPI PUSH2 0x3E0E PUSH2 0x3E8 CALLVALUE EQ PUSH2 0x4CD0 JUMP JUMPDEST PUSH2 0x3E19 PUSH1 0xD SLOAD PUSH2 0x4D1C JUMP JUMPDEST DUP1 PUSH1 0xD SSTORE CALLER PUSH1 0x0 MSTORE PUSH1 0x4 PUSH1 0x20 MSTORE PUSH1 0x40 PUSH1 0x0 KECCAK256 PUSH1 0x4 CALLDATALOAD PUSH1 0x0 MSTORE PUSH1 0x20 MSTORE DUP1 PUSH1 0x40 PUSH1 0x0 KECCAK256 SSTORE DUP1 PUSH1 0x0 MSTORE PUSH1 0x7 PUSH1 0x20 MSTORE PUSH1 0x40 PUSH1 0x0 KECCAK256 SWAP1 PUSH1 0x15 PUSH1 0x40 MLOAD SWAP3 PUSH2 0x3E59 DUP5 PUSH2 0x4BD9 JUMP JUMPDEST PUSH1 0x4 DUP2 ADD SLOAD PUSH1 0x80 DUP6 ADD MSTORE PUSH1 0x5 DUP2 ADD SLOAD PUSH1 0xA0 DUP6 ADD MSTORE PUSH1 0x6 DUP2 ADD SLOAD PUSH1 0xC0 DUP6 ADD MSTORE PUSH1 0xFF PUSH1 0x7 DUP3 ADD SLOAD AND ISZERO ISZERO PUSH1 0xE0 DUP6 ADD MSTORE PUSH1 0x8 DUP2 ADD SLOAD PUSH2 0x100 DUP6 ADD MSTORE PUSH1 0xFF PUSH1 0x9 DUP3 ADD SLOAD AND ISZERO ISZERO PUSH2 0x120 DUP6 ADD MSTORE PUSH1 0xA DUP2 ADD SLOAD PUSH2 0x140 DUP6 ADD MSTORE PUSH1 0xFF PUSH1 0xB DUP3 ADD SLOAD AND ISZERO ISZERO PUSH2 0x160 DUP6 ADD MSTORE PUSH1 0xC DUP2 ADD SLOAD PUSH2 0x180 DUP6 ADD MSTORE PUSH1 0x1 DUP1 PUSH1 0xA0 SHL SUB PUSH1 0xD DUP3 ADD SLOAD AND PUSH2 0x1A0 DUP6 ADD MSTORE PUSH1 0xE DUP2 ADD SLOAD PUSH2 0x1C0 DUP6 ADD MSTORE PUSH1 0xF DUP2 ADD SLOAD PUSH2 0x1E0 DUP6 ADD MSTORE PUSH1 0xFF PUSH1 0x10 DUP3 ADD SLOAD AND ISZERO ISZERO PUSH2 0x200 DUP6 ADD MSTORE PUSH1 0x11 DUP2 ADD SLOAD PUSH2 0x220 DUP6 ADD MSTORE PUSH1 0x12 DUP2 ADD SLOAD PUSH2 0x240 DUP6 ADD MSTORE PUSH1 0x13 DUP2 ADD SLOAD PUSH2 0x260 DUP6 ADD MSTORE PUSH1 0x14 DUP2 ADD SLOAD PUSH2 0x280 DUP6 ADD MSTORE ADD SLOAD PUSH2 0x2A0 DUP4 ADD MSTORE DUP1 DUP3 MSTORE CALLER PUSH1 0x20 DUP4 ADD MSTORE PUSH1 0x4 CALLDATALOAD PUSH1 0x40 DUP4 ADD MSTORE TIMESTAMP PUSH1 0x60 DUP4 ADD MSTORE PUSH1 0x0 MSTORE PUSH1 0x7 PUSH1 0x20 MSTORE PUSH1 0x15 PUSH2 0x2A0 PUSH1 0x40 PUSH1 0x0 KECCAK256 SWAP3 DUP1 MLOAD DUP5 SSTORE PUSH1 0x1 DUP1 PUSH1 0xA0 SHL SUB PUSH1 0x20 DUP3 ADD MLOAD AND PUSH1 0x1 PUSH1 0x1 PUSH1 0x60 SHL SUB PUSH1 0xA0 SHL PUSH1 0x1 DUP7 ADD SLOAD AND OR PUSH1 0x1 DUP6 ADD SSTORE PUSH1 0x40 DUP2 ADD MLOAD PUSH1 0x2 DUP6 ADD SSTORE PUSH1 0x60 DUP2 ADD MLOAD PUSH1 0x3 DUP6 ADD SSTORE PUSH1 0x80 DUP2 ADD MLOAD PUSH1 0x4 DUP6 ADD SSTORE PUSH1 0xA0 DUP2 ADD MLOAD PUSH1 0x5 DUP6 ADD SSTORE PUSH1 0xC0 DUP2 ADD MLOAD PUSH1 0x6 DUP6 ADD SSTORE PUSH2 0x3FD7 PUSH1 0xE0 DUP3 ADD MLOAD ISZERO ISZERO PUSH1 0x7 DUP7 ADD SWAP1 PUSH1 0xFF DUP1 NOT DUP4 SLOAD AND SWAP2 ISZERO ISZERO AND OR SWAP1 SSTORE JUMP JUMPDEST PUSH2 0x100 DUP2 ADD MLOAD PUSH1 0x8 DUP6 ADD SSTORE PUSH2 0x4002 PUSH2 0x120 DUP3 ADD MLOAD ISZERO ISZERO PUSH1 0x9 DUP7 ADD SWAP1 PUSH1 0xFF DUP1 NOT DUP4 SLOAD AND SWAP2 ISZERO ISZERO AND OR SWAP1 SSTORE JUMP JUMPDEST PUSH2 0x140 DUP2 ADD MLOAD PUSH1 0xA DUP6 ADD SSTORE PUSH2 0x402D PUSH2 0x160 DUP3 ADD MLOAD ISZERO ISZERO PUSH1 0xB DUP7 ADD SWAP1 PUSH1 0xFF DUP1 NOT DUP4 SLOAD AND SWAP2 ISZERO ISZERO AND OR SWAP1 SSTORE JUMP JUMPDEST PUSH2 0x180 DUP2 ADD MLOAD PUSH1 0xC DUP6 ADD SSTORE PUSH1 0xD DUP5 ADD PUSH1 0x1 DUP1 PUSH1 0xA0 SHL SUB PUSH2 0x1A0 DUP4 ADD MLOAD AND PUSH1 0x1 PUSH1 0x1 PUSH1 0x60 SHL SUB PUSH1 0xA0 SHL DUP3 SLOAD AND OR SWAP1 SSTORE PUSH2 0x1C0 DUP2 ADD MLOAD PUSH1 0xE DUP6 ADD SSTORE PUSH2 0x1E0 DUP2 ADD MLOAD PUSH1 0xF DUP6 ADD SSTORE PUSH2 0x4091 PUSH2 0x200 DUP3 ADD MLOAD ISZERO ISZERO PUSH1 0x10 DUP7 ADD SWAP1 PUSH1 0xFF DUP1 NOT DUP4 SLOAD AND SWAP2 ISZERO ISZERO AND OR SWAP1 SSTORE JUMP JUMPDEST PUSH2 0x220 DUP2 ADD MLOAD PUSH1 0x11 DUP6 ADD SSTORE PUSH2 0x240 DUP2 ADD MLOAD PUSH1 0x12 DUP6 ADD SSTORE PUSH2 0x260 DUP2 ADD MLOAD PUSH1 0x13 DUP6 ADD SSTORE PUSH2 0x280 DUP2 ADD MLOAD PUSH1 0x14 DUP6 ADD SSTORE ADD MLOAD SWAP2 ADD SSTORE PUSH1 0x5 PUSH1 0x20 MSTORE PUSH1 0x40 PUSH1 0x0 KECCAK256 DUP1 SLOAD PUSH1 0xFF NOT AND PUSH1 0x1 OR SWAP1 SSTORE STOP JUMPDEST PUSH1 0x40 MLOAD PUSH3 0x461BCD PUSH1 0xE5 SHL DUP2 MSTORE PUSH1 0x20 PUSH1 0x4 DUP3 ADD MSTORE PUSH1 0x51 PUSH1 0x24 DUP3 ADD MSTORE PUSH32 0x50726576696F757320746F6B656E206170706C69636174696F6E206265747765 PUSH1 0x44 DUP3 ADD MSTORE PUSH32 0x656E2074686520706179657220616E64207468652062616E6B206973206E6F74 PUSH1 0x64 DUP3 ADD MSTORE PUSH17 0x20796574207465726D696E617465642121 PUSH1 0x78 SHL PUSH1 0x84 DUP3 ADD MSTORE PUSH1 0xA4 SWAP1 REVERT JUMPDEST CALLVALUE PUSH2 0x1BC JUMPI PUSH1 0x40 CALLDATASIZE PUSH1 0x3 NOT ADD SLT PUSH2 0x1BC JUMPI PUSH2 0x4177 PUSH2 0x4AD6 JUMP JUMPDEST PUSH2 0x417F PUSH2 0x4B02 JUMP JUMPDEST PUSH1 0x1 SLOAD PUSH1 0x40 MLOAD PUSH4 0x9CFD3699 PUSH1 0xE0 SHL DUP2 MSTORE CALLER PUSH1 0x4 DUP3 ADD MSTORE SWAP2 SWAP3 SWAP1 PUSH1 0x1 PUSH1 0x1 PUSH1 0xA0 SHL SUB AND PUSH1 0x20 DUP4 PUSH1 0x24 DUP2 DUP5 GAS STATICCALL SWAP3 DUP4 ISZERO PUSH2 0x73F JUMPI PUSH1 0x0 SWAP4 PUSH2 0x4784 JUMPI JUMPDEST POP PUSH1 0x20 PUSH1 0x24 SWAP2 PUSH1 0x40 MLOAD SWAP3 DUP4 DUP1 SWAP3 PUSH4 0x9EC802FF PUSH1 0xE0 SHL DUP3 MSTORE DUP8 PUSH1 0x4 DUP4 ADD MSTORE GAS STATICCALL SWAP1 DUP2 ISZERO PUSH2 0x73F JUMPI PUSH2 0x41F6 SWAP2 PUSH1 0x1 SWAP2 PUSH1 0x0 SWAP2 PUSH2 0x1BF2 JUMPI POP ISZERO ISZERO EQ PUSH2 0x4C30 JUMP JUMPDEST PUSH1 0x3 SLOAD PUSH1 0x40 MLOAD PUSH4 0x387BDD65 PUSH1 0xE2 SHL DUP2 MSTORE PUSH1 0x1 PUSH1 0x1 PUSH1 0xA0 SHL SUB DUP4 DUP2 AND PUSH1 0x4 DUP4 ADD MSTORE PUSH1 0x24 DUP3 ADD DUP6 SWAP1 MSTORE SWAP1 SWAP2 PUSH1 0x20 SWAP2 DUP4 SWAP2 PUSH1 0x44 SWAP2 DUP4 SWAP2 AND GAS STATICCALL SWAP1 DUP2 ISZERO PUSH2 0x73F JUMPI PUSH2 0x424A SWAP2 PUSH1 0x1 SWAP2 PUSH1 0x0 SWAP2 PUSH2 0x1BD3 JUMPI POP ISZERO ISZERO EQ PUSH2 0x4D41 JUMP JUMPDEST PUSH1 0x1 DUP1 PUSH1 0xA0 SHL SUB DUP2 AND PUSH1 0x0 MSTORE PUSH1 0x4 PUSH1 0x20 MSTORE PUSH1 0x40 PUSH1 0x0 KECCAK256 DUP3 PUSH1 0x0 MSTORE PUSH1 0x20 MSTORE PUSH1 0x40 PUSH1 0x0 KECCAK256 SLOAD SWAP2 DUP3 PUSH1 0x0 MSTORE PUSH1 0x5 PUSH1 0x20 MSTORE PUSH2 0x428D PUSH1 0x1 PUSH1 0xFF PUSH1 0x40 PUSH1 0x0 KECCAK256 SLOAD AND ISZERO ISZERO EQ PUSH2 0x4DA5 JUMP JUMPDEST DUP3 PUSH1 0x0 MSTORE PUSH1 0x7 PUSH1 0x20 MSTORE PUSH1 0x40 PUSH1 0x0 KECCAK256 SWAP4 PUSH2 0x43BA PUSH1 0x40 MLOAD SWAP6 PUSH2 0x42AC DUP8 PUSH2 0x4BD9 JUMP JUMPDEST DUP1 SLOAD DUP8 MSTORE PUSH1 0x1 DUP2 ADD SLOAD PUSH1 0x1 PUSH1 0x1 PUSH1 0xA0 SHL SUB SWAP1 DUP2 AND PUSH1 0x20 DUP10 ADD DUP2 SWAP1 MSTORE PUSH1 0x2 DUP4 ADD SLOAD PUSH1 0x40 DUP11 ADD MSTORE PUSH1 0x3 DUP4 ADD SLOAD PUSH1 0x60 DUP11 ADD MSTORE PUSH1 0x4 DUP4 ADD SLOAD PUSH1 0x80 DUP11 ADD MSTORE PUSH1 0x5 DUP4 ADD SLOAD PUSH1 0xA0 DUP11 ADD MSTORE PUSH1 0x6 DUP4 ADD SLOAD PUSH1 0xC0 DUP11 ADD MSTORE PUSH1 0x7 DUP4 ADD SLOAD PUSH1 0xFF SWAP1 DUP2 AND ISZERO ISZERO PUSH1 0xE0 DUP12 ADD MSTORE PUSH1 0x8 DUP5 ADD SLOAD PUSH2 0x100 DUP12 ADD MSTORE PUSH1 0x9 DUP5 ADD SLOAD DUP2 AND ISZERO ISZERO PUSH2 0x120 DUP12 ADD MSTORE PUSH1 0xA DUP5 ADD SLOAD PUSH2 0x140 DUP12 ADD MSTORE PUSH1 0xB DUP5 ADD SLOAD DUP2 AND ISZERO ISZERO PUSH2 0x160 DUP12 ADD MSTORE PUSH1 0xC DUP5 ADD SLOAD PUSH2 0x180 DUP12 ADD MSTORE PUSH1 0xD DUP5 ADD SLOAD DUP4 AND PUSH2 0x1A0 DUP12 ADD MSTORE PUSH1 0xE DUP5 ADD SLOAD PUSH2 0x1C0 DUP12 ADD MSTORE PUSH1 0xF DUP5 ADD SLOAD PUSH2 0x1E0 DUP12 ADD MSTORE PUSH1 0x10 DUP5 ADD SLOAD AND ISZERO ISZERO PUSH2 0x200 DUP11 ADD MSTORE PUSH1 0x11 DUP4 ADD SLOAD PUSH2 0x220 DUP11 ADD MSTORE PUSH1 0x12 DUP4 ADD SLOAD PUSH2 0x240 DUP11 ADD MSTORE PUSH1 0x13 DUP4 ADD SLOAD PUSH2 0x260 DUP11 ADD MSTORE PUSH1 0x14 DUP4 ADD SLOAD PUSH2 0x280 DUP11 ADD MSTORE PUSH1 0x15 SWAP1 SWAP3 ADD SLOAD PUSH2 0x2A0 DUP10 ADD MSTORE DUP6 AND EQ PUSH2 0x4E2B JUMP JUMPDEST PUSH2 0x43C9 DUP3 PUSH1 0x40 DUP8 ADD MLOAD EQ PUSH2 0x4E85 JUMP JUMPDEST PUSH2 0x1E0 DUP6 ADD MLOAD ISZERO PUSH2 0x472F JUMPI PUSH2 0x220 DUP6 ADD MLOAD PUSH2 0x46E7 JUMPI PUSH2 0x43F3 PUSH2 0x12C PUSH2 0xAFC PUSH2 0x1E0 DUP9 ADD MLOAD TIMESTAMP PUSH2 0x4EE3 JUMP JUMPDEST DUP1 ISZERO ISZERO PUSH2 0x200 DUP7 ADD MSTORE TIMESTAMP PUSH2 0x220 DUP7 ADD MSTORE PUSH1 0x0 DUP1 DUP1 DUP1 PUSH2 0x3E8 PUSH1 0x1 PUSH1 0x1 PUSH1 0xA0 SHL SUB DUP9 AND DUP3 CALL ISZERO PUSH2 0x73F JUMPI PUSH1 0x0 DUP1 DUP1 DUP1 PUSH2 0x3E8 CALLER DUP3 CALL ISZERO PUSH2 0x73F JUMPI PUSH1 0x1 SWAP1 PUSH2 0x3E8 PUSH2 0x240 DUP8 ADD MSTORE PUSH2 0x3E8 PUSH2 0x280 DUP8 ADD MSTORE TIMESTAMP PUSH2 0x260 DUP8 ADD MSTORE TIMESTAMP PUSH2 0x2A0 DUP8 ADD MSTORE ISZERO ISZERO EQ PUSH1 0x0 EQ PUSH2 0x46C7 JUMPI PUSH32 0xF4E9AD126006F0FD1A9EABD57EE92D0B4720ECF08E7909C41346E70689E0A4E9 SWAP2 PUSH2 0x4486 PUSH1 0xE SLOAD PUSH2 0x4D1C JUMP JUMPDEST SWAP2 DUP3 PUSH1 0xE SSTORE DUP3 PUSH1 0x0 MSTORE PUSH1 0xC PUSH1 0x20 MSTORE PUSH1 0x40 PUSH1 0x0 KECCAK256 SWAP1 PUSH1 0xA PUSH1 0x40 MLOAD SWAP3 PUSH2 0x44A9 DUP5 PUSH2 0x4B89 JUMP JUMPDEST PUSH1 0x1 DUP1 PUSH1 0xA0 SHL SUB PUSH1 0x1 DUP3 ADD SLOAD AND PUSH1 0x20 DUP6 ADD MSTORE PUSH1 0x1 DUP1 PUSH1 0xA0 SHL SUB PUSH1 0x2 DUP3 ADD SLOAD AND PUSH1 0x40 DUP6 ADD MSTORE PUSH1 0x3 DUP2 ADD SLOAD PUSH1 0x60 DUP6 ADD MSTORE PUSH1 0x4 DUP2 ADD SLOAD PUSH1 0x80 DUP6 ADD MSTORE PUSH1 0x5 DUP2 ADD SLOAD PUSH1 0xA0 DUP6 ADD MSTORE PUSH1 0x6 DUP2 ADD SLOAD PUSH1 0xC0 DUP6 ADD MSTORE PUSH1 0x7 DUP2 ADD SLOAD PUSH1 0xE0 DUP6 ADD MSTORE PUSH1 0x8 DUP2 ADD SLOAD PUSH2 0x100 DUP6 ADD MSTORE PUSH1 0xFF PUSH1 0x9 DUP3 ADD SLOAD AND ISZERO ISZERO PUSH2 0x120 DUP6 ADD MSTORE ADD SLOAD PUSH2 0x140 DUP4 ADD MSTORE DUP4 DUP3 MSTORE PUSH1 0x1 DUP1 PUSH1 0xA0 SHL SUB PUSH1 0x20 DUP9 ADD MLOAD AND PUSH1 0x20 DUP4 ADD MSTORE PUSH1 0x1 DUP1 PUSH1 0xA0 SHL SUB PUSH2 0x1A0 DUP9 ADD MLOAD AND PUSH1 0x40 DUP4 ADD MSTORE PUSH1 0x60 DUP3 ADD MSTORE TIMESTAMP PUSH1 0x80 DUP3 ADD MSTORE DUP3 PUSH1 0x0 MSTORE PUSH1 0xC PUSH1 0x20 MSTORE PUSH1 0xA PUSH2 0x140 PUSH1 0x40 PUSH1 0x0 KECCAK256 SWAP3 DUP1 MLOAD DUP5 SSTORE PUSH1 0x1 DUP5 ADD PUSH1 0x1 DUP1 PUSH1 0xA0 SHL SUB PUSH1 0x20 DUP4 ADD MLOAD AND SWAP1 PUSH1 0x1 PUSH1 0x1 PUSH1 0x60 SHL SUB PUSH1 0xA0 SHL SWAP2 DUP3 DUP3 SLOAD AND OR SWAP1 SSTORE PUSH1 0x2 DUP6 ADD SWAP1 PUSH1 0x1 DUP1 PUSH1 0xA0 SHL SUB PUSH1 0x40 DUP5 ADD MLOAD AND SWAP1 DUP3 SLOAD AND OR SWAP1 SSTORE PUSH1 0x60 DUP2 ADD MLOAD PUSH1 0x3 DUP6 ADD SSTORE PUSH1 0x80 DUP2 ADD MLOAD PUSH1 0x4 DUP6 ADD SSTORE PUSH1 0xA0 DUP2 ADD MLOAD PUSH1 0x5 DUP6 ADD SSTORE PUSH1 0xC0 DUP2 ADD MLOAD PUSH1 0x6 DUP6 ADD SSTORE PUSH1 0xE0 DUP2 ADD MLOAD PUSH1 0x7 DUP6 ADD SSTORE PUSH2 0x100 DUP2 ADD MLOAD PUSH1 0x8 DUP6 ADD SSTORE PUSH2 0x4608 PUSH2 0x120 DUP3 ADD MLOAD ISZERO ISZERO PUSH1 0x9 DUP7 ADD SWAP1 PUSH1 0xFF DUP1 NOT DUP4 SLOAD AND SWAP2 ISZERO ISZERO AND OR SWAP1 SSTORE JUMP JUMPDEST ADD MLOAD SWAP2 ADD SSTORE PUSH1 0x40 DUP1 MLOAD PUSH1 0x1 PUSH1 0x1 PUSH1 0xA0 SHL SUB SWAP3 SWAP1 SWAP3 AND DUP3 MSTORE PUSH1 0x20 DUP3 ADD SWAP3 SWAP1 SWAP3 MSTORE LOG1 JUMPDEST PUSH1 0x0 MSTORE PUSH1 0x5 PUSH1 0x20 MSTORE PUSH1 0x40 PUSH1 0x0 KECCAK256 PUSH1 0xFF NOT DUP2 SLOAD AND SWAP1 SSTORE PUSH1 0x7 PUSH1 0x20 MSTORE PUSH1 0x15 PUSH2 0x2A0 PUSH1 0x40 PUSH1 0x0 KECCAK256 SWAP3 DUP1 MLOAD DUP5 SSTORE PUSH1 0x1 DUP1 PUSH1 0xA0 SHL SUB PUSH1 0x20 DUP3 ADD MLOAD AND PUSH1 0x1 PUSH1 0x1 PUSH1 0x60 SHL SUB PUSH1 0xA0 SHL PUSH1 0x1 DUP7 ADD SLOAD AND OR PUSH1 0x1 DUP6 ADD SSTORE PUSH1 0x40 DUP2 ADD MLOAD PUSH1 0x2 DUP6 ADD SSTORE PUSH1 0x60 DUP2 ADD MLOAD PUSH1 0x3 DUP6 ADD SSTORE PUSH1 0x80 DUP2 ADD MLOAD PUSH1 0x4 DUP6 ADD SSTORE PUSH1 0xA0 DUP2 ADD MLOAD PUSH1 0x5 DUP6 ADD SSTORE PUSH1 0xC0 DUP2 ADD MLOAD PUSH1 0x6 DUP6 ADD SSTORE PUSH2 0xB94 PUSH1 0xE0 DUP3 ADD MLOAD ISZERO ISZERO PUSH1 0x7 DUP7 ADD SWAP1 PUSH1 0xFF DUP1 NOT DUP4 SLOAD AND SWAP2 ISZERO ISZERO AND OR SWAP1 SSTORE JUMP JUMPDEST POP POP DUP1 PUSH1 0x0 MSTORE PUSH1 0x6 PUSH1 0x20 MSTORE PUSH1 0x40 PUSH1 0x0 KECCAK256 PUSH1 0x1 PUSH1 0xFF NOT DUP3 SLOAD AND OR SWAP1 SSTORE PUSH2 0x4629 JUMP JUMPDEST PUSH1 0x40 MLOAD PUSH3 0x461BCD PUSH1 0xE5 SHL DUP2 MSTORE PUSH1 0x20 PUSH1 0x4 DUP3 ADD MSTORE PUSH1 0x2C PUSH1 0x24 DUP3 ADD MSTORE PUSH1 0x0 DUP1 MLOAD PUSH1 0x20 PUSH2 0x551B DUP4 CODECOPY DUP2 MLOAD SWAP2 MSTORE PUSH1 0x44 DUP3 ADD MSTORE PUSH12 0x20726573706F6E7365342121 PUSH1 0xA0 SHL PUSH1 0x64 DUP3 ADD MSTORE PUSH1 0x84 SWAP1 REVERT JUMPDEST PUSH1 0x40 MLOAD PUSH3 0x461BCD PUSH1 0xE5 SHL DUP2 MSTORE PUSH1 0x20 PUSH1 0x4 DUP3 ADD MSTORE PUSH1 0x27 PUSH1 0x24 DUP3 ADD MSTORE PUSH32 0x546865207061796572206E6F74207965742072657175657374656420666F7220 PUSH1 0x44 DUP3 ADD MSTORE PUSH7 0x746F6B656E2121 PUSH1 0xC8 SHL PUSH1 0x64 DUP3 ADD MSTORE PUSH1 0x84 SWAP1 REVERT JUMPDEST SWAP1 SWAP3 POP PUSH1 0x20 DUP2 RETURNDATASIZE PUSH1 0x20 GT PUSH2 0x47B1 JUMPI JUMPDEST DUP2 PUSH2 0x47A0 PUSH1 0x20 SWAP4 DUP4 PUSH2 0x4BF6 JUMP JUMPDEST DUP2 ADD SUB SLT PUSH2 0x1BC JUMPI MLOAD SWAP2 PUSH1 0x20 PUSH2 0x41B9 JUMP JUMPDEST RETURNDATASIZE SWAP2 POP PUSH2 0x4793 JUMP JUMPDEST PUSH2 0x47C2 CALLDATASIZE PUSH2 0x4AC0 JUMP JUMPDEST SWAP1 DUP1 ISZERO ISZERO DUP1 PUSH2 0x4A0C JUMPI JUMPDEST PUSH2 0x47D5 SWAP1 PUSH2 0x507B JUMP JUMPDEST DUP1 PUSH1 0x0 MSTORE PUSH1 0x20 SWAP1 PUSH1 0x9 DUP3 MSTORE PUSH1 0xFF PUSH1 0x40 PUSH1 0x0 KECCAK256 SLOAD AND PUSH2 0x4987 JUMPI PUSH2 0x47FA PUSH2 0x3E8 CALLVALUE EQ PUSH2 0x50BB JUMP JUMPDEST DUP1 PUSH1 0x0 MSTORE PUSH1 0xC DUP3 MSTORE PUSH1 0x40 PUSH1 0x0 KECCAK256 PUSH1 0x40 MLOAD SWAP4 PUSH2 0x4814 DUP6 PUSH2 0x4B89 JUMP JUMPDEST DUP2 SLOAD SWAP1 DUP2 DUP7 MSTORE PUSH1 0x1 PUSH1 0xA0 SHL PUSH1 0x1 SWAP1 SUB DUP1 PUSH1 0x1 DUP6 ADD SLOAD AND SWAP1 DUP7 DUP9 ADD SWAP2 DUP3 MSTORE DUP1 PUSH1 0x2 DUP7 ADD SLOAD AND PUSH1 0x40 DUP10 ADD MSTORE PUSH1 0x3 DUP6 ADD SLOAD SWAP2 PUSH1 0x60 DUP10 ADD SWAP3 DUP4 MSTORE DUP7 PUSH1 0x4 DUP8 ADD SLOAD SWAP6 PUSH1 0x80 DUP12 ADD SWAP7 DUP8 MSTORE PUSH1 0x5 DUP9 ADD SLOAD PUSH1 0xA0 DUP13 ADD MSTORE PUSH1 0x6 DUP9 ADD SLOAD PUSH1 0xC0 DUP13 ADD MSTORE PUSH1 0x7 DUP9 ADD SLOAD PUSH1 0xE0 DUP13 ADD MSTORE PUSH1 0x8 DUP9 ADD SLOAD SWAP11 PUSH2 0x100 SWAP12 DUP13 DUP3 ADD MSTORE PUSH1 0x9 DUP10 ADD SLOAD PUSH1 0xFF AND ISZERO ISZERO SWAP9 PUSH2 0x120 SWAP10 DUP11 DUP4 ADD MSTORE PUSH1 0xA ADD SLOAD SWAP1 PUSH2 0x140 ADD MSTORE EQ PUSH2 0x48AB SWAP1 PUSH2 0x5107 JUMP JUMPDEST MLOAD AND CALLER EQ PUSH2 0x48B8 SWAP1 PUSH2 0x5167 JUMP JUMPDEST MLOAD EQ PUSH2 0x48C3 SWAP1 PUSH2 0x51B3 JUMP JUMPDEST DUP1 MLOAD ISZERO PUSH2 0x4949 JUMPI SWAP2 PUSH1 0x0 PUSH1 0x9 SWAP6 SWAP3 PUSH2 0x48E5 PUSH2 0x12C PUSH2 0x30F PUSH2 0x4936 SWAP8 MLOAD TIMESTAMP PUSH2 0x4EE3 JUMP JUMPDEST DUP2 PUSH1 0x40 MLOAD SWAP5 PUSH2 0x48F3 DUP7 PUSH2 0x4BBC JUMP JUMPDEST DUP5 DUP7 MSTORE TIMESTAMP DUP9 DUP8 ADD MSTORE DUP2 PUSH1 0x40 DUP8 ADD MSTORE DUP2 PUSH1 0x60 DUP8 ADD MSTORE DUP2 PUSH1 0x80 DUP8 ADD MSTORE DUP2 PUSH1 0xA0 DUP8 ADD MSTORE DUP2 PUSH1 0xC0 DUP8 ADD MSTORE DUP2 PUSH1 0xE0 DUP8 ADD MSTORE DUP6 ADD MSTORE DUP4 ADD MSTORE PUSH1 0x0 MSTORE PUSH1 0x8 DUP4 MSTORE PUSH1 0x40 PUSH1 0x0 KECCAK256 PUSH2 0x5242 JUMP JUMPDEST MSTORE PUSH1 0x40 PUSH1 0x0 KECCAK256 DUP1 SLOAD PUSH1 0xFF NOT AND PUSH1 0x1 OR SWAP1 SSTORE STOP JUMPDEST PUSH1 0x40 MLOAD PUSH3 0x461BCD PUSH1 0xE5 SHL DUP2 MSTORE PUSH1 0x4 DUP2 ADD DUP6 SWAP1 MSTORE PUSH1 0x16 PUSH1 0x24 DUP3 ADD MSTORE PUSH22 0x546F6B656E20776173206E6F74206973737565642121 PUSH1 0x50 SHL PUSH1 0x44 DUP3 ADD MSTORE PUSH1 0x64 SWAP1 REVERT JUMPDEST PUSH1 0x40 MLOAD PUSH3 0x461BCD PUSH1 0xE5 SHL DUP2 MSTORE PUSH1 0x4 DUP2 ADD DUP4 SWAP1 MSTORE PUSH1 0x51 PUSH1 0x24 DUP3 ADD MSTORE PUSH32 0x546F6B656E206578637574696F6E20666F7220706179657220636F7272657370 PUSH1 0x44 DUP3 ADD MSTORE PUSH32 0x6F6E64696E6720746F207468697320746F6B656E494420697320616C72656164 PUSH1 0x64 DUP3 ADD MSTORE PUSH17 0x7920756E6465722070726F636573732121 PUSH1 0x78 SHL PUSH1 0x84 DUP3 ADD MSTORE PUSH1 0xA4 SWAP1 REVERT JUMPDEST POP PUSH1 0xE SLOAD DUP2 GT ISZERO PUSH2 0x47CC JUMP JUMPDEST CALLVALUE PUSH2 0x1BC JUMPI PUSH1 0x20 CALLDATASIZE PUSH1 0x3 NOT ADD SLT PUSH2 0x1BC JUMPI PUSH2 0x160 SWAP1 PUSH1 0x4 CALLDATALOAD PUSH1 0x0 MSTORE PUSH1 0xC PUSH1 0x20 MSTORE PUSH1 0x40 PUSH1 0x0 KECCAK256 DUP1 SLOAD SWAP1 PUSH1 0x1 DUP1 PUSH1 0xA0 SHL SUB DUP1 PUSH1 0x1 DUP4 ADD SLOAD AND SWAP1 PUSH1 0x2 DUP4 ADD SLOAD AND PUSH1 0x3 DUP4 ADD SLOAD PUSH1 0x4 DUP5 ADD SLOAD PUSH1 0x5 DUP6 ADD SLOAD SWAP1 PUSH1 0x6 DUP7 ADD SLOAD SWAP3 PUSH1 0x7 DUP8 ADD SLOAD SWAP5 PUSH1 0x8 DUP9 ADD SLOAD SWAP7 PUSH1 0xA PUSH1 0xFF PUSH1 0x9 DUP12 ADD SLOAD AND SWAP10 ADD SLOAD SWAP10 DUP12 MSTORE PUSH1 0x20 DUP12 ADD MSTORE PUSH1 0x40 DUP11 ADD MSTORE PUSH1 0x60 DUP10 ADD MSTORE PUSH1 0x80 DUP9 ADD MSTORE PUSH1 0xA0 DUP8 ADD MSTORE PUSH1 0xC0 DUP7 ADD MSTORE PUSH1 0xE0 DUP6 ADD MSTORE PUSH2 0x100 DUP5 ADD MSTORE ISZERO ISZERO PUSH2 0x120 DUP4 ADD MSTORE PUSH2 0x140 DUP3 ADD MSTORE RETURN JUMPDEST PUSH1 0x40 SWAP1 PUSH1 0x3 NOT ADD SLT PUSH2 0x1BC JUMPI PUSH1 0x4 CALLDATALOAD SWAP1 PUSH1 0x24 CALLDATALOAD SWAP1 JUMP JUMPDEST PUSH1 0x4 CALLDATALOAD SWAP1 PUSH1 0x1 PUSH1 0x1 PUSH1 0xA0 SHL SUB DUP3 AND DUP3 SUB PUSH2 0x1BC JUMPI JUMP JUMPDEST PUSH1 0x24 CALLDATALOAD SWAP1 PUSH1 0x1 PUSH1 0x1 PUSH1 0xA0 SHL SUB DUP3 AND DUP3 SUB PUSH2 0x1BC JUMPI JUMP JUMPDEST PUSH1 0x24 CALLDATALOAD SWAP1 DUP2 ISZERO ISZERO DUP3 SUB PUSH2 0x1BC JUMPI JUMP JUMPDEST PUSH1 0x60 SWAP1 PUSH1 0x3 NOT ADD SLT PUSH2 0x1BC JUMPI PUSH1 0x4 CALLDATALOAD SWAP1 PUSH1 0x24 CALLDATALOAD PUSH1 0x1 PUSH1 0x1 PUSH1 0xA0 SHL SUB DUP2 AND DUP2 SUB PUSH2 0x1BC JUMPI SWAP1 PUSH1 0x44 CALLDATALOAD DUP1 ISZERO ISZERO DUP2 SUB PUSH2 0x1BC JUMPI SWAP1 JUMP JUMPDEST SWAP7 SWAP4 SWAP1 SWAP11 SWAP10 SWAP9 SWAP6 SWAP3 PUSH2 0x120 SWAP9 SWAP6 SWAP3 PUSH2 0x140 DUP10 ADD SWAP13 DUP10 MSTORE PUSH1 0x20 DUP10 ADD MSTORE PUSH1 0x40 DUP9 ADD MSTORE PUSH1 0x60 DUP8 ADD MSTORE PUSH1 0x80 DUP7 ADD MSTORE ISZERO ISZERO PUSH1 0xA0 DUP6 ADD MSTORE PUSH1 0xC0 DUP5 ADD MSTORE PUSH1 0xE0 DUP4 ADD MSTORE PUSH2 0x100 DUP3 ADD MSTORE ADD MSTORE JUMP JUMPDEST PUSH2 0x160 DUP2 ADD SWAP1 DUP2 LT PUSH8 0xFFFFFFFFFFFFFFFF DUP3 GT OR PUSH2 0x4BA6 JUMPI PUSH1 0x40 MSTORE JUMP JUMPDEST PUSH4 0x4E487B71 PUSH1 0xE0 SHL PUSH1 0x0 MSTORE PUSH1 0x41 PUSH1 0x4 MSTORE PUSH1 0x24 PUSH1 0x0 REVERT JUMPDEST PUSH2 0x140 DUP2 ADD SWAP1 DUP2 LT PUSH8 0xFFFFFFFFFFFFFFFF DUP3 GT OR PUSH2 0x4BA6 JUMPI PUSH1 0x40 MSTORE JUMP JUMPDEST PUSH2 0x2C0 DUP2 ADD SWAP1 DUP2 LT PUSH8 0xFFFFFFFFFFFFFFFF DUP3 GT OR PUSH2 0x4BA6 JUMPI PUSH1 0x40 MSTORE JUMP JUMPDEST SWAP1 PUSH1 0x1F DUP1 NOT SWAP2 ADD AND DUP2 ADD SWAP1 DUP2 LT PUSH8 0xFFFFFFFFFFFFFFFF DUP3 GT OR PUSH2 0x4BA6 JUMPI PUSH1 0x40 MSTORE JUMP JUMPDEST SWAP1 DUP2 PUSH1 0x20 SWAP2 SUB SLT PUSH2 0x1BC JUMPI MLOAD DUP1 ISZERO ISZERO DUP2 SUB PUSH2 0x1BC JUMPI SWAP1 JUMP JUMPDEST ISZERO PUSH2 0x4C37 JUMPI JUMP JUMPDEST PUSH1 0x40 MLOAD PUSH3 0x461BCD PUSH1 0xE5 SHL DUP2 MSTORE PUSH1 0x20 PUSH1 0x4 DUP3 ADD MSTORE PUSH1 0x10 PUSH1 0x24 DUP3 ADD MSTORE PUSH16 0x496E76616C69642042616E6B49442121 PUSH1 0x80 SHL PUSH1 0x44 DUP3 ADD MSTORE PUSH1 0x64 SWAP1 REVERT JUMPDEST ISZERO PUSH2 0x4C76 JUMPI JUMP JUMPDEST PUSH1 0x40 MLOAD PUSH3 0x461BCD PUSH1 0xE5 SHL DUP2 MSTORE PUSH1 0x20 PUSH1 0x4 DUP3 ADD MSTORE PUSH1 0x2C PUSH1 0x24 DUP3 ADD MSTORE PUSH32 0x546865207061796572206973206E6F7420726567697374657265642077697468 PUSH1 0x44 DUP3 ADD MSTORE PUSH12 0x20746869732062616E6B2121 PUSH1 0xA0 SHL PUSH1 0x64 DUP3 ADD MSTORE PUSH1 0x84 SWAP1 REVERT JUMPDEST ISZERO PUSH2 0x4CD7 JUMPI JUMP JUMPDEST PUSH1 0x40 MLOAD PUSH3 0x461BCD PUSH1 0xE5 SHL DUP2 MSTORE PUSH1 0x20 PUSH1 0x4 DUP3 ADD MSTORE PUSH1 0x1A PUSH1 0x24 DUP3 ADD MSTORE PUSH32 0x496E636F7272656374206C6F636B696E6720616D6F756E742121000000000000 PUSH1 0x44 DUP3 ADD MSTORE PUSH1 0x64 SWAP1 REVERT JUMPDEST PUSH1 0x0 NOT DUP2 EQ PUSH2 0x4D2B JUMPI PUSH1 0x1 ADD SWAP1 JUMP JUMPDEST PUSH4 0x4E487B71 PUSH1 0xE0 SHL PUSH1 0x0 MSTORE PUSH1 0x11 PUSH1 0x4 MSTORE PUSH1 0x24 PUSH1 0x0 REVERT JUMPDEST ISZERO PUSH2 0x4D48 JUMPI JUMP JUMPDEST PUSH1 0x40 MLOAD PUSH3 0x461BCD PUSH1 0xE5 SHL DUP2 MSTORE PUSH1 0x20 PUSH1 0x4 DUP3 ADD MSTORE PUSH1 0x2F PUSH1 0x24 DUP3 ADD MSTORE PUSH32 0x54686520637573746F6D6572206973206E6F7420726567697374657265642077 PUSH1 0x44 DUP3 ADD MSTORE PUSH15 0x69746820746869732062616E6B2121 PUSH1 0x88 SHL PUSH1 0x64 DUP3 ADD MSTORE PUSH1 0x84 SWAP1 REVERT JUMPDEST ISZERO PUSH2 0x4DAC JUMPI JUMP JUMPDEST PUSH1 0x40 MLOAD PUSH3 0x461BCD PUSH1 0xE5 SHL DUP2 MSTORE PUSH1 0x20 PUSH1 0x4 DUP3 ADD MSTORE PUSH1 0x4B PUSH1 0x24 DUP3 ADD MSTORE PUSH32 0x4E6F20746F6B656E206170706C69636174696F6E2069732072756E6E696E6720 PUSH1 0x44 DUP3 ADD MSTORE PUSH32 0x61742070726573656E74206265747765656E2074686520706179657220616E64 PUSH1 0x64 DUP3 ADD MSTORE PUSH11 0x207468652062616E6B2121 PUSH1 0xA8 SHL PUSH1 0x84 DUP3 ADD MSTORE PUSH1 0xA4 SWAP1 REVERT JUMPDEST ISZERO PUSH2 0x4E32 JUMPI JUMP JUMPDEST PUSH1 0x40 MLOAD PUSH3 0x461BCD PUSH1 0xE5 SHL DUP2 MSTORE PUSH1 0x20 PUSH1 0x4 DUP3 ADD MSTORE PUSH1 0x25 PUSH1 0x24 DUP3 ADD MSTORE PUSH32 0x496E74656E6465642070617965722061646472657373206973206E6F74206769 PUSH1 0x44 DUP3 ADD MSTORE PUSH5 0x76656E2121 PUSH1 0xD8 SHL PUSH1 0x64 DUP3 ADD MSTORE PUSH1 0x84 SWAP1 REVERT JUMPDEST ISZERO PUSH2 0x4E8C JUMPI JUMP JUMPDEST PUSH1 0x40 MLOAD PUSH3 0x461BCD PUSH1 0xE5 SHL DUP2 MSTORE PUSH1 0x20 PUSH1 0x4 DUP3 ADD MSTORE PUSH1 0x29 PUSH1 0x24 DUP3 ADD MSTORE PUSH32 0x596F7520617265206E6F7420686F6C64696E672074686520696E74656E646564 PUSH1 0x44 DUP3 ADD MSTORE PUSH9 0x2062616E6B49442121 PUSH1 0xB8 SHL PUSH1 0x64 DUP3 ADD MSTORE PUSH1 0x84 SWAP1 REVERT JUMPDEST SWAP2 SWAP1 DUP3 SUB SWAP2 DUP3 GT PUSH2 0x4D2B JUMPI JUMP JUMPDEST ISZERO PUSH2 0x4EF7 JUMPI JUMP JUMPDEST PUSH1 0x40 MLOAD PUSH3 0x461BCD PUSH1 0xE5 SHL DUP2 MSTORE PUSH1 0x20 PUSH1 0x4 DUP3 ADD MSTORE PUSH1 0x14 PUSH1 0x24 DUP3 ADD MSTORE PUSH20 0x54696D656C696D69742065786365656465642121 PUSH1 0x60 SHL PUSH1 0x44 DUP3 ADD MSTORE PUSH1 0x64 SWAP1 REVERT JUMPDEST ISZERO PUSH2 0x4F3A JUMPI JUMP JUMPDEST PUSH1 0x40 MLOAD PUSH3 0x461BCD PUSH1 0xE5 SHL DUP2 MSTORE PUSH1 0x20 PUSH1 0x4 DUP3 ADD MSTORE PUSH1 0x49 PUSH1 0x24 DUP3 ADD MSTORE PUSH32 0x50726576696F757320746F6B656E206170706C69636174696F6E206265747765 PUSH1 0x44 DUP3 ADD MSTORE PUSH32 0x656E2074686520706179657220616E64207468652062616E6B20697320746572 PUSH1 0x64 DUP3 ADD MSTORE PUSH9 0x6D696E617465642121 PUSH1 0xB8 SHL PUSH1 0x84 DUP3 ADD MSTORE PUSH1 0xA4 SWAP1 REVERT JUMPDEST ISZERO PUSH2 0x4FBE JUMPI JUMP JUMPDEST PUSH1 0x40 MLOAD PUSH3 0x461BCD PUSH1 0xE5 SHL DUP2 MSTORE PUSH1 0x20 PUSH1 0x4 DUP3 ADD MSTORE PUSH1 0x30 PUSH1 0x24 DUP3 ADD MSTORE PUSH32 0x596F7520617265206E6F7420686F6C64696E672074686520696E74656E646564 PUSH1 0x44 DUP3 ADD MSTORE PUSH16 0x20706179657220616464726573732121 PUSH1 0x80 SHL PUSH1 0x64 DUP3 ADD MSTORE PUSH1 0x84 SWAP1 REVERT JUMPDEST ISZERO PUSH2 0x5023 JUMPI JUMP JUMPDEST PUSH1 0x40 MLOAD PUSH3 0x461BCD PUSH1 0xE5 SHL DUP2 MSTORE PUSH1 0x20 PUSH1 0x4 DUP3 ADD MSTORE PUSH1 0x2A PUSH1 0x24 DUP3 ADD MSTORE PUSH32 0x54686520676976656E2042616E6B4944206973206E6F742074686520696E7465 PUSH1 0x44 DUP3 ADD MSTORE PUSH10 0x6E646564206F6E652121 PUSH1 0xB0 SHL PUSH1 0x64 DUP3 ADD MSTORE PUSH1 0x84 SWAP1 REVERT JUMPDEST ISZERO PUSH2 0x5082 JUMPI JUMP JUMPDEST PUSH1 0x40 MLOAD PUSH3 0x461BCD PUSH1 0xE5 SHL DUP2 MSTORE PUSH1 0x20 PUSH1 0x4 DUP3 ADD MSTORE PUSH1 0x11 PUSH1 0x24 DUP3 ADD MSTORE PUSH17 0x496E76616C696420546F6B656E49442121 PUSH1 0x78 SHL PUSH1 0x44 DUP3 ADD MSTORE PUSH1 0x64 SWAP1 REVERT JUMPDEST ISZERO PUSH2 0x50C2 JUMPI JUMP JUMPDEST PUSH1 0x40 MLOAD PUSH3 0x461BCD PUSH1 0xE5 SHL DUP2 MSTORE PUSH1 0x20 PUSH1 0x4 DUP3 ADD MSTORE PUSH1 0x1E PUSH1 0x24 DUP3 ADD MSTORE PUSH32 0x456E74657220612076616C6964206C6F636B696E6720616D6F756E7421210000 PUSH1 0x44 DUP3 ADD MSTORE PUSH1 0x64 SWAP1 REVERT JUMPDEST ISZERO PUSH2 0x510E JUMPI JUMP JUMPDEST PUSH1 0x40 MLOAD PUSH3 0x461BCD PUSH1 0xE5 SHL DUP2 MSTORE PUSH1 0x20 PUSH1 0x4 DUP3 ADD MSTORE PUSH1 0x2B PUSH1 0x24 DUP3 ADD MSTORE PUSH32 0x54686520676976656E20746F6B656E4944206973206E6F742074686520696E74 PUSH1 0x44 DUP3 ADD MSTORE PUSH11 0x656E646564206F6E652121 PUSH1 0xA8 SHL PUSH1 0x64 DUP3 ADD MSTORE PUSH1 0x84 SWAP1 REVERT JUMPDEST ISZERO PUSH2 0x516E JUMPI JUMP JUMPDEST PUSH1 0x40 MLOAD PUSH3 0x461BCD PUSH1 0xE5 SHL DUP2 MSTORE PUSH1 0x20 PUSH1 0x4 DUP3 ADD MSTORE PUSH1 0x1A PUSH1 0x24 DUP3 ADD MSTORE PUSH32 0x4D69736D61746368656420706179657220616464726573732121000000000000 PUSH1 0x44 DUP3 ADD MSTORE PUSH1 0x64 SWAP1 REVERT JUMPDEST ISZERO PUSH2 0x51BA JUMPI JUMP JUMPDEST PUSH1 0x40 MLOAD PUSH3 0x461BCD PUSH1 0xE5 SHL DUP2 MSTORE PUSH1 0x20 PUSH1 0x4 DUP3 ADD MSTORE PUSH1 0x1A PUSH1 0x24 DUP3 ADD MSTORE PUSH32 0x4D69736D617463686564204973737565722042616E6B49442121000000000000 PUSH1 0x44 DUP3 ADD MSTORE PUSH1 0x64 SWAP1 REVERT JUMPDEST ISZERO PUSH2 0x5206 JUMPI JUMP JUMPDEST PUSH1 0x40 MLOAD PUSH3 0x461BCD PUSH1 0xE5 SHL DUP2 MSTORE PUSH1 0x20 PUSH1 0x4 DUP3 ADD MSTORE PUSH1 0x14 PUSH1 0x24 DUP3 ADD MSTORE PUSH20 0x54696D656C696D69742045786365656465642121 PUSH1 0x60 SHL PUSH1 0x44 DUP3 ADD MSTORE PUSH1 0x64 SWAP1 REVERT JUMPDEST SWAP1 PUSH2 0x120 PUSH1 0x9 SWAP2 DUP1 MLOAD DUP5 SSTORE PUSH1 0x20 DUP2 ADD MLOAD PUSH1 0x1 DUP6 ADD SSTORE PUSH1 0x40 DUP2 ADD MLOAD PUSH1 0x2 DUP6 ADD SSTORE PUSH1 0x60 DUP2 ADD MLOAD PUSH1 0x3 DUP6 ADD SSTORE PUSH1 0x80 DUP2 ADD MLOAD PUSH1 0x4 DUP6 ADD SSTORE PUSH2 0x5294 PUSH1 0xA0 DUP3 ADD MLOAD ISZERO ISZERO PUSH1 0x5 DUP7 ADD SWAP1 PUSH1 0xFF DUP1 NOT DUP4 SLOAD AND SWAP2 ISZERO ISZERO AND OR SWAP1 SSTORE JUMP JUMPDEST PUSH1 0xC0 DUP2 ADD MLOAD PUSH1 0x6 DUP6 ADD SSTORE PUSH1 0xE0 DUP2 ADD MLOAD PUSH1 0x7 DUP6 ADD SSTORE PUSH2 0x100 DUP2 ADD MLOAD PUSH1 0x8 DUP6 ADD SSTORE ADD MLOAD SWAP2 ADD SSTORE JUMP JUMPDEST ISZERO PUSH2 0x52C1 JUMPI JUMP JUMPDEST PUSH1 0x40 MLOAD PUSH3 0x461BCD PUSH1 0xE5 SHL DUP2 MSTORE PUSH1 0x20 PUSH1 0x4 DUP3 ADD MSTORE PUSH1 0x4D PUSH1 0x24 DUP3 ADD MSTORE PUSH32 0x546F6B656E206578637574696F6E20666F7220706179657220636F7272657370 PUSH1 0x44 DUP3 ADD MSTORE PUSH32 0x6F6E64696E6720746F207468697320746F6B656E4944206973206E6F7420756E PUSH1 0x64 DUP3 ADD MSTORE PUSH13 0x6465722070726F636573732121 PUSH1 0x98 SHL PUSH1 0x84 DUP3 ADD MSTORE PUSH1 0xA4 SWAP1 REVERT JUMPDEST SWAP1 PUSH1 0x40 MLOAD PUSH2 0x534F DUP2 PUSH2 0x4BBC JUMP JUMPDEST PUSH2 0x120 PUSH1 0x9 DUP3 SWAP5 DUP1 SLOAD DUP5 MSTORE PUSH1 0x1 DUP2 ADD SLOAD PUSH1 0x20 DUP6 ADD MSTORE PUSH1 0x2 DUP2 ADD SLOAD PUSH1 0x40 DUP6 ADD MSTORE PUSH1 0x3 DUP2 ADD SLOAD PUSH1 0x60 DUP6 ADD MSTORE PUSH1 0x4 DUP2 ADD SLOAD PUSH1 0x80 DUP6 ADD MSTORE PUSH1 0xFF PUSH1 0x5 DUP3 ADD SLOAD AND ISZERO ISZERO PUSH1 0xA0 DUP6 ADD MSTORE PUSH1 0x6 DUP2 ADD SLOAD PUSH1 0xC0 DUP6 ADD MSTORE PUSH1 0x7 DUP2 ADD SLOAD PUSH1 0xE0 DUP6 ADD MSTORE PUSH1 0x8 DUP2 ADD SLOAD PUSH2 0x100 DUP6 ADD MSTORE ADD SLOAD SWAP2 ADD MSTORE JUMP JUMPDEST ISZERO PUSH2 0x53BE JUMPI JUMP JUMPDEST PUSH1 0x40 MLOAD PUSH3 0x461BCD PUSH1 0xE5 SHL DUP2 MSTORE PUSH1 0x20 PUSH1 0x4 DUP3 ADD MSTORE PUSH1 0x14 PUSH1 0x24 DUP3 ADD MSTORE PUSH20 0x4D69736D61746368656420546F6B656E49442121 PUSH1 0x60 SHL PUSH1 0x44 DUP3 ADD MSTORE PUSH1 0x64 SWAP1 REVERT JUMPDEST ISZERO PUSH2 0x5401 JUMPI JUMP JUMPDEST PUSH1 0x40 MLOAD PUSH3 0x461BCD PUSH1 0xE5 SHL DUP2 MSTORE PUSH1 0x20 PUSH1 0x4 DUP3 ADD MSTORE PUSH1 0x1A PUSH1 0x24 DUP3 ADD MSTORE PUSH32 0x4D69736D61746368656420706179656520616464726573732121000000000000 PUSH1 0x44 DUP3 ADD MSTORE PUSH1 0x64 SWAP1 REVERT JUMPDEST ISZERO PUSH2 0x544D JUMPI JUMP JUMPDEST PUSH1 0x40 MLOAD PUSH3 0x461BCD PUSH1 0xE5 SHL DUP2 MSTORE PUSH1 0x20 PUSH1 0x4 DUP3 ADD MSTORE PUSH1 0x4D PUSH1 0x24 DUP3 ADD MSTORE PUSH32 0x546F6B656E206578637574696F6E20666F7220706179656520636F7272657370 PUSH1 0x44 DUP3 ADD MSTORE PUSH32 0x6F6E64696E6720746F207468697320746F6B656E4944206973206E6F7420756E PUSH1 0x64 DUP3 ADD MSTORE PUSH13 0x6465722070726F636573732121 PUSH1 0x98 SHL PUSH1 0x84 DUP3 ADD MSTORE PUSH1 0xA4 SWAP1 REVERT JUMPDEST ISZERO PUSH2 0x54D5 JUMPI JUMP JUMPDEST PUSH1 0x40 MLOAD PUSH3 0x461BCD PUSH1 0xE5 SHL DUP2 MSTORE PUSH1 0x20 PUSH1 0x4 DUP3 ADD MSTORE PUSH1 0x1C PUSH1 0x24 DUP3 ADD MSTORE PUSH32 0x4D69736D6174636865642041637175697265722042616E6B4944212100000000 PUSH1 0x44 DUP3 ADD MSTORE PUSH1 0x64 SWAP1 REVERT INVALID SLOAD PUSH9 0x652069737375657220 PUSH3 0x616E6B KECCAK256 PUSH2 0x6C72 PUSH6 0x616479207365 PUSH15 0x7420746865A2646970667358221220 0xDC 0xF7 CALLDATALOAD SMOD SWAP15 PUSH8 0xFC422D35D3D38FF5 0xE4 PUSH16 0x72370A192326272D96B23067118FFEE6 PUSH5 0x736F6C6343 STOP ADDMOD SLT STOP CALLER "
		},
		"gasEstimates": {
			"creation": {
				"codeDepositCost": "4374400",
				"executionCost": "infinite",
				"totalCost": "infinite"
			},
			"external": {
				"addr_SC_Bank_Registration()": "2422",
				"addr_SC_Customer_Registration()": "2466",
				"askToExecuteTokenByPayee(uint256,uint256)": "273671",
				"askToExecuteTokenByPayer(uint256,uint256)": "274133",
				"checkBalanceAndIssueToken(address,bool)": "infinite",
				"checkIfCardActive(address,bool)": "infinite",
				"checkIfCardValid(address,bool)": "infinite",
				"checkIfCommitmentMatches(address,bool)": "infinite",
				"commitCardDetails(uint256,bytes32)": "infinite",
				"confirmRefundStatusByIssuerBank(uint256,address)": "infinite",
				"initiateTokenExecutionByPayee(uint256,uint256)": "infinite",
				"initiateTokenExecutionByPayer(uint256,uint256)": "156815",
				"latestTokenApplID(address,uint256)": "2857",
				"lockSecurityMoneyByAcquirerBank(uint256,address)": "infinite",
				"lockSecurityMoneyByBank(address)": "infinite",
				"lockSecurityMoneyByIssuerBank(uint256,address)": "infinite",
				"lockSecurityMoneyByPayer(uint256)": "infinite",
				"lockingAmount()": "273",
				"refundTokenAmountToPayer(uint256,uint256)": "278311",
				"requestToken(uint256,address,uint256)": "infinite",
				"sendConfirmationMessageByAcquirerrBank(uint256,address,bool)": "infinite",
				"sendConfirmationMessageByIssuerBank(uint256,address,bool)": "infinite",
				"timeLimit()": "581",
				"token(uint256)": "23647",
				"tokenApplAborted(uint256)": "2850",
				"tokenApplIDGenerator()": "2618",
				"tokenApplUnderProcess(uint256)": "2652",
				"tokenExecutionForPayee(uint256)": "21887",
				"tokenExecutionForPayeeUnderProcess(uint256)": "3067",
				"tokenExecutionForPayer(uint256)": "22085",
				"tokenExecutionForPayerUnderProcess(uint256)": "2894",
				"tokenIDGenerator()": "2552",
				"tokenIssuanceAppl(uint256)": "47855"
			}
		},
		"methodIdentifiers": {
			"addr_SC_Bank_Registration()": "27664ea1",
			"addr_SC_Customer_Registration()": "3714008a",
			"askToExecuteTokenByPayee(uint256,uint256)": "593c5691",
			"askToExecuteTokenByPayer(uint256,uint256)": "f1d0babf",
			"checkBalanceAndIssueToken(address,bool)": "0cbe7bf4",
			"checkIfCardActive(address,bool)": "d5476d8f",
			"checkIfCardValid(address,bool)": "5f021669",
			"checkIfCommitmentMatches(address,bool)": "c5fe01e4",
			"commitCardDetails(uint256,bytes32)": "dd5708ad",
			"confirmRefundStatusByIssuerBank(uint256,address)": "b48a660f",
			"initiateTokenExecutionByPayee(uint256,uint256)": "31907132",
			"initiateTokenExecutionByPayer(uint256,uint256)": "0a0f378e",
			"latestTokenApplID(address,uint256)": "7ff19548",
			"lockSecurityMoneyByAcquirerBank(uint256,address)": "3d4004b8",
			"lockSecurityMoneyByBank(address)": "e8610b7c",
			"lockSecurityMoneyByIssuerBank(uint256,address)": "c19a8a8e",
			"lockSecurityMoneyByPayer(uint256)": "189317aa",
			"lockingAmount()": "25ab292e",
			"refundTokenAmountToPayer(uint256,uint256)": "d7f8ed33",
			"requestToken(uint256,address,uint256)": "c0ecbb54",
			"sendConfirmationMessageByAcquirerrBank(uint256,address,bool)": "4f68d9da",
			"sendConfirmationMessageByIssuerBank(uint256,address,bool)": "ea5f9a97",
			"timeLimit()": "c08d1fe5",
			"token(uint256)": "044215c6",
			"tokenApplAborted(uint256)": "ce3c562b",
			"tokenApplIDGenerator()": "7f028087",
			"tokenApplUnderProcess(uint256)": "6c0c6ca1",
			"tokenExecutionForPayee(uint256)": "71c93844",
			"tokenExecutionForPayeeUnderProcess(uint256)": "f869d14c",
			"tokenExecutionForPayer(uint256)": "cf9ae961",
			"tokenExecutionForPayerUnderProcess(uint256)": "d28e58de",
			"tokenIDGenerator()": "6b34123b",
			"tokenIssuanceAppl(uint256)": "df8a303f"
		}
	},
	"abi": [
		{
			"inputs": [
				{
					"internalType": "address",
					"name": "_addr_SC_Bank_Registration",
					"type": "address"
				},
				{
					"internalType": "address",
					"name": "_addr_SC_Customer_Registration",
					"type": "address"
				}
			],
			"stateMutability": "nonpayable",
			"type": "constructor"
		},
		{
			"anonymous": false,
			"inputs": [
				{
					"indexed": false,
					"internalType": "address",
					"name": "_payee",
					"type": "address"
				},
				{
					"indexed": false,
					"internalType": "uint256",
					"name": "_tokenID",
					"type": "uint256"
				}
			],
			"name": "event_notifyPayeeAboutCreditStatus",
			"type": "event"
		},
		{
			"anonymous": false,
			"inputs": [
				{
					"indexed": false,
					"internalType": "address",
					"name": "_payee",
					"type": "address"
				},
				{
					"indexed": false,
					"internalType": "uint256",
					"name": "_tokenID",
					"type": "uint256"
				}
			],
			"name": "event_notifyPayeeToUtilizeToken",
			"type": "event"
		},
		{
			"anonymous": false,
			"inputs": [
				{
					"indexed": false,
					"internalType": "address",
					"name": "_payer",
					"type": "address"
				},
				{
					"indexed": false,
					"internalType": "uint256",
					"name": "_tokenID",
					"type": "uint256"
				}
			],
			"name": "event_notifyPayerAboutDebitStatus",
			"type": "event"
		},
		{
			"anonymous": false,
			"inputs": [
				{
					"indexed": false,
					"internalType": "address",
					"name": "_payer",
					"type": "address"
				},
				{
					"indexed": false,
					"internalType": "uint256",
					"name": "_tokenID",
					"type": "uint256"
				}
			],
			"name": "event_notifyPayerAboutRefundStatus",
			"type": "event"
		},
		{
			"anonymous": false,
			"inputs": [
				{
					"indexed": false,
					"internalType": "address",
					"name": "_receiver",
					"type": "address"
				},
				{
					"indexed": false,
					"internalType": "uint256",
					"name": "_tokenApplID",
					"type": "uint256"
				}
			],
			"name": "event_payerCanRequestToken",
			"type": "event"
		},
		{
			"anonymous": false,
			"inputs": [
				{
					"indexed": false,
					"internalType": "address",
					"name": "payer",
					"type": "address"
				},
				{
					"indexed": false,
					"internalType": "uint256",
					"name": "_issuerBankID",
					"type": "uint256"
				},
				{
					"indexed": false,
					"internalType": "uint256",
					"name": "_tokenID",
					"type": "uint256"
				}
			],
			"name": "event_requestToRefundTokenAmount",
			"type": "event"
		},
		{
			"anonymous": false,
			"inputs": [
				{
					"indexed": false,
					"internalType": "address",
					"name": "_payer",
					"type": "address"
				},
				{
					"indexed": false,
					"internalType": "uint256",
					"name": "_tokenID",
					"type": "uint256"
				}
			],
			"name": "event_tokenIssued",
			"type": "event"
		},
		{
			"inputs": [],
			"name": "addr_SC_Bank_Registration",
			"outputs": [
				{
					"internalType": "address",
					"name": "",
					"type": "address"
				}
			],
			"stateMutability": "view",
			"type": "function"
		},
		{
			"inputs": [],
			"name": "addr_SC_Customer_Registration",
			"outputs": [
				{
					"internalType": "address",
					"name": "",
					"type": "address"
				}
			],
			"stateMutability": "view",
			"type": "function"
		},
		{
			"inputs": [
				{
					"internalType": "uint256",
					"name": "_tokenID",
					"type": "uint256"
				},
				{
					"internalType": "uint256",
					"name": "_acquirerBankID",
					"type": "uint256"
				}
			],
			"name": "askToExecuteTokenByPayee",
			"outputs": [],
			"stateMutability": "nonpayable",
			"type": "function"
		},
		{
			"inputs": [
				{
					"internalType": "uint256",
					"name": "_tokenID",
					"type": "uint256"
				},
				{
					"internalType": "uint256",
					"name": "_issuerBankID",
					"type": "uint256"
				}
			],
			"name": "askToExecuteTokenByPayer",
			"outputs": [],
			"stateMutability": "nonpayable",
			"type": "function"
		},
		{
			"inputs": [
				{
					"internalType": "address",
					"name": "_cAddr",
					"type": "address"
				},
				{
					"internalType": "bool",
					"name": "_response4",
					"type": "bool"
				}
			],
			"name": "checkBalanceAndIssueToken",
			"outputs": [],
			"stateMutability": "nonpayable",
			"type": "function"
		},
		{
			"inputs": [
				{
					"internalType": "address",
					"name": "_cAddr",
					"type": "address"
				},
				{
					"internalType": "bool",
					"name": "_response3",
					"type": "bool"
				}
			],
			"name": "checkIfCardActive",
			"outputs": [],
			"stateMutability": "nonpayable",
			"type": "function"
		},
		{
			"inputs": [
				{
					"internalType": "address",
					"name": "_cAddr",
					"type": "address"
				},
				{
					"internalType": "bool",
					"name": "_response2",
					"type": "bool"
				}
			],
			"name": "checkIfCardValid",
			"outputs": [],
			"stateMutability": "nonpayable",
			"type": "function"
		},
		{
			"inputs": [
				{
					"internalType": "address",
					"name": "_cAddr",
					"type": "address"
				},
				{
					"internalType": "bool",
					"name": "_response1",
					"type": "bool"
				}
			],
			"name": "checkIfCommitmentMatches",
			"outputs": [],
			"stateMutability": "nonpayable",
			"type": "function"
		},
		{
			"inputs": [
				{
					"internalType": "uint256",
					"name": "_bankID",
					"type": "uint256"
				},
				{
					"internalType": "bytes32",
					"name": "_commitment",
					"type": "bytes32"
				}
			],
			"name": "commitCardDetails",
			"outputs": [],
			"stateMutability": "nonpayable",
			"type": "function"
		},
		{
			"inputs": [
				{
					"internalType": "uint256",
					"name": "_tokenID",
					"type": "uint256"
				},
				{
					"internalType": "address",
					"name": "_payerAddr",
					"type": "address"
				}
			],
			"name": "confirmRefundStatusByIssuerBank",
			"outputs": [],
			"stateMutability": "nonpayable",
			"type": "function"
		},
		{
			"inputs": [
				{
					"internalType": "uint256",
					"name": "_tokenID",
					"type": "uint256"
				},
				{
					"internalType": "uint256",
					"name": "_acquirerBankID",
					"type": "uint256"
				}
			],
			"name": "initiateTokenExecutionByPayee",
			"outputs": [],
			"stateMutability": "payable",
			"type": "function"
		},
		{
			"inputs": [
				{
					"internalType": "uint256",
					"name": "_tokenID",
					"type": "uint256"
				},
				{
					"internalType": "uint256",
					"name": "_issuerBankID",
					"type": "uint256"
				}
			],
			"name": "initiateTokenExecutionByPayer",
			"outputs": [],
			"stateMutability": "payable",
			"type": "function"
		},
		{
			"inputs": [
				{
					"internalType": "address",
					"name": "",
					"type": "address"
				},
				{
					"internalType": "uint256",
					"name": "",
					"type": "uint256"
				}
			],
			"name": "latestTokenApplID",
			"outputs": [
				{
					"internalType": "uint256",
					"name": "",
					"type": "uint256"
				}
			],
			"stateMutability": "view",
			"type": "function"
		},
		{
			"inputs": [
				{
					"internalType": "uint256",
					"name": "_tokenID",
					"type": "uint256"
				},
				{
					"internalType": "address",
					"name": "_payeeAddr",
					"type": "address"
				}
			],
			"name": "lockSecurityMoneyByAcquirerBank",
			"outputs": [],
			"stateMutability": "payable",
			"type": "function"
		},
		{
			"inputs": [
				{
					"internalType": "address",
					"name": "_cAddr",
					"type": "address"
				}
			],
			"name": "lockSecurityMoneyByBank",
			"outputs": [],
			"stateMutability": "payable",
			"type": "function"
		},
		{
			"inputs": [
				{
					"internalType": "uint256",
					"name": "_tokenID",
					"type": "uint256"
				},
				{
					"internalType": "address",
					"name": "_payerAddr",
					"type": "address"
				}
			],
			"name": "lockSecurityMoneyByIssuerBank",
			"outputs": [],
			"stateMutability": "payable",
			"type": "function"
		},
		{
			"inputs": [
				{
					"internalType": "uint256",
					"name": "_bankID",
					"type": "uint256"
				}
			],
			"name": "lockSecurityMoneyByPayer",
			"outputs": [],
			"stateMutability": "payable",
			"type": "function"
		},
		{
			"inputs": [],
			"name": "lockingAmount",
			"outputs": [
				{
					"internalType": "uint256",
					"name": "",
					"type": "uint256"
				}
			],
			"stateMutability": "view",
			"type": "function"
		},
		{
			"inputs": [
				{
					"internalType": "uint256",
					"name": "_tokenID",
					"type": "uint256"
				},
				{
					"internalType": "uint256",
					"name": "_issuerBankID",
					"type": "uint256"
				}
			],
			"name": "refundTokenAmountToPayer",
			"outputs": [],
			"stateMutability": "nonpayable",
			"type": "function"
		},
		{
			"inputs": [
				{
					"internalType": "uint256",
					"name": "_bankID",
					"type": "uint256"
				},
				{
					"internalType": "address",
					"name": "_receiver",
					"type": "address"
				},
				{
					"internalType": "uint256",
					"name": "_amount",
					"type": "uint256"
				}
			],
			"name": "requestToken",
			"outputs": [],
			"stateMutability": "nonpayable",
			"type": "function"
		},
		{
			"inputs": [
				{
					"internalType": "uint256",
					"name": "_tokenID",
					"type": "uint256"
				},
				{
					"internalType": "address",
					"name": "_payeeAddr",
					"type": "address"
				},
				{
					"internalType": "bool",
					"name": "_status",
					"type": "bool"
				}
			],
			"name": "sendConfirmationMessageByAcquirerrBank",
			"outputs": [],
			"stateMutability": "nonpayable",
			"type": "function"
		},
		{
			"inputs": [
				{
					"internalType": "uint256",
					"name": "_tokenID",
					"type": "uint256"
				},
				{
					"internalType": "address",
					"name": "_payerAddr",
					"type": "address"
				},
				{
					"internalType": "bool",
					"name": "_status",
					"type": "bool"
				}
			],
			"name": "sendConfirmationMessageByIssuerBank",
			"outputs": [],
			"stateMutability": "nonpayable",
			"type": "function"
		},
		{
			"inputs": [],
			"name": "timeLimit",
			"outputs": [
				{
					"internalType": "uint256",
					"name": "",
					"type": "uint256"
				}
			],
			"stateMutability": "view",
			"type": "function"
		},
		{
			"inputs": [
				{
					"internalType": "uint256",
					"name": "",
					"type": "uint256"
				}
			],
			"name": "token",
			"outputs": [
				{
					"internalType": "uint256",
					"name": "tokenID",
					"type": "uint256"
				},
				{
					"internalType": "address",
					"name": "payer",
					"type": "address"
				},
				{
					"internalType": "address",
					"name": "payee",
					"type": "address"
				},
				{
					"internalType": "uint256",
					"name": "issuer_bankID",
					"type": "uint256"
				},
				{
					"internalType": "uint256",
					"name": "timestamp_issuance_token",
					"type": "uint256"
				},
				{
					"internalType": "uint256",
					"name": "timestamp_debit_token_amount_from_payer",
					"type": "uint256"
				},
				{
					"internalType": "uint256",
					"name": "acquirer_bankID",
					"type": "uint256"
				},
				{
					"internalType": "uint256",
					"name": "timestamp_credit_token_amount_to_payee",
					"type": "uint256"
				},
				{
					"internalType": "uint256",
					"name": "timestamp_ask_to_refund_token_amount_to_payer",
					"type": "uint256"
				},
				{
					"internalType": "bool",
					"name": "refund_token_amount_to_payer",
					"type": "bool"
				},
				{
					"internalType": "uint256",
					"name": "timestamp_refund_token_amount_to_payer",
					"type": "uint256"
				}
			],
			"stateMutability": "view",
			"type": "function"
		},
		{
			"inputs": [
				{
					"internalType": "uint256",
					"name": "",
					"type": "uint256"
				}
			],
			"name": "tokenApplAborted",
			"outputs": [
				{
					"internalType": "bool",
					"name": "",
					"type": "bool"
				}
			],
			"stateMutability": "view",
			"type": "function"
		},
		{
			"inputs": [],
			"name": "tokenApplIDGenerator",
			"outputs": [
				{
					"internalType": "uint256",
					"name": "",
					"type": "uint256"
				}
			],
			"stateMutability": "view",
			"type": "function"
		},
		{
			"inputs": [
				{
					"internalType": "uint256",
					"name": "",
					"type": "uint256"
				}
			],
			"name": "tokenApplUnderProcess",
			"outputs": [
				{
					"internalType": "bool",
					"name": "",
					"type": "bool"
				}
			],
			"stateMutability": "view",
			"type": "function"
		},
		{
			"inputs": [
				{
					"internalType": "uint256",
					"name": "",
					"type": "uint256"
				}
			],
			"name": "tokenExecutionForPayee",
			"outputs": [
				{
					"internalType": "uint256",
					"name": "tokenID",
					"type": "uint256"
				},
				{
					"internalType": "uint256",
					"name": "timestamp_lock_security_money_by_payee",
					"type": "uint256"
				},
				{
					"internalType": "uint256",
					"name": "timestamp_lock_security_money_by_acquirer_bank",
					"type": "uint256"
				},
				{
					"internalType": "uint256",
					"name": "timestamp_execute_token_by_payee",
					"type": "uint256"
				},
				{
					"internalType": "uint256",
					"name": "timestamp_credit_token_amount",
					"type": "uint256"
				},
				{
					"internalType": "bool",
					"name": "transaction_credit_status",
					"type": "bool"
				},
				{
					"internalType": "uint256",
					"name": "security_money_received_by_payee",
					"type": "uint256"
				},
				{
					"internalType": "uint256",
					"name": "timestamp_get_security_money_by_payee",
					"type": "uint256"
				},
				{
					"internalType": "uint256",
					"name": "security_money_received_by_acquirer_bank",
					"type": "uint256"
				},
				{
					"internalType": "uint256",
					"name": "timestamp_get_security_money_by_acquirer_bank",
					"type": "uint256"
				}
			],
			"stateMutability": "view",
			"type": "function"
		},
		{
			"inputs": [
				{
					"internalType": "uint256",
					"name": "",
					"type": "uint256"
				}
			],
			"name": "tokenExecutionForPayeeUnderProcess",
			"outputs": [
				{
					"internalType": "bool",
					"name": "",
					"type": "bool"
				}
			],
			"stateMutability": "view",
			"type": "function"
		},
		{
			"inputs": [
				{
					"internalType": "uint256",
					"name": "",
					"type": "uint256"
				}
			],
			"name": "tokenExecutionForPayer",
			"outputs": [
				{
					"internalType": "uint256",
					"name": "tokenID",
					"type": "uint256"
				},
				{
					"internalType": "uint256",
					"name": "timestamp_lock_security_money_by_payer",
					"type": "uint256"
				},
				{
					"internalType": "uint256",
					"name": "timestamp_lock_security_money_by_issuer_bank",
					"type": "uint256"
				},
				{
					"internalType": "uint256",
					"name": "timestamp_execute_token_by_payer",
					"type": "uint256"
				},
				{
					"internalType": "uint256",
					"name": "timestamp_debit_token_amount",
					"type": "uint256"
				},
				{
					"internalType": "bool",
					"name": "transaction_debit_status",
					"type": "bool"
				},
				{
					"internalType": "uint256",
					"name": "security_money_received_by_payer",
					"type": "uint256"
				},
				{
					"internalType": "uint256",
					"name": "timestamp_get_security_money_by_payer",
					"type": "uint256"
				},
				{
					"internalType": "uint256",
					"name": "security_money_received_by_issuer_bank",
					"type": "uint256"
				},
				{
					"internalType": "uint256",
					"name": "timestamp_get_security_money_by_issuer_bank",
					"type": "uint256"
				}
			],
			"stateMutability": "view",
			"type": "function"
		},
		{
			"inputs": [
				{
					"internalType": "uint256",
					"name": "",
					"type": "uint256"
				}
			],
			"name": "tokenExecutionForPayerUnderProcess",
			"outputs": [
				{
					"internalType": "bool",
					"name": "",
					"type": "bool"
				}
			],
			"stateMutability": "view",
			"type": "function"
		},
		{
			"inputs": [],
			"name": "tokenIDGenerator",
			"outputs": [
				{
					"internalType": "uint256",
					"name": "",
					"type": "uint256"
				}
			],
			"stateMutability": "view",
			"type": "function"
		},
		{
			"inputs": [
				{
					"internalType": "uint256",
					"name": "",
					"type": "uint256"
				}
			],
			"name": "tokenIssuanceAppl",
			"outputs": [
				{
					"internalType": "uint256",
					"name": "tokenApplID",
					"type": "uint256"
				},
				{
					"internalType": "address",
					"name": "payer",
					"type": "address"
				},
				{
					"internalType": "uint256",
					"name": "issuer_bankID",
					"type": "uint256"
				},
				{
					"internalType": "uint256",
					"name": "timestamp_lock_security_money_by_payer",
					"type": "uint256"
				},
				{
					"internalType": "uint256",
					"name": "timestamp_lock_security_money_by_issuer_bank",
					"type": "uint256"
				},
				{
					"internalType": "bytes32",
					"name": "card_commitment",
					"type": "bytes32"
				},
				{
					"internalType": "uint256",
					"name": "timestamp_card_commitment",
					"type": "uint256"
				},
				{
					"internalType": "bool",
					"name": "response1",
					"type": "bool"
				},
				{
					"internalType": "uint256",
					"name": "timestamp_response1",
					"type": "uint256"
				},
				{
					"internalType": "bool",
					"name": "response2",
					"type": "bool"
				},
				{
					"internalType": "uint256",
					"name": "timestamp_response2",
					"type": "uint256"
				},
				{
					"internalType": "bool",
					"name": "response3",
					"type": "bool"
				},
				{
					"internalType": "uint256",
					"name": "timestamp_response3",
					"type": "uint256"
				},
				{
					"internalType": "address",
					"name": "payee",
					"type": "address"
				},
				{
					"internalType": "uint256",
					"name": "token_amount",
					"type": "uint256"
				},
				{
					"internalType": "uint256",
					"name": "timestamp_requesting_token",
					"type": "uint256"
				},
				{
					"internalType": "bool",
					"name": "response4",
					"type": "bool"
				},
				{
					"internalType": "uint256",
					"name": "timestamp_response4",
					"type": "uint256"
				},
				{
					"internalType": "uint256",
					"name": "security_money_received_by_payer",
					"type": "uint256"
				},
				{
					"internalType": "uint256",
					"name": "timestamp_get_security_money_by_payer",
					"type": "uint256"
				},
				{
					"internalType": "uint256",
					"name": "security_money_received_by_issuer_bank",
					"type": "uint256"
				},
				{
					"internalType": "uint256",
					"name": "timestamp_get_security_money_by_issuer_bank",
					"type": "uint256"
				}
			],
			"stateMutability": "view",
			"type": "function"
		}
	]
}